{
	"BlockJobs/BlockJobsCoin.sol": {
		"BlockJobsCoin": {
			"abi": [
				{
					"inputs": [
						{
							"internalType": "string",
							"name": "_name",
							"type": "string"
						},
						{
							"internalType": "string",
							"name": "_symbol",
							"type": "string"
						},
						{
							"internalType": "uint256",
							"name": "_initSupply",
							"type": "uint256"
						}
					],
					"stateMutability": "nonpayable",
					"type": "constructor"
				},
				{
					"anonymous": false,
					"inputs": [
						{
							"indexed": true,
							"internalType": "address",
							"name": "owner",
							"type": "address"
						},
						{
							"indexed": true,
							"internalType": "address",
							"name": "spender",
							"type": "address"
						},
						{
							"indexed": false,
							"internalType": "uint256",
							"name": "value",
							"type": "uint256"
						}
					],
					"name": "Approval",
					"type": "event"
				},
				{
					"anonymous": false,
					"inputs": [
						{
							"indexed": false,
							"internalType": "uint256",
							"name": "amount",
							"type": "uint256"
						}
					],
					"name": "Bought",
					"type": "event"
				},
				{
					"anonymous": false,
					"inputs": [
						{
							"indexed": false,
							"internalType": "uint256",
							"name": "amount",
							"type": "uint256"
						}
					],
					"name": "Sold",
					"type": "event"
				},
				{
					"anonymous": false,
					"inputs": [
						{
							"indexed": true,
							"internalType": "address",
							"name": "from",
							"type": "address"
						},
						{
							"indexed": true,
							"internalType": "address",
							"name": "to",
							"type": "address"
						},
						{
							"indexed": false,
							"internalType": "uint256",
							"name": "value",
							"type": "uint256"
						}
					],
					"name": "Transfer",
					"type": "event"
				},
				{
					"inputs": [
						{
							"internalType": "address",
							"name": "_owner",
							"type": "address"
						},
						{
							"internalType": "address",
							"name": "spender",
							"type": "address"
						},
						{
							"internalType": "uint256",
							"name": "amount",
							"type": "uint256"
						}
					],
					"name": "CoinApprove",
					"outputs": [
						{
							"internalType": "bool",
							"name": "",
							"type": "bool"
						}
					],
					"stateMutability": "nonpayable",
					"type": "function"
				},
				{
					"inputs": [],
					"name": "GetEther",
					"outputs": [
						{
							"internalType": "uint256",
							"name": "",
							"type": "uint256"
						}
					],
					"stateMutability": "view",
					"type": "function"
				},
				{
					"inputs": [],
					"name": "_adminAddress",
					"outputs": [
						{
							"internalType": "address",
							"name": "",
							"type": "address"
						}
					],
					"stateMutability": "view",
					"type": "function"
				},
				{
					"inputs": [
						{
							"internalType": "address",
							"name": "owner",
							"type": "address"
						},
						{
							"internalType": "address",
							"name": "spender",
							"type": "address"
						}
					],
					"name": "allowance",
					"outputs": [
						{
							"internalType": "uint256",
							"name": "",
							"type": "uint256"
						}
					],
					"stateMutability": "view",
					"type": "function"
				},
				{
					"inputs": [
						{
							"internalType": "address",
							"name": "spender",
							"type": "address"
						},
						{
							"internalType": "uint256",
							"name": "amount",
							"type": "uint256"
						}
					],
					"name": "approve",
					"outputs": [
						{
							"internalType": "bool",
							"name": "",
							"type": "bool"
						}
					],
					"stateMutability": "nonpayable",
					"type": "function"
				},
				{
					"inputs": [
						{
							"internalType": "address",
							"name": "account",
							"type": "address"
						}
					],
					"name": "balanceOf",
					"outputs": [
						{
							"internalType": "uint256",
							"name": "",
							"type": "uint256"
						}
					],
					"stateMutability": "view",
					"type": "function"
				},
				{
					"inputs": [],
					"name": "decimals",
					"outputs": [
						{
							"internalType": "uint8",
							"name": "",
							"type": "uint8"
						}
					],
					"stateMutability": "view",
					"type": "function"
				},
				{
					"inputs": [
						{
							"internalType": "address",
							"name": "spender",
							"type": "address"
						},
						{
							"internalType": "uint256",
							"name": "subtractedValue",
							"type": "uint256"
						}
					],
					"name": "decreaseAllowance",
					"outputs": [
						{
							"internalType": "bool",
							"name": "",
							"type": "bool"
						}
					],
					"stateMutability": "nonpayable",
					"type": "function"
				},
				{
					"inputs": [],
					"name": "getbalancetest",
					"outputs": [
						{
							"internalType": "uint256",
							"name": "",
							"type": "uint256"
						}
					],
					"stateMutability": "view",
					"type": "function"
				},
				{
					"inputs": [
						{
							"internalType": "address",
							"name": "spender",
							"type": "address"
						},
						{
							"internalType": "uint256",
							"name": "addedValue",
							"type": "uint256"
						}
					],
					"name": "increaseAllowance",
					"outputs": [
						{
							"internalType": "bool",
							"name": "",
							"type": "bool"
						}
					],
					"stateMutability": "nonpayable",
					"type": "function"
				},
				{
					"inputs": [],
					"name": "invest",
					"outputs": [],
					"stateMutability": "payable",
					"type": "function"
				},
				{
					"inputs": [],
					"name": "name",
					"outputs": [
						{
							"internalType": "string",
							"name": "",
							"type": "string"
						}
					],
					"stateMutability": "view",
					"type": "function"
				},
				{
					"inputs": [],
					"name": "symbol",
					"outputs": [
						{
							"internalType": "string",
							"name": "",
							"type": "string"
						}
					],
					"stateMutability": "view",
					"type": "function"
				},
				{
					"inputs": [],
					"name": "totalSupply",
					"outputs": [
						{
							"internalType": "uint256",
							"name": "",
							"type": "uint256"
						}
					],
					"stateMutability": "view",
					"type": "function"
				},
				{
					"inputs": [
						{
							"internalType": "address",
							"name": "to",
							"type": "address"
						},
						{
							"internalType": "uint256",
							"name": "amount",
							"type": "uint256"
						}
					],
					"name": "transfer",
					"outputs": [
						{
							"internalType": "bool",
							"name": "",
							"type": "bool"
						}
					],
					"stateMutability": "nonpayable",
					"type": "function"
				},
				{
					"inputs": [
						{
							"internalType": "address",
							"name": "from",
							"type": "address"
						},
						{
							"internalType": "address",
							"name": "to",
							"type": "address"
						},
						{
							"internalType": "uint256",
							"name": "amount",
							"type": "uint256"
						}
					],
					"name": "transferFrom",
					"outputs": [
						{
							"internalType": "bool",
							"name": "",
							"type": "bool"
						}
					],
					"stateMutability": "nonpayable",
					"type": "function"
				}
			],
			"devdoc": {
				"kind": "dev",
				"methods": {
					"allowance(address,address)": {
						"details": "See {IERC20-allowance}."
					},
					"approve(address,uint256)": {
						"details": "See {IERC20-approve}. NOTE: If `amount` is the maximum `uint256`, the allowance is not updated on `transferFrom`. This is semantically equivalent to an infinite approval. Requirements: - `spender` cannot be the zero address."
					},
					"balanceOf(address)": {
						"details": "See {IERC20-balanceOf}."
					},
					"decimals()": {
						"details": "Returns the number of decimals used to get its user representation. For example, if `decimals` equals `2`, a balance of `505` tokens should be displayed to a user as `5.05` (`505 / 10 ** 2`). Tokens usually opt for a value of 18, imitating the relationship between Ether and Wei. This is the value {ERC20} uses, unless this function is overridden; NOTE: This information is only used for _display_ purposes: it in no way affects any of the arithmetic of the contract, including {IERC20-balanceOf} and {IERC20-transfer}."
					},
					"decreaseAllowance(address,uint256)": {
						"details": "Atomically decreases the allowance granted to `spender` by the caller. This is an alternative to {approve} that can be used as a mitigation for problems described in {IERC20-approve}. Emits an {Approval} event indicating the updated allowance. Requirements: - `spender` cannot be the zero address. - `spender` must have allowance for the caller of at least `subtractedValue`."
					},
					"increaseAllowance(address,uint256)": {
						"details": "Atomically increases the allowance granted to `spender` by the caller. This is an alternative to {approve} that can be used as a mitigation for problems described in {IERC20-approve}. Emits an {Approval} event indicating the updated allowance. Requirements: - `spender` cannot be the zero address."
					},
					"name()": {
						"details": "Returns the name of the token."
					},
					"symbol()": {
						"details": "Returns the symbol of the token, usually a shorter version of the name."
					},
					"totalSupply()": {
						"details": "See {IERC20-totalSupply}."
					},
					"transfer(address,uint256)": {
						"details": "See {IERC20-transfer}. Requirements: - `to` cannot be the zero address. - the caller must have a balance of at least `amount`."
					},
					"transferFrom(address,address,uint256)": {
						"details": "See {IERC20-transferFrom}. Emits an {Approval} event indicating the updated allowance. This is not required by the EIP. See the note at the beginning of {ERC20}. NOTE: Does not update the allowance if the current allowance is the maximum `uint256`. Requirements: - `from` and `to` cannot be the zero address. - `from` must have a balance of at least `amount`. - the caller must have allowance for ``from``'s tokens of at least `amount`."
					}
				},
				"version": 1
			},
			"evm": {
				"assembly": "    /* \"BlockJobs/BlockJobsCoin.sol\":123:995  contract BlockJobsCoin is ERC20 {\r... */\n  mstore(0x40, 0x80)\n    /* \"BlockJobs/BlockJobsCoin.sol\":325:544  constructor(string memory _name, string memory _symbol, uint _initSupply) ERC20(_name, _symbol){\r... */\n  callvalue\n  dup1\n  iszero\n  tag_1\n  jumpi\n  0x00\n  dup1\n  revert\ntag_1:\n  pop\n  mload(0x40)\n  sub(codesize, bytecodeSize)\n  dup1\n  bytecodeSize\n  dup4\n  codecopy\n  dup2\n  dup2\n  add\n  0x40\n  mstore\n  dup2\n  add\n  swap1\n  tag_2\n  swap2\n  swap1\n  tag_3\n  jump\t// in\ntag_2:\n    /* \"BlockJobs/BlockJobsCoin.sol\":405:410  _name */\n  dup3\n    /* \"BlockJobs/BlockJobsCoin.sol\":412:419  _symbol */\n  dup3\n    /* \"@openzeppelin/contracts/token/ERC20/ERC20.sol\":2052:2057  name_ */\n  dup2\n    /* \"@openzeppelin/contracts/token/ERC20/ERC20.sol\":2044:2049  _name */\n  0x03\n    /* \"@openzeppelin/contracts/token/ERC20/ERC20.sol\":2044:2057  _name = name_ */\n  swap1\n  dup1\n  mload\n  swap1\n  0x20\n  add\n  swap1\n  tag_7\n  swap3\n  swap2\n  swap1\n  tag_8\n  jump\t// in\ntag_7:\n  pop\n    /* \"@openzeppelin/contracts/token/ERC20/ERC20.sol\":2077:2084  symbol_ */\n  dup1\n    /* \"@openzeppelin/contracts/token/ERC20/ERC20.sol\":2067:2074  _symbol */\n  0x04\n    /* \"@openzeppelin/contracts/token/ERC20/ERC20.sol\":2067:2084  _symbol = symbol_ */\n  swap1\n  dup1\n  mload\n  swap1\n  0x20\n  add\n  swap1\n  tag_9\n  swap3\n  swap2\n  swap1\n  tag_8\n  jump\t// in\ntag_9:\n  pop\n    /* \"@openzeppelin/contracts/token/ERC20/ERC20.sol\":1978:2091  constructor(string memory name_, string memory symbol_) {... */\n  pop\n  pop\n    /* \"BlockJobs/BlockJobsCoin.sol\":447:457  msg.sender */\n  caller\n    /* \"BlockJobs/BlockJobsCoin.sol\":431:444  _adminAddress */\n  0x05\n  0x00\n    /* \"BlockJobs/BlockJobsCoin.sol\":431:457  _adminAddress = msg.sender */\n  0x0100\n  exp\n  dup2\n  sload\n  dup2\n  0xffffffffffffffffffffffffffffffffffffffff\n  mul\n  not\n  and\n  swap1\n  dup4\n  0xffffffffffffffffffffffffffffffffffffffff\n  and\n  mul\n  or\n  swap1\n  sstore\n  pop\n    /* \"BlockJobs/BlockJobsCoin.sol\":468:528  _mint(msg.sender, _initSupply * (10 ** uint256(decimals()))) */\n  tag_11\n    /* \"BlockJobs/BlockJobsCoin.sol\":474:484  msg.sender */\n  caller\n    /* \"BlockJobs/BlockJobsCoin.sol\":515:525  decimals() */\n  tag_12\n    /* \"BlockJobs/BlockJobsCoin.sol\":515:523  decimals */\n  shl(0x20, tag_13)\n    /* \"BlockJobs/BlockJobsCoin.sol\":515:525  decimals() */\n  0x20\n  shr\n  jump\t// in\ntag_12:\n    /* \"BlockJobs/BlockJobsCoin.sol\":507:526  uint256(decimals()) */\n  0xff\n  and\n    /* \"BlockJobs/BlockJobsCoin.sol\":501:503  10 */\n  0x0a\n    /* \"BlockJobs/BlockJobsCoin.sol\":501:526  10 ** uint256(decimals()) */\n  tag_14\n  swap2\n  swap1\n  tag_15\n  jump\t// in\ntag_14:\n    /* \"BlockJobs/BlockJobsCoin.sol\":486:497  _initSupply */\n  dup4\n    /* \"BlockJobs/BlockJobsCoin.sol\":486:527  _initSupply * (10 ** uint256(decimals())) */\n  tag_16\n  swap2\n  swap1\n  tag_17\n  jump\t// in\ntag_16:\n    /* \"BlockJobs/BlockJobsCoin.sol\":468:473  _mint */\n  shl(0x20, tag_18)\n    /* \"BlockJobs/BlockJobsCoin.sol\":468:528  _mint(msg.sender, _initSupply * (10 ** uint256(decimals()))) */\n  0x20\n  shr\n  jump\t// in\ntag_11:\n    /* \"BlockJobs/BlockJobsCoin.sol\":325:544  constructor(string memory _name, string memory _symbol, uint _initSupply) ERC20(_name, _symbol){\r... */\n  pop\n  pop\n  pop\n    /* \"BlockJobs/BlockJobsCoin.sol\":123:995  contract BlockJobsCoin is ERC20 {\r... */\n  jump(tag_19)\n    /* \"@openzeppelin/contracts/token/ERC20/ERC20.sol\":3093:3184  function decimals() public view virtual override returns (uint8) {... */\ntag_13:\n    /* \"@openzeppelin/contracts/token/ERC20/ERC20.sol\":3151:3156  uint8 */\n  0x00\n    /* \"@openzeppelin/contracts/token/ERC20/ERC20.sol\":3175:3177  18 */\n  0x12\n    /* \"@openzeppelin/contracts/token/ERC20/ERC20.sol\":3168:3177  return 18 */\n  swap1\n  pop\n    /* \"@openzeppelin/contracts/token/ERC20/ERC20.sol\":3093:3184  function decimals() public view virtual override returns (uint8) {... */\n  swap1\n  jump\t// out\n    /* \"@openzeppelin/contracts/token/ERC20/ERC20.sol\":8411:8800  function _mint(address account, uint256 amount) internal virtual {... */\ntag_18:\n    /* \"@openzeppelin/contracts/token/ERC20/ERC20.sol\":8513:8514  0 */\n  0x00\n    /* \"@openzeppelin/contracts/token/ERC20/ERC20.sol\":8494:8515  account != address(0) */\n  0xffffffffffffffffffffffffffffffffffffffff\n  and\n    /* \"@openzeppelin/contracts/token/ERC20/ERC20.sol\":8494:8501  account */\n  dup3\n    /* \"@openzeppelin/contracts/token/ERC20/ERC20.sol\":8494:8515  account != address(0) */\n  0xffffffffffffffffffffffffffffffffffffffff\n  and\n  eq\n  iszero\n    /* \"@openzeppelin/contracts/token/ERC20/ERC20.sol\":8486:8551  require(account != address(0), \"ERC20: mint to the zero address\") */\n  tag_22\n  jumpi\n  mload(0x40)\n  0x08c379a000000000000000000000000000000000000000000000000000000000\n  dup2\n  mstore\n  0x04\n  add\n  tag_23\n  swap1\n  tag_24\n  jump\t// in\ntag_23:\n  mload(0x40)\n  dup1\n  swap2\n  sub\n  swap1\n  revert\ntag_22:\n    /* \"@openzeppelin/contracts/token/ERC20/ERC20.sol\":8562:8611  _beforeTokenTransfer(address(0), account, amount) */\n  tag_25\n    /* \"@openzeppelin/contracts/token/ERC20/ERC20.sol\":8591:8592  0 */\n  0x00\n    /* \"@openzeppelin/contracts/token/ERC20/ERC20.sol\":8595:8602  account */\n  dup4\n    /* \"@openzeppelin/contracts/token/ERC20/ERC20.sol\":8604:8610  amount */\n  dup4\n    /* \"@openzeppelin/contracts/token/ERC20/ERC20.sol\":8562:8582  _beforeTokenTransfer */\n  shl(0x20, tag_26)\n    /* \"@openzeppelin/contracts/token/ERC20/ERC20.sol\":8562:8611  _beforeTokenTransfer(address(0), account, amount) */\n  0x20\n  shr\n  jump\t// in\ntag_25:\n    /* \"@openzeppelin/contracts/token/ERC20/ERC20.sol\":8638:8644  amount */\n  dup1\n    /* \"@openzeppelin/contracts/token/ERC20/ERC20.sol\":8622:8634  _totalSupply */\n  0x02\n  0x00\n    /* \"@openzeppelin/contracts/token/ERC20/ERC20.sol\":8622:8644  _totalSupply += amount */\n  dup3\n  dup3\n  sload\n  tag_27\n  swap2\n  swap1\n  tag_28\n  jump\t// in\ntag_27:\n  swap3\n  pop\n  pop\n  dup2\n  swap1\n  sstore\n  pop\n    /* \"@openzeppelin/contracts/token/ERC20/ERC20.sol\":8676:8682  amount */\n  dup1\n    /* \"@openzeppelin/contracts/token/ERC20/ERC20.sol\":8654:8663  _balances */\n  0x00\n    /* \"@openzeppelin/contracts/token/ERC20/ERC20.sol\":8654:8672  _balances[account] */\n  dup1\n    /* \"@openzeppelin/contracts/token/ERC20/ERC20.sol\":8664:8671  account */\n  dup5\n    /* \"@openzeppelin/contracts/token/ERC20/ERC20.sol\":8654:8672  _balances[account] */\n  0xffffffffffffffffffffffffffffffffffffffff\n  and\n  0xffffffffffffffffffffffffffffffffffffffff\n  and\n  dup2\n  mstore\n  0x20\n  add\n  swap1\n  dup2\n  mstore\n  0x20\n  add\n  0x00\n  keccak256\n  0x00\n    /* \"@openzeppelin/contracts/token/ERC20/ERC20.sol\":8654:8682  _balances[account] += amount */\n  dup3\n  dup3\n  sload\n  tag_29\n  swap2\n  swap1\n  tag_28\n  jump\t// in\ntag_29:\n  swap3\n  pop\n  pop\n  dup2\n  swap1\n  sstore\n  pop\n    /* \"@openzeppelin/contracts/token/ERC20/ERC20.sol\":8718:8725  account */\n  dup2\n    /* \"@openzeppelin/contracts/token/ERC20/ERC20.sol\":8697:8734  Transfer(address(0), account, amount) */\n  0xffffffffffffffffffffffffffffffffffffffff\n  and\n    /* \"@openzeppelin/contracts/token/ERC20/ERC20.sol\":8714:8715  0 */\n  0x00\n    /* \"@openzeppelin/contracts/token/ERC20/ERC20.sol\":8697:8734  Transfer(address(0), account, amount) */\n  0xffffffffffffffffffffffffffffffffffffffff\n  and\n  0xddf252ad1be2c89b69c2b068fc378daa952ba7f163c4a11628f55a4df523b3ef\n    /* \"@openzeppelin/contracts/token/ERC20/ERC20.sol\":8727:8733  amount */\n  dup4\n    /* \"@openzeppelin/contracts/token/ERC20/ERC20.sol\":8697:8734  Transfer(address(0), account, amount) */\n  mload(0x40)\n  tag_30\n  swap2\n  swap1\n  tag_31\n  jump\t// in\ntag_30:\n  mload(0x40)\n  dup1\n  swap2\n  sub\n  swap1\n  log3\n    /* \"@openzeppelin/contracts/token/ERC20/ERC20.sol\":8745:8793  _afterTokenTransfer(address(0), account, amount) */\n  tag_32\n    /* \"@openzeppelin/contracts/token/ERC20/ERC20.sol\":8773:8774  0 */\n  0x00\n    /* \"@openzeppelin/contracts/token/ERC20/ERC20.sol\":8777:8784  account */\n  dup4\n    /* \"@openzeppelin/contracts/token/ERC20/ERC20.sol\":8786:8792  amount */\n  dup4\n    /* \"@openzeppelin/contracts/token/ERC20/ERC20.sol\":8745:8764  _afterTokenTransfer */\n  shl(0x20, tag_33)\n    /* \"@openzeppelin/contracts/token/ERC20/ERC20.sol\":8745:8793  _afterTokenTransfer(address(0), account, amount) */\n  0x20\n  shr\n  jump\t// in\ntag_32:\n    /* \"@openzeppelin/contracts/token/ERC20/ERC20.sol\":8411:8800  function _mint(address account, uint256 amount) internal virtual {... */\n  pop\n  pop\n  jump\t// out\n    /* \"@openzeppelin/contracts/token/ERC20/ERC20.sol\":11795:11916  function _beforeTokenTransfer(... */\ntag_26:\n  pop\n  pop\n  pop\n  jump\t// out\n    /* \"@openzeppelin/contracts/token/ERC20/ERC20.sol\":12504:12624  function _afterTokenTransfer(... */\ntag_33:\n  pop\n  pop\n  pop\n  jump\t// out\n    /* \"BlockJobs/BlockJobsCoin.sol\":123:995  contract BlockJobsCoin is ERC20 {\r... */\ntag_8:\n  dup3\n  dup1\n  sload\n  tag_36\n  swap1\n  tag_37\n  jump\t// in\ntag_36:\n  swap1\n  0x00\n  mstore\n  keccak256(0x00, 0x20)\n  swap1\n  0x1f\n  add\n  0x20\n  swap1\n  div\n  dup2\n  add\n  swap3\n  dup3\n  tag_39\n  jumpi\n  0x00\n  dup6\n  sstore\n  jump(tag_38)\ntag_39:\n  dup3\n  0x1f\n  lt\n  tag_40\n  jumpi\n  dup1\n  mload\n  not(0xff)\n  and\n  dup4\n  dup1\n  add\n  or\n  dup6\n  sstore\n  jump(tag_38)\ntag_40:\n  dup3\n  dup1\n  add\n  0x01\n  add\n  dup6\n  sstore\n  dup3\n  iszero\n  tag_38\n  jumpi\n  swap2\n  dup3\n  add\ntag_41:\n  dup3\n  dup2\n  gt\n  iszero\n  tag_42\n  jumpi\n  dup3\n  mload\n  dup3\n  sstore\n  swap2\n  0x20\n  add\n  swap2\n  swap1\n  0x01\n  add\n  swap1\n  jump(tag_41)\ntag_42:\ntag_38:\n  pop\n  swap1\n  pop\n  tag_43\n  swap2\n  swap1\n  tag_44\n  jump\t// in\ntag_43:\n  pop\n  swap1\n  jump\t// out\ntag_44:\ntag_45:\n  dup1\n  dup3\n  gt\n  iszero\n  tag_46\n  jumpi\n  0x00\n  dup2\n  0x00\n  swap1\n  sstore\n  pop\n  0x01\n  add\n  jump(tag_45)\ntag_46:\n  pop\n  swap1\n  jump\t// out\n    /* \"#utility.yul\":7:428   */\ntag_48:\n    /* \"#utility.yul\":96:101   */\n  0x00\n    /* \"#utility.yul\":121:187   */\n  tag_50\n    /* \"#utility.yul\":137:186   */\n  tag_51\n    /* \"#utility.yul\":179:185   */\n  dup5\n    /* \"#utility.yul\":137:186   */\n  tag_52\n  jump\t// in\ntag_51:\n    /* \"#utility.yul\":121:187   */\n  tag_53\n  jump\t// in\ntag_50:\n    /* \"#utility.yul\":112:187   */\n  swap1\n  pop\n    /* \"#utility.yul\":210:216   */\n  dup3\n    /* \"#utility.yul\":203:208   */\n  dup2\n    /* \"#utility.yul\":196:217   */\n  mstore\n    /* \"#utility.yul\":248:252   */\n  0x20\n    /* \"#utility.yul\":241:246   */\n  dup2\n    /* \"#utility.yul\":237:253   */\n  add\n    /* \"#utility.yul\":286:289   */\n  dup5\n    /* \"#utility.yul\":277:283   */\n  dup5\n    /* \"#utility.yul\":272:275   */\n  dup5\n    /* \"#utility.yul\":268:284   */\n  add\n    /* \"#utility.yul\":265:290   */\n  gt\n    /* \"#utility.yul\":262:374   */\n  iszero\n  tag_54\n  jumpi\n    /* \"#utility.yul\":293:372   */\n  tag_55\n  tag_56\n  jump\t// in\ntag_55:\n    /* \"#utility.yul\":262:374   */\ntag_54:\n    /* \"#utility.yul\":383:422   */\n  tag_57\n    /* \"#utility.yul\":415:421   */\n  dup5\n    /* \"#utility.yul\":410:413   */\n  dup3\n    /* \"#utility.yul\":405:408   */\n  dup6\n    /* \"#utility.yul\":383:422   */\n  tag_58\n  jump\t// in\ntag_57:\n    /* \"#utility.yul\":102:428   */\n  pop\n    /* \"#utility.yul\":7:428   */\n  swap4\n  swap3\n  pop\n  pop\n  pop\n  jump\t// out\n    /* \"#utility.yul\":448:803   */\ntag_59:\n    /* \"#utility.yul\":515:520   */\n  0x00\n    /* \"#utility.yul\":564:567   */\n  dup3\n    /* \"#utility.yul\":557:561   */\n  0x1f\n    /* \"#utility.yul\":549:555   */\n  dup4\n    /* \"#utility.yul\":545:562   */\n  add\n    /* \"#utility.yul\":541:568   */\n  slt\n    /* \"#utility.yul\":531:653   */\n  tag_61\n  jumpi\n    /* \"#utility.yul\":572:651   */\n  tag_62\n  tag_63\n  jump\t// in\ntag_62:\n    /* \"#utility.yul\":531:653   */\ntag_61:\n    /* \"#utility.yul\":682:688   */\n  dup2\n    /* \"#utility.yul\":676:689   */\n  mload\n    /* \"#utility.yul\":707:797   */\n  tag_64\n    /* \"#utility.yul\":793:796   */\n  dup5\n    /* \"#utility.yul\":785:791   */\n  dup3\n    /* \"#utility.yul\":778:782   */\n  0x20\n    /* \"#utility.yul\":770:776   */\n  dup7\n    /* \"#utility.yul\":766:783   */\n  add\n    /* \"#utility.yul\":707:797   */\n  tag_48\n  jump\t// in\ntag_64:\n    /* \"#utility.yul\":698:797   */\n  swap2\n  pop\n    /* \"#utility.yul\":521:803   */\n  pop\n    /* \"#utility.yul\":448:803   */\n  swap3\n  swap2\n  pop\n  pop\n  jump\t// out\n    /* \"#utility.yul\":809:952   */\ntag_65:\n    /* \"#utility.yul\":866:871   */\n  0x00\n    /* \"#utility.yul\":897:903   */\n  dup2\n    /* \"#utility.yul\":891:904   */\n  mload\n    /* \"#utility.yul\":882:904   */\n  swap1\n  pop\n    /* \"#utility.yul\":913:946   */\n  tag_67\n    /* \"#utility.yul\":940:945   */\n  dup2\n    /* \"#utility.yul\":913:946   */\n  tag_68\n  jump\t// in\ntag_67:\n    /* \"#utility.yul\":809:952   */\n  swap3\n  swap2\n  pop\n  pop\n  jump\t// out\n    /* \"#utility.yul\":958:1967   */\ntag_3:\n    /* \"#utility.yul\":1066:1072   */\n  0x00\n    /* \"#utility.yul\":1074:1080   */\n  dup1\n    /* \"#utility.yul\":1082:1088   */\n  0x00\n    /* \"#utility.yul\":1131:1133   */\n  0x60\n    /* \"#utility.yul\":1119:1128   */\n  dup5\n    /* \"#utility.yul\":1110:1117   */\n  dup7\n    /* \"#utility.yul\":1106:1129   */\n  sub\n    /* \"#utility.yul\":1102:1134   */\n  slt\n    /* \"#utility.yul\":1099:1218   */\n  iszero\n  tag_70\n  jumpi\n    /* \"#utility.yul\":1137:1216   */\n  tag_71\n  tag_72\n  jump\t// in\ntag_71:\n    /* \"#utility.yul\":1099:1218   */\ntag_70:\n    /* \"#utility.yul\":1278:1279   */\n  0x00\n    /* \"#utility.yul\":1267:1276   */\n  dup5\n    /* \"#utility.yul\":1263:1280   */\n  add\n    /* \"#utility.yul\":1257:1281   */\n  mload\n    /* \"#utility.yul\":1308:1326   */\n  0xffffffffffffffff\n    /* \"#utility.yul\":1300:1306   */\n  dup2\n    /* \"#utility.yul\":1297:1327   */\n  gt\n    /* \"#utility.yul\":1294:1411   */\n  iszero\n  tag_73\n  jumpi\n    /* \"#utility.yul\":1330:1409   */\n  tag_74\n  tag_75\n  jump\t// in\ntag_74:\n    /* \"#utility.yul\":1294:1411   */\ntag_73:\n    /* \"#utility.yul\":1435:1509   */\n  tag_76\n    /* \"#utility.yul\":1501:1508   */\n  dup7\n    /* \"#utility.yul\":1492:1498   */\n  dup3\n    /* \"#utility.yul\":1481:1490   */\n  dup8\n    /* \"#utility.yul\":1477:1499   */\n  add\n    /* \"#utility.yul\":1435:1509   */\n  tag_59\n  jump\t// in\ntag_76:\n    /* \"#utility.yul\":1425:1509   */\n  swap4\n  pop\n    /* \"#utility.yul\":1228:1519   */\n  pop\n    /* \"#utility.yul\":1579:1581   */\n  0x20\n    /* \"#utility.yul\":1568:1577   */\n  dup5\n    /* \"#utility.yul\":1564:1582   */\n  add\n    /* \"#utility.yul\":1558:1583   */\n  mload\n    /* \"#utility.yul\":1610:1628   */\n  0xffffffffffffffff\n    /* \"#utility.yul\":1602:1608   */\n  dup2\n    /* \"#utility.yul\":1599:1629   */\n  gt\n    /* \"#utility.yul\":1596:1713   */\n  iszero\n  tag_77\n  jumpi\n    /* \"#utility.yul\":1632:1711   */\n  tag_78\n  tag_75\n  jump\t// in\ntag_78:\n    /* \"#utility.yul\":1596:1713   */\ntag_77:\n    /* \"#utility.yul\":1737:1811   */\n  tag_79\n    /* \"#utility.yul\":1803:1810   */\n  dup7\n    /* \"#utility.yul\":1794:1800   */\n  dup3\n    /* \"#utility.yul\":1783:1792   */\n  dup8\n    /* \"#utility.yul\":1779:1801   */\n  add\n    /* \"#utility.yul\":1737:1811   */\n  tag_59\n  jump\t// in\ntag_79:\n    /* \"#utility.yul\":1727:1811   */\n  swap3\n  pop\n    /* \"#utility.yul\":1529:1821   */\n  pop\n    /* \"#utility.yul\":1860:1862   */\n  0x40\n    /* \"#utility.yul\":1886:1950   */\n  tag_80\n    /* \"#utility.yul\":1942:1949   */\n  dup7\n    /* \"#utility.yul\":1933:1939   */\n  dup3\n    /* \"#utility.yul\":1922:1931   */\n  dup8\n    /* \"#utility.yul\":1918:1940   */\n  add\n    /* \"#utility.yul\":1886:1950   */\n  tag_65\n  jump\t// in\ntag_80:\n    /* \"#utility.yul\":1876:1950   */\n  swap2\n  pop\n    /* \"#utility.yul\":1831:1960   */\n  pop\n    /* \"#utility.yul\":958:1967   */\n  swap3\n  pop\n  swap3\n  pop\n  swap3\n  jump\t// out\n    /* \"#utility.yul\":1973:2339   */\ntag_81:\n    /* \"#utility.yul\":2115:2118   */\n  0x00\n    /* \"#utility.yul\":2136:2203   */\n  tag_83\n    /* \"#utility.yul\":2200:2202   */\n  0x1f\n    /* \"#utility.yul\":2195:2198   */\n  dup4\n    /* \"#utility.yul\":2136:2203   */\n  tag_84\n  jump\t// in\ntag_83:\n    /* \"#utility.yul\":2129:2203   */\n  swap2\n  pop\n    /* \"#utility.yul\":2212:2305   */\n  tag_85\n    /* \"#utility.yul\":2301:2304   */\n  dup3\n    /* \"#utility.yul\":2212:2305   */\n  tag_86\n  jump\t// in\ntag_85:\n    /* \"#utility.yul\":2330:2332   */\n  0x20\n    /* \"#utility.yul\":2325:2328   */\n  dup3\n    /* \"#utility.yul\":2321:2333   */\n  add\n    /* \"#utility.yul\":2314:2333   */\n  swap1\n  pop\n    /* \"#utility.yul\":1973:2339   */\n  swap2\n  swap1\n  pop\n  jump\t// out\n    /* \"#utility.yul\":2345:2463   */\ntag_87:\n    /* \"#utility.yul\":2432:2456   */\n  tag_89\n    /* \"#utility.yul\":2450:2455   */\n  dup2\n    /* \"#utility.yul\":2432:2456   */\n  tag_90\n  jump\t// in\ntag_89:\n    /* \"#utility.yul\":2427:2430   */\n  dup3\n    /* \"#utility.yul\":2420:2457   */\n  mstore\n    /* \"#utility.yul\":2345:2463   */\n  pop\n  pop\n  jump\t// out\n    /* \"#utility.yul\":2469:2888   */\ntag_24:\n    /* \"#utility.yul\":2635:2639   */\n  0x00\n    /* \"#utility.yul\":2673:2675   */\n  0x20\n    /* \"#utility.yul\":2662:2671   */\n  dup3\n    /* \"#utility.yul\":2658:2676   */\n  add\n    /* \"#utility.yul\":2650:2676   */\n  swap1\n  pop\n    /* \"#utility.yul\":2722:2731   */\n  dup2\n    /* \"#utility.yul\":2716:2720   */\n  dup2\n    /* \"#utility.yul\":2712:2732   */\n  sub\n    /* \"#utility.yul\":2708:2709   */\n  0x00\n    /* \"#utility.yul\":2697:2706   */\n  dup4\n    /* \"#utility.yul\":2693:2710   */\n  add\n    /* \"#utility.yul\":2686:2733   */\n  mstore\n    /* \"#utility.yul\":2750:2881   */\n  tag_92\n    /* \"#utility.yul\":2876:2880   */\n  dup2\n    /* \"#utility.yul\":2750:2881   */\n  tag_81\n  jump\t// in\ntag_92:\n    /* \"#utility.yul\":2742:2881   */\n  swap1\n  pop\n    /* \"#utility.yul\":2469:2888   */\n  swap2\n  swap1\n  pop\n  jump\t// out\n    /* \"#utility.yul\":2894:3116   */\ntag_31:\n    /* \"#utility.yul\":2987:2991   */\n  0x00\n    /* \"#utility.yul\":3025:3027   */\n  0x20\n    /* \"#utility.yul\":3014:3023   */\n  dup3\n    /* \"#utility.yul\":3010:3028   */\n  add\n    /* \"#utility.yul\":3002:3028   */\n  swap1\n  pop\n    /* \"#utility.yul\":3038:3109   */\n  tag_94\n    /* \"#utility.yul\":3106:3107   */\n  0x00\n    /* \"#utility.yul\":3095:3104   */\n  dup4\n    /* \"#utility.yul\":3091:3108   */\n  add\n    /* \"#utility.yul\":3082:3088   */\n  dup5\n    /* \"#utility.yul\":3038:3109   */\n  tag_87\n  jump\t// in\ntag_94:\n    /* \"#utility.yul\":2894:3116   */\n  swap3\n  swap2\n  pop\n  pop\n  jump\t// out\n    /* \"#utility.yul\":3122:3251   */\ntag_53:\n    /* \"#utility.yul\":3156:3162   */\n  0x00\n    /* \"#utility.yul\":3183:3203   */\n  tag_96\n  tag_97\n  jump\t// in\ntag_96:\n    /* \"#utility.yul\":3173:3203   */\n  swap1\n  pop\n    /* \"#utility.yul\":3212:3245   */\n  tag_98\n    /* \"#utility.yul\":3240:3244   */\n  dup3\n    /* \"#utility.yul\":3232:3238   */\n  dup3\n    /* \"#utility.yul\":3212:3245   */\n  tag_99\n  jump\t// in\ntag_98:\n    /* \"#utility.yul\":3122:3251   */\n  swap2\n  swap1\n  pop\n  jump\t// out\n    /* \"#utility.yul\":3257:3332   */\ntag_97:\n    /* \"#utility.yul\":3290:3296   */\n  0x00\n    /* \"#utility.yul\":3323:3325   */\n  0x40\n    /* \"#utility.yul\":3317:3326   */\n  mload\n    /* \"#utility.yul\":3307:3326   */\n  swap1\n  pop\n    /* \"#utility.yul\":3257:3332   */\n  swap1\n  jump\t// out\n    /* \"#utility.yul\":3338:3646   */\ntag_52:\n    /* \"#utility.yul\":3400:3404   */\n  0x00\n    /* \"#utility.yul\":3490:3508   */\n  0xffffffffffffffff\n    /* \"#utility.yul\":3482:3488   */\n  dup3\n    /* \"#utility.yul\":3479:3509   */\n  gt\n    /* \"#utility.yul\":3476:3532   */\n  iszero\n  tag_102\n  jumpi\n    /* \"#utility.yul\":3512:3530   */\n  tag_103\n  tag_104\n  jump\t// in\ntag_103:\n    /* \"#utility.yul\":3476:3532   */\ntag_102:\n    /* \"#utility.yul\":3550:3579   */\n  tag_105\n    /* \"#utility.yul\":3572:3578   */\n  dup3\n    /* \"#utility.yul\":3550:3579   */\n  tag_106\n  jump\t// in\ntag_105:\n    /* \"#utility.yul\":3542:3579   */\n  swap1\n  pop\n    /* \"#utility.yul\":3634:3638   */\n  0x20\n    /* \"#utility.yul\":3628:3632   */\n  dup2\n    /* \"#utility.yul\":3624:3639   */\n  add\n    /* \"#utility.yul\":3616:3639   */\n  swap1\n  pop\n    /* \"#utility.yul\":3338:3646   */\n  swap2\n  swap1\n  pop\n  jump\t// out\n    /* \"#utility.yul\":3652:3821   */\ntag_84:\n    /* \"#utility.yul\":3736:3747   */\n  0x00\n    /* \"#utility.yul\":3770:3776   */\n  dup3\n    /* \"#utility.yul\":3765:3768   */\n  dup3\n    /* \"#utility.yul\":3758:3777   */\n  mstore\n    /* \"#utility.yul\":3810:3814   */\n  0x20\n    /* \"#utility.yul\":3805:3808   */\n  dup3\n    /* \"#utility.yul\":3801:3815   */\n  add\n    /* \"#utility.yul\":3786:3815   */\n  swap1\n  pop\n    /* \"#utility.yul\":3652:3821   */\n  swap3\n  swap2\n  pop\n  pop\n  jump\t// out\n    /* \"#utility.yul\":3827:4132   */\ntag_28:\n    /* \"#utility.yul\":3867:3870   */\n  0x00\n    /* \"#utility.yul\":3886:3906   */\n  tag_109\n    /* \"#utility.yul\":3904:3905   */\n  dup3\n    /* \"#utility.yul\":3886:3906   */\n  tag_90\n  jump\t// in\ntag_109:\n    /* \"#utility.yul\":3881:3906   */\n  swap2\n  pop\n    /* \"#utility.yul\":3920:3940   */\n  tag_110\n    /* \"#utility.yul\":3938:3939   */\n  dup4\n    /* \"#utility.yul\":3920:3940   */\n  tag_90\n  jump\t// in\ntag_110:\n    /* \"#utility.yul\":3915:3940   */\n  swap3\n  pop\n    /* \"#utility.yul\":4074:4075   */\n  dup3\n    /* \"#utility.yul\":4006:4072   */\n  0xffffffffffffffffffffffffffffffffffffffffffffffffffffffffffffffff\n    /* \"#utility.yul\":4002:4076   */\n  sub\n    /* \"#utility.yul\":3999:4000   */\n  dup3\n    /* \"#utility.yul\":3996:4077   */\n  gt\n    /* \"#utility.yul\":3993:4100   */\n  iszero\n  tag_111\n  jumpi\n    /* \"#utility.yul\":4080:4098   */\n  tag_112\n  tag_113\n  jump\t// in\ntag_112:\n    /* \"#utility.yul\":3993:4100   */\ntag_111:\n    /* \"#utility.yul\":4124:4125   */\n  dup3\n    /* \"#utility.yul\":4121:4122   */\n  dup3\n    /* \"#utility.yul\":4117:4126   */\n  add\n    /* \"#utility.yul\":4110:4126   */\n  swap1\n  pop\n    /* \"#utility.yul\":3827:4132   */\n  swap3\n  swap2\n  pop\n  pop\n  jump\t// out\n    /* \"#utility.yul\":4138:4986   */\ntag_114:\n    /* \"#utility.yul\":4199:4204   */\n  0x00\n    /* \"#utility.yul\":4206:4210   */\n  dup1\n    /* \"#utility.yul\":4230:4236   */\n  dup3\n    /* \"#utility.yul\":4221:4236   */\n  swap2\n  pop\n    /* \"#utility.yul\":4254:4259   */\n  dup4\n    /* \"#utility.yul\":4245:4259   */\n  swap1\n  pop\n    /* \"#utility.yul\":4268:4980   */\ntag_116:\n    /* \"#utility.yul\":4289:4290   */\n  0x01\n    /* \"#utility.yul\":4279:4287   */\n  dup6\n    /* \"#utility.yul\":4276:4291   */\n  gt\n    /* \"#utility.yul\":4268:4980   */\n  iszero\n  tag_118\n  jumpi\n    /* \"#utility.yul\":4384:4388   */\n  dup1\n    /* \"#utility.yul\":4379:4382   */\n  dup7\n    /* \"#utility.yul\":4375:4389   */\n  div\n    /* \"#utility.yul\":4369:4373   */\n  dup2\n    /* \"#utility.yul\":4366:4390   */\n  gt\n    /* \"#utility.yul\":4363:4413   */\n  iszero\n  tag_119\n  jumpi\n    /* \"#utility.yul\":4393:4411   */\n  tag_120\n  tag_113\n  jump\t// in\ntag_120:\n    /* \"#utility.yul\":4363:4413   */\ntag_119:\n    /* \"#utility.yul\":4443:4444   */\n  0x01\n    /* \"#utility.yul\":4433:4441   */\n  dup6\n    /* \"#utility.yul\":4429:4445   */\n  and\n    /* \"#utility.yul\":4426:4877   */\n  iszero\n  tag_121\n  jumpi\n    /* \"#utility.yul\":4858:4862   */\n  dup1\n    /* \"#utility.yul\":4851:4856   */\n  dup3\n    /* \"#utility.yul\":4847:4863   */\n  mul\n    /* \"#utility.yul\":4838:4863   */\n  swap2\n  pop\n    /* \"#utility.yul\":4426:4877   */\ntag_121:\n    /* \"#utility.yul\":4908:4912   */\n  dup1\n    /* \"#utility.yul\":4902:4906   */\n  dup2\n    /* \"#utility.yul\":4898:4913   */\n  mul\n    /* \"#utility.yul\":4890:4913   */\n  swap1\n  pop\n    /* \"#utility.yul\":4938:4970   */\n  tag_122\n    /* \"#utility.yul\":4961:4969   */\n  dup6\n    /* \"#utility.yul\":4938:4970   */\n  tag_123\n  jump\t// in\ntag_122:\n    /* \"#utility.yul\":4926:4970   */\n  swap5\n  pop\n    /* \"#utility.yul\":4268:4980   */\n  jump(tag_116)\ntag_118:\n    /* \"#utility.yul\":4138:4986   */\n  swap5\n  pop\n  swap5\n  swap3\n  pop\n  pop\n  pop\n  jump\t// out\n    /* \"#utility.yul\":4992:5277   */\ntag_15:\n    /* \"#utility.yul\":5052:5057   */\n  0x00\n    /* \"#utility.yul\":5076:5099   */\n  tag_125\n    /* \"#utility.yul\":5094:5098   */\n  dup3\n    /* \"#utility.yul\":5076:5099   */\n  tag_90\n  jump\t// in\ntag_125:\n    /* \"#utility.yul\":5068:5099   */\n  swap2\n  pop\n    /* \"#utility.yul\":5120:5147   */\n  tag_126\n    /* \"#utility.yul\":5138:5146   */\n  dup4\n    /* \"#utility.yul\":5120:5147   */\n  tag_90\n  jump\t// in\ntag_126:\n    /* \"#utility.yul\":5108:5147   */\n  swap3\n  pop\n    /* \"#utility.yul\":5166:5270   */\n  tag_127\n    /* \"#utility.yul\":5203:5269   */\n  0xffffffffffffffffffffffffffffffffffffffffffffffffffffffffffffffff\n    /* \"#utility.yul\":5193:5201   */\n  dup5\n    /* \"#utility.yul\":5187:5191   */\n  dup5\n    /* \"#utility.yul\":5166:5270   */\n  tag_128\n  jump\t// in\ntag_127:\n    /* \"#utility.yul\":5157:5270   */\n  swap1\n  pop\n    /* \"#utility.yul\":4992:5277   */\n  swap3\n  swap2\n  pop\n  pop\n  jump\t// out\n    /* \"#utility.yul\":5283:6356   */\ntag_128:\n    /* \"#utility.yul\":5337:5342   */\n  0x00\n    /* \"#utility.yul\":5528:5536   */\n  dup3\n    /* \"#utility.yul\":5518:5558   */\n  tag_130\n  jumpi\n    /* \"#utility.yul\":5549:5550   */\n  0x01\n    /* \"#utility.yul\":5540:5550   */\n  swap1\n  pop\n    /* \"#utility.yul\":5551:5556   */\n  jump(tag_129)\n    /* \"#utility.yul\":5518:5558   */\ntag_130:\n    /* \"#utility.yul\":5577:5581   */\n  dup2\n    /* \"#utility.yul\":5567:5603   */\n  tag_131\n  jumpi\n    /* \"#utility.yul\":5594:5595   */\n  0x00\n    /* \"#utility.yul\":5585:5595   */\n  swap1\n  pop\n    /* \"#utility.yul\":5596:5601   */\n  jump(tag_129)\n    /* \"#utility.yul\":5567:5603   */\ntag_131:\n    /* \"#utility.yul\":5663:5667   */\n  dup2\n    /* \"#utility.yul\":5711:5712   */\n  0x01\n    /* \"#utility.yul\":5706:5733   */\n  dup2\n  eq\n  tag_133\n  jumpi\n    /* \"#utility.yul\":5747:5748   */\n  0x02\n    /* \"#utility.yul\":5742:5933   */\n  dup2\n  eq\n  tag_134\n  jumpi\n    /* \"#utility.yul\":5656:5933   */\n  jump(tag_132)\n    /* \"#utility.yul\":5706:5733   */\ntag_133:\n    /* \"#utility.yul\":5724:5725   */\n  0x01\n    /* \"#utility.yul\":5715:5725   */\n  swap2\n  pop\n    /* \"#utility.yul\":5726:5731   */\n  pop\n  jump(tag_129)\n    /* \"#utility.yul\":5742:5933   */\ntag_134:\n    /* \"#utility.yul\":5787:5790   */\n  0xff\n    /* \"#utility.yul\":5777:5785   */\n  dup5\n    /* \"#utility.yul\":5774:5791   */\n  gt\n    /* \"#utility.yul\":5771:5814   */\n  iszero\n  tag_135\n  jumpi\n    /* \"#utility.yul\":5794:5812   */\n  tag_136\n  tag_113\n  jump\t// in\ntag_136:\n    /* \"#utility.yul\":5771:5814   */\ntag_135:\n    /* \"#utility.yul\":5843:5851   */\n  dup4\n    /* \"#utility.yul\":5840:5841   */\n  0x02\n    /* \"#utility.yul\":5836:5852   */\n  exp\n    /* \"#utility.yul\":5827:5852   */\n  swap2\n  pop\n    /* \"#utility.yul\":5878:5881   */\n  dup5\n    /* \"#utility.yul\":5871:5876   */\n  dup3\n    /* \"#utility.yul\":5868:5882   */\n  gt\n    /* \"#utility.yul\":5865:5905   */\n  iszero\n  tag_137\n  jumpi\n    /* \"#utility.yul\":5885:5903   */\n  tag_138\n  tag_113\n  jump\t// in\ntag_138:\n    /* \"#utility.yul\":5865:5905   */\ntag_137:\n    /* \"#utility.yul\":5918:5923   */\n  pop\n  jump(tag_129)\n    /* \"#utility.yul\":5656:5933   */\ntag_132:\n  pop\n    /* \"#utility.yul\":6042:6044   */\n  0x20\n    /* \"#utility.yul\":6032:6040   */\n  dup4\n    /* \"#utility.yul\":6029:6045   */\n  lt\n    /* \"#utility.yul\":6023:6026   */\n  0x0133\n    /* \"#utility.yul\":6017:6021   */\n  dup4\n    /* \"#utility.yul\":6014:6027   */\n  lt\n    /* \"#utility.yul\":6010:6046   */\n  and\n    /* \"#utility.yul\":5992:5994   */\n  0x4e\n    /* \"#utility.yul\":5982:5990   */\n  dup5\n    /* \"#utility.yul\":5979:5995   */\n  lt\n    /* \"#utility.yul\":5974:5976   */\n  0x0b\n    /* \"#utility.yul\":5968:5972   */\n  dup5\n    /* \"#utility.yul\":5965:5977   */\n  lt\n    /* \"#utility.yul\":5961:5996   */\n  and\n    /* \"#utility.yul\":5945:6056   */\n  or\n    /* \"#utility.yul\":5942:6188   */\n  iszero\n  tag_139\n  jumpi\n    /* \"#utility.yul\":6098:6106   */\n  dup3\n    /* \"#utility.yul\":6092:6096   */\n  dup3\n    /* \"#utility.yul\":6088:6107   */\n  exp\n    /* \"#utility.yul\":6079:6107   */\n  swap1\n  pop\n    /* \"#utility.yul\":6133:6136   */\n  dup4\n    /* \"#utility.yul\":6126:6131   */\n  dup2\n    /* \"#utility.yul\":6123:6137   */\n  gt\n    /* \"#utility.yul\":6120:6160   */\n  iszero\n  tag_140\n  jumpi\n    /* \"#utility.yul\":6140:6158   */\n  tag_141\n  tag_113\n  jump\t// in\ntag_141:\n    /* \"#utility.yul\":6120:6160   */\ntag_140:\n    /* \"#utility.yul\":6173:6178   */\n  jump(tag_129)\n    /* \"#utility.yul\":5942:6188   */\ntag_139:\n    /* \"#utility.yul\":6213:6255   */\n  tag_142\n    /* \"#utility.yul\":6251:6254   */\n  dup5\n    /* \"#utility.yul\":6241:6249   */\n  dup5\n    /* \"#utility.yul\":6235:6239   */\n  dup5\n    /* \"#utility.yul\":6232:6233   */\n  0x01\n    /* \"#utility.yul\":6213:6255   */\n  tag_114\n  jump\t// in\ntag_142:\n    /* \"#utility.yul\":6198:6255   */\n  swap3\n  pop\n  swap1\n  pop\n    /* \"#utility.yul\":6287:6291   */\n  dup2\n    /* \"#utility.yul\":6282:6285   */\n  dup5\n    /* \"#utility.yul\":6278:6292   */\n  div\n    /* \"#utility.yul\":6271:6276   */\n  dup2\n    /* \"#utility.yul\":6268:6293   */\n  gt\n    /* \"#utility.yul\":6265:6316   */\n  iszero\n  tag_143\n  jumpi\n    /* \"#utility.yul\":6296:6314   */\n  tag_144\n  tag_113\n  jump\t// in\ntag_144:\n    /* \"#utility.yul\":6265:6316   */\ntag_143:\n    /* \"#utility.yul\":6345:6349   */\n  dup2\n    /* \"#utility.yul\":6338:6343   */\n  dup2\n    /* \"#utility.yul\":6334:6350   */\n  mul\n    /* \"#utility.yul\":6325:6350   */\n  swap1\n  pop\n    /* \"#utility.yul\":5283:6356   */\ntag_129:\n  swap4\n  swap3\n  pop\n  pop\n  pop\n  jump\t// out\n    /* \"#utility.yul\":6362:6710   */\ntag_17:\n    /* \"#utility.yul\":6402:6409   */\n  0x00\n    /* \"#utility.yul\":6425:6445   */\n  tag_146\n    /* \"#utility.yul\":6443:6444   */\n  dup3\n    /* \"#utility.yul\":6425:6445   */\n  tag_90\n  jump\t// in\ntag_146:\n    /* \"#utility.yul\":6420:6445   */\n  swap2\n  pop\n    /* \"#utility.yul\":6459:6479   */\n  tag_147\n    /* \"#utility.yul\":6477:6478   */\n  dup4\n    /* \"#utility.yul\":6459:6479   */\n  tag_90\n  jump\t// in\ntag_147:\n    /* \"#utility.yul\":6454:6479   */\n  swap3\n  pop\n    /* \"#utility.yul\":6647:6648   */\n  dup2\n    /* \"#utility.yul\":6579:6645   */\n  0xffffffffffffffffffffffffffffffffffffffffffffffffffffffffffffffff\n    /* \"#utility.yul\":6575:6649   */\n  div\n    /* \"#utility.yul\":6572:6573   */\n  dup4\n    /* \"#utility.yul\":6569:6650   */\n  gt\n    /* \"#utility.yul\":6564:6565   */\n  dup3\n    /* \"#utility.yul\":6557:6566   */\n  iszero\n    /* \"#utility.yul\":6550:6567   */\n  iszero\n    /* \"#utility.yul\":6546:6651   */\n  and\n    /* \"#utility.yul\":6543:6674   */\n  iszero\n  tag_148\n  jumpi\n    /* \"#utility.yul\":6654:6672   */\n  tag_149\n  tag_113\n  jump\t// in\ntag_149:\n    /* \"#utility.yul\":6543:6674   */\ntag_148:\n    /* \"#utility.yul\":6702:6703   */\n  dup3\n    /* \"#utility.yul\":6699:6700   */\n  dup3\n    /* \"#utility.yul\":6695:6704   */\n  mul\n    /* \"#utility.yul\":6684:6704   */\n  swap1\n  pop\n    /* \"#utility.yul\":6362:6710   */\n  swap3\n  swap2\n  pop\n  pop\n  jump\t// out\n    /* \"#utility.yul\":6716:6793   */\ntag_90:\n    /* \"#utility.yul\":6753:6760   */\n  0x00\n    /* \"#utility.yul\":6782:6787   */\n  dup2\n    /* \"#utility.yul\":6771:6787   */\n  swap1\n  pop\n    /* \"#utility.yul\":6716:6793   */\n  swap2\n  swap1\n  pop\n  jump\t// out\n    /* \"#utility.yul\":6799:7106   */\ntag_58:\n    /* \"#utility.yul\":6867:6868   */\n  0x00\n    /* \"#utility.yul\":6877:6990   */\ntag_152:\n    /* \"#utility.yul\":6891:6897   */\n  dup4\n    /* \"#utility.yul\":6888:6889   */\n  dup2\n    /* \"#utility.yul\":6885:6898   */\n  lt\n    /* \"#utility.yul\":6877:6990   */\n  iszero\n  tag_154\n  jumpi\n    /* \"#utility.yul\":6976:6977   */\n  dup1\n    /* \"#utility.yul\":6971:6974   */\n  dup3\n    /* \"#utility.yul\":6967:6978   */\n  add\n    /* \"#utility.yul\":6961:6979   */\n  mload\n    /* \"#utility.yul\":6957:6958   */\n  dup2\n    /* \"#utility.yul\":6952:6955   */\n  dup5\n    /* \"#utility.yul\":6948:6959   */\n  add\n    /* \"#utility.yul\":6941:6980   */\n  mstore\n    /* \"#utility.yul\":6913:6915   */\n  0x20\n    /* \"#utility.yul\":6910:6911   */\n  dup2\n    /* \"#utility.yul\":6906:6916   */\n  add\n    /* \"#utility.yul\":6901:6916   */\n  swap1\n  pop\n    /* \"#utility.yul\":6877:6990   */\n  jump(tag_152)\ntag_154:\n    /* \"#utility.yul\":7008:7014   */\n  dup4\n    /* \"#utility.yul\":7005:7006   */\n  dup2\n    /* \"#utility.yul\":7002:7015   */\n  gt\n    /* \"#utility.yul\":6999:7100   */\n  iszero\n  tag_155\n  jumpi\n    /* \"#utility.yul\":7088:7089   */\n  0x00\n    /* \"#utility.yul\":7079:7085   */\n  dup5\n    /* \"#utility.yul\":7074:7077   */\n  dup5\n    /* \"#utility.yul\":7070:7086   */\n  add\n    /* \"#utility.yul\":7063:7090   */\n  mstore\n    /* \"#utility.yul\":6999:7100   */\ntag_155:\n    /* \"#utility.yul\":6848:7106   */\n  pop\n    /* \"#utility.yul\":6799:7106   */\n  pop\n  pop\n  pop\n  jump\t// out\n    /* \"#utility.yul\":7112:7432   */\ntag_37:\n    /* \"#utility.yul\":7156:7162   */\n  0x00\n    /* \"#utility.yul\":7193:7194   */\n  0x02\n    /* \"#utility.yul\":7187:7191   */\n  dup3\n    /* \"#utility.yul\":7183:7195   */\n  div\n    /* \"#utility.yul\":7173:7195   */\n  swap1\n  pop\n    /* \"#utility.yul\":7240:7241   */\n  0x01\n    /* \"#utility.yul\":7234:7238   */\n  dup3\n    /* \"#utility.yul\":7230:7242   */\n  and\n    /* \"#utility.yul\":7261:7279   */\n  dup1\n    /* \"#utility.yul\":7251:7332   */\n  tag_157\n  jumpi\n    /* \"#utility.yul\":7317:7321   */\n  0x7f\n    /* \"#utility.yul\":7309:7315   */\n  dup3\n    /* \"#utility.yul\":7305:7322   */\n  and\n    /* \"#utility.yul\":7295:7322   */\n  swap2\n  pop\n    /* \"#utility.yul\":7251:7332   */\ntag_157:\n    /* \"#utility.yul\":7379:7381   */\n  0x20\n    /* \"#utility.yul\":7371:7377   */\n  dup3\n    /* \"#utility.yul\":7368:7382   */\n  lt\n    /* \"#utility.yul\":7348:7366   */\n  dup2\n    /* \"#utility.yul\":7345:7383   */\n  eq\n    /* \"#utility.yul\":7342:7426   */\n  iszero\n  tag_158\n  jumpi\n    /* \"#utility.yul\":7398:7416   */\n  tag_159\n  tag_160\n  jump\t// in\ntag_159:\n    /* \"#utility.yul\":7342:7426   */\ntag_158:\n    /* \"#utility.yul\":7163:7432   */\n  pop\n    /* \"#utility.yul\":7112:7432   */\n  swap2\n  swap1\n  pop\n  jump\t// out\n    /* \"#utility.yul\":7438:7719   */\ntag_99:\n    /* \"#utility.yul\":7521:7548   */\n  tag_162\n    /* \"#utility.yul\":7543:7547   */\n  dup3\n    /* \"#utility.yul\":7521:7548   */\n  tag_106\n  jump\t// in\ntag_162:\n    /* \"#utility.yul\":7513:7519   */\n  dup2\n    /* \"#utility.yul\":7509:7549   */\n  add\n    /* \"#utility.yul\":7651:7657   */\n  dup2\n    /* \"#utility.yul\":7639:7649   */\n  dup2\n    /* \"#utility.yul\":7636:7658   */\n  lt\n    /* \"#utility.yul\":7615:7633   */\n  0xffffffffffffffff\n    /* \"#utility.yul\":7603:7613   */\n  dup3\n    /* \"#utility.yul\":7600:7634   */\n  gt\n    /* \"#utility.yul\":7597:7659   */\n  or\n    /* \"#utility.yul\":7594:7682   */\n  iszero\n  tag_163\n  jumpi\n    /* \"#utility.yul\":7662:7680   */\n  tag_164\n  tag_104\n  jump\t// in\ntag_164:\n    /* \"#utility.yul\":7594:7682   */\ntag_163:\n    /* \"#utility.yul\":7702:7712   */\n  dup1\n    /* \"#utility.yul\":7698:7700   */\n  0x40\n    /* \"#utility.yul\":7691:7713   */\n  mstore\n    /* \"#utility.yul\":7481:7719   */\n  pop\n    /* \"#utility.yul\":7438:7719   */\n  pop\n  pop\n  jump\t// out\n    /* \"#utility.yul\":7725:7905   */\ntag_113:\n    /* \"#utility.yul\":7773:7850   */\n  0x4e487b7100000000000000000000000000000000000000000000000000000000\n    /* \"#utility.yul\":7770:7771   */\n  0x00\n    /* \"#utility.yul\":7763:7851   */\n  mstore\n    /* \"#utility.yul\":7870:7874   */\n  0x11\n    /* \"#utility.yul\":7867:7868   */\n  0x04\n    /* \"#utility.yul\":7860:7875   */\n  mstore\n    /* \"#utility.yul\":7894:7898   */\n  0x24\n    /* \"#utility.yul\":7891:7892   */\n  0x00\n    /* \"#utility.yul\":7884:7899   */\n  revert\n    /* \"#utility.yul\":7911:8091   */\ntag_160:\n    /* \"#utility.yul\":7959:8036   */\n  0x4e487b7100000000000000000000000000000000000000000000000000000000\n    /* \"#utility.yul\":7956:7957   */\n  0x00\n    /* \"#utility.yul\":7949:8037   */\n  mstore\n    /* \"#utility.yul\":8056:8060   */\n  0x22\n    /* \"#utility.yul\":8053:8054   */\n  0x04\n    /* \"#utility.yul\":8046:8061   */\n  mstore\n    /* \"#utility.yul\":8080:8084   */\n  0x24\n    /* \"#utility.yul\":8077:8078   */\n  0x00\n    /* \"#utility.yul\":8070:8085   */\n  revert\n    /* \"#utility.yul\":8097:8277   */\ntag_104:\n    /* \"#utility.yul\":8145:8222   */\n  0x4e487b7100000000000000000000000000000000000000000000000000000000\n    /* \"#utility.yul\":8142:8143   */\n  0x00\n    /* \"#utility.yul\":8135:8223   */\n  mstore\n    /* \"#utility.yul\":8242:8246   */\n  0x41\n    /* \"#utility.yul\":8239:8240   */\n  0x04\n    /* \"#utility.yul\":8232:8247   */\n  mstore\n    /* \"#utility.yul\":8266:8270   */\n  0x24\n    /* \"#utility.yul\":8263:8264   */\n  0x00\n    /* \"#utility.yul\":8256:8271   */\n  revert\n    /* \"#utility.yul\":8283:8400   */\ntag_63:\n    /* \"#utility.yul\":8392:8393   */\n  0x00\n    /* \"#utility.yul\":8389:8390   */\n  dup1\n    /* \"#utility.yul\":8382:8394   */\n  revert\n    /* \"#utility.yul\":8406:8523   */\ntag_56:\n    /* \"#utility.yul\":8515:8516   */\n  0x00\n    /* \"#utility.yul\":8512:8513   */\n  dup1\n    /* \"#utility.yul\":8505:8517   */\n  revert\n    /* \"#utility.yul\":8529:8646   */\ntag_75:\n    /* \"#utility.yul\":8638:8639   */\n  0x00\n    /* \"#utility.yul\":8635:8636   */\n  dup1\n    /* \"#utility.yul\":8628:8640   */\n  revert\n    /* \"#utility.yul\":8652:8769   */\ntag_72:\n    /* \"#utility.yul\":8761:8762   */\n  0x00\n    /* \"#utility.yul\":8758:8759   */\n  dup1\n    /* \"#utility.yul\":8751:8763   */\n  revert\n    /* \"#utility.yul\":8775:8877   */\ntag_106:\n    /* \"#utility.yul\":8816:8822   */\n  0x00\n    /* \"#utility.yul\":8867:8869   */\n  0x1f\n    /* \"#utility.yul\":8863:8870   */\n  not\n    /* \"#utility.yul\":8858:8860   */\n  0x1f\n    /* \"#utility.yul\":8851:8856   */\n  dup4\n    /* \"#utility.yul\":8847:8861   */\n  add\n    /* \"#utility.yul\":8843:8871   */\n  and\n    /* \"#utility.yul\":8833:8871   */\n  swap1\n  pop\n    /* \"#utility.yul\":8775:8877   */\n  swap2\n  swap1\n  pop\n  jump\t// out\n    /* \"#utility.yul\":8883:8985   */\ntag_123:\n    /* \"#utility.yul\":8925:8933   */\n  0x00\n    /* \"#utility.yul\":8972:8977   */\n  dup2\n    /* \"#utility.yul\":8969:8970   */\n  0x01\n    /* \"#utility.yul\":8965:8978   */\n  shr\n    /* \"#utility.yul\":8944:8978   */\n  swap1\n  pop\n    /* \"#utility.yul\":8883:8985   */\n  swap2\n  swap1\n  pop\n  jump\t// out\n    /* \"#utility.yul\":8991:9172   */\ntag_86:\n    /* \"#utility.yul\":9131:9164   */\n  0x45524332303a206d696e7420746f20746865207a65726f206164647265737300\n    /* \"#utility.yul\":9127:9128   */\n  0x00\n    /* \"#utility.yul\":9119:9125   */\n  dup3\n    /* \"#utility.yul\":9115:9129   */\n  add\n    /* \"#utility.yul\":9108:9165   */\n  mstore\n    /* \"#utility.yul\":8991:9172   */\n  pop\n  jump\t// out\n    /* \"#utility.yul\":9178:9300   */\ntag_68:\n    /* \"#utility.yul\":9251:9275   */\n  tag_176\n    /* \"#utility.yul\":9269:9274   */\n  dup2\n    /* \"#utility.yul\":9251:9275   */\n  tag_90\n  jump\t// in\ntag_176:\n    /* \"#utility.yul\":9244:9249   */\n  dup2\n    /* \"#utility.yul\":9241:9276   */\n  eq\n    /* \"#utility.yul\":9231:9294   */\n  tag_177\n  jumpi\n    /* \"#utility.yul\":9290:9291   */\n  0x00\n    /* \"#utility.yul\":9287:9288   */\n  dup1\n    /* \"#utility.yul\":9280:9292   */\n  revert\n    /* \"#utility.yul\":9231:9294   */\ntag_177:\n    /* \"#utility.yul\":9178:9300   */\n  pop\n  jump\t// out\n    /* \"BlockJobs/BlockJobsCoin.sol\":123:995  contract BlockJobsCoin is ERC20 {\r... */\ntag_19:\n  dataSize(sub_0)\n  dup1\n  dataOffset(sub_0)\n  0x00\n  codecopy\n  0x00\n  return\nstop\n\nsub_0: assembly {\n        /* \"BlockJobs/BlockJobsCoin.sol\":123:995  contract BlockJobsCoin is ERC20 {\r... */\n      mstore(0x40, 0x80)\n      jumpi(tag_1, lt(calldatasize, 0x04))\n      shr(0xe0, calldataload(0x00))\n      dup1\n      0x5c1cb691\n      gt\n      tag_18\n      jumpi\n      dup1\n      0xa457c2d7\n      gt\n      tag_19\n      jumpi\n      dup1\n      0xa457c2d7\n      eq\n      tag_14\n      jumpi\n      dup1\n      0xa9059cbb\n      eq\n      tag_15\n      jumpi\n      dup1\n      0xdd62ed3e\n      eq\n      tag_16\n      jumpi\n      dup1\n      0xe8b5e51f\n      eq\n      tag_17\n      jumpi\n      jump(tag_1)\n    tag_19:\n      dup1\n      0x5c1cb691\n      eq\n      tag_10\n      jumpi\n      dup1\n      0x6e78e23c\n      eq\n      tag_11\n      jumpi\n      dup1\n      0x70a08231\n      eq\n      tag_12\n      jumpi\n      dup1\n      0x95d89b41\n      eq\n      tag_13\n      jumpi\n      jump(tag_1)\n    tag_18:\n      dup1\n      0x313ce567\n      gt\n      tag_20\n      jumpi\n      dup1\n      0x313ce567\n      eq\n      tag_6\n      jumpi\n      dup1\n      0x320ce981\n      eq\n      tag_7\n      jumpi\n      dup1\n      0x39509351\n      eq\n      tag_8\n      jumpi\n      dup1\n      0x45b5a47a\n      eq\n      tag_9\n      jumpi\n      jump(tag_1)\n    tag_20:\n      dup1\n      0x06fdde03\n      eq\n      tag_2\n      jumpi\n      dup1\n      0x095ea7b3\n      eq\n      tag_3\n      jumpi\n      dup1\n      0x18160ddd\n      eq\n      tag_4\n      jumpi\n      dup1\n      0x23b872dd\n      eq\n      tag_5\n      jumpi\n    tag_1:\n      0x00\n      dup1\n      revert\n        /* \"@openzeppelin/contracts/token/ERC20/ERC20.sol\":2156:2254  function name() public view virtual override returns (string memory) {... */\n    tag_2:\n      callvalue\n      dup1\n      iszero\n      tag_21\n      jumpi\n      0x00\n      dup1\n      revert\n    tag_21:\n      pop\n      tag_22\n      tag_23\n      jump\t// in\n    tag_22:\n      mload(0x40)\n      tag_24\n      swap2\n      swap1\n      tag_25\n      jump\t// in\n    tag_24:\n      mload(0x40)\n      dup1\n      swap2\n      sub\n      swap1\n      return\n        /* \"@openzeppelin/contracts/token/ERC20/ERC20.sol\":4433:4630  function approve(address spender, uint256 amount) public virtual override returns (bool) {... */\n    tag_3:\n      callvalue\n      dup1\n      iszero\n      tag_26\n      jumpi\n      0x00\n      dup1\n      revert\n    tag_26:\n      pop\n      tag_27\n      0x04\n      dup1\n      calldatasize\n      sub\n      dup2\n      add\n      swap1\n      tag_28\n      swap2\n      swap1\n      tag_29\n      jump\t// in\n    tag_28:\n      tag_30\n      jump\t// in\n    tag_27:\n      mload(0x40)\n      tag_31\n      swap2\n      swap1\n      tag_32\n      jump\t// in\n    tag_31:\n      mload(0x40)\n      dup1\n      swap2\n      sub\n      swap1\n      return\n        /* \"@openzeppelin/contracts/token/ERC20/ERC20.sol\":3244:3350  function totalSupply() public view virtual override returns (uint256) {... */\n    tag_4:\n      callvalue\n      dup1\n      iszero\n      tag_33\n      jumpi\n      0x00\n      dup1\n      revert\n    tag_33:\n      pop\n      tag_34\n      tag_35\n      jump\t// in\n    tag_34:\n      mload(0x40)\n      tag_36\n      swap2\n      swap1\n      tag_37\n      jump\t// in\n    tag_36:\n      mload(0x40)\n      dup1\n      swap2\n      sub\n      swap1\n      return\n        /* \"@openzeppelin/contracts/token/ERC20/ERC20.sol\":5192:5478  function transferFrom(... */\n    tag_5:\n      callvalue\n      dup1\n      iszero\n      tag_38\n      jumpi\n      0x00\n      dup1\n      revert\n    tag_38:\n      pop\n      tag_39\n      0x04\n      dup1\n      calldatasize\n      sub\n      dup2\n      add\n      swap1\n      tag_40\n      swap2\n      swap1\n      tag_41\n      jump\t// in\n    tag_40:\n      tag_42\n      jump\t// in\n    tag_39:\n      mload(0x40)\n      tag_43\n      swap2\n      swap1\n      tag_32\n      jump\t// in\n    tag_43:\n      mload(0x40)\n      dup1\n      swap2\n      sub\n      swap1\n      return\n        /* \"@openzeppelin/contracts/token/ERC20/ERC20.sol\":3093:3184  function decimals() public view virtual override returns (uint8) {... */\n    tag_6:\n      callvalue\n      dup1\n      iszero\n      tag_44\n      jumpi\n      0x00\n      dup1\n      revert\n    tag_44:\n      pop\n      tag_45\n      tag_46\n      jump\t// in\n    tag_45:\n      mload(0x40)\n      tag_47\n      swap2\n      swap1\n      tag_48\n      jump\t// in\n    tag_47:\n      mload(0x40)\n      dup1\n      swap2\n      sub\n      swap1\n      return\n        /* \"BlockJobs/BlockJobsCoin.sol\":887:992  function getbalancetest() external view returns (uint) {\r... */\n    tag_7:\n      callvalue\n      dup1\n      iszero\n      tag_49\n      jumpi\n      0x00\n      dup1\n      revert\n    tag_49:\n      pop\n      tag_50\n      tag_51\n      jump\t// in\n    tag_50:\n      mload(0x40)\n      tag_52\n      swap2\n      swap1\n      tag_37\n      jump\t// in\n    tag_52:\n      mload(0x40)\n      dup1\n      swap2\n      sub\n      swap1\n      return\n        /* \"@openzeppelin/contracts/token/ERC20/ERC20.sol\":5873:6107  function increaseAllowance(address spender, uint256 addedValue) public virtual returns (bool) {... */\n    tag_8:\n      callvalue\n      dup1\n      iszero\n      tag_53\n      jumpi\n      0x00\n      dup1\n      revert\n    tag_53:\n      pop\n      tag_54\n      0x04\n      dup1\n      calldatasize\n      sub\n      dup2\n      add\n      swap1\n      tag_55\n      swap2\n      swap1\n      tag_29\n      jump\t// in\n    tag_55:\n      tag_56\n      jump\t// in\n    tag_54:\n      mload(0x40)\n      tag_57\n      swap2\n      swap1\n      tag_32\n      jump\t// in\n    tag_57:\n      mload(0x40)\n      dup1\n      swap2\n      sub\n      swap1\n      return\n        /* \"BlockJobs/BlockJobsCoin.sol\":783:879  function GetEther() external view returns (uint) {\r... */\n    tag_9:\n      callvalue\n      dup1\n      iszero\n      tag_58\n      jumpi\n      0x00\n      dup1\n      revert\n    tag_58:\n      pop\n      tag_59\n      tag_60\n      jump\t// in\n    tag_59:\n      mload(0x40)\n      tag_61\n      swap2\n      swap1\n      tag_37\n      jump\t// in\n    tag_61:\n      mload(0x40)\n      dup1\n      swap2\n      sub\n      swap1\n      return\n        /* \"BlockJobs/BlockJobsCoin.sol\":162:190  address public _adminAddress */\n    tag_10:\n      callvalue\n      dup1\n      iszero\n      tag_62\n      jumpi\n      0x00\n      dup1\n      revert\n    tag_62:\n      pop\n      tag_63\n      tag_64\n      jump\t// in\n    tag_63:\n      mload(0x40)\n      tag_65\n      swap2\n      swap1\n      tag_66\n      jump\t// in\n    tag_65:\n      mload(0x40)\n      dup1\n      swap2\n      sub\n      swap1\n      return\n        /* \"BlockJobs/BlockJobsCoin.sol\":554:722  function CoinApprove(address _owner, address spender, uint256 amount) external returns (bool) {\r... */\n    tag_11:\n      callvalue\n      dup1\n      iszero\n      tag_67\n      jumpi\n      0x00\n      dup1\n      revert\n    tag_67:\n      pop\n      tag_68\n      0x04\n      dup1\n      calldatasize\n      sub\n      dup2\n      add\n      swap1\n      tag_69\n      swap2\n      swap1\n      tag_41\n      jump\t// in\n    tag_69:\n      tag_70\n      jump\t// in\n    tag_68:\n      mload(0x40)\n      tag_71\n      swap2\n      swap1\n      tag_32\n      jump\t// in\n    tag_71:\n      mload(0x40)\n      dup1\n      swap2\n      sub\n      swap1\n      return\n        /* \"@openzeppelin/contracts/token/ERC20/ERC20.sol\":3408:3533  function balanceOf(address account) public view virtual override returns (uint256) {... */\n    tag_12:\n      callvalue\n      dup1\n      iszero\n      tag_72\n      jumpi\n      0x00\n      dup1\n      revert\n    tag_72:\n      pop\n      tag_73\n      0x04\n      dup1\n      calldatasize\n      sub\n      dup2\n      add\n      swap1\n      tag_74\n      swap2\n      swap1\n      tag_75\n      jump\t// in\n    tag_74:\n      tag_76\n      jump\t// in\n    tag_73:\n      mload(0x40)\n      tag_77\n      swap2\n      swap1\n      tag_37\n      jump\t// in\n    tag_77:\n      mload(0x40)\n      dup1\n      swap2\n      sub\n      swap1\n      return\n        /* \"@openzeppelin/contracts/token/ERC20/ERC20.sol\":2367:2469  function symbol() public view virtual override returns (string memory) {... */\n    tag_13:\n      callvalue\n      dup1\n      iszero\n      tag_78\n      jumpi\n      0x00\n      dup1\n      revert\n    tag_78:\n      pop\n      tag_79\n      tag_80\n      jump\t// in\n    tag_79:\n      mload(0x40)\n      tag_81\n      swap2\n      swap1\n      tag_25\n      jump\t// in\n    tag_81:\n      mload(0x40)\n      dup1\n      swap2\n      sub\n      swap1\n      return\n        /* \"@openzeppelin/contracts/token/ERC20/ERC20.sol\":6594:7021  function decreaseAllowance(address spender, uint256 subtractedValue) public virtual returns (bool) {... */\n    tag_14:\n      callvalue\n      dup1\n      iszero\n      tag_82\n      jumpi\n      0x00\n      dup1\n      revert\n    tag_82:\n      pop\n      tag_83\n      0x04\n      dup1\n      calldatasize\n      sub\n      dup2\n      add\n      swap1\n      tag_84\n      swap2\n      swap1\n      tag_29\n      jump\t// in\n    tag_84:\n      tag_85\n      jump\t// in\n    tag_83:\n      mload(0x40)\n      tag_86\n      swap2\n      swap1\n      tag_32\n      jump\t// in\n    tag_86:\n      mload(0x40)\n      dup1\n      swap2\n      sub\n      swap1\n      return\n        /* \"@openzeppelin/contracts/token/ERC20/ERC20.sol\":3729:3918  function transfer(address to, uint256 amount) public virtual override returns (bool) {... */\n    tag_15:\n      callvalue\n      dup1\n      iszero\n      tag_87\n      jumpi\n      0x00\n      dup1\n      revert\n    tag_87:\n      pop\n      tag_88\n      0x04\n      dup1\n      calldatasize\n      sub\n      dup2\n      add\n      swap1\n      tag_89\n      swap2\n      swap1\n      tag_29\n      jump\t// in\n    tag_89:\n      tag_90\n      jump\t// in\n    tag_88:\n      mload(0x40)\n      tag_91\n      swap2\n      swap1\n      tag_32\n      jump\t// in\n    tag_91:\n      mload(0x40)\n      dup1\n      swap2\n      sub\n      swap1\n      return\n        /* \"@openzeppelin/contracts/token/ERC20/ERC20.sol\":3976:4125  function allowance(address owner, address spender) public view virtual override returns (uint256) {... */\n    tag_16:\n      callvalue\n      dup1\n      iszero\n      tag_92\n      jumpi\n      0x00\n      dup1\n      revert\n    tag_92:\n      pop\n      tag_93\n      0x04\n      dup1\n      calldatasize\n      sub\n      dup2\n      add\n      swap1\n      tag_94\n      swap2\n      swap1\n      tag_95\n      jump\t// in\n    tag_94:\n      tag_96\n      jump\t// in\n    tag_93:\n      mload(0x40)\n      tag_97\n      swap2\n      swap1\n      tag_37\n      jump\t// in\n    tag_97:\n      mload(0x40)\n      dup1\n      swap2\n      sub\n      swap1\n      return\n        /* \"BlockJobs/BlockJobsCoin.sol\":730:775  function invest() external payable {\r... */\n    tag_17:\n      tag_98\n      tag_99\n      jump\t// in\n    tag_98:\n      stop\n        /* \"@openzeppelin/contracts/token/ERC20/ERC20.sol\":2156:2254  function name() public view virtual override returns (string memory) {... */\n    tag_23:\n        /* \"@openzeppelin/contracts/token/ERC20/ERC20.sol\":2210:2223  string memory */\n      0x60\n        /* \"@openzeppelin/contracts/token/ERC20/ERC20.sol\":2242:2247  _name */\n      0x03\n        /* \"@openzeppelin/contracts/token/ERC20/ERC20.sol\":2235:2247  return _name */\n      dup1\n      sload\n      tag_101\n      swap1\n      tag_102\n      jump\t// in\n    tag_101:\n      dup1\n      0x1f\n      add\n      0x20\n      dup1\n      swap2\n      div\n      mul\n      0x20\n      add\n      mload(0x40)\n      swap1\n      dup2\n      add\n      0x40\n      mstore\n      dup1\n      swap3\n      swap2\n      swap1\n      dup2\n      dup2\n      mstore\n      0x20\n      add\n      dup3\n      dup1\n      sload\n      tag_103\n      swap1\n      tag_102\n      jump\t// in\n    tag_103:\n      dup1\n      iszero\n      tag_104\n      jumpi\n      dup1\n      0x1f\n      lt\n      tag_105\n      jumpi\n      0x0100\n      dup1\n      dup4\n      sload\n      div\n      mul\n      dup4\n      mstore\n      swap2\n      0x20\n      add\n      swap2\n      jump(tag_104)\n    tag_105:\n      dup3\n      add\n      swap2\n      swap1\n      0x00\n      mstore\n      keccak256(0x00, 0x20)\n      swap1\n    tag_106:\n      dup2\n      sload\n      dup2\n      mstore\n      swap1\n      0x01\n      add\n      swap1\n      0x20\n      add\n      dup1\n      dup4\n      gt\n      tag_106\n      jumpi\n      dup3\n      swap1\n      sub\n      0x1f\n      and\n      dup3\n      add\n      swap2\n    tag_104:\n      pop\n      pop\n      pop\n      pop\n      pop\n      swap1\n      pop\n        /* \"@openzeppelin/contracts/token/ERC20/ERC20.sol\":2156:2254  function name() public view virtual override returns (string memory) {... */\n      swap1\n      jump\t// out\n        /* \"@openzeppelin/contracts/token/ERC20/ERC20.sol\":4433:4630  function approve(address spender, uint256 amount) public virtual override returns (bool) {... */\n    tag_30:\n        /* \"@openzeppelin/contracts/token/ERC20/ERC20.sol\":4516:4520  bool */\n      0x00\n        /* \"@openzeppelin/contracts/token/ERC20/ERC20.sol\":4532:4545  address owner */\n      dup1\n        /* \"@openzeppelin/contracts/token/ERC20/ERC20.sol\":4548:4560  _msgSender() */\n      tag_108\n        /* \"@openzeppelin/contracts/token/ERC20/ERC20.sol\":4548:4558  _msgSender */\n      tag_109\n        /* \"@openzeppelin/contracts/token/ERC20/ERC20.sol\":4548:4560  _msgSender() */\n      jump\t// in\n    tag_108:\n        /* \"@openzeppelin/contracts/token/ERC20/ERC20.sol\":4532:4560  address owner = _msgSender() */\n      swap1\n      pop\n        /* \"@openzeppelin/contracts/token/ERC20/ERC20.sol\":4570:4602  _approve(owner, spender, amount) */\n      tag_110\n        /* \"@openzeppelin/contracts/token/ERC20/ERC20.sol\":4579:4584  owner */\n      dup2\n        /* \"@openzeppelin/contracts/token/ERC20/ERC20.sol\":4586:4593  spender */\n      dup6\n        /* \"@openzeppelin/contracts/token/ERC20/ERC20.sol\":4595:4601  amount */\n      dup6\n        /* \"@openzeppelin/contracts/token/ERC20/ERC20.sol\":4570:4578  _approve */\n      tag_111\n        /* \"@openzeppelin/contracts/token/ERC20/ERC20.sol\":4570:4602  _approve(owner, spender, amount) */\n      jump\t// in\n    tag_110:\n        /* \"@openzeppelin/contracts/token/ERC20/ERC20.sol\":4619:4623  true */\n      0x01\n        /* \"@openzeppelin/contracts/token/ERC20/ERC20.sol\":4612:4623  return true */\n      swap2\n      pop\n      pop\n        /* \"@openzeppelin/contracts/token/ERC20/ERC20.sol\":4433:4630  function approve(address spender, uint256 amount) public virtual override returns (bool) {... */\n      swap3\n      swap2\n      pop\n      pop\n      jump\t// out\n        /* \"@openzeppelin/contracts/token/ERC20/ERC20.sol\":3244:3350  function totalSupply() public view virtual override returns (uint256) {... */\n    tag_35:\n        /* \"@openzeppelin/contracts/token/ERC20/ERC20.sol\":3305:3312  uint256 */\n      0x00\n        /* \"@openzeppelin/contracts/token/ERC20/ERC20.sol\":3331:3343  _totalSupply */\n      sload(0x02)\n        /* \"@openzeppelin/contracts/token/ERC20/ERC20.sol\":3324:3343  return _totalSupply */\n      swap1\n      pop\n        /* \"@openzeppelin/contracts/token/ERC20/ERC20.sol\":3244:3350  function totalSupply() public view virtual override returns (uint256) {... */\n      swap1\n      jump\t// out\n        /* \"@openzeppelin/contracts/token/ERC20/ERC20.sol\":5192:5478  function transferFrom(... */\n    tag_42:\n        /* \"@openzeppelin/contracts/token/ERC20/ERC20.sol\":5319:5323  bool */\n      0x00\n        /* \"@openzeppelin/contracts/token/ERC20/ERC20.sol\":5335:5350  address spender */\n      dup1\n        /* \"@openzeppelin/contracts/token/ERC20/ERC20.sol\":5353:5365  _msgSender() */\n      tag_114\n        /* \"@openzeppelin/contracts/token/ERC20/ERC20.sol\":5353:5363  _msgSender */\n      tag_109\n        /* \"@openzeppelin/contracts/token/ERC20/ERC20.sol\":5353:5365  _msgSender() */\n      jump\t// in\n    tag_114:\n        /* \"@openzeppelin/contracts/token/ERC20/ERC20.sol\":5335:5365  address spender = _msgSender() */\n      swap1\n      pop\n        /* \"@openzeppelin/contracts/token/ERC20/ERC20.sol\":5375:5413  _spendAllowance(from, spender, amount) */\n      tag_115\n        /* \"@openzeppelin/contracts/token/ERC20/ERC20.sol\":5391:5395  from */\n      dup6\n        /* \"@openzeppelin/contracts/token/ERC20/ERC20.sol\":5397:5404  spender */\n      dup3\n        /* \"@openzeppelin/contracts/token/ERC20/ERC20.sol\":5406:5412  amount */\n      dup6\n        /* \"@openzeppelin/contracts/token/ERC20/ERC20.sol\":5375:5390  _spendAllowance */\n      tag_116\n        /* \"@openzeppelin/contracts/token/ERC20/ERC20.sol\":5375:5413  _spendAllowance(from, spender, amount) */\n      jump\t// in\n    tag_115:\n        /* \"@openzeppelin/contracts/token/ERC20/ERC20.sol\":5423:5450  _transfer(from, to, amount) */\n      tag_117\n        /* \"@openzeppelin/contracts/token/ERC20/ERC20.sol\":5433:5437  from */\n      dup6\n        /* \"@openzeppelin/contracts/token/ERC20/ERC20.sol\":5439:5441  to */\n      dup6\n        /* \"@openzeppelin/contracts/token/ERC20/ERC20.sol\":5443:5449  amount */\n      dup6\n        /* \"@openzeppelin/contracts/token/ERC20/ERC20.sol\":5423:5432  _transfer */\n      tag_118\n        /* \"@openzeppelin/contracts/token/ERC20/ERC20.sol\":5423:5450  _transfer(from, to, amount) */\n      jump\t// in\n    tag_117:\n        /* \"@openzeppelin/contracts/token/ERC20/ERC20.sol\":5467:5471  true */\n      0x01\n        /* \"@openzeppelin/contracts/token/ERC20/ERC20.sol\":5460:5471  return true */\n      swap2\n      pop\n      pop\n        /* \"@openzeppelin/contracts/token/ERC20/ERC20.sol\":5192:5478  function transferFrom(... */\n      swap4\n      swap3\n      pop\n      pop\n      pop\n      jump\t// out\n        /* \"@openzeppelin/contracts/token/ERC20/ERC20.sol\":3093:3184  function decimals() public view virtual override returns (uint8) {... */\n    tag_46:\n        /* \"@openzeppelin/contracts/token/ERC20/ERC20.sol\":3151:3156  uint8 */\n      0x00\n        /* \"@openzeppelin/contracts/token/ERC20/ERC20.sol\":3175:3177  18 */\n      0x12\n        /* \"@openzeppelin/contracts/token/ERC20/ERC20.sol\":3168:3177  return 18 */\n      swap1\n      pop\n        /* \"@openzeppelin/contracts/token/ERC20/ERC20.sol\":3093:3184  function decimals() public view virtual override returns (uint8) {... */\n      swap1\n      jump\t// out\n        /* \"BlockJobs/BlockJobsCoin.sol\":887:992  function getbalancetest() external view returns (uint) {\r... */\n    tag_51:\n        /* \"BlockJobs/BlockJobsCoin.sol\":936:940  uint */\n      0x00\n        /* \"BlockJobs/BlockJobsCoin.sol\":960:984  balanceOf(_adminAddress) */\n      tag_121\n        /* \"BlockJobs/BlockJobsCoin.sol\":970:983  _adminAddress */\n      0x05\n      0x00\n      swap1\n      sload\n      swap1\n      0x0100\n      exp\n      swap1\n      div\n      0xffffffffffffffffffffffffffffffffffffffff\n      and\n        /* \"BlockJobs/BlockJobsCoin.sol\":960:969  balanceOf */\n      tag_76\n        /* \"BlockJobs/BlockJobsCoin.sol\":960:984  balanceOf(_adminAddress) */\n      jump\t// in\n    tag_121:\n        /* \"BlockJobs/BlockJobsCoin.sol\":953:984  return balanceOf(_adminAddress) */\n      swap1\n      pop\n        /* \"BlockJobs/BlockJobsCoin.sol\":887:992  function getbalancetest() external view returns (uint) {\r... */\n      swap1\n      jump\t// out\n        /* \"@openzeppelin/contracts/token/ERC20/ERC20.sol\":5873:6107  function increaseAllowance(address spender, uint256 addedValue) public virtual returns (bool) {... */\n    tag_56:\n        /* \"@openzeppelin/contracts/token/ERC20/ERC20.sol\":5961:5965  bool */\n      0x00\n        /* \"@openzeppelin/contracts/token/ERC20/ERC20.sol\":5977:5990  address owner */\n      dup1\n        /* \"@openzeppelin/contracts/token/ERC20/ERC20.sol\":5993:6005  _msgSender() */\n      tag_123\n        /* \"@openzeppelin/contracts/token/ERC20/ERC20.sol\":5993:6003  _msgSender */\n      tag_109\n        /* \"@openzeppelin/contracts/token/ERC20/ERC20.sol\":5993:6005  _msgSender() */\n      jump\t// in\n    tag_123:\n        /* \"@openzeppelin/contracts/token/ERC20/ERC20.sol\":5977:6005  address owner = _msgSender() */\n      swap1\n      pop\n        /* \"@openzeppelin/contracts/token/ERC20/ERC20.sol\":6015:6079  _approve(owner, spender, allowance(owner, spender) + addedValue) */\n      tag_124\n        /* \"@openzeppelin/contracts/token/ERC20/ERC20.sol\":6024:6029  owner */\n      dup2\n        /* \"@openzeppelin/contracts/token/ERC20/ERC20.sol\":6031:6038  spender */\n      dup6\n        /* \"@openzeppelin/contracts/token/ERC20/ERC20.sol\":6068:6078  addedValue */\n      dup6\n        /* \"@openzeppelin/contracts/token/ERC20/ERC20.sol\":6040:6065  allowance(owner, spender) */\n      tag_125\n        /* \"@openzeppelin/contracts/token/ERC20/ERC20.sol\":6050:6055  owner */\n      dup6\n        /* \"@openzeppelin/contracts/token/ERC20/ERC20.sol\":6057:6064  spender */\n      dup10\n        /* \"@openzeppelin/contracts/token/ERC20/ERC20.sol\":6040:6049  allowance */\n      tag_96\n        /* \"@openzeppelin/contracts/token/ERC20/ERC20.sol\":6040:6065  allowance(owner, spender) */\n      jump\t// in\n    tag_125:\n        /* \"@openzeppelin/contracts/token/ERC20/ERC20.sol\":6040:6078  allowance(owner, spender) + addedValue */\n      tag_126\n      swap2\n      swap1\n      tag_127\n      jump\t// in\n    tag_126:\n        /* \"@openzeppelin/contracts/token/ERC20/ERC20.sol\":6015:6023  _approve */\n      tag_111\n        /* \"@openzeppelin/contracts/token/ERC20/ERC20.sol\":6015:6079  _approve(owner, spender, allowance(owner, spender) + addedValue) */\n      jump\t// in\n    tag_124:\n        /* \"@openzeppelin/contracts/token/ERC20/ERC20.sol\":6096:6100  true */\n      0x01\n        /* \"@openzeppelin/contracts/token/ERC20/ERC20.sol\":6089:6100  return true */\n      swap2\n      pop\n      pop\n        /* \"@openzeppelin/contracts/token/ERC20/ERC20.sol\":5873:6107  function increaseAllowance(address spender, uint256 addedValue) public virtual returns (bool) {... */\n      swap3\n      swap2\n      pop\n      pop\n      jump\t// out\n        /* \"BlockJobs/BlockJobsCoin.sol\":783:879  function GetEther() external view returns (uint) {\r... */\n    tag_60:\n        /* \"BlockJobs/BlockJobsCoin.sol\":826:830  uint */\n      0x00\n        /* \"BlockJobs/BlockJobsCoin.sol\":850:871  address(this).balance */\n      selfbalance\n        /* \"BlockJobs/BlockJobsCoin.sol\":843:871  return address(this).balance */\n      swap1\n      pop\n        /* \"BlockJobs/BlockJobsCoin.sol\":783:879  function GetEther() external view returns (uint) {\r... */\n      swap1\n      jump\t// out\n        /* \"BlockJobs/BlockJobsCoin.sol\":162:190  address public _adminAddress */\n    tag_64:\n      0x05\n      0x00\n      swap1\n      sload\n      swap1\n      0x0100\n      exp\n      swap1\n      div\n      0xffffffffffffffffffffffffffffffffffffffff\n      and\n      dup2\n      jump\t// out\n        /* \"BlockJobs/BlockJobsCoin.sol\":554:722  function CoinApprove(address _owner, address spender, uint256 amount) external returns (bool) {\r... */\n    tag_70:\n        /* \"BlockJobs/BlockJobsCoin.sol\":642:646  bool */\n      0x00\n        /* \"BlockJobs/BlockJobsCoin.sol\":659:692  _approve(_owner, spender, amount) */\n      tag_130\n        /* \"BlockJobs/BlockJobsCoin.sol\":668:674  _owner */\n      dup5\n        /* \"BlockJobs/BlockJobsCoin.sol\":676:683  spender */\n      dup5\n        /* \"BlockJobs/BlockJobsCoin.sol\":685:691  amount */\n      dup5\n        /* \"BlockJobs/BlockJobsCoin.sol\":659:667  _approve */\n      tag_111\n        /* \"BlockJobs/BlockJobsCoin.sol\":659:692  _approve(_owner, spender, amount) */\n      jump\t// in\n    tag_130:\n        /* \"BlockJobs/BlockJobsCoin.sol\":710:714  true */\n      0x01\n        /* \"BlockJobs/BlockJobsCoin.sol\":703:714  return true */\n      swap1\n      pop\n        /* \"BlockJobs/BlockJobsCoin.sol\":554:722  function CoinApprove(address _owner, address spender, uint256 amount) external returns (bool) {\r... */\n      swap4\n      swap3\n      pop\n      pop\n      pop\n      jump\t// out\n        /* \"@openzeppelin/contracts/token/ERC20/ERC20.sol\":3408:3533  function balanceOf(address account) public view virtual override returns (uint256) {... */\n    tag_76:\n        /* \"@openzeppelin/contracts/token/ERC20/ERC20.sol\":3482:3489  uint256 */\n      0x00\n        /* \"@openzeppelin/contracts/token/ERC20/ERC20.sol\":3508:3517  _balances */\n      dup1\n        /* \"@openzeppelin/contracts/token/ERC20/ERC20.sol\":3508:3526  _balances[account] */\n      0x00\n        /* \"@openzeppelin/contracts/token/ERC20/ERC20.sol\":3518:3525  account */\n      dup4\n        /* \"@openzeppelin/contracts/token/ERC20/ERC20.sol\":3508:3526  _balances[account] */\n      0xffffffffffffffffffffffffffffffffffffffff\n      and\n      0xffffffffffffffffffffffffffffffffffffffff\n      and\n      dup2\n      mstore\n      0x20\n      add\n      swap1\n      dup2\n      mstore\n      0x20\n      add\n      0x00\n      keccak256\n      sload\n        /* \"@openzeppelin/contracts/token/ERC20/ERC20.sol\":3501:3526  return _balances[account] */\n      swap1\n      pop\n        /* \"@openzeppelin/contracts/token/ERC20/ERC20.sol\":3408:3533  function balanceOf(address account) public view virtual override returns (uint256) {... */\n      swap2\n      swap1\n      pop\n      jump\t// out\n        /* \"@openzeppelin/contracts/token/ERC20/ERC20.sol\":2367:2469  function symbol() public view virtual override returns (string memory) {... */\n    tag_80:\n        /* \"@openzeppelin/contracts/token/ERC20/ERC20.sol\":2423:2436  string memory */\n      0x60\n        /* \"@openzeppelin/contracts/token/ERC20/ERC20.sol\":2455:2462  _symbol */\n      0x04\n        /* \"@openzeppelin/contracts/token/ERC20/ERC20.sol\":2448:2462  return _symbol */\n      dup1\n      sload\n      tag_133\n      swap1\n      tag_102\n      jump\t// in\n    tag_133:\n      dup1\n      0x1f\n      add\n      0x20\n      dup1\n      swap2\n      div\n      mul\n      0x20\n      add\n      mload(0x40)\n      swap1\n      dup2\n      add\n      0x40\n      mstore\n      dup1\n      swap3\n      swap2\n      swap1\n      dup2\n      dup2\n      mstore\n      0x20\n      add\n      dup3\n      dup1\n      sload\n      tag_134\n      swap1\n      tag_102\n      jump\t// in\n    tag_134:\n      dup1\n      iszero\n      tag_135\n      jumpi\n      dup1\n      0x1f\n      lt\n      tag_136\n      jumpi\n      0x0100\n      dup1\n      dup4\n      sload\n      div\n      mul\n      dup4\n      mstore\n      swap2\n      0x20\n      add\n      swap2\n      jump(tag_135)\n    tag_136:\n      dup3\n      add\n      swap2\n      swap1\n      0x00\n      mstore\n      keccak256(0x00, 0x20)\n      swap1\n    tag_137:\n      dup2\n      sload\n      dup2\n      mstore\n      swap1\n      0x01\n      add\n      swap1\n      0x20\n      add\n      dup1\n      dup4\n      gt\n      tag_137\n      jumpi\n      dup3\n      swap1\n      sub\n      0x1f\n      and\n      dup3\n      add\n      swap2\n    tag_135:\n      pop\n      pop\n      pop\n      pop\n      pop\n      swap1\n      pop\n        /* \"@openzeppelin/contracts/token/ERC20/ERC20.sol\":2367:2469  function symbol() public view virtual override returns (string memory) {... */\n      swap1\n      jump\t// out\n        /* \"@openzeppelin/contracts/token/ERC20/ERC20.sol\":6594:7021  function decreaseAllowance(address spender, uint256 subtractedValue) public virtual returns (bool) {... */\n    tag_85:\n        /* \"@openzeppelin/contracts/token/ERC20/ERC20.sol\":6687:6691  bool */\n      0x00\n        /* \"@openzeppelin/contracts/token/ERC20/ERC20.sol\":6703:6716  address owner */\n      dup1\n        /* \"@openzeppelin/contracts/token/ERC20/ERC20.sol\":6719:6731  _msgSender() */\n      tag_139\n        /* \"@openzeppelin/contracts/token/ERC20/ERC20.sol\":6719:6729  _msgSender */\n      tag_109\n        /* \"@openzeppelin/contracts/token/ERC20/ERC20.sol\":6719:6731  _msgSender() */\n      jump\t// in\n    tag_139:\n        /* \"@openzeppelin/contracts/token/ERC20/ERC20.sol\":6703:6731  address owner = _msgSender() */\n      swap1\n      pop\n        /* \"@openzeppelin/contracts/token/ERC20/ERC20.sol\":6741:6765  uint256 currentAllowance */\n      0x00\n        /* \"@openzeppelin/contracts/token/ERC20/ERC20.sol\":6768:6793  allowance(owner, spender) */\n      tag_140\n        /* \"@openzeppelin/contracts/token/ERC20/ERC20.sol\":6778:6783  owner */\n      dup3\n        /* \"@openzeppelin/contracts/token/ERC20/ERC20.sol\":6785:6792  spender */\n      dup7\n        /* \"@openzeppelin/contracts/token/ERC20/ERC20.sol\":6768:6777  allowance */\n      tag_96\n        /* \"@openzeppelin/contracts/token/ERC20/ERC20.sol\":6768:6793  allowance(owner, spender) */\n      jump\t// in\n    tag_140:\n        /* \"@openzeppelin/contracts/token/ERC20/ERC20.sol\":6741:6793  uint256 currentAllowance = allowance(owner, spender) */\n      swap1\n      pop\n        /* \"@openzeppelin/contracts/token/ERC20/ERC20.sol\":6831:6846  subtractedValue */\n      dup4\n        /* \"@openzeppelin/contracts/token/ERC20/ERC20.sol\":6811:6827  currentAllowance */\n      dup2\n        /* \"@openzeppelin/contracts/token/ERC20/ERC20.sol\":6811:6846  currentAllowance >= subtractedValue */\n      lt\n      iszero\n        /* \"@openzeppelin/contracts/token/ERC20/ERC20.sol\":6803:6888  require(currentAllowance >= subtractedValue, \"ERC20: decreased allowance below zero\") */\n      tag_141\n      jumpi\n      mload(0x40)\n      0x08c379a000000000000000000000000000000000000000000000000000000000\n      dup2\n      mstore\n      0x04\n      add\n      tag_142\n      swap1\n      tag_143\n      jump\t// in\n    tag_142:\n      mload(0x40)\n      dup1\n      swap2\n      sub\n      swap1\n      revert\n    tag_141:\n        /* \"@openzeppelin/contracts/token/ERC20/ERC20.sol\":6922:6982  _approve(owner, spender, currentAllowance - subtractedValue) */\n      tag_144\n        /* \"@openzeppelin/contracts/token/ERC20/ERC20.sol\":6931:6936  owner */\n      dup3\n        /* \"@openzeppelin/contracts/token/ERC20/ERC20.sol\":6938:6945  spender */\n      dup7\n        /* \"@openzeppelin/contracts/token/ERC20/ERC20.sol\":6966:6981  subtractedValue */\n      dup7\n        /* \"@openzeppelin/contracts/token/ERC20/ERC20.sol\":6947:6963  currentAllowance */\n      dup5\n        /* \"@openzeppelin/contracts/token/ERC20/ERC20.sol\":6947:6981  currentAllowance - subtractedValue */\n      sub\n        /* \"@openzeppelin/contracts/token/ERC20/ERC20.sol\":6922:6930  _approve */\n      tag_111\n        /* \"@openzeppelin/contracts/token/ERC20/ERC20.sol\":6922:6982  _approve(owner, spender, currentAllowance - subtractedValue) */\n      jump\t// in\n    tag_144:\n        /* \"@openzeppelin/contracts/token/ERC20/ERC20.sol\":7010:7014  true */\n      0x01\n        /* \"@openzeppelin/contracts/token/ERC20/ERC20.sol\":7003:7014  return true */\n      swap3\n      pop\n      pop\n      pop\n        /* \"@openzeppelin/contracts/token/ERC20/ERC20.sol\":6594:7021  function decreaseAllowance(address spender, uint256 subtractedValue) public virtual returns (bool) {... */\n      swap3\n      swap2\n      pop\n      pop\n      jump\t// out\n        /* \"@openzeppelin/contracts/token/ERC20/ERC20.sol\":3729:3918  function transfer(address to, uint256 amount) public virtual override returns (bool) {... */\n    tag_90:\n        /* \"@openzeppelin/contracts/token/ERC20/ERC20.sol\":3808:3812  bool */\n      0x00\n        /* \"@openzeppelin/contracts/token/ERC20/ERC20.sol\":3824:3837  address owner */\n      dup1\n        /* \"@openzeppelin/contracts/token/ERC20/ERC20.sol\":3840:3852  _msgSender() */\n      tag_146\n        /* \"@openzeppelin/contracts/token/ERC20/ERC20.sol\":3840:3850  _msgSender */\n      tag_109\n        /* \"@openzeppelin/contracts/token/ERC20/ERC20.sol\":3840:3852  _msgSender() */\n      jump\t// in\n    tag_146:\n        /* \"@openzeppelin/contracts/token/ERC20/ERC20.sol\":3824:3852  address owner = _msgSender() */\n      swap1\n      pop\n        /* \"@openzeppelin/contracts/token/ERC20/ERC20.sol\":3862:3890  _transfer(owner, to, amount) */\n      tag_147\n        /* \"@openzeppelin/contracts/token/ERC20/ERC20.sol\":3872:3877  owner */\n      dup2\n        /* \"@openzeppelin/contracts/token/ERC20/ERC20.sol\":3879:3881  to */\n      dup6\n        /* \"@openzeppelin/contracts/token/ERC20/ERC20.sol\":3883:3889  amount */\n      dup6\n        /* \"@openzeppelin/contracts/token/ERC20/ERC20.sol\":3862:3871  _transfer */\n      tag_118\n        /* \"@openzeppelin/contracts/token/ERC20/ERC20.sol\":3862:3890  _transfer(owner, to, amount) */\n      jump\t// in\n    tag_147:\n        /* \"@openzeppelin/contracts/token/ERC20/ERC20.sol\":3907:3911  true */\n      0x01\n        /* \"@openzeppelin/contracts/token/ERC20/ERC20.sol\":3900:3911  return true */\n      swap2\n      pop\n      pop\n        /* \"@openzeppelin/contracts/token/ERC20/ERC20.sol\":3729:3918  function transfer(address to, uint256 amount) public virtual override returns (bool) {... */\n      swap3\n      swap2\n      pop\n      pop\n      jump\t// out\n        /* \"@openzeppelin/contracts/token/ERC20/ERC20.sol\":3976:4125  function allowance(address owner, address spender) public view virtual override returns (uint256) {... */\n    tag_96:\n        /* \"@openzeppelin/contracts/token/ERC20/ERC20.sol\":4065:4072  uint256 */\n      0x00\n        /* \"@openzeppelin/contracts/token/ERC20/ERC20.sol\":4091:4102  _allowances */\n      0x01\n        /* \"@openzeppelin/contracts/token/ERC20/ERC20.sol\":4091:4109  _allowances[owner] */\n      0x00\n        /* \"@openzeppelin/contracts/token/ERC20/ERC20.sol\":4103:4108  owner */\n      dup5\n        /* \"@openzeppelin/contracts/token/ERC20/ERC20.sol\":4091:4109  _allowances[owner] */\n      0xffffffffffffffffffffffffffffffffffffffff\n      and\n      0xffffffffffffffffffffffffffffffffffffffff\n      and\n      dup2\n      mstore\n      0x20\n      add\n      swap1\n      dup2\n      mstore\n      0x20\n      add\n      0x00\n      keccak256\n        /* \"@openzeppelin/contracts/token/ERC20/ERC20.sol\":4091:4118  _allowances[owner][spender] */\n      0x00\n        /* \"@openzeppelin/contracts/token/ERC20/ERC20.sol\":4110:4117  spender */\n      dup4\n        /* \"@openzeppelin/contracts/token/ERC20/ERC20.sol\":4091:4118  _allowances[owner][spender] */\n      0xffffffffffffffffffffffffffffffffffffffff\n      and\n      0xffffffffffffffffffffffffffffffffffffffff\n      and\n      dup2\n      mstore\n      0x20\n      add\n      swap1\n      dup2\n      mstore\n      0x20\n      add\n      0x00\n      keccak256\n      sload\n        /* \"@openzeppelin/contracts/token/ERC20/ERC20.sol\":4084:4118  return _allowances[owner][spender] */\n      swap1\n      pop\n        /* \"@openzeppelin/contracts/token/ERC20/ERC20.sol\":3976:4125  function allowance(address owner, address spender) public view virtual override returns (uint256) {... */\n      swap3\n      swap2\n      pop\n      pop\n      jump\t// out\n        /* \"BlockJobs/BlockJobsCoin.sol\":730:775  function invest() external payable {\r... */\n    tag_99:\n      jump\t// out\n        /* \"@openzeppelin/contracts/utils/Context.sol\":640:736  function _msgSender() internal view virtual returns (address) {... */\n    tag_109:\n        /* \"@openzeppelin/contracts/utils/Context.sol\":693:700  address */\n      0x00\n        /* \"@openzeppelin/contracts/utils/Context.sol\":719:729  msg.sender */\n      caller\n        /* \"@openzeppelin/contracts/utils/Context.sol\":712:729  return msg.sender */\n      swap1\n      pop\n        /* \"@openzeppelin/contracts/utils/Context.sol\":640:736  function _msgSender() internal view virtual returns (address) {... */\n      swap1\n      jump\t// out\n        /* \"@openzeppelin/contracts/token/ERC20/ERC20.sol\":10119:10489  function _approve(... */\n    tag_111:\n        /* \"@openzeppelin/contracts/token/ERC20/ERC20.sol\":10267:10268  0 */\n      0x00\n        /* \"@openzeppelin/contracts/token/ERC20/ERC20.sol\":10250:10269  owner != address(0) */\n      0xffffffffffffffffffffffffffffffffffffffff\n      and\n        /* \"@openzeppelin/contracts/token/ERC20/ERC20.sol\":10250:10255  owner */\n      dup4\n        /* \"@openzeppelin/contracts/token/ERC20/ERC20.sol\":10250:10269  owner != address(0) */\n      0xffffffffffffffffffffffffffffffffffffffff\n      and\n      eq\n      iszero\n        /* \"@openzeppelin/contracts/token/ERC20/ERC20.sol\":10242:10310  require(owner != address(0), \"ERC20: approve from the zero address\") */\n      tag_152\n      jumpi\n      mload(0x40)\n      0x08c379a000000000000000000000000000000000000000000000000000000000\n      dup2\n      mstore\n      0x04\n      add\n      tag_153\n      swap1\n      tag_154\n      jump\t// in\n    tag_153:\n      mload(0x40)\n      dup1\n      swap2\n      sub\n      swap1\n      revert\n    tag_152:\n        /* \"@openzeppelin/contracts/token/ERC20/ERC20.sol\":10347:10348  0 */\n      0x00\n        /* \"@openzeppelin/contracts/token/ERC20/ERC20.sol\":10328:10349  spender != address(0) */\n      0xffffffffffffffffffffffffffffffffffffffff\n      and\n        /* \"@openzeppelin/contracts/token/ERC20/ERC20.sol\":10328:10335  spender */\n      dup3\n        /* \"@openzeppelin/contracts/token/ERC20/ERC20.sol\":10328:10349  spender != address(0) */\n      0xffffffffffffffffffffffffffffffffffffffff\n      and\n      eq\n      iszero\n        /* \"@openzeppelin/contracts/token/ERC20/ERC20.sol\":10320:10388  require(spender != address(0), \"ERC20: approve to the zero address\") */\n      tag_155\n      jumpi\n      mload(0x40)\n      0x08c379a000000000000000000000000000000000000000000000000000000000\n      dup2\n      mstore\n      0x04\n      add\n      tag_156\n      swap1\n      tag_157\n      jump\t// in\n    tag_156:\n      mload(0x40)\n      dup1\n      swap2\n      sub\n      swap1\n      revert\n    tag_155:\n        /* \"@openzeppelin/contracts/token/ERC20/ERC20.sol\":10429:10435  amount */\n      dup1\n        /* \"@openzeppelin/contracts/token/ERC20/ERC20.sol\":10399:10410  _allowances */\n      0x01\n        /* \"@openzeppelin/contracts/token/ERC20/ERC20.sol\":10399:10417  _allowances[owner] */\n      0x00\n        /* \"@openzeppelin/contracts/token/ERC20/ERC20.sol\":10411:10416  owner */\n      dup6\n        /* \"@openzeppelin/contracts/token/ERC20/ERC20.sol\":10399:10417  _allowances[owner] */\n      0xffffffffffffffffffffffffffffffffffffffff\n      and\n      0xffffffffffffffffffffffffffffffffffffffff\n      and\n      dup2\n      mstore\n      0x20\n      add\n      swap1\n      dup2\n      mstore\n      0x20\n      add\n      0x00\n      keccak256\n        /* \"@openzeppelin/contracts/token/ERC20/ERC20.sol\":10399:10426  _allowances[owner][spender] */\n      0x00\n        /* \"@openzeppelin/contracts/token/ERC20/ERC20.sol\":10418:10425  spender */\n      dup5\n        /* \"@openzeppelin/contracts/token/ERC20/ERC20.sol\":10399:10426  _allowances[owner][spender] */\n      0xffffffffffffffffffffffffffffffffffffffff\n      and\n      0xffffffffffffffffffffffffffffffffffffffff\n      and\n      dup2\n      mstore\n      0x20\n      add\n      swap1\n      dup2\n      mstore\n      0x20\n      add\n      0x00\n      keccak256\n        /* \"@openzeppelin/contracts/token/ERC20/ERC20.sol\":10399:10435  _allowances[owner][spender] = amount */\n      dup2\n      swap1\n      sstore\n      pop\n        /* \"@openzeppelin/contracts/token/ERC20/ERC20.sol\":10466:10473  spender */\n      dup2\n        /* \"@openzeppelin/contracts/token/ERC20/ERC20.sol\":10450:10482  Approval(owner, spender, amount) */\n      0xffffffffffffffffffffffffffffffffffffffff\n      and\n        /* \"@openzeppelin/contracts/token/ERC20/ERC20.sol\":10459:10464  owner */\n      dup4\n        /* \"@openzeppelin/contracts/token/ERC20/ERC20.sol\":10450:10482  Approval(owner, spender, amount) */\n      0xffffffffffffffffffffffffffffffffffffffff\n      and\n      0x8c5be1e5ebec7d5bd14f71427d1e84f3dd0314c0f7b2291e5b200ac8c7c3b925\n        /* \"@openzeppelin/contracts/token/ERC20/ERC20.sol\":10475:10481  amount */\n      dup4\n        /* \"@openzeppelin/contracts/token/ERC20/ERC20.sol\":10450:10482  Approval(owner, spender, amount) */\n      mload(0x40)\n      tag_158\n      swap2\n      swap1\n      tag_37\n      jump\t// in\n    tag_158:\n      mload(0x40)\n      dup1\n      swap2\n      sub\n      swap1\n      log3\n        /* \"@openzeppelin/contracts/token/ERC20/ERC20.sol\":10119:10489  function _approve(... */\n      pop\n      pop\n      pop\n      jump\t// out\n        /* \"@openzeppelin/contracts/token/ERC20/ERC20.sol\":10770:11211  function _spendAllowance(... */\n    tag_116:\n        /* \"@openzeppelin/contracts/token/ERC20/ERC20.sol\":10900:10924  uint256 currentAllowance */\n      0x00\n        /* \"@openzeppelin/contracts/token/ERC20/ERC20.sol\":10927:10952  allowance(owner, spender) */\n      tag_160\n        /* \"@openzeppelin/contracts/token/ERC20/ERC20.sol\":10937:10942  owner */\n      dup5\n        /* \"@openzeppelin/contracts/token/ERC20/ERC20.sol\":10944:10951  spender */\n      dup5\n        /* \"@openzeppelin/contracts/token/ERC20/ERC20.sol\":10927:10936  allowance */\n      tag_96\n        /* \"@openzeppelin/contracts/token/ERC20/ERC20.sol\":10927:10952  allowance(owner, spender) */\n      jump\t// in\n    tag_160:\n        /* \"@openzeppelin/contracts/token/ERC20/ERC20.sol\":10900:10952  uint256 currentAllowance = allowance(owner, spender) */\n      swap1\n      pop\n        /* \"@openzeppelin/contracts/token/ERC20/ERC20.sol\":10986:11003  type(uint256).max */\n      0xffffffffffffffffffffffffffffffffffffffffffffffffffffffffffffffff\n        /* \"@openzeppelin/contracts/token/ERC20/ERC20.sol\":10966:10982  currentAllowance */\n      dup2\n        /* \"@openzeppelin/contracts/token/ERC20/ERC20.sol\":10966:11003  currentAllowance != type(uint256).max */\n      eq\n        /* \"@openzeppelin/contracts/token/ERC20/ERC20.sol\":10962:11205  if (currentAllowance != type(uint256).max) {... */\n      tag_161\n      jumpi\n        /* \"@openzeppelin/contracts/token/ERC20/ERC20.sol\":11047:11053  amount */\n      dup2\n        /* \"@openzeppelin/contracts/token/ERC20/ERC20.sol\":11027:11043  currentAllowance */\n      dup2\n        /* \"@openzeppelin/contracts/token/ERC20/ERC20.sol\":11027:11053  currentAllowance >= amount */\n      lt\n      iszero\n        /* \"@openzeppelin/contracts/token/ERC20/ERC20.sol\":11019:11087  require(currentAllowance >= amount, \"ERC20: insufficient allowance\") */\n      tag_162\n      jumpi\n      mload(0x40)\n      0x08c379a000000000000000000000000000000000000000000000000000000000\n      dup2\n      mstore\n      0x04\n      add\n      tag_163\n      swap1\n      tag_164\n      jump\t// in\n    tag_163:\n      mload(0x40)\n      dup1\n      swap2\n      sub\n      swap1\n      revert\n    tag_162:\n        /* \"@openzeppelin/contracts/token/ERC20/ERC20.sol\":11129:11180  _approve(owner, spender, currentAllowance - amount) */\n      tag_165\n        /* \"@openzeppelin/contracts/token/ERC20/ERC20.sol\":11138:11143  owner */\n      dup5\n        /* \"@openzeppelin/contracts/token/ERC20/ERC20.sol\":11145:11152  spender */\n      dup5\n        /* \"@openzeppelin/contracts/token/ERC20/ERC20.sol\":11173:11179  amount */\n      dup5\n        /* \"@openzeppelin/contracts/token/ERC20/ERC20.sol\":11154:11170  currentAllowance */\n      dup5\n        /* \"@openzeppelin/contracts/token/ERC20/ERC20.sol\":11154:11179  currentAllowance - amount */\n      sub\n        /* \"@openzeppelin/contracts/token/ERC20/ERC20.sol\":11129:11137  _approve */\n      tag_111\n        /* \"@openzeppelin/contracts/token/ERC20/ERC20.sol\":11129:11180  _approve(owner, spender, currentAllowance - amount) */\n      jump\t// in\n    tag_165:\n        /* \"@openzeppelin/contracts/token/ERC20/ERC20.sol\":10962:11205  if (currentAllowance != type(uint256).max) {... */\n    tag_161:\n        /* \"@openzeppelin/contracts/token/ERC20/ERC20.sol\":10890:11211  {... */\n      pop\n        /* \"@openzeppelin/contracts/token/ERC20/ERC20.sol\":10770:11211  function _spendAllowance(... */\n      pop\n      pop\n      pop\n      jump\t// out\n        /* \"@openzeppelin/contracts/token/ERC20/ERC20.sol\":7484:8135  function _transfer(... */\n    tag_118:\n        /* \"@openzeppelin/contracts/token/ERC20/ERC20.sol\":7626:7627  0 */\n      0x00\n        /* \"@openzeppelin/contracts/token/ERC20/ERC20.sol\":7610:7628  from != address(0) */\n      0xffffffffffffffffffffffffffffffffffffffff\n      and\n        /* \"@openzeppelin/contracts/token/ERC20/ERC20.sol\":7610:7614  from */\n      dup4\n        /* \"@openzeppelin/contracts/token/ERC20/ERC20.sol\":7610:7628  from != address(0) */\n      0xffffffffffffffffffffffffffffffffffffffff\n      and\n      eq\n      iszero\n        /* \"@openzeppelin/contracts/token/ERC20/ERC20.sol\":7602:7670  require(from != address(0), \"ERC20: transfer from the zero address\") */\n      tag_167\n      jumpi\n      mload(0x40)\n      0x08c379a000000000000000000000000000000000000000000000000000000000\n      dup2\n      mstore\n      0x04\n      add\n      tag_168\n      swap1\n      tag_169\n      jump\t// in\n    tag_168:\n      mload(0x40)\n      dup1\n      swap2\n      sub\n      swap1\n      revert\n    tag_167:\n        /* \"@openzeppelin/contracts/token/ERC20/ERC20.sol\":7702:7703  0 */\n      0x00\n        /* \"@openzeppelin/contracts/token/ERC20/ERC20.sol\":7688:7704  to != address(0) */\n      0xffffffffffffffffffffffffffffffffffffffff\n      and\n        /* \"@openzeppelin/contracts/token/ERC20/ERC20.sol\":7688:7690  to */\n      dup3\n        /* \"@openzeppelin/contracts/token/ERC20/ERC20.sol\":7688:7704  to != address(0) */\n      0xffffffffffffffffffffffffffffffffffffffff\n      and\n      eq\n      iszero\n        /* \"@openzeppelin/contracts/token/ERC20/ERC20.sol\":7680:7744  require(to != address(0), \"ERC20: transfer to the zero address\") */\n      tag_170\n      jumpi\n      mload(0x40)\n      0x08c379a000000000000000000000000000000000000000000000000000000000\n      dup2\n      mstore\n      0x04\n      add\n      tag_171\n      swap1\n      tag_172\n      jump\t// in\n    tag_171:\n      mload(0x40)\n      dup1\n      swap2\n      sub\n      swap1\n      revert\n    tag_170:\n        /* \"@openzeppelin/contracts/token/ERC20/ERC20.sol\":7755:7793  _beforeTokenTransfer(from, to, amount) */\n      tag_173\n        /* \"@openzeppelin/contracts/token/ERC20/ERC20.sol\":7776:7780  from */\n      dup4\n        /* \"@openzeppelin/contracts/token/ERC20/ERC20.sol\":7782:7784  to */\n      dup4\n        /* \"@openzeppelin/contracts/token/ERC20/ERC20.sol\":7786:7792  amount */\n      dup4\n        /* \"@openzeppelin/contracts/token/ERC20/ERC20.sol\":7755:7775  _beforeTokenTransfer */\n      tag_174\n        /* \"@openzeppelin/contracts/token/ERC20/ERC20.sol\":7755:7793  _beforeTokenTransfer(from, to, amount) */\n      jump\t// in\n    tag_173:\n        /* \"@openzeppelin/contracts/token/ERC20/ERC20.sol\":7804:7823  uint256 fromBalance */\n      0x00\n        /* \"@openzeppelin/contracts/token/ERC20/ERC20.sol\":7826:7835  _balances */\n      dup1\n        /* \"@openzeppelin/contracts/token/ERC20/ERC20.sol\":7826:7841  _balances[from] */\n      0x00\n        /* \"@openzeppelin/contracts/token/ERC20/ERC20.sol\":7836:7840  from */\n      dup6\n        /* \"@openzeppelin/contracts/token/ERC20/ERC20.sol\":7826:7841  _balances[from] */\n      0xffffffffffffffffffffffffffffffffffffffff\n      and\n      0xffffffffffffffffffffffffffffffffffffffff\n      and\n      dup2\n      mstore\n      0x20\n      add\n      swap1\n      dup2\n      mstore\n      0x20\n      add\n      0x00\n      keccak256\n      sload\n        /* \"@openzeppelin/contracts/token/ERC20/ERC20.sol\":7804:7841  uint256 fromBalance = _balances[from] */\n      swap1\n      pop\n        /* \"@openzeppelin/contracts/token/ERC20/ERC20.sol\":7874:7880  amount */\n      dup2\n        /* \"@openzeppelin/contracts/token/ERC20/ERC20.sol\":7859:7870  fromBalance */\n      dup2\n        /* \"@openzeppelin/contracts/token/ERC20/ERC20.sol\":7859:7880  fromBalance >= amount */\n      lt\n      iszero\n        /* \"@openzeppelin/contracts/token/ERC20/ERC20.sol\":7851:7923  require(fromBalance >= amount, \"ERC20: transfer amount exceeds balance\") */\n      tag_175\n      jumpi\n      mload(0x40)\n      0x08c379a000000000000000000000000000000000000000000000000000000000\n      dup2\n      mstore\n      0x04\n      add\n      tag_176\n      swap1\n      tag_177\n      jump\t// in\n    tag_176:\n      mload(0x40)\n      dup1\n      swap2\n      sub\n      swap1\n      revert\n    tag_175:\n        /* \"@openzeppelin/contracts/token/ERC20/ERC20.sol\":7989:7995  amount */\n      dup2\n        /* \"@openzeppelin/contracts/token/ERC20/ERC20.sol\":7975:7986  fromBalance */\n      dup2\n        /* \"@openzeppelin/contracts/token/ERC20/ERC20.sol\":7975:7995  fromBalance - amount */\n      sub\n        /* \"@openzeppelin/contracts/token/ERC20/ERC20.sol\":7957:7966  _balances */\n      0x00\n        /* \"@openzeppelin/contracts/token/ERC20/ERC20.sol\":7957:7972  _balances[from] */\n      dup1\n        /* \"@openzeppelin/contracts/token/ERC20/ERC20.sol\":7967:7971  from */\n      dup7\n        /* \"@openzeppelin/contracts/token/ERC20/ERC20.sol\":7957:7972  _balances[from] */\n      0xffffffffffffffffffffffffffffffffffffffff\n      and\n      0xffffffffffffffffffffffffffffffffffffffff\n      and\n      dup2\n      mstore\n      0x20\n      add\n      swap1\n      dup2\n      mstore\n      0x20\n      add\n      0x00\n      keccak256\n        /* \"@openzeppelin/contracts/token/ERC20/ERC20.sol\":7957:7995  _balances[from] = fromBalance - amount */\n      dup2\n      swap1\n      sstore\n      pop\n        /* \"@openzeppelin/contracts/token/ERC20/ERC20.sol\":8032:8038  amount */\n      dup2\n        /* \"@openzeppelin/contracts/token/ERC20/ERC20.sol\":8015:8024  _balances */\n      0x00\n        /* \"@openzeppelin/contracts/token/ERC20/ERC20.sol\":8015:8028  _balances[to] */\n      dup1\n        /* \"@openzeppelin/contracts/token/ERC20/ERC20.sol\":8025:8027  to */\n      dup6\n        /* \"@openzeppelin/contracts/token/ERC20/ERC20.sol\":8015:8028  _balances[to] */\n      0xffffffffffffffffffffffffffffffffffffffff\n      and\n      0xffffffffffffffffffffffffffffffffffffffff\n      and\n      dup2\n      mstore\n      0x20\n      add\n      swap1\n      dup2\n      mstore\n      0x20\n      add\n      0x00\n      keccak256\n      0x00\n        /* \"@openzeppelin/contracts/token/ERC20/ERC20.sol\":8015:8038  _balances[to] += amount */\n      dup3\n      dup3\n      sload\n      tag_178\n      swap2\n      swap1\n      tag_127\n      jump\t// in\n    tag_178:\n      swap3\n      pop\n      pop\n      dup2\n      swap1\n      sstore\n      pop\n        /* \"@openzeppelin/contracts/token/ERC20/ERC20.sol\":8069:8071  to */\n      dup3\n        /* \"@openzeppelin/contracts/token/ERC20/ERC20.sol\":8054:8080  Transfer(from, to, amount) */\n      0xffffffffffffffffffffffffffffffffffffffff\n      and\n        /* \"@openzeppelin/contracts/token/ERC20/ERC20.sol\":8063:8067  from */\n      dup5\n        /* \"@openzeppelin/contracts/token/ERC20/ERC20.sol\":8054:8080  Transfer(from, to, amount) */\n      0xffffffffffffffffffffffffffffffffffffffff\n      and\n      0xddf252ad1be2c89b69c2b068fc378daa952ba7f163c4a11628f55a4df523b3ef\n        /* \"@openzeppelin/contracts/token/ERC20/ERC20.sol\":8073:8079  amount */\n      dup5\n        /* \"@openzeppelin/contracts/token/ERC20/ERC20.sol\":8054:8080  Transfer(from, to, amount) */\n      mload(0x40)\n      tag_179\n      swap2\n      swap1\n      tag_37\n      jump\t// in\n    tag_179:\n      mload(0x40)\n      dup1\n      swap2\n      sub\n      swap1\n      log3\n        /* \"@openzeppelin/contracts/token/ERC20/ERC20.sol\":8091:8128  _afterTokenTransfer(from, to, amount) */\n      tag_180\n        /* \"@openzeppelin/contracts/token/ERC20/ERC20.sol\":8111:8115  from */\n      dup5\n        /* \"@openzeppelin/contracts/token/ERC20/ERC20.sol\":8117:8119  to */\n      dup5\n        /* \"@openzeppelin/contracts/token/ERC20/ERC20.sol\":8121:8127  amount */\n      dup5\n        /* \"@openzeppelin/contracts/token/ERC20/ERC20.sol\":8091:8110  _afterTokenTransfer */\n      tag_181\n        /* \"@openzeppelin/contracts/token/ERC20/ERC20.sol\":8091:8128  _afterTokenTransfer(from, to, amount) */\n      jump\t// in\n    tag_180:\n        /* \"@openzeppelin/contracts/token/ERC20/ERC20.sol\":7592:8135  {... */\n      pop\n        /* \"@openzeppelin/contracts/token/ERC20/ERC20.sol\":7484:8135  function _transfer(... */\n      pop\n      pop\n      pop\n      jump\t// out\n        /* \"@openzeppelin/contracts/token/ERC20/ERC20.sol\":11795:11916  function _beforeTokenTransfer(... */\n    tag_174:\n      pop\n      pop\n      pop\n      jump\t// out\n        /* \"@openzeppelin/contracts/token/ERC20/ERC20.sol\":12504:12624  function _afterTokenTransfer(... */\n    tag_181:\n      pop\n      pop\n      pop\n      jump\t// out\n        /* \"#utility.yul\":7:146   */\n    tag_185:\n        /* \"#utility.yul\":53:58   */\n      0x00\n        /* \"#utility.yul\":91:97   */\n      dup2\n        /* \"#utility.yul\":78:98   */\n      calldataload\n        /* \"#utility.yul\":69:98   */\n      swap1\n      pop\n        /* \"#utility.yul\":107:140   */\n      tag_187\n        /* \"#utility.yul\":134:139   */\n      dup2\n        /* \"#utility.yul\":107:140   */\n      tag_188\n      jump\t// in\n    tag_187:\n        /* \"#utility.yul\":7:146   */\n      swap3\n      swap2\n      pop\n      pop\n      jump\t// out\n        /* \"#utility.yul\":152:291   */\n    tag_189:\n        /* \"#utility.yul\":198:203   */\n      0x00\n        /* \"#utility.yul\":236:242   */\n      dup2\n        /* \"#utility.yul\":223:243   */\n      calldataload\n        /* \"#utility.yul\":214:243   */\n      swap1\n      pop\n        /* \"#utility.yul\":252:285   */\n      tag_191\n        /* \"#utility.yul\":279:284   */\n      dup2\n        /* \"#utility.yul\":252:285   */\n      tag_192\n      jump\t// in\n    tag_191:\n        /* \"#utility.yul\":152:291   */\n      swap3\n      swap2\n      pop\n      pop\n      jump\t// out\n        /* \"#utility.yul\":297:626   */\n    tag_75:\n        /* \"#utility.yul\":356:362   */\n      0x00\n        /* \"#utility.yul\":405:407   */\n      0x20\n        /* \"#utility.yul\":393:402   */\n      dup3\n        /* \"#utility.yul\":384:391   */\n      dup5\n        /* \"#utility.yul\":380:403   */\n      sub\n        /* \"#utility.yul\":376:408   */\n      slt\n        /* \"#utility.yul\":373:492   */\n      iszero\n      tag_194\n      jumpi\n        /* \"#utility.yul\":411:490   */\n      tag_195\n      tag_196\n      jump\t// in\n    tag_195:\n        /* \"#utility.yul\":373:492   */\n    tag_194:\n        /* \"#utility.yul\":531:532   */\n      0x00\n        /* \"#utility.yul\":556:609   */\n      tag_197\n        /* \"#utility.yul\":601:608   */\n      dup5\n        /* \"#utility.yul\":592:598   */\n      dup3\n        /* \"#utility.yul\":581:590   */\n      dup6\n        /* \"#utility.yul\":577:599   */\n      add\n        /* \"#utility.yul\":556:609   */\n      tag_185\n      jump\t// in\n    tag_197:\n        /* \"#utility.yul\":546:609   */\n      swap2\n      pop\n        /* \"#utility.yul\":502:619   */\n      pop\n        /* \"#utility.yul\":297:626   */\n      swap3\n      swap2\n      pop\n      pop\n      jump\t// out\n        /* \"#utility.yul\":632:1106   */\n    tag_95:\n        /* \"#utility.yul\":700:706   */\n      0x00\n        /* \"#utility.yul\":708:714   */\n      dup1\n        /* \"#utility.yul\":757:759   */\n      0x40\n        /* \"#utility.yul\":745:754   */\n      dup4\n        /* \"#utility.yul\":736:743   */\n      dup6\n        /* \"#utility.yul\":732:755   */\n      sub\n        /* \"#utility.yul\":728:760   */\n      slt\n        /* \"#utility.yul\":725:844   */\n      iszero\n      tag_199\n      jumpi\n        /* \"#utility.yul\":763:842   */\n      tag_200\n      tag_196\n      jump\t// in\n    tag_200:\n        /* \"#utility.yul\":725:844   */\n    tag_199:\n        /* \"#utility.yul\":883:884   */\n      0x00\n        /* \"#utility.yul\":908:961   */\n      tag_201\n        /* \"#utility.yul\":953:960   */\n      dup6\n        /* \"#utility.yul\":944:950   */\n      dup3\n        /* \"#utility.yul\":933:942   */\n      dup7\n        /* \"#utility.yul\":929:951   */\n      add\n        /* \"#utility.yul\":908:961   */\n      tag_185\n      jump\t// in\n    tag_201:\n        /* \"#utility.yul\":898:961   */\n      swap3\n      pop\n        /* \"#utility.yul\":854:971   */\n      pop\n        /* \"#utility.yul\":1010:1012   */\n      0x20\n        /* \"#utility.yul\":1036:1089   */\n      tag_202\n        /* \"#utility.yul\":1081:1088   */\n      dup6\n        /* \"#utility.yul\":1072:1078   */\n      dup3\n        /* \"#utility.yul\":1061:1070   */\n      dup7\n        /* \"#utility.yul\":1057:1079   */\n      add\n        /* \"#utility.yul\":1036:1089   */\n      tag_185\n      jump\t// in\n    tag_202:\n        /* \"#utility.yul\":1026:1089   */\n      swap2\n      pop\n        /* \"#utility.yul\":981:1099   */\n      pop\n        /* \"#utility.yul\":632:1106   */\n      swap3\n      pop\n      swap3\n      swap1\n      pop\n      jump\t// out\n        /* \"#utility.yul\":1112:1731   */\n    tag_41:\n        /* \"#utility.yul\":1189:1195   */\n      0x00\n        /* \"#utility.yul\":1197:1203   */\n      dup1\n        /* \"#utility.yul\":1205:1211   */\n      0x00\n        /* \"#utility.yul\":1254:1256   */\n      0x60\n        /* \"#utility.yul\":1242:1251   */\n      dup5\n        /* \"#utility.yul\":1233:1240   */\n      dup7\n        /* \"#utility.yul\":1229:1252   */\n      sub\n        /* \"#utility.yul\":1225:1257   */\n      slt\n        /* \"#utility.yul\":1222:1341   */\n      iszero\n      tag_204\n      jumpi\n        /* \"#utility.yul\":1260:1339   */\n      tag_205\n      tag_196\n      jump\t// in\n    tag_205:\n        /* \"#utility.yul\":1222:1341   */\n    tag_204:\n        /* \"#utility.yul\":1380:1381   */\n      0x00\n        /* \"#utility.yul\":1405:1458   */\n      tag_206\n        /* \"#utility.yul\":1450:1457   */\n      dup7\n        /* \"#utility.yul\":1441:1447   */\n      dup3\n        /* \"#utility.yul\":1430:1439   */\n      dup8\n        /* \"#utility.yul\":1426:1448   */\n      add\n        /* \"#utility.yul\":1405:1458   */\n      tag_185\n      jump\t// in\n    tag_206:\n        /* \"#utility.yul\":1395:1458   */\n      swap4\n      pop\n        /* \"#utility.yul\":1351:1468   */\n      pop\n        /* \"#utility.yul\":1507:1509   */\n      0x20\n        /* \"#utility.yul\":1533:1586   */\n      tag_207\n        /* \"#utility.yul\":1578:1585   */\n      dup7\n        /* \"#utility.yul\":1569:1575   */\n      dup3\n        /* \"#utility.yul\":1558:1567   */\n      dup8\n        /* \"#utility.yul\":1554:1576   */\n      add\n        /* \"#utility.yul\":1533:1586   */\n      tag_185\n      jump\t// in\n    tag_207:\n        /* \"#utility.yul\":1523:1586   */\n      swap3\n      pop\n        /* \"#utility.yul\":1478:1596   */\n      pop\n        /* \"#utility.yul\":1635:1637   */\n      0x40\n        /* \"#utility.yul\":1661:1714   */\n      tag_208\n        /* \"#utility.yul\":1706:1713   */\n      dup7\n        /* \"#utility.yul\":1697:1703   */\n      dup3\n        /* \"#utility.yul\":1686:1695   */\n      dup8\n        /* \"#utility.yul\":1682:1704   */\n      add\n        /* \"#utility.yul\":1661:1714   */\n      tag_189\n      jump\t// in\n    tag_208:\n        /* \"#utility.yul\":1651:1714   */\n      swap2\n      pop\n        /* \"#utility.yul\":1606:1724   */\n      pop\n        /* \"#utility.yul\":1112:1731   */\n      swap3\n      pop\n      swap3\n      pop\n      swap3\n      jump\t// out\n        /* \"#utility.yul\":1737:2211   */\n    tag_29:\n        /* \"#utility.yul\":1805:1811   */\n      0x00\n        /* \"#utility.yul\":1813:1819   */\n      dup1\n        /* \"#utility.yul\":1862:1864   */\n      0x40\n        /* \"#utility.yul\":1850:1859   */\n      dup4\n        /* \"#utility.yul\":1841:1848   */\n      dup6\n        /* \"#utility.yul\":1837:1860   */\n      sub\n        /* \"#utility.yul\":1833:1865   */\n      slt\n        /* \"#utility.yul\":1830:1949   */\n      iszero\n      tag_210\n      jumpi\n        /* \"#utility.yul\":1868:1947   */\n      tag_211\n      tag_196\n      jump\t// in\n    tag_211:\n        /* \"#utility.yul\":1830:1949   */\n    tag_210:\n        /* \"#utility.yul\":1988:1989   */\n      0x00\n        /* \"#utility.yul\":2013:2066   */\n      tag_212\n        /* \"#utility.yul\":2058:2065   */\n      dup6\n        /* \"#utility.yul\":2049:2055   */\n      dup3\n        /* \"#utility.yul\":2038:2047   */\n      dup7\n        /* \"#utility.yul\":2034:2056   */\n      add\n        /* \"#utility.yul\":2013:2066   */\n      tag_185\n      jump\t// in\n    tag_212:\n        /* \"#utility.yul\":2003:2066   */\n      swap3\n      pop\n        /* \"#utility.yul\":1959:2076   */\n      pop\n        /* \"#utility.yul\":2115:2117   */\n      0x20\n        /* \"#utility.yul\":2141:2194   */\n      tag_213\n        /* \"#utility.yul\":2186:2193   */\n      dup6\n        /* \"#utility.yul\":2177:2183   */\n      dup3\n        /* \"#utility.yul\":2166:2175   */\n      dup7\n        /* \"#utility.yul\":2162:2184   */\n      add\n        /* \"#utility.yul\":2141:2194   */\n      tag_189\n      jump\t// in\n    tag_213:\n        /* \"#utility.yul\":2131:2194   */\n      swap2\n      pop\n        /* \"#utility.yul\":2086:2204   */\n      pop\n        /* \"#utility.yul\":1737:2211   */\n      swap3\n      pop\n      swap3\n      swap1\n      pop\n      jump\t// out\n        /* \"#utility.yul\":2217:2335   */\n    tag_214:\n        /* \"#utility.yul\":2304:2328   */\n      tag_216\n        /* \"#utility.yul\":2322:2327   */\n      dup2\n        /* \"#utility.yul\":2304:2328   */\n      tag_217\n      jump\t// in\n    tag_216:\n        /* \"#utility.yul\":2299:2302   */\n      dup3\n        /* \"#utility.yul\":2292:2329   */\n      mstore\n        /* \"#utility.yul\":2217:2335   */\n      pop\n      pop\n      jump\t// out\n        /* \"#utility.yul\":2341:2450   */\n    tag_218:\n        /* \"#utility.yul\":2422:2443   */\n      tag_220\n        /* \"#utility.yul\":2437:2442   */\n      dup2\n        /* \"#utility.yul\":2422:2443   */\n      tag_221\n      jump\t// in\n    tag_220:\n        /* \"#utility.yul\":2417:2420   */\n      dup3\n        /* \"#utility.yul\":2410:2444   */\n      mstore\n        /* \"#utility.yul\":2341:2450   */\n      pop\n      pop\n      jump\t// out\n        /* \"#utility.yul\":2456:2820   */\n    tag_222:\n        /* \"#utility.yul\":2544:2547   */\n      0x00\n        /* \"#utility.yul\":2572:2611   */\n      tag_224\n        /* \"#utility.yul\":2605:2610   */\n      dup3\n        /* \"#utility.yul\":2572:2611   */\n      tag_225\n      jump\t// in\n    tag_224:\n        /* \"#utility.yul\":2627:2698   */\n      tag_226\n        /* \"#utility.yul\":2691:2697   */\n      dup2\n        /* \"#utility.yul\":2686:2689   */\n      dup6\n        /* \"#utility.yul\":2627:2698   */\n      tag_227\n      jump\t// in\n    tag_226:\n        /* \"#utility.yul\":2620:2698   */\n      swap4\n      pop\n        /* \"#utility.yul\":2707:2759   */\n      tag_228\n        /* \"#utility.yul\":2752:2758   */\n      dup2\n        /* \"#utility.yul\":2747:2750   */\n      dup6\n        /* \"#utility.yul\":2740:2744   */\n      0x20\n        /* \"#utility.yul\":2733:2738   */\n      dup7\n        /* \"#utility.yul\":2729:2745   */\n      add\n        /* \"#utility.yul\":2707:2759   */\n      tag_229\n      jump\t// in\n    tag_228:\n        /* \"#utility.yul\":2784:2813   */\n      tag_230\n        /* \"#utility.yul\":2806:2812   */\n      dup2\n        /* \"#utility.yul\":2784:2813   */\n      tag_231\n      jump\t// in\n    tag_230:\n        /* \"#utility.yul\":2779:2782   */\n      dup5\n        /* \"#utility.yul\":2775:2814   */\n      add\n        /* \"#utility.yul\":2768:2814   */\n      swap2\n      pop\n        /* \"#utility.yul\":2548:2820   */\n      pop\n        /* \"#utility.yul\":2456:2820   */\n      swap3\n      swap2\n      pop\n      pop\n      jump\t// out\n        /* \"#utility.yul\":2826:3192   */\n    tag_232:\n        /* \"#utility.yul\":2968:2971   */\n      0x00\n        /* \"#utility.yul\":2989:3056   */\n      tag_234\n        /* \"#utility.yul\":3053:3055   */\n      0x23\n        /* \"#utility.yul\":3048:3051   */\n      dup4\n        /* \"#utility.yul\":2989:3056   */\n      tag_227\n      jump\t// in\n    tag_234:\n        /* \"#utility.yul\":2982:3056   */\n      swap2\n      pop\n        /* \"#utility.yul\":3065:3158   */\n      tag_235\n        /* \"#utility.yul\":3154:3157   */\n      dup3\n        /* \"#utility.yul\":3065:3158   */\n      tag_236\n      jump\t// in\n    tag_235:\n        /* \"#utility.yul\":3183:3185   */\n      0x40\n        /* \"#utility.yul\":3178:3181   */\n      dup3\n        /* \"#utility.yul\":3174:3186   */\n      add\n        /* \"#utility.yul\":3167:3186   */\n      swap1\n      pop\n        /* \"#utility.yul\":2826:3192   */\n      swap2\n      swap1\n      pop\n      jump\t// out\n        /* \"#utility.yul\":3198:3564   */\n    tag_237:\n        /* \"#utility.yul\":3340:3343   */\n      0x00\n        /* \"#utility.yul\":3361:3428   */\n      tag_239\n        /* \"#utility.yul\":3425:3427   */\n      0x22\n        /* \"#utility.yul\":3420:3423   */\n      dup4\n        /* \"#utility.yul\":3361:3428   */\n      tag_227\n      jump\t// in\n    tag_239:\n        /* \"#utility.yul\":3354:3428   */\n      swap2\n      pop\n        /* \"#utility.yul\":3437:3530   */\n      tag_240\n        /* \"#utility.yul\":3526:3529   */\n      dup3\n        /* \"#utility.yul\":3437:3530   */\n      tag_241\n      jump\t// in\n    tag_240:\n        /* \"#utility.yul\":3555:3557   */\n      0x40\n        /* \"#utility.yul\":3550:3553   */\n      dup3\n        /* \"#utility.yul\":3546:3558   */\n      add\n        /* \"#utility.yul\":3539:3558   */\n      swap1\n      pop\n        /* \"#utility.yul\":3198:3564   */\n      swap2\n      swap1\n      pop\n      jump\t// out\n        /* \"#utility.yul\":3570:3936   */\n    tag_242:\n        /* \"#utility.yul\":3712:3715   */\n      0x00\n        /* \"#utility.yul\":3733:3800   */\n      tag_244\n        /* \"#utility.yul\":3797:3799   */\n      0x1d\n        /* \"#utility.yul\":3792:3795   */\n      dup4\n        /* \"#utility.yul\":3733:3800   */\n      tag_227\n      jump\t// in\n    tag_244:\n        /* \"#utility.yul\":3726:3800   */\n      swap2\n      pop\n        /* \"#utility.yul\":3809:3902   */\n      tag_245\n        /* \"#utility.yul\":3898:3901   */\n      dup3\n        /* \"#utility.yul\":3809:3902   */\n      tag_246\n      jump\t// in\n    tag_245:\n        /* \"#utility.yul\":3927:3929   */\n      0x20\n        /* \"#utility.yul\":3922:3925   */\n      dup3\n        /* \"#utility.yul\":3918:3930   */\n      add\n        /* \"#utility.yul\":3911:3930   */\n      swap1\n      pop\n        /* \"#utility.yul\":3570:3936   */\n      swap2\n      swap1\n      pop\n      jump\t// out\n        /* \"#utility.yul\":3942:4308   */\n    tag_247:\n        /* \"#utility.yul\":4084:4087   */\n      0x00\n        /* \"#utility.yul\":4105:4172   */\n      tag_249\n        /* \"#utility.yul\":4169:4171   */\n      0x26\n        /* \"#utility.yul\":4164:4167   */\n      dup4\n        /* \"#utility.yul\":4105:4172   */\n      tag_227\n      jump\t// in\n    tag_249:\n        /* \"#utility.yul\":4098:4172   */\n      swap2\n      pop\n        /* \"#utility.yul\":4181:4274   */\n      tag_250\n        /* \"#utility.yul\":4270:4273   */\n      dup3\n        /* \"#utility.yul\":4181:4274   */\n      tag_251\n      jump\t// in\n    tag_250:\n        /* \"#utility.yul\":4299:4301   */\n      0x40\n        /* \"#utility.yul\":4294:4297   */\n      dup3\n        /* \"#utility.yul\":4290:4302   */\n      add\n        /* \"#utility.yul\":4283:4302   */\n      swap1\n      pop\n        /* \"#utility.yul\":3942:4308   */\n      swap2\n      swap1\n      pop\n      jump\t// out\n        /* \"#utility.yul\":4314:4680   */\n    tag_252:\n        /* \"#utility.yul\":4456:4459   */\n      0x00\n        /* \"#utility.yul\":4477:4544   */\n      tag_254\n        /* \"#utility.yul\":4541:4543   */\n      0x25\n        /* \"#utility.yul\":4536:4539   */\n      dup4\n        /* \"#utility.yul\":4477:4544   */\n      tag_227\n      jump\t// in\n    tag_254:\n        /* \"#utility.yul\":4470:4544   */\n      swap2\n      pop\n        /* \"#utility.yul\":4553:4646   */\n      tag_255\n        /* \"#utility.yul\":4642:4645   */\n      dup3\n        /* \"#utility.yul\":4553:4646   */\n      tag_256\n      jump\t// in\n    tag_255:\n        /* \"#utility.yul\":4671:4673   */\n      0x40\n        /* \"#utility.yul\":4666:4669   */\n      dup3\n        /* \"#utility.yul\":4662:4674   */\n      add\n        /* \"#utility.yul\":4655:4674   */\n      swap1\n      pop\n        /* \"#utility.yul\":4314:4680   */\n      swap2\n      swap1\n      pop\n      jump\t// out\n        /* \"#utility.yul\":4686:5052   */\n    tag_257:\n        /* \"#utility.yul\":4828:4831   */\n      0x00\n        /* \"#utility.yul\":4849:4916   */\n      tag_259\n        /* \"#utility.yul\":4913:4915   */\n      0x24\n        /* \"#utility.yul\":4908:4911   */\n      dup4\n        /* \"#utility.yul\":4849:4916   */\n      tag_227\n      jump\t// in\n    tag_259:\n        /* \"#utility.yul\":4842:4916   */\n      swap2\n      pop\n        /* \"#utility.yul\":4925:5018   */\n      tag_260\n        /* \"#utility.yul\":5014:5017   */\n      dup3\n        /* \"#utility.yul\":4925:5018   */\n      tag_261\n      jump\t// in\n    tag_260:\n        /* \"#utility.yul\":5043:5045   */\n      0x40\n        /* \"#utility.yul\":5038:5041   */\n      dup3\n        /* \"#utility.yul\":5034:5046   */\n      add\n        /* \"#utility.yul\":5027:5046   */\n      swap1\n      pop\n        /* \"#utility.yul\":4686:5052   */\n      swap2\n      swap1\n      pop\n      jump\t// out\n        /* \"#utility.yul\":5058:5424   */\n    tag_262:\n        /* \"#utility.yul\":5200:5203   */\n      0x00\n        /* \"#utility.yul\":5221:5288   */\n      tag_264\n        /* \"#utility.yul\":5285:5287   */\n      0x25\n        /* \"#utility.yul\":5280:5283   */\n      dup4\n        /* \"#utility.yul\":5221:5288   */\n      tag_227\n      jump\t// in\n    tag_264:\n        /* \"#utility.yul\":5214:5288   */\n      swap2\n      pop\n        /* \"#utility.yul\":5297:5390   */\n      tag_265\n        /* \"#utility.yul\":5386:5389   */\n      dup3\n        /* \"#utility.yul\":5297:5390   */\n      tag_266\n      jump\t// in\n    tag_265:\n        /* \"#utility.yul\":5415:5417   */\n      0x40\n        /* \"#utility.yul\":5410:5413   */\n      dup3\n        /* \"#utility.yul\":5406:5418   */\n      add\n        /* \"#utility.yul\":5399:5418   */\n      swap1\n      pop\n        /* \"#utility.yul\":5058:5424   */\n      swap2\n      swap1\n      pop\n      jump\t// out\n        /* \"#utility.yul\":5430:5548   */\n    tag_267:\n        /* \"#utility.yul\":5517:5541   */\n      tag_269\n        /* \"#utility.yul\":5535:5540   */\n      dup2\n        /* \"#utility.yul\":5517:5541   */\n      tag_270\n      jump\t// in\n    tag_269:\n        /* \"#utility.yul\":5512:5515   */\n      dup3\n        /* \"#utility.yul\":5505:5542   */\n      mstore\n        /* \"#utility.yul\":5430:5548   */\n      pop\n      pop\n      jump\t// out\n        /* \"#utility.yul\":5554:5666   */\n    tag_271:\n        /* \"#utility.yul\":5637:5659   */\n      tag_273\n        /* \"#utility.yul\":5653:5658   */\n      dup2\n        /* \"#utility.yul\":5637:5659   */\n      tag_274\n      jump\t// in\n    tag_273:\n        /* \"#utility.yul\":5632:5635   */\n      dup3\n        /* \"#utility.yul\":5625:5660   */\n      mstore\n        /* \"#utility.yul\":5554:5666   */\n      pop\n      pop\n      jump\t// out\n        /* \"#utility.yul\":5672:5894   */\n    tag_66:\n        /* \"#utility.yul\":5765:5769   */\n      0x00\n        /* \"#utility.yul\":5803:5805   */\n      0x20\n        /* \"#utility.yul\":5792:5801   */\n      dup3\n        /* \"#utility.yul\":5788:5806   */\n      add\n        /* \"#utility.yul\":5780:5806   */\n      swap1\n      pop\n        /* \"#utility.yul\":5816:5887   */\n      tag_276\n        /* \"#utility.yul\":5884:5885   */\n      0x00\n        /* \"#utility.yul\":5873:5882   */\n      dup4\n        /* \"#utility.yul\":5869:5886   */\n      add\n        /* \"#utility.yul\":5860:5866   */\n      dup5\n        /* \"#utility.yul\":5816:5887   */\n      tag_214\n      jump\t// in\n    tag_276:\n        /* \"#utility.yul\":5672:5894   */\n      swap3\n      swap2\n      pop\n      pop\n      jump\t// out\n        /* \"#utility.yul\":5900:6110   */\n    tag_32:\n        /* \"#utility.yul\":5987:5991   */\n      0x00\n        /* \"#utility.yul\":6025:6027   */\n      0x20\n        /* \"#utility.yul\":6014:6023   */\n      dup3\n        /* \"#utility.yul\":6010:6028   */\n      add\n        /* \"#utility.yul\":6002:6028   */\n      swap1\n      pop\n        /* \"#utility.yul\":6038:6103   */\n      tag_278\n        /* \"#utility.yul\":6100:6101   */\n      0x00\n        /* \"#utility.yul\":6089:6098   */\n      dup4\n        /* \"#utility.yul\":6085:6102   */\n      add\n        /* \"#utility.yul\":6076:6082   */\n      dup5\n        /* \"#utility.yul\":6038:6103   */\n      tag_218\n      jump\t// in\n    tag_278:\n        /* \"#utility.yul\":5900:6110   */\n      swap3\n      swap2\n      pop\n      pop\n      jump\t// out\n        /* \"#utility.yul\":6116:6429   */\n    tag_25:\n        /* \"#utility.yul\":6229:6233   */\n      0x00\n        /* \"#utility.yul\":6267:6269   */\n      0x20\n        /* \"#utility.yul\":6256:6265   */\n      dup3\n        /* \"#utility.yul\":6252:6270   */\n      add\n        /* \"#utility.yul\":6244:6270   */\n      swap1\n      pop\n        /* \"#utility.yul\":6316:6325   */\n      dup2\n        /* \"#utility.yul\":6310:6314   */\n      dup2\n        /* \"#utility.yul\":6306:6326   */\n      sub\n        /* \"#utility.yul\":6302:6303   */\n      0x00\n        /* \"#utility.yul\":6291:6300   */\n      dup4\n        /* \"#utility.yul\":6287:6304   */\n      add\n        /* \"#utility.yul\":6280:6327   */\n      mstore\n        /* \"#utility.yul\":6344:6422   */\n      tag_280\n        /* \"#utility.yul\":6417:6421   */\n      dup2\n        /* \"#utility.yul\":6408:6414   */\n      dup5\n        /* \"#utility.yul\":6344:6422   */\n      tag_222\n      jump\t// in\n    tag_280:\n        /* \"#utility.yul\":6336:6422   */\n      swap1\n      pop\n        /* \"#utility.yul\":6116:6429   */\n      swap3\n      swap2\n      pop\n      pop\n      jump\t// out\n        /* \"#utility.yul\":6435:6854   */\n    tag_172:\n        /* \"#utility.yul\":6601:6605   */\n      0x00\n        /* \"#utility.yul\":6639:6641   */\n      0x20\n        /* \"#utility.yul\":6628:6637   */\n      dup3\n        /* \"#utility.yul\":6624:6642   */\n      add\n        /* \"#utility.yul\":6616:6642   */\n      swap1\n      pop\n        /* \"#utility.yul\":6688:6697   */\n      dup2\n        /* \"#utility.yul\":6682:6686   */\n      dup2\n        /* \"#utility.yul\":6678:6698   */\n      sub\n        /* \"#utility.yul\":6674:6675   */\n      0x00\n        /* \"#utility.yul\":6663:6672   */\n      dup4\n        /* \"#utility.yul\":6659:6676   */\n      add\n        /* \"#utility.yul\":6652:6699   */\n      mstore\n        /* \"#utility.yul\":6716:6847   */\n      tag_282\n        /* \"#utility.yul\":6842:6846   */\n      dup2\n        /* \"#utility.yul\":6716:6847   */\n      tag_232\n      jump\t// in\n    tag_282:\n        /* \"#utility.yul\":6708:6847   */\n      swap1\n      pop\n        /* \"#utility.yul\":6435:6854   */\n      swap2\n      swap1\n      pop\n      jump\t// out\n        /* \"#utility.yul\":6860:7279   */\n    tag_157:\n        /* \"#utility.yul\":7026:7030   */\n      0x00\n        /* \"#utility.yul\":7064:7066   */\n      0x20\n        /* \"#utility.yul\":7053:7062   */\n      dup3\n        /* \"#utility.yul\":7049:7067   */\n      add\n        /* \"#utility.yul\":7041:7067   */\n      swap1\n      pop\n        /* \"#utility.yul\":7113:7122   */\n      dup2\n        /* \"#utility.yul\":7107:7111   */\n      dup2\n        /* \"#utility.yul\":7103:7123   */\n      sub\n        /* \"#utility.yul\":7099:7100   */\n      0x00\n        /* \"#utility.yul\":7088:7097   */\n      dup4\n        /* \"#utility.yul\":7084:7101   */\n      add\n        /* \"#utility.yul\":7077:7124   */\n      mstore\n        /* \"#utility.yul\":7141:7272   */\n      tag_284\n        /* \"#utility.yul\":7267:7271   */\n      dup2\n        /* \"#utility.yul\":7141:7272   */\n      tag_237\n      jump\t// in\n    tag_284:\n        /* \"#utility.yul\":7133:7272   */\n      swap1\n      pop\n        /* \"#utility.yul\":6860:7279   */\n      swap2\n      swap1\n      pop\n      jump\t// out\n        /* \"#utility.yul\":7285:7704   */\n    tag_164:\n        /* \"#utility.yul\":7451:7455   */\n      0x00\n        /* \"#utility.yul\":7489:7491   */\n      0x20\n        /* \"#utility.yul\":7478:7487   */\n      dup3\n        /* \"#utility.yul\":7474:7492   */\n      add\n        /* \"#utility.yul\":7466:7492   */\n      swap1\n      pop\n        /* \"#utility.yul\":7538:7547   */\n      dup2\n        /* \"#utility.yul\":7532:7536   */\n      dup2\n        /* \"#utility.yul\":7528:7548   */\n      sub\n        /* \"#utility.yul\":7524:7525   */\n      0x00\n        /* \"#utility.yul\":7513:7522   */\n      dup4\n        /* \"#utility.yul\":7509:7526   */\n      add\n        /* \"#utility.yul\":7502:7549   */\n      mstore\n        /* \"#utility.yul\":7566:7697   */\n      tag_286\n        /* \"#utility.yul\":7692:7696   */\n      dup2\n        /* \"#utility.yul\":7566:7697   */\n      tag_242\n      jump\t// in\n    tag_286:\n        /* \"#utility.yul\":7558:7697   */\n      swap1\n      pop\n        /* \"#utility.yul\":7285:7704   */\n      swap2\n      swap1\n      pop\n      jump\t// out\n        /* \"#utility.yul\":7710:8129   */\n    tag_177:\n        /* \"#utility.yul\":7876:7880   */\n      0x00\n        /* \"#utility.yul\":7914:7916   */\n      0x20\n        /* \"#utility.yul\":7903:7912   */\n      dup3\n        /* \"#utility.yul\":7899:7917   */\n      add\n        /* \"#utility.yul\":7891:7917   */\n      swap1\n      pop\n        /* \"#utility.yul\":7963:7972   */\n      dup2\n        /* \"#utility.yul\":7957:7961   */\n      dup2\n        /* \"#utility.yul\":7953:7973   */\n      sub\n        /* \"#utility.yul\":7949:7950   */\n      0x00\n        /* \"#utility.yul\":7938:7947   */\n      dup4\n        /* \"#utility.yul\":7934:7951   */\n      add\n        /* \"#utility.yul\":7927:7974   */\n      mstore\n        /* \"#utility.yul\":7991:8122   */\n      tag_288\n        /* \"#utility.yul\":8117:8121   */\n      dup2\n        /* \"#utility.yul\":7991:8122   */\n      tag_247\n      jump\t// in\n    tag_288:\n        /* \"#utility.yul\":7983:8122   */\n      swap1\n      pop\n        /* \"#utility.yul\":7710:8129   */\n      swap2\n      swap1\n      pop\n      jump\t// out\n        /* \"#utility.yul\":8135:8554   */\n    tag_169:\n        /* \"#utility.yul\":8301:8305   */\n      0x00\n        /* \"#utility.yul\":8339:8341   */\n      0x20\n        /* \"#utility.yul\":8328:8337   */\n      dup3\n        /* \"#utility.yul\":8324:8342   */\n      add\n        /* \"#utility.yul\":8316:8342   */\n      swap1\n      pop\n        /* \"#utility.yul\":8388:8397   */\n      dup2\n        /* \"#utility.yul\":8382:8386   */\n      dup2\n        /* \"#utility.yul\":8378:8398   */\n      sub\n        /* \"#utility.yul\":8374:8375   */\n      0x00\n        /* \"#utility.yul\":8363:8372   */\n      dup4\n        /* \"#utility.yul\":8359:8376   */\n      add\n        /* \"#utility.yul\":8352:8399   */\n      mstore\n        /* \"#utility.yul\":8416:8547   */\n      tag_290\n        /* \"#utility.yul\":8542:8546   */\n      dup2\n        /* \"#utility.yul\":8416:8547   */\n      tag_252\n      jump\t// in\n    tag_290:\n        /* \"#utility.yul\":8408:8547   */\n      swap1\n      pop\n        /* \"#utility.yul\":8135:8554   */\n      swap2\n      swap1\n      pop\n      jump\t// out\n        /* \"#utility.yul\":8560:8979   */\n    tag_154:\n        /* \"#utility.yul\":8726:8730   */\n      0x00\n        /* \"#utility.yul\":8764:8766   */\n      0x20\n        /* \"#utility.yul\":8753:8762   */\n      dup3\n        /* \"#utility.yul\":8749:8767   */\n      add\n        /* \"#utility.yul\":8741:8767   */\n      swap1\n      pop\n        /* \"#utility.yul\":8813:8822   */\n      dup2\n        /* \"#utility.yul\":8807:8811   */\n      dup2\n        /* \"#utility.yul\":8803:8823   */\n      sub\n        /* \"#utility.yul\":8799:8800   */\n      0x00\n        /* \"#utility.yul\":8788:8797   */\n      dup4\n        /* \"#utility.yul\":8784:8801   */\n      add\n        /* \"#utility.yul\":8777:8824   */\n      mstore\n        /* \"#utility.yul\":8841:8972   */\n      tag_292\n        /* \"#utility.yul\":8967:8971   */\n      dup2\n        /* \"#utility.yul\":8841:8972   */\n      tag_257\n      jump\t// in\n    tag_292:\n        /* \"#utility.yul\":8833:8972   */\n      swap1\n      pop\n        /* \"#utility.yul\":8560:8979   */\n      swap2\n      swap1\n      pop\n      jump\t// out\n        /* \"#utility.yul\":8985:9404   */\n    tag_143:\n        /* \"#utility.yul\":9151:9155   */\n      0x00\n        /* \"#utility.yul\":9189:9191   */\n      0x20\n        /* \"#utility.yul\":9178:9187   */\n      dup3\n        /* \"#utility.yul\":9174:9192   */\n      add\n        /* \"#utility.yul\":9166:9192   */\n      swap1\n      pop\n        /* \"#utility.yul\":9238:9247   */\n      dup2\n        /* \"#utility.yul\":9232:9236   */\n      dup2\n        /* \"#utility.yul\":9228:9248   */\n      sub\n        /* \"#utility.yul\":9224:9225   */\n      0x00\n        /* \"#utility.yul\":9213:9222   */\n      dup4\n        /* \"#utility.yul\":9209:9226   */\n      add\n        /* \"#utility.yul\":9202:9249   */\n      mstore\n        /* \"#utility.yul\":9266:9397   */\n      tag_294\n        /* \"#utility.yul\":9392:9396   */\n      dup2\n        /* \"#utility.yul\":9266:9397   */\n      tag_262\n      jump\t// in\n    tag_294:\n        /* \"#utility.yul\":9258:9397   */\n      swap1\n      pop\n        /* \"#utility.yul\":8985:9404   */\n      swap2\n      swap1\n      pop\n      jump\t// out\n        /* \"#utility.yul\":9410:9632   */\n    tag_37:\n        /* \"#utility.yul\":9503:9507   */\n      0x00\n        /* \"#utility.yul\":9541:9543   */\n      0x20\n        /* \"#utility.yul\":9530:9539   */\n      dup3\n        /* \"#utility.yul\":9526:9544   */\n      add\n        /* \"#utility.yul\":9518:9544   */\n      swap1\n      pop\n        /* \"#utility.yul\":9554:9625   */\n      tag_296\n        /* \"#utility.yul\":9622:9623   */\n      0x00\n        /* \"#utility.yul\":9611:9620   */\n      dup4\n        /* \"#utility.yul\":9607:9624   */\n      add\n        /* \"#utility.yul\":9598:9604   */\n      dup5\n        /* \"#utility.yul\":9554:9625   */\n      tag_267\n      jump\t// in\n    tag_296:\n        /* \"#utility.yul\":9410:9632   */\n      swap3\n      swap2\n      pop\n      pop\n      jump\t// out\n        /* \"#utility.yul\":9638:9852   */\n    tag_48:\n        /* \"#utility.yul\":9727:9731   */\n      0x00\n        /* \"#utility.yul\":9765:9767   */\n      0x20\n        /* \"#utility.yul\":9754:9763   */\n      dup3\n        /* \"#utility.yul\":9750:9768   */\n      add\n        /* \"#utility.yul\":9742:9768   */\n      swap1\n      pop\n        /* \"#utility.yul\":9778:9845   */\n      tag_298\n        /* \"#utility.yul\":9842:9843   */\n      0x00\n        /* \"#utility.yul\":9831:9840   */\n      dup4\n        /* \"#utility.yul\":9827:9844   */\n      add\n        /* \"#utility.yul\":9818:9824   */\n      dup5\n        /* \"#utility.yul\":9778:9845   */\n      tag_271\n      jump\t// in\n    tag_298:\n        /* \"#utility.yul\":9638:9852   */\n      swap3\n      swap2\n      pop\n      pop\n      jump\t// out\n        /* \"#utility.yul\":9939:10038   */\n    tag_225:\n        /* \"#utility.yul\":9991:9997   */\n      0x00\n        /* \"#utility.yul\":10025:10030   */\n      dup2\n        /* \"#utility.yul\":10019:10031   */\n      mload\n        /* \"#utility.yul\":10009:10031   */\n      swap1\n      pop\n        /* \"#utility.yul\":9939:10038   */\n      swap2\n      swap1\n      pop\n      jump\t// out\n        /* \"#utility.yul\":10044:10213   */\n    tag_227:\n        /* \"#utility.yul\":10128:10139   */\n      0x00\n        /* \"#utility.yul\":10162:10168   */\n      dup3\n        /* \"#utility.yul\":10157:10160   */\n      dup3\n        /* \"#utility.yul\":10150:10169   */\n      mstore\n        /* \"#utility.yul\":10202:10206   */\n      0x20\n        /* \"#utility.yul\":10197:10200   */\n      dup3\n        /* \"#utility.yul\":10193:10207   */\n      add\n        /* \"#utility.yul\":10178:10207   */\n      swap1\n      pop\n        /* \"#utility.yul\":10044:10213   */\n      swap3\n      swap2\n      pop\n      pop\n      jump\t// out\n        /* \"#utility.yul\":10219:10524   */\n    tag_127:\n        /* \"#utility.yul\":10259:10262   */\n      0x00\n        /* \"#utility.yul\":10278:10298   */\n      tag_304\n        /* \"#utility.yul\":10296:10297   */\n      dup3\n        /* \"#utility.yul\":10278:10298   */\n      tag_270\n      jump\t// in\n    tag_304:\n        /* \"#utility.yul\":10273:10298   */\n      swap2\n      pop\n        /* \"#utility.yul\":10312:10332   */\n      tag_305\n        /* \"#utility.yul\":10330:10331   */\n      dup4\n        /* \"#utility.yul\":10312:10332   */\n      tag_270\n      jump\t// in\n    tag_305:\n        /* \"#utility.yul\":10307:10332   */\n      swap3\n      pop\n        /* \"#utility.yul\":10466:10467   */\n      dup3\n        /* \"#utility.yul\":10398:10464   */\n      0xffffffffffffffffffffffffffffffffffffffffffffffffffffffffffffffff\n        /* \"#utility.yul\":10394:10468   */\n      sub\n        /* \"#utility.yul\":10391:10392   */\n      dup3\n        /* \"#utility.yul\":10388:10469   */\n      gt\n        /* \"#utility.yul\":10385:10492   */\n      iszero\n      tag_306\n      jumpi\n        /* \"#utility.yul\":10472:10490   */\n      tag_307\n      tag_308\n      jump\t// in\n    tag_307:\n        /* \"#utility.yul\":10385:10492   */\n    tag_306:\n        /* \"#utility.yul\":10516:10517   */\n      dup3\n        /* \"#utility.yul\":10513:10514   */\n      dup3\n        /* \"#utility.yul\":10509:10518   */\n      add\n        /* \"#utility.yul\":10502:10518   */\n      swap1\n      pop\n        /* \"#utility.yul\":10219:10524   */\n      swap3\n      swap2\n      pop\n      pop\n      jump\t// out\n        /* \"#utility.yul\":10530:10626   */\n    tag_217:\n        /* \"#utility.yul\":10567:10574   */\n      0x00\n        /* \"#utility.yul\":10596:10620   */\n      tag_310\n        /* \"#utility.yul\":10614:10619   */\n      dup3\n        /* \"#utility.yul\":10596:10620   */\n      tag_311\n      jump\t// in\n    tag_310:\n        /* \"#utility.yul\":10585:10620   */\n      swap1\n      pop\n        /* \"#utility.yul\":10530:10626   */\n      swap2\n      swap1\n      pop\n      jump\t// out\n        /* \"#utility.yul\":10632:10722   */\n    tag_221:\n        /* \"#utility.yul\":10666:10673   */\n      0x00\n        /* \"#utility.yul\":10709:10714   */\n      dup2\n        /* \"#utility.yul\":10702:10715   */\n      iszero\n        /* \"#utility.yul\":10695:10716   */\n      iszero\n        /* \"#utility.yul\":10684:10716   */\n      swap1\n      pop\n        /* \"#utility.yul\":10632:10722   */\n      swap2\n      swap1\n      pop\n      jump\t// out\n        /* \"#utility.yul\":10728:10854   */\n    tag_311:\n        /* \"#utility.yul\":10765:10772   */\n      0x00\n        /* \"#utility.yul\":10805:10847   */\n      0xffffffffffffffffffffffffffffffffffffffff\n        /* \"#utility.yul\":10798:10803   */\n      dup3\n        /* \"#utility.yul\":10794:10848   */\n      and\n        /* \"#utility.yul\":10783:10848   */\n      swap1\n      pop\n        /* \"#utility.yul\":10728:10854   */\n      swap2\n      swap1\n      pop\n      jump\t// out\n        /* \"#utility.yul\":10860:10937   */\n    tag_270:\n        /* \"#utility.yul\":10897:10904   */\n      0x00\n        /* \"#utility.yul\":10926:10931   */\n      dup2\n        /* \"#utility.yul\":10915:10931   */\n      swap1\n      pop\n        /* \"#utility.yul\":10860:10937   */\n      swap2\n      swap1\n      pop\n      jump\t// out\n        /* \"#utility.yul\":10943:11029   */\n    tag_274:\n        /* \"#utility.yul\":10978:10985   */\n      0x00\n        /* \"#utility.yul\":11018:11022   */\n      0xff\n        /* \"#utility.yul\":11011:11016   */\n      dup3\n        /* \"#utility.yul\":11007:11023   */\n      and\n        /* \"#utility.yul\":10996:11023   */\n      swap1\n      pop\n        /* \"#utility.yul\":10943:11029   */\n      swap2\n      swap1\n      pop\n      jump\t// out\n        /* \"#utility.yul\":11035:11342   */\n    tag_229:\n        /* \"#utility.yul\":11103:11104   */\n      0x00\n        /* \"#utility.yul\":11113:11226   */\n    tag_317:\n        /* \"#utility.yul\":11127:11133   */\n      dup4\n        /* \"#utility.yul\":11124:11125   */\n      dup2\n        /* \"#utility.yul\":11121:11134   */\n      lt\n        /* \"#utility.yul\":11113:11226   */\n      iszero\n      tag_319\n      jumpi\n        /* \"#utility.yul\":11212:11213   */\n      dup1\n        /* \"#utility.yul\":11207:11210   */\n      dup3\n        /* \"#utility.yul\":11203:11214   */\n      add\n        /* \"#utility.yul\":11197:11215   */\n      mload\n        /* \"#utility.yul\":11193:11194   */\n      dup2\n        /* \"#utility.yul\":11188:11191   */\n      dup5\n        /* \"#utility.yul\":11184:11195   */\n      add\n        /* \"#utility.yul\":11177:11216   */\n      mstore\n        /* \"#utility.yul\":11149:11151   */\n      0x20\n        /* \"#utility.yul\":11146:11147   */\n      dup2\n        /* \"#utility.yul\":11142:11152   */\n      add\n        /* \"#utility.yul\":11137:11152   */\n      swap1\n      pop\n        /* \"#utility.yul\":11113:11226   */\n      jump(tag_317)\n    tag_319:\n        /* \"#utility.yul\":11244:11250   */\n      dup4\n        /* \"#utility.yul\":11241:11242   */\n      dup2\n        /* \"#utility.yul\":11238:11251   */\n      gt\n        /* \"#utility.yul\":11235:11336   */\n      iszero\n      tag_320\n      jumpi\n        /* \"#utility.yul\":11324:11325   */\n      0x00\n        /* \"#utility.yul\":11315:11321   */\n      dup5\n        /* \"#utility.yul\":11310:11313   */\n      dup5\n        /* \"#utility.yul\":11306:11322   */\n      add\n        /* \"#utility.yul\":11299:11326   */\n      mstore\n        /* \"#utility.yul\":11235:11336   */\n    tag_320:\n        /* \"#utility.yul\":11084:11342   */\n      pop\n        /* \"#utility.yul\":11035:11342   */\n      pop\n      pop\n      pop\n      jump\t// out\n        /* \"#utility.yul\":11348:11668   */\n    tag_102:\n        /* \"#utility.yul\":11392:11398   */\n      0x00\n        /* \"#utility.yul\":11429:11430   */\n      0x02\n        /* \"#utility.yul\":11423:11427   */\n      dup3\n        /* \"#utility.yul\":11419:11431   */\n      div\n        /* \"#utility.yul\":11409:11431   */\n      swap1\n      pop\n        /* \"#utility.yul\":11476:11477   */\n      0x01\n        /* \"#utility.yul\":11470:11474   */\n      dup3\n        /* \"#utility.yul\":11466:11478   */\n      and\n        /* \"#utility.yul\":11497:11515   */\n      dup1\n        /* \"#utility.yul\":11487:11568   */\n      tag_322\n      jumpi\n        /* \"#utility.yul\":11553:11557   */\n      0x7f\n        /* \"#utility.yul\":11545:11551   */\n      dup3\n        /* \"#utility.yul\":11541:11558   */\n      and\n        /* \"#utility.yul\":11531:11558   */\n      swap2\n      pop\n        /* \"#utility.yul\":11487:11568   */\n    tag_322:\n        /* \"#utility.yul\":11615:11617   */\n      0x20\n        /* \"#utility.yul\":11607:11613   */\n      dup3\n        /* \"#utility.yul\":11604:11618   */\n      lt\n        /* \"#utility.yul\":11584:11602   */\n      dup2\n        /* \"#utility.yul\":11581:11619   */\n      eq\n        /* \"#utility.yul\":11578:11662   */\n      iszero\n      tag_323\n      jumpi\n        /* \"#utility.yul\":11634:11652   */\n      tag_324\n      tag_325\n      jump\t// in\n    tag_324:\n        /* \"#utility.yul\":11578:11662   */\n    tag_323:\n        /* \"#utility.yul\":11399:11668   */\n      pop\n        /* \"#utility.yul\":11348:11668   */\n      swap2\n      swap1\n      pop\n      jump\t// out\n        /* \"#utility.yul\":11674:11854   */\n    tag_308:\n        /* \"#utility.yul\":11722:11799   */\n      0x4e487b7100000000000000000000000000000000000000000000000000000000\n        /* \"#utility.yul\":11719:11720   */\n      0x00\n        /* \"#utility.yul\":11712:11800   */\n      mstore\n        /* \"#utility.yul\":11819:11823   */\n      0x11\n        /* \"#utility.yul\":11816:11817   */\n      0x04\n        /* \"#utility.yul\":11809:11824   */\n      mstore\n        /* \"#utility.yul\":11843:11847   */\n      0x24\n        /* \"#utility.yul\":11840:11841   */\n      0x00\n        /* \"#utility.yul\":11833:11848   */\n      revert\n        /* \"#utility.yul\":11860:12040   */\n    tag_325:\n        /* \"#utility.yul\":11908:11985   */\n      0x4e487b7100000000000000000000000000000000000000000000000000000000\n        /* \"#utility.yul\":11905:11906   */\n      0x00\n        /* \"#utility.yul\":11898:11986   */\n      mstore\n        /* \"#utility.yul\":12005:12009   */\n      0x22\n        /* \"#utility.yul\":12002:12003   */\n      0x04\n        /* \"#utility.yul\":11995:12010   */\n      mstore\n        /* \"#utility.yul\":12029:12033   */\n      0x24\n        /* \"#utility.yul\":12026:12027   */\n      0x00\n        /* \"#utility.yul\":12019:12034   */\n      revert\n        /* \"#utility.yul\":12169:12286   */\n    tag_196:\n        /* \"#utility.yul\":12278:12279   */\n      0x00\n        /* \"#utility.yul\":12275:12276   */\n      dup1\n        /* \"#utility.yul\":12268:12280   */\n      revert\n        /* \"#utility.yul\":12292:12394   */\n    tag_231:\n        /* \"#utility.yul\":12333:12339   */\n      0x00\n        /* \"#utility.yul\":12384:12386   */\n      0x1f\n        /* \"#utility.yul\":12380:12387   */\n      not\n        /* \"#utility.yul\":12375:12377   */\n      0x1f\n        /* \"#utility.yul\":12368:12373   */\n      dup4\n        /* \"#utility.yul\":12364:12378   */\n      add\n        /* \"#utility.yul\":12360:12388   */\n      and\n        /* \"#utility.yul\":12350:12388   */\n      swap1\n      pop\n        /* \"#utility.yul\":12292:12394   */\n      swap2\n      swap1\n      pop\n      jump\t// out\n        /* \"#utility.yul\":12400:12622   */\n    tag_236:\n        /* \"#utility.yul\":12540:12574   */\n      0x45524332303a207472616e7366657220746f20746865207a65726f2061646472\n        /* \"#utility.yul\":12536:12537   */\n      0x00\n        /* \"#utility.yul\":12528:12534   */\n      dup3\n        /* \"#utility.yul\":12524:12538   */\n      add\n        /* \"#utility.yul\":12517:12575   */\n      mstore\n        /* \"#utility.yul\":12609:12614   */\n      0x6573730000000000000000000000000000000000000000000000000000000000\n        /* \"#utility.yul\":12604:12606   */\n      0x20\n        /* \"#utility.yul\":12596:12602   */\n      dup3\n        /* \"#utility.yul\":12592:12607   */\n      add\n        /* \"#utility.yul\":12585:12615   */\n      mstore\n        /* \"#utility.yul\":12400:12622   */\n      pop\n      jump\t// out\n        /* \"#utility.yul\":12628:12849   */\n    tag_241:\n        /* \"#utility.yul\":12768:12802   */\n      0x45524332303a20617070726f766520746f20746865207a65726f206164647265\n        /* \"#utility.yul\":12764:12765   */\n      0x00\n        /* \"#utility.yul\":12756:12762   */\n      dup3\n        /* \"#utility.yul\":12752:12766   */\n      add\n        /* \"#utility.yul\":12745:12803   */\n      mstore\n        /* \"#utility.yul\":12837:12841   */\n      0x7373000000000000000000000000000000000000000000000000000000000000\n        /* \"#utility.yul\":12832:12834   */\n      0x20\n        /* \"#utility.yul\":12824:12830   */\n      dup3\n        /* \"#utility.yul\":12820:12835   */\n      add\n        /* \"#utility.yul\":12813:12842   */\n      mstore\n        /* \"#utility.yul\":12628:12849   */\n      pop\n      jump\t// out\n        /* \"#utility.yul\":12855:13034   */\n    tag_246:\n        /* \"#utility.yul\":12995:13026   */\n      0x45524332303a20696e73756666696369656e7420616c6c6f77616e6365000000\n        /* \"#utility.yul\":12991:12992   */\n      0x00\n        /* \"#utility.yul\":12983:12989   */\n      dup3\n        /* \"#utility.yul\":12979:12993   */\n      add\n        /* \"#utility.yul\":12972:13027   */\n      mstore\n        /* \"#utility.yul\":12855:13034   */\n      pop\n      jump\t// out\n        /* \"#utility.yul\":13040:13265   */\n    tag_251:\n        /* \"#utility.yul\":13180:13214   */\n      0x45524332303a207472616e7366657220616d6f756e7420657863656564732062\n        /* \"#utility.yul\":13176:13177   */\n      0x00\n        /* \"#utility.yul\":13168:13174   */\n      dup3\n        /* \"#utility.yul\":13164:13178   */\n      add\n        /* \"#utility.yul\":13157:13215   */\n      mstore\n        /* \"#utility.yul\":13249:13257   */\n      0x616c616e63650000000000000000000000000000000000000000000000000000\n        /* \"#utility.yul\":13244:13246   */\n      0x20\n        /* \"#utility.yul\":13236:13242   */\n      dup3\n        /* \"#utility.yul\":13232:13247   */\n      add\n        /* \"#utility.yul\":13225:13258   */\n      mstore\n        /* \"#utility.yul\":13040:13265   */\n      pop\n      jump\t// out\n        /* \"#utility.yul\":13271:13495   */\n    tag_256:\n        /* \"#utility.yul\":13411:13445   */\n      0x45524332303a207472616e736665722066726f6d20746865207a65726f206164\n        /* \"#utility.yul\":13407:13408   */\n      0x00\n        /* \"#utility.yul\":13399:13405   */\n      dup3\n        /* \"#utility.yul\":13395:13409   */\n      add\n        /* \"#utility.yul\":13388:13446   */\n      mstore\n        /* \"#utility.yul\":13480:13487   */\n      0x6472657373000000000000000000000000000000000000000000000000000000\n        /* \"#utility.yul\":13475:13477   */\n      0x20\n        /* \"#utility.yul\":13467:13473   */\n      dup3\n        /* \"#utility.yul\":13463:13478   */\n      add\n        /* \"#utility.yul\":13456:13488   */\n      mstore\n        /* \"#utility.yul\":13271:13495   */\n      pop\n      jump\t// out\n        /* \"#utility.yul\":13501:13724   */\n    tag_261:\n        /* \"#utility.yul\":13641:13675   */\n      0x45524332303a20617070726f76652066726f6d20746865207a65726f20616464\n        /* \"#utility.yul\":13637:13638   */\n      0x00\n        /* \"#utility.yul\":13629:13635   */\n      dup3\n        /* \"#utility.yul\":13625:13639   */\n      add\n        /* \"#utility.yul\":13618:13676   */\n      mstore\n        /* \"#utility.yul\":13710:13716   */\n      0x7265737300000000000000000000000000000000000000000000000000000000\n        /* \"#utility.yul\":13705:13707   */\n      0x20\n        /* \"#utility.yul\":13697:13703   */\n      dup3\n        /* \"#utility.yul\":13693:13708   */\n      add\n        /* \"#utility.yul\":13686:13717   */\n      mstore\n        /* \"#utility.yul\":13501:13724   */\n      pop\n      jump\t// out\n        /* \"#utility.yul\":13730:13954   */\n    tag_266:\n        /* \"#utility.yul\":13870:13904   */\n      0x45524332303a2064656372656173656420616c6c6f77616e63652062656c6f77\n        /* \"#utility.yul\":13866:13867   */\n      0x00\n        /* \"#utility.yul\":13858:13864   */\n      dup3\n        /* \"#utility.yul\":13854:13868   */\n      add\n        /* \"#utility.yul\":13847:13905   */\n      mstore\n        /* \"#utility.yul\":13939:13946   */\n      0x207a65726f000000000000000000000000000000000000000000000000000000\n        /* \"#utility.yul\":13934:13936   */\n      0x20\n        /* \"#utility.yul\":13926:13932   */\n      dup3\n        /* \"#utility.yul\":13922:13937   */\n      add\n        /* \"#utility.yul\":13915:13947   */\n      mstore\n        /* \"#utility.yul\":13730:13954   */\n      pop\n      jump\t// out\n        /* \"#utility.yul\":13960:14082   */\n    tag_188:\n        /* \"#utility.yul\":14033:14057   */\n      tag_340\n        /* \"#utility.yul\":14051:14056   */\n      dup2\n        /* \"#utility.yul\":14033:14057   */\n      tag_217\n      jump\t// in\n    tag_340:\n        /* \"#utility.yul\":14026:14031   */\n      dup2\n        /* \"#utility.yul\":14023:14058   */\n      eq\n        /* \"#utility.yul\":14013:14076   */\n      tag_341\n      jumpi\n        /* \"#utility.yul\":14072:14073   */\n      0x00\n        /* \"#utility.yul\":14069:14070   */\n      dup1\n        /* \"#utility.yul\":14062:14074   */\n      revert\n        /* \"#utility.yul\":14013:14076   */\n    tag_341:\n        /* \"#utility.yul\":13960:14082   */\n      pop\n      jump\t// out\n        /* \"#utility.yul\":14088:14210   */\n    tag_192:\n        /* \"#utility.yul\":14161:14185   */\n      tag_343\n        /* \"#utility.yul\":14179:14184   */\n      dup2\n        /* \"#utility.yul\":14161:14185   */\n      tag_270\n      jump\t// in\n    tag_343:\n        /* \"#utility.yul\":14154:14159   */\n      dup2\n        /* \"#utility.yul\":14151:14186   */\n      eq\n        /* \"#utility.yul\":14141:14204   */\n      tag_344\n      jumpi\n        /* \"#utility.yul\":14200:14201   */\n      0x00\n        /* \"#utility.yul\":14197:14198   */\n      dup1\n        /* \"#utility.yul\":14190:14202   */\n      revert\n        /* \"#utility.yul\":14141:14204   */\n    tag_344:\n        /* \"#utility.yul\":14088:14210   */\n      pop\n      jump\t// out\n\n    auxdata: 0xa2646970667358221220ff36e1189985a482c9b07a2f4edde60a5c1481d827137df1948c831777141b7264736f6c63430008070033\n}\n",
				"bytecode": {
					"linkReferences": {},
					"object": "60806040523480156200001157600080fd5b5060405162001e0938038062001e098339818101604052810190620000379190620003c7565b828281600390805190602001906200005192919062000282565b5080600490805190602001906200006a92919062000282565b50505033600560006101000a81548173ffffffffffffffffffffffffffffffffffffffff021916908373ffffffffffffffffffffffffffffffffffffffff160217905550620000ed33620000c3620000f660201b60201c565b60ff16600a620000d4919062000600565b83620000e191906200073d565b620000ff60201b60201c565b5050506200094c565b60006012905090565b600073ffffffffffffffffffffffffffffffffffffffff168273ffffffffffffffffffffffffffffffffffffffff16141562000172576040517f08c379a0000000000000000000000000000000000000000000000000000000008152600401620001699062000499565b60405180910390fd5b62000186600083836200027860201b60201c565b80600260008282546200019a919062000548565b92505081905550806000808473ffffffffffffffffffffffffffffffffffffffff1673ffffffffffffffffffffffffffffffffffffffff1681526020019081526020016000206000828254620001f1919062000548565b925050819055508173ffffffffffffffffffffffffffffffffffffffff16600073ffffffffffffffffffffffffffffffffffffffff167fddf252ad1be2c89b69c2b068fc378daa952ba7f163c4a11628f55a4df523b3ef83604051620002589190620004bb565b60405180910390a362000274600083836200027d60201b60201c565b5050565b505050565b505050565b8280546200029090620007de565b90600052602060002090601f016020900481019282620002b4576000855562000300565b82601f10620002cf57805160ff191683800117855562000300565b8280016001018555821562000300579182015b82811115620002ff578251825591602001919060010190620002e2565b5b5090506200030f919062000313565b5090565b5b808211156200032e57600081600090555060010162000314565b5090565b600062000349620003438462000501565b620004d8565b905082815260208101848484011115620003685762000367620008dc565b5b62000375848285620007a8565b509392505050565b600082601f830112620003955762000394620008d7565b5b8151620003a784826020860162000332565b91505092915050565b600081519050620003c18162000932565b92915050565b600080600060608486031215620003e357620003e2620008e6565b5b600084015167ffffffffffffffff811115620004045762000403620008e1565b5b62000412868287016200037d565b935050602084015167ffffffffffffffff811115620004365762000435620008e1565b5b62000444868287016200037d565b92505060406200045786828701620003b0565b9150509250925092565b600062000470601f8362000537565b91506200047d8262000909565b602082019050919050565b62000493816200079e565b82525050565b60006020820190508181036000830152620004b48162000461565b9050919050565b6000602082019050620004d2600083018462000488565b92915050565b6000620004e4620004f7565b9050620004f2828262000814565b919050565b6000604051905090565b600067ffffffffffffffff8211156200051f576200051e620008a8565b5b6200052a82620008eb565b9050602081019050919050565b600082825260208201905092915050565b600062000555826200079e565b915062000562836200079e565b9250827fffffffffffffffffffffffffffffffffffffffffffffffffffffffffffffffff038211156200059a57620005996200084a565b5b828201905092915050565b6000808291508390505b6001851115620005f757808604811115620005cf57620005ce6200084a565b5b6001851615620005df5780820291505b8081029050620005ef85620008fc565b9450620005af565b94509492505050565b60006200060d826200079e565b91506200061a836200079e565b9250620006497fffffffffffffffffffffffffffffffffffffffffffffffffffffffffffffffff848462000651565b905092915050565b60008262000663576001905062000736565b8162000673576000905062000736565b81600181146200068c57600281146200069757620006cd565b600191505062000736565b60ff841115620006ac57620006ab6200084a565b5b8360020a915084821115620006c657620006c56200084a565b5b5062000736565b5060208310610133831016604e8410600b8410161715620007075782820a9050838111156200070157620007006200084a565b5b62000736565b620007168484846001620005a5565b9250905081840481111562000730576200072f6200084a565b5b81810290505b9392505050565b60006200074a826200079e565b915062000757836200079e565b9250817fffffffffffffffffffffffffffffffffffffffffffffffffffffffffffffffff04831182151516156200079357620007926200084a565b5b828202905092915050565b6000819050919050565b60005b83811015620007c8578082015181840152602081019050620007ab565b83811115620007d8576000848401525b50505050565b60006002820490506001821680620007f757607f821691505b602082108114156200080e576200080d62000879565b5b50919050565b6200081f82620008eb565b810181811067ffffffffffffffff82111715620008415762000840620008a8565b5b80604052505050565b7f4e487b7100000000000000000000000000000000000000000000000000000000600052601160045260246000fd5b7f4e487b7100000000000000000000000000000000000000000000000000000000600052602260045260246000fd5b7f4e487b7100000000000000000000000000000000000000000000000000000000600052604160045260246000fd5b600080fd5b600080fd5b600080fd5b600080fd5b6000601f19601f8301169050919050565b60008160011c9050919050565b7f45524332303a206d696e7420746f20746865207a65726f206164647265737300600082015250565b6200093d816200079e565b81146200094957600080fd5b50565b6114ad806200095c6000396000f3fe6080604052600436106100f35760003560e01c80635c1cb6911161008a578063a457c2d711610059578063a457c2d714610356578063a9059cbb14610393578063dd62ed3e146103d0578063e8b5e51f1461040d576100f3565b80635c1cb691146102865780636e78e23c146102b157806370a08231146102ee57806395d89b411461032b576100f3565b8063313ce567116100c6578063313ce567146101c8578063320ce981146101f3578063395093511461021e57806345b5a47a1461025b576100f3565b806306fdde03146100f8578063095ea7b31461012357806318160ddd1461016057806323b872dd1461018b575b600080fd5b34801561010457600080fd5b5061010d610417565b60405161011a9190610f6e565b60405180910390f35b34801561012f57600080fd5b5061014a60048036038101906101459190610d8e565b6104a9565b6040516101579190610f53565b60405180910390f35b34801561016c57600080fd5b506101756104cc565b6040516101829190611070565b60405180910390f35b34801561019757600080fd5b506101b260048036038101906101ad9190610d3b565b6104d6565b6040516101bf9190610f53565b60405180910390f35b3480156101d457600080fd5b506101dd610505565b6040516101ea919061108b565b60405180910390f35b3480156101ff57600080fd5b5061020861050e565b6040516102159190611070565b60405180910390f35b34801561022a57600080fd5b5061024560048036038101906102409190610d8e565b610540565b6040516102529190610f53565b60405180910390f35b34801561026757600080fd5b50610270610577565b60405161027d9190611070565b60405180910390f35b34801561029257600080fd5b5061029b61057f565b6040516102a89190610f38565b60405180910390f35b3480156102bd57600080fd5b506102d860048036038101906102d39190610d3b565b6105a5565b6040516102e59190610f53565b60405180910390f35b3480156102fa57600080fd5b5061031560048036038101906103109190610cce565b6105bd565b6040516103229190611070565b60405180910390f35b34801561033757600080fd5b50610340610605565b60405161034d9190610f6e565b60405180910390f35b34801561036257600080fd5b5061037d60048036038101906103789190610d8e565b610697565b60405161038a9190610f53565b60405180910390f35b34801561039f57600080fd5b506103ba60048036038101906103b59190610d8e565b61070e565b6040516103c79190610f53565b60405180910390f35b3480156103dc57600080fd5b506103f760048036038101906103f29190610cfb565b610731565b6040516104049190611070565b60405180910390f35b6104156107b8565b005b606060038054610426906111a0565b80601f0160208091040260200160405190810160405280929190818152602001828054610452906111a0565b801561049f5780601f106104745761010080835404028352916020019161049f565b820191906000526020600020905b81548152906001019060200180831161048257829003601f168201915b5050505050905090565b6000806104b46107ba565b90506104c18185856107c2565b600191505092915050565b6000600254905090565b6000806104e16107ba565b90506104ee85828561098d565b6104f9858585610a19565b60019150509392505050565b60006012905090565b600061053b600560009054906101000a900473ffffffffffffffffffffffffffffffffffffffff166105bd565b905090565b60008061054b6107ba565b905061056c81858561055d8589610731565b61056791906110c2565b6107c2565b600191505092915050565b600047905090565b600560009054906101000a900473ffffffffffffffffffffffffffffffffffffffff1681565b60006105b28484846107c2565b600190509392505050565b60008060008373ffffffffffffffffffffffffffffffffffffffff1673ffffffffffffffffffffffffffffffffffffffff168152602001908152602001600020549050919050565b606060048054610614906111a0565b80601f0160208091040260200160405190810160405280929190818152602001828054610640906111a0565b801561068d5780601f106106625761010080835404028352916020019161068d565b820191906000526020600020905b81548152906001019060200180831161067057829003601f168201915b5050505050905090565b6000806106a26107ba565b905060006106b08286610731565b9050838110156106f5576040517f08c379a00000000000000000000000000000000000000000000000000000000081526004016106ec90611050565b60405180910390fd5b61070282868684036107c2565b60019250505092915050565b6000806107196107ba565b9050610726818585610a19565b600191505092915050565b6000600160008473ffffffffffffffffffffffffffffffffffffffff1673ffffffffffffffffffffffffffffffffffffffff16815260200190815260200160002060008373ffffffffffffffffffffffffffffffffffffffff1673ffffffffffffffffffffffffffffffffffffffff16815260200190815260200160002054905092915050565b565b600033905090565b600073ffffffffffffffffffffffffffffffffffffffff168373ffffffffffffffffffffffffffffffffffffffff161415610832576040517f08c379a000000000000000000000000000000000000000000000000000000000815260040161082990611030565b60405180910390fd5b600073ffffffffffffffffffffffffffffffffffffffff168273ffffffffffffffffffffffffffffffffffffffff1614156108a2576040517f08c379a000000000000000000000000000000000000000000000000000000000815260040161089990610fb0565b60405180910390fd5b80600160008573ffffffffffffffffffffffffffffffffffffffff1673ffffffffffffffffffffffffffffffffffffffff16815260200190815260200160002060008473ffffffffffffffffffffffffffffffffffffffff1673ffffffffffffffffffffffffffffffffffffffff168152602001908152602001600020819055508173ffffffffffffffffffffffffffffffffffffffff168373ffffffffffffffffffffffffffffffffffffffff167f8c5be1e5ebec7d5bd14f71427d1e84f3dd0314c0f7b2291e5b200ac8c7c3b925836040516109809190611070565b60405180910390a3505050565b60006109998484610731565b90507fffffffffffffffffffffffffffffffffffffffffffffffffffffffffffffffff8114610a135781811015610a05576040517f08c379a00000000000000000000000000000000000000000000000000000000081526004016109fc90610fd0565b60405180910390fd5b610a1284848484036107c2565b5b50505050565b600073ffffffffffffffffffffffffffffffffffffffff168373ffffffffffffffffffffffffffffffffffffffff161415610a89576040517f08c379a0000000000000000000000000000000000000000000000000000000008152600401610a8090611010565b60405180910390fd5b600073ffffffffffffffffffffffffffffffffffffffff168273ffffffffffffffffffffffffffffffffffffffff161415610af9576040517f08c379a0000000000000000000000000000000000000000000000000000000008152600401610af090610f90565b60405180910390fd5b610b04838383610c9a565b60008060008573ffffffffffffffffffffffffffffffffffffffff1673ffffffffffffffffffffffffffffffffffffffff16815260200190815260200160002054905081811015610b8a576040517f08c379a0000000000000000000000000000000000000000000000000000000008152600401610b8190610ff0565b60405180910390fd5b8181036000808673ffffffffffffffffffffffffffffffffffffffff1673ffffffffffffffffffffffffffffffffffffffff16815260200190815260200160002081905550816000808573ffffffffffffffffffffffffffffffffffffffff1673ffffffffffffffffffffffffffffffffffffffff1681526020019081526020016000206000828254610c1d91906110c2565b925050819055508273ffffffffffffffffffffffffffffffffffffffff168473ffffffffffffffffffffffffffffffffffffffff167fddf252ad1be2c89b69c2b068fc378daa952ba7f163c4a11628f55a4df523b3ef84604051610c819190611070565b60405180910390a3610c94848484610c9f565b50505050565b505050565b505050565b600081359050610cb381611449565b92915050565b600081359050610cc881611460565b92915050565b600060208284031215610ce457610ce3611230565b5b6000610cf284828501610ca4565b91505092915050565b60008060408385031215610d1257610d11611230565b5b6000610d2085828601610ca4565b9250506020610d3185828601610ca4565b9150509250929050565b600080600060608486031215610d5457610d53611230565b5b6000610d6286828701610ca4565b9350506020610d7386828701610ca4565b9250506040610d8486828701610cb9565b9150509250925092565b60008060408385031215610da557610da4611230565b5b6000610db385828601610ca4565b9250506020610dc485828601610cb9565b9150509250929050565b610dd781611118565b82525050565b610de68161112a565b82525050565b6000610df7826110a6565b610e0181856110b1565b9350610e1181856020860161116d565b610e1a81611235565b840191505092915050565b6000610e326023836110b1565b9150610e3d82611246565b604082019050919050565b6000610e556022836110b1565b9150610e6082611295565b604082019050919050565b6000610e78601d836110b1565b9150610e83826112e4565b602082019050919050565b6000610e9b6026836110b1565b9150610ea68261130d565b604082019050919050565b6000610ebe6025836110b1565b9150610ec98261135c565b604082019050919050565b6000610ee16024836110b1565b9150610eec826113ab565b604082019050919050565b6000610f046025836110b1565b9150610f0f826113fa565b604082019050919050565b610f2381611156565b82525050565b610f3281611160565b82525050565b6000602082019050610f4d6000830184610dce565b92915050565b6000602082019050610f686000830184610ddd565b92915050565b60006020820190508181036000830152610f888184610dec565b905092915050565b60006020820190508181036000830152610fa981610e25565b9050919050565b60006020820190508181036000830152610fc981610e48565b9050919050565b60006020820190508181036000830152610fe981610e6b565b9050919050565b6000602082019050818103600083015261100981610e8e565b9050919050565b6000602082019050818103600083015261102981610eb1565b9050919050565b6000602082019050818103600083015261104981610ed4565b9050919050565b6000602082019050818103600083015261106981610ef7565b9050919050565b60006020820190506110856000830184610f1a565b92915050565b60006020820190506110a06000830184610f29565b92915050565b600081519050919050565b600082825260208201905092915050565b60006110cd82611156565b91506110d883611156565b9250827fffffffffffffffffffffffffffffffffffffffffffffffffffffffffffffffff0382111561110d5761110c6111d2565b5b828201905092915050565b600061112382611136565b9050919050565b60008115159050919050565b600073ffffffffffffffffffffffffffffffffffffffff82169050919050565b6000819050919050565b600060ff82169050919050565b60005b8381101561118b578082015181840152602081019050611170565b8381111561119a576000848401525b50505050565b600060028204905060018216806111b857607f821691505b602082108114156111cc576111cb611201565b5b50919050565b7f4e487b7100000000000000000000000000000000000000000000000000000000600052601160045260246000fd5b7f4e487b7100000000000000000000000000000000000000000000000000000000600052602260045260246000fd5b600080fd5b6000601f19601f8301169050919050565b7f45524332303a207472616e7366657220746f20746865207a65726f206164647260008201527f6573730000000000000000000000000000000000000000000000000000000000602082015250565b7f45524332303a20617070726f766520746f20746865207a65726f20616464726560008201527f7373000000000000000000000000000000000000000000000000000000000000602082015250565b7f45524332303a20696e73756666696369656e7420616c6c6f77616e6365000000600082015250565b7f45524332303a207472616e7366657220616d6f756e742065786365656473206260008201527f616c616e63650000000000000000000000000000000000000000000000000000602082015250565b7f45524332303a207472616e736665722066726f6d20746865207a65726f20616460008201527f6472657373000000000000000000000000000000000000000000000000000000602082015250565b7f45524332303a20617070726f76652066726f6d20746865207a65726f2061646460008201527f7265737300000000000000000000000000000000000000000000000000000000602082015250565b7f45524332303a2064656372656173656420616c6c6f77616e63652062656c6f7760008201527f207a65726f000000000000000000000000000000000000000000000000000000602082015250565b61145281611118565b811461145d57600080fd5b50565b61146981611156565b811461147457600080fd5b5056fea2646970667358221220ff36e1189985a482c9b07a2f4edde60a5c1481d827137df1948c831777141b7264736f6c63430008070033",
					"opcodes": "PUSH1 0x80 PUSH1 0x40 MSTORE CALLVALUE DUP1 ISZERO PUSH3 0x11 JUMPI PUSH1 0x0 DUP1 REVERT JUMPDEST POP PUSH1 0x40 MLOAD PUSH3 0x1E09 CODESIZE SUB DUP1 PUSH3 0x1E09 DUP4 CODECOPY DUP2 DUP2 ADD PUSH1 0x40 MSTORE DUP2 ADD SWAP1 PUSH3 0x37 SWAP2 SWAP1 PUSH3 0x3C7 JUMP JUMPDEST DUP3 DUP3 DUP2 PUSH1 0x3 SWAP1 DUP1 MLOAD SWAP1 PUSH1 0x20 ADD SWAP1 PUSH3 0x51 SWAP3 SWAP2 SWAP1 PUSH3 0x282 JUMP JUMPDEST POP DUP1 PUSH1 0x4 SWAP1 DUP1 MLOAD SWAP1 PUSH1 0x20 ADD SWAP1 PUSH3 0x6A SWAP3 SWAP2 SWAP1 PUSH3 0x282 JUMP JUMPDEST POP POP POP CALLER PUSH1 0x5 PUSH1 0x0 PUSH2 0x100 EXP DUP2 SLOAD DUP2 PUSH20 0xFFFFFFFFFFFFFFFFFFFFFFFFFFFFFFFFFFFFFFFF MUL NOT AND SWAP1 DUP4 PUSH20 0xFFFFFFFFFFFFFFFFFFFFFFFFFFFFFFFFFFFFFFFF AND MUL OR SWAP1 SSTORE POP PUSH3 0xED CALLER PUSH3 0xC3 PUSH3 0xF6 PUSH1 0x20 SHL PUSH1 0x20 SHR JUMP JUMPDEST PUSH1 0xFF AND PUSH1 0xA PUSH3 0xD4 SWAP2 SWAP1 PUSH3 0x600 JUMP JUMPDEST DUP4 PUSH3 0xE1 SWAP2 SWAP1 PUSH3 0x73D JUMP JUMPDEST PUSH3 0xFF PUSH1 0x20 SHL PUSH1 0x20 SHR JUMP JUMPDEST POP POP POP PUSH3 0x94C JUMP JUMPDEST PUSH1 0x0 PUSH1 0x12 SWAP1 POP SWAP1 JUMP JUMPDEST PUSH1 0x0 PUSH20 0xFFFFFFFFFFFFFFFFFFFFFFFFFFFFFFFFFFFFFFFF AND DUP3 PUSH20 0xFFFFFFFFFFFFFFFFFFFFFFFFFFFFFFFFFFFFFFFF AND EQ ISZERO PUSH3 0x172 JUMPI PUSH1 0x40 MLOAD PUSH32 0x8C379A000000000000000000000000000000000000000000000000000000000 DUP2 MSTORE PUSH1 0x4 ADD PUSH3 0x169 SWAP1 PUSH3 0x499 JUMP JUMPDEST PUSH1 0x40 MLOAD DUP1 SWAP2 SUB SWAP1 REVERT JUMPDEST PUSH3 0x186 PUSH1 0x0 DUP4 DUP4 PUSH3 0x278 PUSH1 0x20 SHL PUSH1 0x20 SHR JUMP JUMPDEST DUP1 PUSH1 0x2 PUSH1 0x0 DUP3 DUP3 SLOAD PUSH3 0x19A SWAP2 SWAP1 PUSH3 0x548 JUMP JUMPDEST SWAP3 POP POP DUP2 SWAP1 SSTORE POP DUP1 PUSH1 0x0 DUP1 DUP5 PUSH20 0xFFFFFFFFFFFFFFFFFFFFFFFFFFFFFFFFFFFFFFFF AND PUSH20 0xFFFFFFFFFFFFFFFFFFFFFFFFFFFFFFFFFFFFFFFF AND DUP2 MSTORE PUSH1 0x20 ADD SWAP1 DUP2 MSTORE PUSH1 0x20 ADD PUSH1 0x0 KECCAK256 PUSH1 0x0 DUP3 DUP3 SLOAD PUSH3 0x1F1 SWAP2 SWAP1 PUSH3 0x548 JUMP JUMPDEST SWAP3 POP POP DUP2 SWAP1 SSTORE POP DUP2 PUSH20 0xFFFFFFFFFFFFFFFFFFFFFFFFFFFFFFFFFFFFFFFF AND PUSH1 0x0 PUSH20 0xFFFFFFFFFFFFFFFFFFFFFFFFFFFFFFFFFFFFFFFF AND PUSH32 0xDDF252AD1BE2C89B69C2B068FC378DAA952BA7F163C4A11628F55A4DF523B3EF DUP4 PUSH1 0x40 MLOAD PUSH3 0x258 SWAP2 SWAP1 PUSH3 0x4BB JUMP JUMPDEST PUSH1 0x40 MLOAD DUP1 SWAP2 SUB SWAP1 LOG3 PUSH3 0x274 PUSH1 0x0 DUP4 DUP4 PUSH3 0x27D PUSH1 0x20 SHL PUSH1 0x20 SHR JUMP JUMPDEST POP POP JUMP JUMPDEST POP POP POP JUMP JUMPDEST POP POP POP JUMP JUMPDEST DUP3 DUP1 SLOAD PUSH3 0x290 SWAP1 PUSH3 0x7DE JUMP JUMPDEST SWAP1 PUSH1 0x0 MSTORE PUSH1 0x20 PUSH1 0x0 KECCAK256 SWAP1 PUSH1 0x1F ADD PUSH1 0x20 SWAP1 DIV DUP2 ADD SWAP3 DUP3 PUSH3 0x2B4 JUMPI PUSH1 0x0 DUP6 SSTORE PUSH3 0x300 JUMP JUMPDEST DUP3 PUSH1 0x1F LT PUSH3 0x2CF JUMPI DUP1 MLOAD PUSH1 0xFF NOT AND DUP4 DUP1 ADD OR DUP6 SSTORE PUSH3 0x300 JUMP JUMPDEST DUP3 DUP1 ADD PUSH1 0x1 ADD DUP6 SSTORE DUP3 ISZERO PUSH3 0x300 JUMPI SWAP2 DUP3 ADD JUMPDEST DUP3 DUP2 GT ISZERO PUSH3 0x2FF JUMPI DUP3 MLOAD DUP3 SSTORE SWAP2 PUSH1 0x20 ADD SWAP2 SWAP1 PUSH1 0x1 ADD SWAP1 PUSH3 0x2E2 JUMP JUMPDEST JUMPDEST POP SWAP1 POP PUSH3 0x30F SWAP2 SWAP1 PUSH3 0x313 JUMP JUMPDEST POP SWAP1 JUMP JUMPDEST JUMPDEST DUP1 DUP3 GT ISZERO PUSH3 0x32E JUMPI PUSH1 0x0 DUP2 PUSH1 0x0 SWAP1 SSTORE POP PUSH1 0x1 ADD PUSH3 0x314 JUMP JUMPDEST POP SWAP1 JUMP JUMPDEST PUSH1 0x0 PUSH3 0x349 PUSH3 0x343 DUP5 PUSH3 0x501 JUMP JUMPDEST PUSH3 0x4D8 JUMP JUMPDEST SWAP1 POP DUP3 DUP2 MSTORE PUSH1 0x20 DUP2 ADD DUP5 DUP5 DUP5 ADD GT ISZERO PUSH3 0x368 JUMPI PUSH3 0x367 PUSH3 0x8DC JUMP JUMPDEST JUMPDEST PUSH3 0x375 DUP5 DUP3 DUP6 PUSH3 0x7A8 JUMP JUMPDEST POP SWAP4 SWAP3 POP POP POP JUMP JUMPDEST PUSH1 0x0 DUP3 PUSH1 0x1F DUP4 ADD SLT PUSH3 0x395 JUMPI PUSH3 0x394 PUSH3 0x8D7 JUMP JUMPDEST JUMPDEST DUP2 MLOAD PUSH3 0x3A7 DUP5 DUP3 PUSH1 0x20 DUP7 ADD PUSH3 0x332 JUMP JUMPDEST SWAP2 POP POP SWAP3 SWAP2 POP POP JUMP JUMPDEST PUSH1 0x0 DUP2 MLOAD SWAP1 POP PUSH3 0x3C1 DUP2 PUSH3 0x932 JUMP JUMPDEST SWAP3 SWAP2 POP POP JUMP JUMPDEST PUSH1 0x0 DUP1 PUSH1 0x0 PUSH1 0x60 DUP5 DUP7 SUB SLT ISZERO PUSH3 0x3E3 JUMPI PUSH3 0x3E2 PUSH3 0x8E6 JUMP JUMPDEST JUMPDEST PUSH1 0x0 DUP5 ADD MLOAD PUSH8 0xFFFFFFFFFFFFFFFF DUP2 GT ISZERO PUSH3 0x404 JUMPI PUSH3 0x403 PUSH3 0x8E1 JUMP JUMPDEST JUMPDEST PUSH3 0x412 DUP7 DUP3 DUP8 ADD PUSH3 0x37D JUMP JUMPDEST SWAP4 POP POP PUSH1 0x20 DUP5 ADD MLOAD PUSH8 0xFFFFFFFFFFFFFFFF DUP2 GT ISZERO PUSH3 0x436 JUMPI PUSH3 0x435 PUSH3 0x8E1 JUMP JUMPDEST JUMPDEST PUSH3 0x444 DUP7 DUP3 DUP8 ADD PUSH3 0x37D JUMP JUMPDEST SWAP3 POP POP PUSH1 0x40 PUSH3 0x457 DUP7 DUP3 DUP8 ADD PUSH3 0x3B0 JUMP JUMPDEST SWAP2 POP POP SWAP3 POP SWAP3 POP SWAP3 JUMP JUMPDEST PUSH1 0x0 PUSH3 0x470 PUSH1 0x1F DUP4 PUSH3 0x537 JUMP JUMPDEST SWAP2 POP PUSH3 0x47D DUP3 PUSH3 0x909 JUMP JUMPDEST PUSH1 0x20 DUP3 ADD SWAP1 POP SWAP2 SWAP1 POP JUMP JUMPDEST PUSH3 0x493 DUP2 PUSH3 0x79E JUMP JUMPDEST DUP3 MSTORE POP POP JUMP JUMPDEST PUSH1 0x0 PUSH1 0x20 DUP3 ADD SWAP1 POP DUP2 DUP2 SUB PUSH1 0x0 DUP4 ADD MSTORE PUSH3 0x4B4 DUP2 PUSH3 0x461 JUMP JUMPDEST SWAP1 POP SWAP2 SWAP1 POP JUMP JUMPDEST PUSH1 0x0 PUSH1 0x20 DUP3 ADD SWAP1 POP PUSH3 0x4D2 PUSH1 0x0 DUP4 ADD DUP5 PUSH3 0x488 JUMP JUMPDEST SWAP3 SWAP2 POP POP JUMP JUMPDEST PUSH1 0x0 PUSH3 0x4E4 PUSH3 0x4F7 JUMP JUMPDEST SWAP1 POP PUSH3 0x4F2 DUP3 DUP3 PUSH3 0x814 JUMP JUMPDEST SWAP2 SWAP1 POP JUMP JUMPDEST PUSH1 0x0 PUSH1 0x40 MLOAD SWAP1 POP SWAP1 JUMP JUMPDEST PUSH1 0x0 PUSH8 0xFFFFFFFFFFFFFFFF DUP3 GT ISZERO PUSH3 0x51F JUMPI PUSH3 0x51E PUSH3 0x8A8 JUMP JUMPDEST JUMPDEST PUSH3 0x52A DUP3 PUSH3 0x8EB JUMP JUMPDEST SWAP1 POP PUSH1 0x20 DUP2 ADD SWAP1 POP SWAP2 SWAP1 POP JUMP JUMPDEST PUSH1 0x0 DUP3 DUP3 MSTORE PUSH1 0x20 DUP3 ADD SWAP1 POP SWAP3 SWAP2 POP POP JUMP JUMPDEST PUSH1 0x0 PUSH3 0x555 DUP3 PUSH3 0x79E JUMP JUMPDEST SWAP2 POP PUSH3 0x562 DUP4 PUSH3 0x79E JUMP JUMPDEST SWAP3 POP DUP3 PUSH32 0xFFFFFFFFFFFFFFFFFFFFFFFFFFFFFFFFFFFFFFFFFFFFFFFFFFFFFFFFFFFFFFFF SUB DUP3 GT ISZERO PUSH3 0x59A JUMPI PUSH3 0x599 PUSH3 0x84A JUMP JUMPDEST JUMPDEST DUP3 DUP3 ADD SWAP1 POP SWAP3 SWAP2 POP POP JUMP JUMPDEST PUSH1 0x0 DUP1 DUP3 SWAP2 POP DUP4 SWAP1 POP JUMPDEST PUSH1 0x1 DUP6 GT ISZERO PUSH3 0x5F7 JUMPI DUP1 DUP7 DIV DUP2 GT ISZERO PUSH3 0x5CF JUMPI PUSH3 0x5CE PUSH3 0x84A JUMP JUMPDEST JUMPDEST PUSH1 0x1 DUP6 AND ISZERO PUSH3 0x5DF JUMPI DUP1 DUP3 MUL SWAP2 POP JUMPDEST DUP1 DUP2 MUL SWAP1 POP PUSH3 0x5EF DUP6 PUSH3 0x8FC JUMP JUMPDEST SWAP5 POP PUSH3 0x5AF JUMP JUMPDEST SWAP5 POP SWAP5 SWAP3 POP POP POP JUMP JUMPDEST PUSH1 0x0 PUSH3 0x60D DUP3 PUSH3 0x79E JUMP JUMPDEST SWAP2 POP PUSH3 0x61A DUP4 PUSH3 0x79E JUMP JUMPDEST SWAP3 POP PUSH3 0x649 PUSH32 0xFFFFFFFFFFFFFFFFFFFFFFFFFFFFFFFFFFFFFFFFFFFFFFFFFFFFFFFFFFFFFFFF DUP5 DUP5 PUSH3 0x651 JUMP JUMPDEST SWAP1 POP SWAP3 SWAP2 POP POP JUMP JUMPDEST PUSH1 0x0 DUP3 PUSH3 0x663 JUMPI PUSH1 0x1 SWAP1 POP PUSH3 0x736 JUMP JUMPDEST DUP2 PUSH3 0x673 JUMPI PUSH1 0x0 SWAP1 POP PUSH3 0x736 JUMP JUMPDEST DUP2 PUSH1 0x1 DUP2 EQ PUSH3 0x68C JUMPI PUSH1 0x2 DUP2 EQ PUSH3 0x697 JUMPI PUSH3 0x6CD JUMP JUMPDEST PUSH1 0x1 SWAP2 POP POP PUSH3 0x736 JUMP JUMPDEST PUSH1 0xFF DUP5 GT ISZERO PUSH3 0x6AC JUMPI PUSH3 0x6AB PUSH3 0x84A JUMP JUMPDEST JUMPDEST DUP4 PUSH1 0x2 EXP SWAP2 POP DUP5 DUP3 GT ISZERO PUSH3 0x6C6 JUMPI PUSH3 0x6C5 PUSH3 0x84A JUMP JUMPDEST JUMPDEST POP PUSH3 0x736 JUMP JUMPDEST POP PUSH1 0x20 DUP4 LT PUSH2 0x133 DUP4 LT AND PUSH1 0x4E DUP5 LT PUSH1 0xB DUP5 LT AND OR ISZERO PUSH3 0x707 JUMPI DUP3 DUP3 EXP SWAP1 POP DUP4 DUP2 GT ISZERO PUSH3 0x701 JUMPI PUSH3 0x700 PUSH3 0x84A JUMP JUMPDEST JUMPDEST PUSH3 0x736 JUMP JUMPDEST PUSH3 0x716 DUP5 DUP5 DUP5 PUSH1 0x1 PUSH3 0x5A5 JUMP JUMPDEST SWAP3 POP SWAP1 POP DUP2 DUP5 DIV DUP2 GT ISZERO PUSH3 0x730 JUMPI PUSH3 0x72F PUSH3 0x84A JUMP JUMPDEST JUMPDEST DUP2 DUP2 MUL SWAP1 POP JUMPDEST SWAP4 SWAP3 POP POP POP JUMP JUMPDEST PUSH1 0x0 PUSH3 0x74A DUP3 PUSH3 0x79E JUMP JUMPDEST SWAP2 POP PUSH3 0x757 DUP4 PUSH3 0x79E JUMP JUMPDEST SWAP3 POP DUP2 PUSH32 0xFFFFFFFFFFFFFFFFFFFFFFFFFFFFFFFFFFFFFFFFFFFFFFFFFFFFFFFFFFFFFFFF DIV DUP4 GT DUP3 ISZERO ISZERO AND ISZERO PUSH3 0x793 JUMPI PUSH3 0x792 PUSH3 0x84A JUMP JUMPDEST JUMPDEST DUP3 DUP3 MUL SWAP1 POP SWAP3 SWAP2 POP POP JUMP JUMPDEST PUSH1 0x0 DUP2 SWAP1 POP SWAP2 SWAP1 POP JUMP JUMPDEST PUSH1 0x0 JUMPDEST DUP4 DUP2 LT ISZERO PUSH3 0x7C8 JUMPI DUP1 DUP3 ADD MLOAD DUP2 DUP5 ADD MSTORE PUSH1 0x20 DUP2 ADD SWAP1 POP PUSH3 0x7AB JUMP JUMPDEST DUP4 DUP2 GT ISZERO PUSH3 0x7D8 JUMPI PUSH1 0x0 DUP5 DUP5 ADD MSTORE JUMPDEST POP POP POP POP JUMP JUMPDEST PUSH1 0x0 PUSH1 0x2 DUP3 DIV SWAP1 POP PUSH1 0x1 DUP3 AND DUP1 PUSH3 0x7F7 JUMPI PUSH1 0x7F DUP3 AND SWAP2 POP JUMPDEST PUSH1 0x20 DUP3 LT DUP2 EQ ISZERO PUSH3 0x80E JUMPI PUSH3 0x80D PUSH3 0x879 JUMP JUMPDEST JUMPDEST POP SWAP2 SWAP1 POP JUMP JUMPDEST PUSH3 0x81F DUP3 PUSH3 0x8EB JUMP JUMPDEST DUP2 ADD DUP2 DUP2 LT PUSH8 0xFFFFFFFFFFFFFFFF DUP3 GT OR ISZERO PUSH3 0x841 JUMPI PUSH3 0x840 PUSH3 0x8A8 JUMP JUMPDEST JUMPDEST DUP1 PUSH1 0x40 MSTORE POP POP POP JUMP JUMPDEST PUSH32 0x4E487B7100000000000000000000000000000000000000000000000000000000 PUSH1 0x0 MSTORE PUSH1 0x11 PUSH1 0x4 MSTORE PUSH1 0x24 PUSH1 0x0 REVERT JUMPDEST PUSH32 0x4E487B7100000000000000000000000000000000000000000000000000000000 PUSH1 0x0 MSTORE PUSH1 0x22 PUSH1 0x4 MSTORE PUSH1 0x24 PUSH1 0x0 REVERT JUMPDEST PUSH32 0x4E487B7100000000000000000000000000000000000000000000000000000000 PUSH1 0x0 MSTORE PUSH1 0x41 PUSH1 0x4 MSTORE PUSH1 0x24 PUSH1 0x0 REVERT JUMPDEST PUSH1 0x0 DUP1 REVERT JUMPDEST PUSH1 0x0 DUP1 REVERT JUMPDEST PUSH1 0x0 DUP1 REVERT JUMPDEST PUSH1 0x0 DUP1 REVERT JUMPDEST PUSH1 0x0 PUSH1 0x1F NOT PUSH1 0x1F DUP4 ADD AND SWAP1 POP SWAP2 SWAP1 POP JUMP JUMPDEST PUSH1 0x0 DUP2 PUSH1 0x1 SHR SWAP1 POP SWAP2 SWAP1 POP JUMP JUMPDEST PUSH32 0x45524332303A206D696E7420746F20746865207A65726F206164647265737300 PUSH1 0x0 DUP3 ADD MSTORE POP JUMP JUMPDEST PUSH3 0x93D DUP2 PUSH3 0x79E JUMP JUMPDEST DUP2 EQ PUSH3 0x949 JUMPI PUSH1 0x0 DUP1 REVERT JUMPDEST POP JUMP JUMPDEST PUSH2 0x14AD DUP1 PUSH3 0x95C PUSH1 0x0 CODECOPY PUSH1 0x0 RETURN INVALID PUSH1 0x80 PUSH1 0x40 MSTORE PUSH1 0x4 CALLDATASIZE LT PUSH2 0xF3 JUMPI PUSH1 0x0 CALLDATALOAD PUSH1 0xE0 SHR DUP1 PUSH4 0x5C1CB691 GT PUSH2 0x8A JUMPI DUP1 PUSH4 0xA457C2D7 GT PUSH2 0x59 JUMPI DUP1 PUSH4 0xA457C2D7 EQ PUSH2 0x356 JUMPI DUP1 PUSH4 0xA9059CBB EQ PUSH2 0x393 JUMPI DUP1 PUSH4 0xDD62ED3E EQ PUSH2 0x3D0 JUMPI DUP1 PUSH4 0xE8B5E51F EQ PUSH2 0x40D JUMPI PUSH2 0xF3 JUMP JUMPDEST DUP1 PUSH4 0x5C1CB691 EQ PUSH2 0x286 JUMPI DUP1 PUSH4 0x6E78E23C EQ PUSH2 0x2B1 JUMPI DUP1 PUSH4 0x70A08231 EQ PUSH2 0x2EE JUMPI DUP1 PUSH4 0x95D89B41 EQ PUSH2 0x32B JUMPI PUSH2 0xF3 JUMP JUMPDEST DUP1 PUSH4 0x313CE567 GT PUSH2 0xC6 JUMPI DUP1 PUSH4 0x313CE567 EQ PUSH2 0x1C8 JUMPI DUP1 PUSH4 0x320CE981 EQ PUSH2 0x1F3 JUMPI DUP1 PUSH4 0x39509351 EQ PUSH2 0x21E JUMPI DUP1 PUSH4 0x45B5A47A EQ PUSH2 0x25B JUMPI PUSH2 0xF3 JUMP JUMPDEST DUP1 PUSH4 0x6FDDE03 EQ PUSH2 0xF8 JUMPI DUP1 PUSH4 0x95EA7B3 EQ PUSH2 0x123 JUMPI DUP1 PUSH4 0x18160DDD EQ PUSH2 0x160 JUMPI DUP1 PUSH4 0x23B872DD EQ PUSH2 0x18B JUMPI JUMPDEST PUSH1 0x0 DUP1 REVERT JUMPDEST CALLVALUE DUP1 ISZERO PUSH2 0x104 JUMPI PUSH1 0x0 DUP1 REVERT JUMPDEST POP PUSH2 0x10D PUSH2 0x417 JUMP JUMPDEST PUSH1 0x40 MLOAD PUSH2 0x11A SWAP2 SWAP1 PUSH2 0xF6E JUMP JUMPDEST PUSH1 0x40 MLOAD DUP1 SWAP2 SUB SWAP1 RETURN JUMPDEST CALLVALUE DUP1 ISZERO PUSH2 0x12F JUMPI PUSH1 0x0 DUP1 REVERT JUMPDEST POP PUSH2 0x14A PUSH1 0x4 DUP1 CALLDATASIZE SUB DUP2 ADD SWAP1 PUSH2 0x145 SWAP2 SWAP1 PUSH2 0xD8E JUMP JUMPDEST PUSH2 0x4A9 JUMP JUMPDEST PUSH1 0x40 MLOAD PUSH2 0x157 SWAP2 SWAP1 PUSH2 0xF53 JUMP JUMPDEST PUSH1 0x40 MLOAD DUP1 SWAP2 SUB SWAP1 RETURN JUMPDEST CALLVALUE DUP1 ISZERO PUSH2 0x16C JUMPI PUSH1 0x0 DUP1 REVERT JUMPDEST POP PUSH2 0x175 PUSH2 0x4CC JUMP JUMPDEST PUSH1 0x40 MLOAD PUSH2 0x182 SWAP2 SWAP1 PUSH2 0x1070 JUMP JUMPDEST PUSH1 0x40 MLOAD DUP1 SWAP2 SUB SWAP1 RETURN JUMPDEST CALLVALUE DUP1 ISZERO PUSH2 0x197 JUMPI PUSH1 0x0 DUP1 REVERT JUMPDEST POP PUSH2 0x1B2 PUSH1 0x4 DUP1 CALLDATASIZE SUB DUP2 ADD SWAP1 PUSH2 0x1AD SWAP2 SWAP1 PUSH2 0xD3B JUMP JUMPDEST PUSH2 0x4D6 JUMP JUMPDEST PUSH1 0x40 MLOAD PUSH2 0x1BF SWAP2 SWAP1 PUSH2 0xF53 JUMP JUMPDEST PUSH1 0x40 MLOAD DUP1 SWAP2 SUB SWAP1 RETURN JUMPDEST CALLVALUE DUP1 ISZERO PUSH2 0x1D4 JUMPI PUSH1 0x0 DUP1 REVERT JUMPDEST POP PUSH2 0x1DD PUSH2 0x505 JUMP JUMPDEST PUSH1 0x40 MLOAD PUSH2 0x1EA SWAP2 SWAP1 PUSH2 0x108B JUMP JUMPDEST PUSH1 0x40 MLOAD DUP1 SWAP2 SUB SWAP1 RETURN JUMPDEST CALLVALUE DUP1 ISZERO PUSH2 0x1FF JUMPI PUSH1 0x0 DUP1 REVERT JUMPDEST POP PUSH2 0x208 PUSH2 0x50E JUMP JUMPDEST PUSH1 0x40 MLOAD PUSH2 0x215 SWAP2 SWAP1 PUSH2 0x1070 JUMP JUMPDEST PUSH1 0x40 MLOAD DUP1 SWAP2 SUB SWAP1 RETURN JUMPDEST CALLVALUE DUP1 ISZERO PUSH2 0x22A JUMPI PUSH1 0x0 DUP1 REVERT JUMPDEST POP PUSH2 0x245 PUSH1 0x4 DUP1 CALLDATASIZE SUB DUP2 ADD SWAP1 PUSH2 0x240 SWAP2 SWAP1 PUSH2 0xD8E JUMP JUMPDEST PUSH2 0x540 JUMP JUMPDEST PUSH1 0x40 MLOAD PUSH2 0x252 SWAP2 SWAP1 PUSH2 0xF53 JUMP JUMPDEST PUSH1 0x40 MLOAD DUP1 SWAP2 SUB SWAP1 RETURN JUMPDEST CALLVALUE DUP1 ISZERO PUSH2 0x267 JUMPI PUSH1 0x0 DUP1 REVERT JUMPDEST POP PUSH2 0x270 PUSH2 0x577 JUMP JUMPDEST PUSH1 0x40 MLOAD PUSH2 0x27D SWAP2 SWAP1 PUSH2 0x1070 JUMP JUMPDEST PUSH1 0x40 MLOAD DUP1 SWAP2 SUB SWAP1 RETURN JUMPDEST CALLVALUE DUP1 ISZERO PUSH2 0x292 JUMPI PUSH1 0x0 DUP1 REVERT JUMPDEST POP PUSH2 0x29B PUSH2 0x57F JUMP JUMPDEST PUSH1 0x40 MLOAD PUSH2 0x2A8 SWAP2 SWAP1 PUSH2 0xF38 JUMP JUMPDEST PUSH1 0x40 MLOAD DUP1 SWAP2 SUB SWAP1 RETURN JUMPDEST CALLVALUE DUP1 ISZERO PUSH2 0x2BD JUMPI PUSH1 0x0 DUP1 REVERT JUMPDEST POP PUSH2 0x2D8 PUSH1 0x4 DUP1 CALLDATASIZE SUB DUP2 ADD SWAP1 PUSH2 0x2D3 SWAP2 SWAP1 PUSH2 0xD3B JUMP JUMPDEST PUSH2 0x5A5 JUMP JUMPDEST PUSH1 0x40 MLOAD PUSH2 0x2E5 SWAP2 SWAP1 PUSH2 0xF53 JUMP JUMPDEST PUSH1 0x40 MLOAD DUP1 SWAP2 SUB SWAP1 RETURN JUMPDEST CALLVALUE DUP1 ISZERO PUSH2 0x2FA JUMPI PUSH1 0x0 DUP1 REVERT JUMPDEST POP PUSH2 0x315 PUSH1 0x4 DUP1 CALLDATASIZE SUB DUP2 ADD SWAP1 PUSH2 0x310 SWAP2 SWAP1 PUSH2 0xCCE JUMP JUMPDEST PUSH2 0x5BD JUMP JUMPDEST PUSH1 0x40 MLOAD PUSH2 0x322 SWAP2 SWAP1 PUSH2 0x1070 JUMP JUMPDEST PUSH1 0x40 MLOAD DUP1 SWAP2 SUB SWAP1 RETURN JUMPDEST CALLVALUE DUP1 ISZERO PUSH2 0x337 JUMPI PUSH1 0x0 DUP1 REVERT JUMPDEST POP PUSH2 0x340 PUSH2 0x605 JUMP JUMPDEST PUSH1 0x40 MLOAD PUSH2 0x34D SWAP2 SWAP1 PUSH2 0xF6E JUMP JUMPDEST PUSH1 0x40 MLOAD DUP1 SWAP2 SUB SWAP1 RETURN JUMPDEST CALLVALUE DUP1 ISZERO PUSH2 0x362 JUMPI PUSH1 0x0 DUP1 REVERT JUMPDEST POP PUSH2 0x37D PUSH1 0x4 DUP1 CALLDATASIZE SUB DUP2 ADD SWAP1 PUSH2 0x378 SWAP2 SWAP1 PUSH2 0xD8E JUMP JUMPDEST PUSH2 0x697 JUMP JUMPDEST PUSH1 0x40 MLOAD PUSH2 0x38A SWAP2 SWAP1 PUSH2 0xF53 JUMP JUMPDEST PUSH1 0x40 MLOAD DUP1 SWAP2 SUB SWAP1 RETURN JUMPDEST CALLVALUE DUP1 ISZERO PUSH2 0x39F JUMPI PUSH1 0x0 DUP1 REVERT JUMPDEST POP PUSH2 0x3BA PUSH1 0x4 DUP1 CALLDATASIZE SUB DUP2 ADD SWAP1 PUSH2 0x3B5 SWAP2 SWAP1 PUSH2 0xD8E JUMP JUMPDEST PUSH2 0x70E JUMP JUMPDEST PUSH1 0x40 MLOAD PUSH2 0x3C7 SWAP2 SWAP1 PUSH2 0xF53 JUMP JUMPDEST PUSH1 0x40 MLOAD DUP1 SWAP2 SUB SWAP1 RETURN JUMPDEST CALLVALUE DUP1 ISZERO PUSH2 0x3DC JUMPI PUSH1 0x0 DUP1 REVERT JUMPDEST POP PUSH2 0x3F7 PUSH1 0x4 DUP1 CALLDATASIZE SUB DUP2 ADD SWAP1 PUSH2 0x3F2 SWAP2 SWAP1 PUSH2 0xCFB JUMP JUMPDEST PUSH2 0x731 JUMP JUMPDEST PUSH1 0x40 MLOAD PUSH2 0x404 SWAP2 SWAP1 PUSH2 0x1070 JUMP JUMPDEST PUSH1 0x40 MLOAD DUP1 SWAP2 SUB SWAP1 RETURN JUMPDEST PUSH2 0x415 PUSH2 0x7B8 JUMP JUMPDEST STOP JUMPDEST PUSH1 0x60 PUSH1 0x3 DUP1 SLOAD PUSH2 0x426 SWAP1 PUSH2 0x11A0 JUMP JUMPDEST DUP1 PUSH1 0x1F ADD PUSH1 0x20 DUP1 SWAP2 DIV MUL PUSH1 0x20 ADD PUSH1 0x40 MLOAD SWAP1 DUP2 ADD PUSH1 0x40 MSTORE DUP1 SWAP3 SWAP2 SWAP1 DUP2 DUP2 MSTORE PUSH1 0x20 ADD DUP3 DUP1 SLOAD PUSH2 0x452 SWAP1 PUSH2 0x11A0 JUMP JUMPDEST DUP1 ISZERO PUSH2 0x49F JUMPI DUP1 PUSH1 0x1F LT PUSH2 0x474 JUMPI PUSH2 0x100 DUP1 DUP4 SLOAD DIV MUL DUP4 MSTORE SWAP2 PUSH1 0x20 ADD SWAP2 PUSH2 0x49F JUMP JUMPDEST DUP3 ADD SWAP2 SWAP1 PUSH1 0x0 MSTORE PUSH1 0x20 PUSH1 0x0 KECCAK256 SWAP1 JUMPDEST DUP2 SLOAD DUP2 MSTORE SWAP1 PUSH1 0x1 ADD SWAP1 PUSH1 0x20 ADD DUP1 DUP4 GT PUSH2 0x482 JUMPI DUP3 SWAP1 SUB PUSH1 0x1F AND DUP3 ADD SWAP2 JUMPDEST POP POP POP POP POP SWAP1 POP SWAP1 JUMP JUMPDEST PUSH1 0x0 DUP1 PUSH2 0x4B4 PUSH2 0x7BA JUMP JUMPDEST SWAP1 POP PUSH2 0x4C1 DUP2 DUP6 DUP6 PUSH2 0x7C2 JUMP JUMPDEST PUSH1 0x1 SWAP2 POP POP SWAP3 SWAP2 POP POP JUMP JUMPDEST PUSH1 0x0 PUSH1 0x2 SLOAD SWAP1 POP SWAP1 JUMP JUMPDEST PUSH1 0x0 DUP1 PUSH2 0x4E1 PUSH2 0x7BA JUMP JUMPDEST SWAP1 POP PUSH2 0x4EE DUP6 DUP3 DUP6 PUSH2 0x98D JUMP JUMPDEST PUSH2 0x4F9 DUP6 DUP6 DUP6 PUSH2 0xA19 JUMP JUMPDEST PUSH1 0x1 SWAP2 POP POP SWAP4 SWAP3 POP POP POP JUMP JUMPDEST PUSH1 0x0 PUSH1 0x12 SWAP1 POP SWAP1 JUMP JUMPDEST PUSH1 0x0 PUSH2 0x53B PUSH1 0x5 PUSH1 0x0 SWAP1 SLOAD SWAP1 PUSH2 0x100 EXP SWAP1 DIV PUSH20 0xFFFFFFFFFFFFFFFFFFFFFFFFFFFFFFFFFFFFFFFF AND PUSH2 0x5BD JUMP JUMPDEST SWAP1 POP SWAP1 JUMP JUMPDEST PUSH1 0x0 DUP1 PUSH2 0x54B PUSH2 0x7BA JUMP JUMPDEST SWAP1 POP PUSH2 0x56C DUP2 DUP6 DUP6 PUSH2 0x55D DUP6 DUP10 PUSH2 0x731 JUMP JUMPDEST PUSH2 0x567 SWAP2 SWAP1 PUSH2 0x10C2 JUMP JUMPDEST PUSH2 0x7C2 JUMP JUMPDEST PUSH1 0x1 SWAP2 POP POP SWAP3 SWAP2 POP POP JUMP JUMPDEST PUSH1 0x0 SELFBALANCE SWAP1 POP SWAP1 JUMP JUMPDEST PUSH1 0x5 PUSH1 0x0 SWAP1 SLOAD SWAP1 PUSH2 0x100 EXP SWAP1 DIV PUSH20 0xFFFFFFFFFFFFFFFFFFFFFFFFFFFFFFFFFFFFFFFF AND DUP2 JUMP JUMPDEST PUSH1 0x0 PUSH2 0x5B2 DUP5 DUP5 DUP5 PUSH2 0x7C2 JUMP JUMPDEST PUSH1 0x1 SWAP1 POP SWAP4 SWAP3 POP POP POP JUMP JUMPDEST PUSH1 0x0 DUP1 PUSH1 0x0 DUP4 PUSH20 0xFFFFFFFFFFFFFFFFFFFFFFFFFFFFFFFFFFFFFFFF AND PUSH20 0xFFFFFFFFFFFFFFFFFFFFFFFFFFFFFFFFFFFFFFFF AND DUP2 MSTORE PUSH1 0x20 ADD SWAP1 DUP2 MSTORE PUSH1 0x20 ADD PUSH1 0x0 KECCAK256 SLOAD SWAP1 POP SWAP2 SWAP1 POP JUMP JUMPDEST PUSH1 0x60 PUSH1 0x4 DUP1 SLOAD PUSH2 0x614 SWAP1 PUSH2 0x11A0 JUMP JUMPDEST DUP1 PUSH1 0x1F ADD PUSH1 0x20 DUP1 SWAP2 DIV MUL PUSH1 0x20 ADD PUSH1 0x40 MLOAD SWAP1 DUP2 ADD PUSH1 0x40 MSTORE DUP1 SWAP3 SWAP2 SWAP1 DUP2 DUP2 MSTORE PUSH1 0x20 ADD DUP3 DUP1 SLOAD PUSH2 0x640 SWAP1 PUSH2 0x11A0 JUMP JUMPDEST DUP1 ISZERO PUSH2 0x68D JUMPI DUP1 PUSH1 0x1F LT PUSH2 0x662 JUMPI PUSH2 0x100 DUP1 DUP4 SLOAD DIV MUL DUP4 MSTORE SWAP2 PUSH1 0x20 ADD SWAP2 PUSH2 0x68D JUMP JUMPDEST DUP3 ADD SWAP2 SWAP1 PUSH1 0x0 MSTORE PUSH1 0x20 PUSH1 0x0 KECCAK256 SWAP1 JUMPDEST DUP2 SLOAD DUP2 MSTORE SWAP1 PUSH1 0x1 ADD SWAP1 PUSH1 0x20 ADD DUP1 DUP4 GT PUSH2 0x670 JUMPI DUP3 SWAP1 SUB PUSH1 0x1F AND DUP3 ADD SWAP2 JUMPDEST POP POP POP POP POP SWAP1 POP SWAP1 JUMP JUMPDEST PUSH1 0x0 DUP1 PUSH2 0x6A2 PUSH2 0x7BA JUMP JUMPDEST SWAP1 POP PUSH1 0x0 PUSH2 0x6B0 DUP3 DUP7 PUSH2 0x731 JUMP JUMPDEST SWAP1 POP DUP4 DUP2 LT ISZERO PUSH2 0x6F5 JUMPI PUSH1 0x40 MLOAD PUSH32 0x8C379A000000000000000000000000000000000000000000000000000000000 DUP2 MSTORE PUSH1 0x4 ADD PUSH2 0x6EC SWAP1 PUSH2 0x1050 JUMP JUMPDEST PUSH1 0x40 MLOAD DUP1 SWAP2 SUB SWAP1 REVERT JUMPDEST PUSH2 0x702 DUP3 DUP7 DUP7 DUP5 SUB PUSH2 0x7C2 JUMP JUMPDEST PUSH1 0x1 SWAP3 POP POP POP SWAP3 SWAP2 POP POP JUMP JUMPDEST PUSH1 0x0 DUP1 PUSH2 0x719 PUSH2 0x7BA JUMP JUMPDEST SWAP1 POP PUSH2 0x726 DUP2 DUP6 DUP6 PUSH2 0xA19 JUMP JUMPDEST PUSH1 0x1 SWAP2 POP POP SWAP3 SWAP2 POP POP JUMP JUMPDEST PUSH1 0x0 PUSH1 0x1 PUSH1 0x0 DUP5 PUSH20 0xFFFFFFFFFFFFFFFFFFFFFFFFFFFFFFFFFFFFFFFF AND PUSH20 0xFFFFFFFFFFFFFFFFFFFFFFFFFFFFFFFFFFFFFFFF AND DUP2 MSTORE PUSH1 0x20 ADD SWAP1 DUP2 MSTORE PUSH1 0x20 ADD PUSH1 0x0 KECCAK256 PUSH1 0x0 DUP4 PUSH20 0xFFFFFFFFFFFFFFFFFFFFFFFFFFFFFFFFFFFFFFFF AND PUSH20 0xFFFFFFFFFFFFFFFFFFFFFFFFFFFFFFFFFFFFFFFF AND DUP2 MSTORE PUSH1 0x20 ADD SWAP1 DUP2 MSTORE PUSH1 0x20 ADD PUSH1 0x0 KECCAK256 SLOAD SWAP1 POP SWAP3 SWAP2 POP POP JUMP JUMPDEST JUMP JUMPDEST PUSH1 0x0 CALLER SWAP1 POP SWAP1 JUMP JUMPDEST PUSH1 0x0 PUSH20 0xFFFFFFFFFFFFFFFFFFFFFFFFFFFFFFFFFFFFFFFF AND DUP4 PUSH20 0xFFFFFFFFFFFFFFFFFFFFFFFFFFFFFFFFFFFFFFFF AND EQ ISZERO PUSH2 0x832 JUMPI PUSH1 0x40 MLOAD PUSH32 0x8C379A000000000000000000000000000000000000000000000000000000000 DUP2 MSTORE PUSH1 0x4 ADD PUSH2 0x829 SWAP1 PUSH2 0x1030 JUMP JUMPDEST PUSH1 0x40 MLOAD DUP1 SWAP2 SUB SWAP1 REVERT JUMPDEST PUSH1 0x0 PUSH20 0xFFFFFFFFFFFFFFFFFFFFFFFFFFFFFFFFFFFFFFFF AND DUP3 PUSH20 0xFFFFFFFFFFFFFFFFFFFFFFFFFFFFFFFFFFFFFFFF AND EQ ISZERO PUSH2 0x8A2 JUMPI PUSH1 0x40 MLOAD PUSH32 0x8C379A000000000000000000000000000000000000000000000000000000000 DUP2 MSTORE PUSH1 0x4 ADD PUSH2 0x899 SWAP1 PUSH2 0xFB0 JUMP JUMPDEST PUSH1 0x40 MLOAD DUP1 SWAP2 SUB SWAP1 REVERT JUMPDEST DUP1 PUSH1 0x1 PUSH1 0x0 DUP6 PUSH20 0xFFFFFFFFFFFFFFFFFFFFFFFFFFFFFFFFFFFFFFFF AND PUSH20 0xFFFFFFFFFFFFFFFFFFFFFFFFFFFFFFFFFFFFFFFF AND DUP2 MSTORE PUSH1 0x20 ADD SWAP1 DUP2 MSTORE PUSH1 0x20 ADD PUSH1 0x0 KECCAK256 PUSH1 0x0 DUP5 PUSH20 0xFFFFFFFFFFFFFFFFFFFFFFFFFFFFFFFFFFFFFFFF AND PUSH20 0xFFFFFFFFFFFFFFFFFFFFFFFFFFFFFFFFFFFFFFFF AND DUP2 MSTORE PUSH1 0x20 ADD SWAP1 DUP2 MSTORE PUSH1 0x20 ADD PUSH1 0x0 KECCAK256 DUP2 SWAP1 SSTORE POP DUP2 PUSH20 0xFFFFFFFFFFFFFFFFFFFFFFFFFFFFFFFFFFFFFFFF AND DUP4 PUSH20 0xFFFFFFFFFFFFFFFFFFFFFFFFFFFFFFFFFFFFFFFF AND PUSH32 0x8C5BE1E5EBEC7D5BD14F71427D1E84F3DD0314C0F7B2291E5B200AC8C7C3B925 DUP4 PUSH1 0x40 MLOAD PUSH2 0x980 SWAP2 SWAP1 PUSH2 0x1070 JUMP JUMPDEST PUSH1 0x40 MLOAD DUP1 SWAP2 SUB SWAP1 LOG3 POP POP POP JUMP JUMPDEST PUSH1 0x0 PUSH2 0x999 DUP5 DUP5 PUSH2 0x731 JUMP JUMPDEST SWAP1 POP PUSH32 0xFFFFFFFFFFFFFFFFFFFFFFFFFFFFFFFFFFFFFFFFFFFFFFFFFFFFFFFFFFFFFFFF DUP2 EQ PUSH2 0xA13 JUMPI DUP2 DUP2 LT ISZERO PUSH2 0xA05 JUMPI PUSH1 0x40 MLOAD PUSH32 0x8C379A000000000000000000000000000000000000000000000000000000000 DUP2 MSTORE PUSH1 0x4 ADD PUSH2 0x9FC SWAP1 PUSH2 0xFD0 JUMP JUMPDEST PUSH1 0x40 MLOAD DUP1 SWAP2 SUB SWAP1 REVERT JUMPDEST PUSH2 0xA12 DUP5 DUP5 DUP5 DUP5 SUB PUSH2 0x7C2 JUMP JUMPDEST JUMPDEST POP POP POP POP JUMP JUMPDEST PUSH1 0x0 PUSH20 0xFFFFFFFFFFFFFFFFFFFFFFFFFFFFFFFFFFFFFFFF AND DUP4 PUSH20 0xFFFFFFFFFFFFFFFFFFFFFFFFFFFFFFFFFFFFFFFF AND EQ ISZERO PUSH2 0xA89 JUMPI PUSH1 0x40 MLOAD PUSH32 0x8C379A000000000000000000000000000000000000000000000000000000000 DUP2 MSTORE PUSH1 0x4 ADD PUSH2 0xA80 SWAP1 PUSH2 0x1010 JUMP JUMPDEST PUSH1 0x40 MLOAD DUP1 SWAP2 SUB SWAP1 REVERT JUMPDEST PUSH1 0x0 PUSH20 0xFFFFFFFFFFFFFFFFFFFFFFFFFFFFFFFFFFFFFFFF AND DUP3 PUSH20 0xFFFFFFFFFFFFFFFFFFFFFFFFFFFFFFFFFFFFFFFF AND EQ ISZERO PUSH2 0xAF9 JUMPI PUSH1 0x40 MLOAD PUSH32 0x8C379A000000000000000000000000000000000000000000000000000000000 DUP2 MSTORE PUSH1 0x4 ADD PUSH2 0xAF0 SWAP1 PUSH2 0xF90 JUMP JUMPDEST PUSH1 0x40 MLOAD DUP1 SWAP2 SUB SWAP1 REVERT JUMPDEST PUSH2 0xB04 DUP4 DUP4 DUP4 PUSH2 0xC9A JUMP JUMPDEST PUSH1 0x0 DUP1 PUSH1 0x0 DUP6 PUSH20 0xFFFFFFFFFFFFFFFFFFFFFFFFFFFFFFFFFFFFFFFF AND PUSH20 0xFFFFFFFFFFFFFFFFFFFFFFFFFFFFFFFFFFFFFFFF AND DUP2 MSTORE PUSH1 0x20 ADD SWAP1 DUP2 MSTORE PUSH1 0x20 ADD PUSH1 0x0 KECCAK256 SLOAD SWAP1 POP DUP2 DUP2 LT ISZERO PUSH2 0xB8A JUMPI PUSH1 0x40 MLOAD PUSH32 0x8C379A000000000000000000000000000000000000000000000000000000000 DUP2 MSTORE PUSH1 0x4 ADD PUSH2 0xB81 SWAP1 PUSH2 0xFF0 JUMP JUMPDEST PUSH1 0x40 MLOAD DUP1 SWAP2 SUB SWAP1 REVERT JUMPDEST DUP2 DUP2 SUB PUSH1 0x0 DUP1 DUP7 PUSH20 0xFFFFFFFFFFFFFFFFFFFFFFFFFFFFFFFFFFFFFFFF AND PUSH20 0xFFFFFFFFFFFFFFFFFFFFFFFFFFFFFFFFFFFFFFFF AND DUP2 MSTORE PUSH1 0x20 ADD SWAP1 DUP2 MSTORE PUSH1 0x20 ADD PUSH1 0x0 KECCAK256 DUP2 SWAP1 SSTORE POP DUP2 PUSH1 0x0 DUP1 DUP6 PUSH20 0xFFFFFFFFFFFFFFFFFFFFFFFFFFFFFFFFFFFFFFFF AND PUSH20 0xFFFFFFFFFFFFFFFFFFFFFFFFFFFFFFFFFFFFFFFF AND DUP2 MSTORE PUSH1 0x20 ADD SWAP1 DUP2 MSTORE PUSH1 0x20 ADD PUSH1 0x0 KECCAK256 PUSH1 0x0 DUP3 DUP3 SLOAD PUSH2 0xC1D SWAP2 SWAP1 PUSH2 0x10C2 JUMP JUMPDEST SWAP3 POP POP DUP2 SWAP1 SSTORE POP DUP3 PUSH20 0xFFFFFFFFFFFFFFFFFFFFFFFFFFFFFFFFFFFFFFFF AND DUP5 PUSH20 0xFFFFFFFFFFFFFFFFFFFFFFFFFFFFFFFFFFFFFFFF AND PUSH32 0xDDF252AD1BE2C89B69C2B068FC378DAA952BA7F163C4A11628F55A4DF523B3EF DUP5 PUSH1 0x40 MLOAD PUSH2 0xC81 SWAP2 SWAP1 PUSH2 0x1070 JUMP JUMPDEST PUSH1 0x40 MLOAD DUP1 SWAP2 SUB SWAP1 LOG3 PUSH2 0xC94 DUP5 DUP5 DUP5 PUSH2 0xC9F JUMP JUMPDEST POP POP POP POP JUMP JUMPDEST POP POP POP JUMP JUMPDEST POP POP POP JUMP JUMPDEST PUSH1 0x0 DUP2 CALLDATALOAD SWAP1 POP PUSH2 0xCB3 DUP2 PUSH2 0x1449 JUMP JUMPDEST SWAP3 SWAP2 POP POP JUMP JUMPDEST PUSH1 0x0 DUP2 CALLDATALOAD SWAP1 POP PUSH2 0xCC8 DUP2 PUSH2 0x1460 JUMP JUMPDEST SWAP3 SWAP2 POP POP JUMP JUMPDEST PUSH1 0x0 PUSH1 0x20 DUP3 DUP5 SUB SLT ISZERO PUSH2 0xCE4 JUMPI PUSH2 0xCE3 PUSH2 0x1230 JUMP JUMPDEST JUMPDEST PUSH1 0x0 PUSH2 0xCF2 DUP5 DUP3 DUP6 ADD PUSH2 0xCA4 JUMP JUMPDEST SWAP2 POP POP SWAP3 SWAP2 POP POP JUMP JUMPDEST PUSH1 0x0 DUP1 PUSH1 0x40 DUP4 DUP6 SUB SLT ISZERO PUSH2 0xD12 JUMPI PUSH2 0xD11 PUSH2 0x1230 JUMP JUMPDEST JUMPDEST PUSH1 0x0 PUSH2 0xD20 DUP6 DUP3 DUP7 ADD PUSH2 0xCA4 JUMP JUMPDEST SWAP3 POP POP PUSH1 0x20 PUSH2 0xD31 DUP6 DUP3 DUP7 ADD PUSH2 0xCA4 JUMP JUMPDEST SWAP2 POP POP SWAP3 POP SWAP3 SWAP1 POP JUMP JUMPDEST PUSH1 0x0 DUP1 PUSH1 0x0 PUSH1 0x60 DUP5 DUP7 SUB SLT ISZERO PUSH2 0xD54 JUMPI PUSH2 0xD53 PUSH2 0x1230 JUMP JUMPDEST JUMPDEST PUSH1 0x0 PUSH2 0xD62 DUP7 DUP3 DUP8 ADD PUSH2 0xCA4 JUMP JUMPDEST SWAP4 POP POP PUSH1 0x20 PUSH2 0xD73 DUP7 DUP3 DUP8 ADD PUSH2 0xCA4 JUMP JUMPDEST SWAP3 POP POP PUSH1 0x40 PUSH2 0xD84 DUP7 DUP3 DUP8 ADD PUSH2 0xCB9 JUMP JUMPDEST SWAP2 POP POP SWAP3 POP SWAP3 POP SWAP3 JUMP JUMPDEST PUSH1 0x0 DUP1 PUSH1 0x40 DUP4 DUP6 SUB SLT ISZERO PUSH2 0xDA5 JUMPI PUSH2 0xDA4 PUSH2 0x1230 JUMP JUMPDEST JUMPDEST PUSH1 0x0 PUSH2 0xDB3 DUP6 DUP3 DUP7 ADD PUSH2 0xCA4 JUMP JUMPDEST SWAP3 POP POP PUSH1 0x20 PUSH2 0xDC4 DUP6 DUP3 DUP7 ADD PUSH2 0xCB9 JUMP JUMPDEST SWAP2 POP POP SWAP3 POP SWAP3 SWAP1 POP JUMP JUMPDEST PUSH2 0xDD7 DUP2 PUSH2 0x1118 JUMP JUMPDEST DUP3 MSTORE POP POP JUMP JUMPDEST PUSH2 0xDE6 DUP2 PUSH2 0x112A JUMP JUMPDEST DUP3 MSTORE POP POP JUMP JUMPDEST PUSH1 0x0 PUSH2 0xDF7 DUP3 PUSH2 0x10A6 JUMP JUMPDEST PUSH2 0xE01 DUP2 DUP6 PUSH2 0x10B1 JUMP JUMPDEST SWAP4 POP PUSH2 0xE11 DUP2 DUP6 PUSH1 0x20 DUP7 ADD PUSH2 0x116D JUMP JUMPDEST PUSH2 0xE1A DUP2 PUSH2 0x1235 JUMP JUMPDEST DUP5 ADD SWAP2 POP POP SWAP3 SWAP2 POP POP JUMP JUMPDEST PUSH1 0x0 PUSH2 0xE32 PUSH1 0x23 DUP4 PUSH2 0x10B1 JUMP JUMPDEST SWAP2 POP PUSH2 0xE3D DUP3 PUSH2 0x1246 JUMP JUMPDEST PUSH1 0x40 DUP3 ADD SWAP1 POP SWAP2 SWAP1 POP JUMP JUMPDEST PUSH1 0x0 PUSH2 0xE55 PUSH1 0x22 DUP4 PUSH2 0x10B1 JUMP JUMPDEST SWAP2 POP PUSH2 0xE60 DUP3 PUSH2 0x1295 JUMP JUMPDEST PUSH1 0x40 DUP3 ADD SWAP1 POP SWAP2 SWAP1 POP JUMP JUMPDEST PUSH1 0x0 PUSH2 0xE78 PUSH1 0x1D DUP4 PUSH2 0x10B1 JUMP JUMPDEST SWAP2 POP PUSH2 0xE83 DUP3 PUSH2 0x12E4 JUMP JUMPDEST PUSH1 0x20 DUP3 ADD SWAP1 POP SWAP2 SWAP1 POP JUMP JUMPDEST PUSH1 0x0 PUSH2 0xE9B PUSH1 0x26 DUP4 PUSH2 0x10B1 JUMP JUMPDEST SWAP2 POP PUSH2 0xEA6 DUP3 PUSH2 0x130D JUMP JUMPDEST PUSH1 0x40 DUP3 ADD SWAP1 POP SWAP2 SWAP1 POP JUMP JUMPDEST PUSH1 0x0 PUSH2 0xEBE PUSH1 0x25 DUP4 PUSH2 0x10B1 JUMP JUMPDEST SWAP2 POP PUSH2 0xEC9 DUP3 PUSH2 0x135C JUMP JUMPDEST PUSH1 0x40 DUP3 ADD SWAP1 POP SWAP2 SWAP1 POP JUMP JUMPDEST PUSH1 0x0 PUSH2 0xEE1 PUSH1 0x24 DUP4 PUSH2 0x10B1 JUMP JUMPDEST SWAP2 POP PUSH2 0xEEC DUP3 PUSH2 0x13AB JUMP JUMPDEST PUSH1 0x40 DUP3 ADD SWAP1 POP SWAP2 SWAP1 POP JUMP JUMPDEST PUSH1 0x0 PUSH2 0xF04 PUSH1 0x25 DUP4 PUSH2 0x10B1 JUMP JUMPDEST SWAP2 POP PUSH2 0xF0F DUP3 PUSH2 0x13FA JUMP JUMPDEST PUSH1 0x40 DUP3 ADD SWAP1 POP SWAP2 SWAP1 POP JUMP JUMPDEST PUSH2 0xF23 DUP2 PUSH2 0x1156 JUMP JUMPDEST DUP3 MSTORE POP POP JUMP JUMPDEST PUSH2 0xF32 DUP2 PUSH2 0x1160 JUMP JUMPDEST DUP3 MSTORE POP POP JUMP JUMPDEST PUSH1 0x0 PUSH1 0x20 DUP3 ADD SWAP1 POP PUSH2 0xF4D PUSH1 0x0 DUP4 ADD DUP5 PUSH2 0xDCE JUMP JUMPDEST SWAP3 SWAP2 POP POP JUMP JUMPDEST PUSH1 0x0 PUSH1 0x20 DUP3 ADD SWAP1 POP PUSH2 0xF68 PUSH1 0x0 DUP4 ADD DUP5 PUSH2 0xDDD JUMP JUMPDEST SWAP3 SWAP2 POP POP JUMP JUMPDEST PUSH1 0x0 PUSH1 0x20 DUP3 ADD SWAP1 POP DUP2 DUP2 SUB PUSH1 0x0 DUP4 ADD MSTORE PUSH2 0xF88 DUP2 DUP5 PUSH2 0xDEC JUMP JUMPDEST SWAP1 POP SWAP3 SWAP2 POP POP JUMP JUMPDEST PUSH1 0x0 PUSH1 0x20 DUP3 ADD SWAP1 POP DUP2 DUP2 SUB PUSH1 0x0 DUP4 ADD MSTORE PUSH2 0xFA9 DUP2 PUSH2 0xE25 JUMP JUMPDEST SWAP1 POP SWAP2 SWAP1 POP JUMP JUMPDEST PUSH1 0x0 PUSH1 0x20 DUP3 ADD SWAP1 POP DUP2 DUP2 SUB PUSH1 0x0 DUP4 ADD MSTORE PUSH2 0xFC9 DUP2 PUSH2 0xE48 JUMP JUMPDEST SWAP1 POP SWAP2 SWAP1 POP JUMP JUMPDEST PUSH1 0x0 PUSH1 0x20 DUP3 ADD SWAP1 POP DUP2 DUP2 SUB PUSH1 0x0 DUP4 ADD MSTORE PUSH2 0xFE9 DUP2 PUSH2 0xE6B JUMP JUMPDEST SWAP1 POP SWAP2 SWAP1 POP JUMP JUMPDEST PUSH1 0x0 PUSH1 0x20 DUP3 ADD SWAP1 POP DUP2 DUP2 SUB PUSH1 0x0 DUP4 ADD MSTORE PUSH2 0x1009 DUP2 PUSH2 0xE8E JUMP JUMPDEST SWAP1 POP SWAP2 SWAP1 POP JUMP JUMPDEST PUSH1 0x0 PUSH1 0x20 DUP3 ADD SWAP1 POP DUP2 DUP2 SUB PUSH1 0x0 DUP4 ADD MSTORE PUSH2 0x1029 DUP2 PUSH2 0xEB1 JUMP JUMPDEST SWAP1 POP SWAP2 SWAP1 POP JUMP JUMPDEST PUSH1 0x0 PUSH1 0x20 DUP3 ADD SWAP1 POP DUP2 DUP2 SUB PUSH1 0x0 DUP4 ADD MSTORE PUSH2 0x1049 DUP2 PUSH2 0xED4 JUMP JUMPDEST SWAP1 POP SWAP2 SWAP1 POP JUMP JUMPDEST PUSH1 0x0 PUSH1 0x20 DUP3 ADD SWAP1 POP DUP2 DUP2 SUB PUSH1 0x0 DUP4 ADD MSTORE PUSH2 0x1069 DUP2 PUSH2 0xEF7 JUMP JUMPDEST SWAP1 POP SWAP2 SWAP1 POP JUMP JUMPDEST PUSH1 0x0 PUSH1 0x20 DUP3 ADD SWAP1 POP PUSH2 0x1085 PUSH1 0x0 DUP4 ADD DUP5 PUSH2 0xF1A JUMP JUMPDEST SWAP3 SWAP2 POP POP JUMP JUMPDEST PUSH1 0x0 PUSH1 0x20 DUP3 ADD SWAP1 POP PUSH2 0x10A0 PUSH1 0x0 DUP4 ADD DUP5 PUSH2 0xF29 JUMP JUMPDEST SWAP3 SWAP2 POP POP JUMP JUMPDEST PUSH1 0x0 DUP2 MLOAD SWAP1 POP SWAP2 SWAP1 POP JUMP JUMPDEST PUSH1 0x0 DUP3 DUP3 MSTORE PUSH1 0x20 DUP3 ADD SWAP1 POP SWAP3 SWAP2 POP POP JUMP JUMPDEST PUSH1 0x0 PUSH2 0x10CD DUP3 PUSH2 0x1156 JUMP JUMPDEST SWAP2 POP PUSH2 0x10D8 DUP4 PUSH2 0x1156 JUMP JUMPDEST SWAP3 POP DUP3 PUSH32 0xFFFFFFFFFFFFFFFFFFFFFFFFFFFFFFFFFFFFFFFFFFFFFFFFFFFFFFFFFFFFFFFF SUB DUP3 GT ISZERO PUSH2 0x110D JUMPI PUSH2 0x110C PUSH2 0x11D2 JUMP JUMPDEST JUMPDEST DUP3 DUP3 ADD SWAP1 POP SWAP3 SWAP2 POP POP JUMP JUMPDEST PUSH1 0x0 PUSH2 0x1123 DUP3 PUSH2 0x1136 JUMP JUMPDEST SWAP1 POP SWAP2 SWAP1 POP JUMP JUMPDEST PUSH1 0x0 DUP2 ISZERO ISZERO SWAP1 POP SWAP2 SWAP1 POP JUMP JUMPDEST PUSH1 0x0 PUSH20 0xFFFFFFFFFFFFFFFFFFFFFFFFFFFFFFFFFFFFFFFF DUP3 AND SWAP1 POP SWAP2 SWAP1 POP JUMP JUMPDEST PUSH1 0x0 DUP2 SWAP1 POP SWAP2 SWAP1 POP JUMP JUMPDEST PUSH1 0x0 PUSH1 0xFF DUP3 AND SWAP1 POP SWAP2 SWAP1 POP JUMP JUMPDEST PUSH1 0x0 JUMPDEST DUP4 DUP2 LT ISZERO PUSH2 0x118B JUMPI DUP1 DUP3 ADD MLOAD DUP2 DUP5 ADD MSTORE PUSH1 0x20 DUP2 ADD SWAP1 POP PUSH2 0x1170 JUMP JUMPDEST DUP4 DUP2 GT ISZERO PUSH2 0x119A JUMPI PUSH1 0x0 DUP5 DUP5 ADD MSTORE JUMPDEST POP POP POP POP JUMP JUMPDEST PUSH1 0x0 PUSH1 0x2 DUP3 DIV SWAP1 POP PUSH1 0x1 DUP3 AND DUP1 PUSH2 0x11B8 JUMPI PUSH1 0x7F DUP3 AND SWAP2 POP JUMPDEST PUSH1 0x20 DUP3 LT DUP2 EQ ISZERO PUSH2 0x11CC JUMPI PUSH2 0x11CB PUSH2 0x1201 JUMP JUMPDEST JUMPDEST POP SWAP2 SWAP1 POP JUMP JUMPDEST PUSH32 0x4E487B7100000000000000000000000000000000000000000000000000000000 PUSH1 0x0 MSTORE PUSH1 0x11 PUSH1 0x4 MSTORE PUSH1 0x24 PUSH1 0x0 REVERT JUMPDEST PUSH32 0x4E487B7100000000000000000000000000000000000000000000000000000000 PUSH1 0x0 MSTORE PUSH1 0x22 PUSH1 0x4 MSTORE PUSH1 0x24 PUSH1 0x0 REVERT JUMPDEST PUSH1 0x0 DUP1 REVERT JUMPDEST PUSH1 0x0 PUSH1 0x1F NOT PUSH1 0x1F DUP4 ADD AND SWAP1 POP SWAP2 SWAP1 POP JUMP JUMPDEST PUSH32 0x45524332303A207472616E7366657220746F20746865207A65726F2061646472 PUSH1 0x0 DUP3 ADD MSTORE PUSH32 0x6573730000000000000000000000000000000000000000000000000000000000 PUSH1 0x20 DUP3 ADD MSTORE POP JUMP JUMPDEST PUSH32 0x45524332303A20617070726F766520746F20746865207A65726F206164647265 PUSH1 0x0 DUP3 ADD MSTORE PUSH32 0x7373000000000000000000000000000000000000000000000000000000000000 PUSH1 0x20 DUP3 ADD MSTORE POP JUMP JUMPDEST PUSH32 0x45524332303A20696E73756666696369656E7420616C6C6F77616E6365000000 PUSH1 0x0 DUP3 ADD MSTORE POP JUMP JUMPDEST PUSH32 0x45524332303A207472616E7366657220616D6F756E7420657863656564732062 PUSH1 0x0 DUP3 ADD MSTORE PUSH32 0x616C616E63650000000000000000000000000000000000000000000000000000 PUSH1 0x20 DUP3 ADD MSTORE POP JUMP JUMPDEST PUSH32 0x45524332303A207472616E736665722066726F6D20746865207A65726F206164 PUSH1 0x0 DUP3 ADD MSTORE PUSH32 0x6472657373000000000000000000000000000000000000000000000000000000 PUSH1 0x20 DUP3 ADD MSTORE POP JUMP JUMPDEST PUSH32 0x45524332303A20617070726F76652066726F6D20746865207A65726F20616464 PUSH1 0x0 DUP3 ADD MSTORE PUSH32 0x7265737300000000000000000000000000000000000000000000000000000000 PUSH1 0x20 DUP3 ADD MSTORE POP JUMP JUMPDEST PUSH32 0x45524332303A2064656372656173656420616C6C6F77616E63652062656C6F77 PUSH1 0x0 DUP3 ADD MSTORE PUSH32 0x207A65726F000000000000000000000000000000000000000000000000000000 PUSH1 0x20 DUP3 ADD MSTORE POP JUMP JUMPDEST PUSH2 0x1452 DUP2 PUSH2 0x1118 JUMP JUMPDEST DUP2 EQ PUSH2 0x145D JUMPI PUSH1 0x0 DUP1 REVERT JUMPDEST POP JUMP JUMPDEST PUSH2 0x1469 DUP2 PUSH2 0x1156 JUMP JUMPDEST DUP2 EQ PUSH2 0x1474 JUMPI PUSH1 0x0 DUP1 REVERT JUMPDEST POP JUMP INVALID LOG2 PUSH5 0x6970667358 0x22 SLT KECCAK256 SELFDESTRUCT CALLDATASIZE 0xE1 XOR SWAP10 DUP6 LOG4 DUP3 0xC9 0xB0 PUSH27 0x2F4EDDE60A5C1481D827137DF1948C831777141B7264736F6C6343 STOP ADDMOD SMOD STOP CALLER "
				},
				"gasEstimates": {
					"creation": {
						"codeDepositCost": "1058600",
						"executionCost": "infinite",
						"totalCost": "infinite"
					},
					"external": {
						"CoinApprove(address,address,uint256)": "infinite",
						"GetEther()": "428",
						"_adminAddress()": "2537",
						"allowance(address,address)": "infinite",
						"approve(address,uint256)": "infinite",
						"balanceOf(address)": "2908",
						"decimals()": "366",
						"decreaseAllowance(address,uint256)": "infinite",
						"getbalancetest()": "4751",
						"increaseAllowance(address,uint256)": "infinite",
						"invest()": "208",
						"name()": "infinite",
						"symbol()": "infinite",
						"totalSupply()": "2505",
						"transfer(address,uint256)": "infinite",
						"transferFrom(address,address,uint256)": "infinite"
					}
				},
				"methodIdentifiers": {
					"CoinApprove(address,address,uint256)": "6e78e23c",
					"GetEther()": "45b5a47a",
					"_adminAddress()": "5c1cb691",
					"allowance(address,address)": "dd62ed3e",
					"approve(address,uint256)": "095ea7b3",
					"balanceOf(address)": "70a08231",
					"decimals()": "313ce567",
					"decreaseAllowance(address,uint256)": "a457c2d7",
					"getbalancetest()": "320ce981",
					"increaseAllowance(address,uint256)": "39509351",
					"invest()": "e8b5e51f",
					"name()": "06fdde03",
					"symbol()": "95d89b41",
					"totalSupply()": "18160ddd",
					"transfer(address,uint256)": "a9059cbb",
					"transferFrom(address,address,uint256)": "23b872dd"
				}
			},
			"storageLayout": {
				"storage": [
					{
						"astId": 15,
						"contract": "BlockJobs/BlockJobsCoin.sol:BlockJobsCoin",
						"label": "_balances",
						"offset": 0,
						"slot": "0",
						"type": "t_mapping(t_address,t_uint256)"
					},
					{
						"astId": 21,
						"contract": "BlockJobs/BlockJobsCoin.sol:BlockJobsCoin",
						"label": "_allowances",
						"offset": 0,
						"slot": "1",
						"type": "t_mapping(t_address,t_mapping(t_address,t_uint256))"
					},
					{
						"astId": 23,
						"contract": "BlockJobs/BlockJobsCoin.sol:BlockJobsCoin",
						"label": "_totalSupply",
						"offset": 0,
						"slot": "2",
						"type": "t_uint256"
					},
					{
						"astId": 25,
						"contract": "BlockJobs/BlockJobsCoin.sol:BlockJobsCoin",
						"label": "_name",
						"offset": 0,
						"slot": "3",
						"type": "t_string_storage"
					},
					{
						"astId": 27,
						"contract": "BlockJobs/BlockJobsCoin.sol:BlockJobsCoin",
						"label": "_symbol",
						"offset": 0,
						"slot": "4",
						"type": "t_string_storage"
					},
					{
						"astId": 717,
						"contract": "BlockJobs/BlockJobsCoin.sol:BlockJobsCoin",
						"label": "_adminAddress",
						"offset": 0,
						"slot": "5",
						"type": "t_address"
					}
				],
				"types": {
					"t_address": {
						"encoding": "inplace",
						"label": "address",
						"numberOfBytes": "20"
					},
					"t_mapping(t_address,t_mapping(t_address,t_uint256))": {
						"encoding": "mapping",
						"key": "t_address",
						"label": "mapping(address => mapping(address => uint256))",
						"numberOfBytes": "32",
						"value": "t_mapping(t_address,t_uint256)"
					},
					"t_mapping(t_address,t_uint256)": {
						"encoding": "mapping",
						"key": "t_address",
						"label": "mapping(address => uint256)",
						"numberOfBytes": "32",
						"value": "t_uint256"
					},
					"t_string_storage": {
						"encoding": "bytes",
						"label": "string",
						"numberOfBytes": "32"
					},
					"t_uint256": {
						"encoding": "inplace",
						"label": "uint256",
						"numberOfBytes": "32"
					}
				}
			},
			"userdoc": {
				"kind": "user",
				"methods": {},
				"version": 1
			}
		}
	}
}