{
	"BlockJobs/BlockJobsCoin.sol": {
		"BlockJobsCoin": {
			"abi": [
				{
					"inputs": [
						{
							"internalType": "string",
							"name": "_name",
							"type": "string"
						},
						{
							"internalType": "string",
							"name": "_symbol",
							"type": "string"
						},
						{
							"internalType": "uint256",
							"name": "_initSupply",
							"type": "uint256"
						}
					],
					"stateMutability": "nonpayable",
					"type": "constructor"
				},
				{
					"anonymous": false,
					"inputs": [
						{
							"indexed": true,
							"internalType": "address",
							"name": "owner",
							"type": "address"
						},
						{
							"indexed": true,
							"internalType": "address",
							"name": "spender",
							"type": "address"
						},
						{
							"indexed": false,
							"internalType": "uint256",
							"name": "value",
							"type": "uint256"
						}
					],
					"name": "Approval",
					"type": "event"
				},
				{
					"anonymous": false,
					"inputs": [
						{
							"indexed": false,
							"internalType": "uint256",
							"name": "amount",
							"type": "uint256"
						}
					],
					"name": "Bought",
					"type": "event"
				},
				{
					"anonymous": false,
					"inputs": [
						{
							"indexed": false,
							"internalType": "uint256",
							"name": "amount",
							"type": "uint256"
						}
					],
					"name": "Sold",
					"type": "event"
				},
				{
					"anonymous": false,
					"inputs": [
						{
							"indexed": true,
							"internalType": "address",
							"name": "from",
							"type": "address"
						},
						{
							"indexed": true,
							"internalType": "address",
							"name": "to",
							"type": "address"
						},
						{
							"indexed": false,
							"internalType": "uint256",
							"name": "value",
							"type": "uint256"
						}
					],
					"name": "Transfer",
					"type": "event"
				},
				{
					"inputs": [],
					"name": "Buy",
					"outputs": [],
					"stateMutability": "payable",
					"type": "function"
				},
				{
					"inputs": [
						{
							"internalType": "address",
							"name": "_owner",
							"type": "address"
						},
						{
							"internalType": "address",
							"name": "spender",
							"type": "address"
						},
						{
							"internalType": "uint256",
							"name": "amount",
							"type": "uint256"
						}
					],
					"name": "CoinApprove",
					"outputs": [
						{
							"internalType": "bool",
							"name": "",
							"type": "bool"
						}
					],
					"stateMutability": "nonpayable",
					"type": "function"
				},
				{
					"inputs": [],
					"name": "GetEther",
					"outputs": [
						{
							"internalType": "uint256",
							"name": "",
							"type": "uint256"
						}
					],
					"stateMutability": "view",
					"type": "function"
				},
				{
					"inputs": [],
					"name": "_adminAddress",
					"outputs": [
						{
							"internalType": "address",
							"name": "",
							"type": "address"
						}
					],
					"stateMutability": "view",
					"type": "function"
				},
				{
					"inputs": [
						{
							"internalType": "address",
							"name": "owner",
							"type": "address"
						},
						{
							"internalType": "address",
							"name": "spender",
							"type": "address"
						}
					],
					"name": "allowance",
					"outputs": [
						{
							"internalType": "uint256",
							"name": "",
							"type": "uint256"
						}
					],
					"stateMutability": "view",
					"type": "function"
				},
				{
					"inputs": [
						{
							"internalType": "address",
							"name": "spender",
							"type": "address"
						},
						{
							"internalType": "uint256",
							"name": "amount",
							"type": "uint256"
						}
					],
					"name": "approve",
					"outputs": [
						{
							"internalType": "bool",
							"name": "",
							"type": "bool"
						}
					],
					"stateMutability": "nonpayable",
					"type": "function"
				},
				{
					"inputs": [
						{
							"internalType": "address",
							"name": "account",
							"type": "address"
						}
					],
					"name": "balanceOf",
					"outputs": [
						{
							"internalType": "uint256",
							"name": "",
							"type": "uint256"
						}
					],
					"stateMutability": "view",
					"type": "function"
				},
				{
					"inputs": [],
					"name": "decimals",
					"outputs": [
						{
							"internalType": "uint8",
							"name": "",
							"type": "uint8"
						}
					],
					"stateMutability": "view",
					"type": "function"
				},
				{
					"inputs": [
						{
							"internalType": "address",
							"name": "spender",
							"type": "address"
						},
						{
							"internalType": "uint256",
							"name": "subtractedValue",
							"type": "uint256"
						}
					],
					"name": "decreaseAllowance",
					"outputs": [
						{
							"internalType": "bool",
							"name": "",
							"type": "bool"
						}
					],
					"stateMutability": "nonpayable",
					"type": "function"
				},
				{
					"inputs": [],
					"name": "getbalancetest",
					"outputs": [
						{
							"internalType": "uint256",
							"name": "",
							"type": "uint256"
						}
					],
					"stateMutability": "view",
					"type": "function"
				},
				{
					"inputs": [
						{
							"internalType": "address",
							"name": "spender",
							"type": "address"
						},
						{
							"internalType": "uint256",
							"name": "addedValue",
							"type": "uint256"
						}
					],
					"name": "increaseAllowance",
					"outputs": [
						{
							"internalType": "bool",
							"name": "",
							"type": "bool"
						}
					],
					"stateMutability": "nonpayable",
					"type": "function"
				},
				{
					"inputs": [],
					"name": "invest",
					"outputs": [],
					"stateMutability": "payable",
					"type": "function"
				},
				{
					"inputs": [],
					"name": "name",
					"outputs": [
						{
							"internalType": "string",
							"name": "",
							"type": "string"
						}
					],
					"stateMutability": "view",
					"type": "function"
				},
				{
					"inputs": [
						{
							"internalType": "uint256",
							"name": "amount",
							"type": "uint256"
						}
					],
					"name": "sell",
					"outputs": [],
					"stateMutability": "payable",
					"type": "function"
				},
				{
					"inputs": [],
					"name": "symbol",
					"outputs": [
						{
							"internalType": "string",
							"name": "",
							"type": "string"
						}
					],
					"stateMutability": "view",
					"type": "function"
				},
				{
					"inputs": [],
					"name": "totalSupply",
					"outputs": [
						{
							"internalType": "uint256",
							"name": "",
							"type": "uint256"
						}
					],
					"stateMutability": "view",
					"type": "function"
				},
				{
					"inputs": [
						{
							"internalType": "address",
							"name": "to",
							"type": "address"
						},
						{
							"internalType": "uint256",
							"name": "amount",
							"type": "uint256"
						}
					],
					"name": "transfer",
					"outputs": [
						{
							"internalType": "bool",
							"name": "",
							"type": "bool"
						}
					],
					"stateMutability": "nonpayable",
					"type": "function"
				},
				{
					"inputs": [
						{
							"internalType": "address",
							"name": "from",
							"type": "address"
						},
						{
							"internalType": "address",
							"name": "to",
							"type": "address"
						},
						{
							"internalType": "uint256",
							"name": "amount",
							"type": "uint256"
						}
					],
					"name": "transferFrom",
					"outputs": [
						{
							"internalType": "bool",
							"name": "",
							"type": "bool"
						}
					],
					"stateMutability": "nonpayable",
					"type": "function"
				}
			],
			"devdoc": {
				"kind": "dev",
				"methods": {
					"allowance(address,address)": {
						"details": "See {IERC20-allowance}."
					},
					"approve(address,uint256)": {
						"details": "See {IERC20-approve}. NOTE: If `amount` is the maximum `uint256`, the allowance is not updated on `transferFrom`. This is semantically equivalent to an infinite approval. Requirements: - `spender` cannot be the zero address."
					},
					"balanceOf(address)": {
						"details": "See {IERC20-balanceOf}."
					},
					"decimals()": {
						"details": "Returns the number of decimals used to get its user representation. For example, if `decimals` equals `2`, a balance of `505` tokens should be displayed to a user as `5.05` (`505 / 10 ** 2`). Tokens usually opt for a value of 18, imitating the relationship between Ether and Wei. This is the value {ERC20} uses, unless this function is overridden; NOTE: This information is only used for _display_ purposes: it in no way affects any of the arithmetic of the contract, including {IERC20-balanceOf} and {IERC20-transfer}."
					},
					"decreaseAllowance(address,uint256)": {
						"details": "Atomically decreases the allowance granted to `spender` by the caller. This is an alternative to {approve} that can be used as a mitigation for problems described in {IERC20-approve}. Emits an {Approval} event indicating the updated allowance. Requirements: - `spender` cannot be the zero address. - `spender` must have allowance for the caller of at least `subtractedValue`."
					},
					"increaseAllowance(address,uint256)": {
						"details": "Atomically increases the allowance granted to `spender` by the caller. This is an alternative to {approve} that can be used as a mitigation for problems described in {IERC20-approve}. Emits an {Approval} event indicating the updated allowance. Requirements: - `spender` cannot be the zero address."
					},
					"name()": {
						"details": "Returns the name of the token."
					},
					"symbol()": {
						"details": "Returns the symbol of the token, usually a shorter version of the name."
					},
					"totalSupply()": {
						"details": "See {IERC20-totalSupply}."
					},
					"transfer(address,uint256)": {
						"details": "See {IERC20-transfer}. Requirements: - `to` cannot be the zero address. - the caller must have a balance of at least `amount`."
					},
					"transferFrom(address,address,uint256)": {
						"details": "See {IERC20-transferFrom}. Emits an {Approval} event indicating the updated allowance. This is not required by the EIP. See the note at the beginning of {ERC20}. NOTE: Does not update the allowance if the current allowance is the maximum `uint256`. Requirements: - `from` and `to` cannot be the zero address. - `from` must have a balance of at least `amount`. - the caller must have allowance for ``from``'s tokens of at least `amount`."
					}
				},
				"version": 1
			},
			"evm": {
				"assembly": "    /* \"BlockJobs/BlockJobsCoin.sol\":123:1795  contract BlockJobsCoin is ERC20 {\r... */\n  mstore(0x40, 0x80)\n    /* \"BlockJobs/BlockJobsCoin.sol\":325:544  constructor(string memory _name, string memory _symbol, uint _initSupply) ERC20(_name, _symbol){\r... */\n  callvalue\n  dup1\n  iszero\n  tag_1\n  jumpi\n  0x00\n  dup1\n  revert\ntag_1:\n  pop\n  mload(0x40)\n  sub(codesize, bytecodeSize)\n  dup1\n  bytecodeSize\n  dup4\n  codecopy\n  dup2\n  dup2\n  add\n  0x40\n  mstore\n  dup2\n  add\n  swap1\n  tag_2\n  swap2\n  swap1\n  tag_3\n  jump\t// in\ntag_2:\n    /* \"BlockJobs/BlockJobsCoin.sol\":405:410  _name */\n  dup3\n    /* \"BlockJobs/BlockJobsCoin.sol\":412:419  _symbol */\n  dup3\n    /* \"@openzeppelin/contracts/token/ERC20/ERC20.sol\":2052:2057  name_ */\n  dup2\n    /* \"@openzeppelin/contracts/token/ERC20/ERC20.sol\":2044:2049  _name */\n  0x03\n    /* \"@openzeppelin/contracts/token/ERC20/ERC20.sol\":2044:2057  _name = name_ */\n  swap1\n  dup1\n  mload\n  swap1\n  0x20\n  add\n  swap1\n  tag_7\n  swap3\n  swap2\n  swap1\n  tag_8\n  jump\t// in\ntag_7:\n  pop\n    /* \"@openzeppelin/contracts/token/ERC20/ERC20.sol\":2077:2084  symbol_ */\n  dup1\n    /* \"@openzeppelin/contracts/token/ERC20/ERC20.sol\":2067:2074  _symbol */\n  0x04\n    /* \"@openzeppelin/contracts/token/ERC20/ERC20.sol\":2067:2084  _symbol = symbol_ */\n  swap1\n  dup1\n  mload\n  swap1\n  0x20\n  add\n  swap1\n  tag_9\n  swap3\n  swap2\n  swap1\n  tag_8\n  jump\t// in\ntag_9:\n  pop\n    /* \"@openzeppelin/contracts/token/ERC20/ERC20.sol\":1978:2091  constructor(string memory name_, string memory symbol_) {... */\n  pop\n  pop\n    /* \"BlockJobs/BlockJobsCoin.sol\":447:457  msg.sender */\n  caller\n    /* \"BlockJobs/BlockJobsCoin.sol\":431:444  _adminAddress */\n  0x05\n  0x00\n    /* \"BlockJobs/BlockJobsCoin.sol\":431:457  _adminAddress = msg.sender */\n  0x0100\n  exp\n  dup2\n  sload\n  dup2\n  0xffffffffffffffffffffffffffffffffffffffff\n  mul\n  not\n  and\n  swap1\n  dup4\n  0xffffffffffffffffffffffffffffffffffffffff\n  and\n  mul\n  or\n  swap1\n  sstore\n  pop\n    /* \"BlockJobs/BlockJobsCoin.sol\":468:528  _mint(msg.sender, _initSupply * (10 ** uint256(decimals()))) */\n  tag_11\n    /* \"BlockJobs/BlockJobsCoin.sol\":474:484  msg.sender */\n  caller\n    /* \"BlockJobs/BlockJobsCoin.sol\":515:525  decimals() */\n  tag_12\n    /* \"BlockJobs/BlockJobsCoin.sol\":515:523  decimals */\n  shl(0x20, tag_13)\n    /* \"BlockJobs/BlockJobsCoin.sol\":515:525  decimals() */\n  0x20\n  shr\n  jump\t// in\ntag_12:\n    /* \"BlockJobs/BlockJobsCoin.sol\":507:526  uint256(decimals()) */\n  0xff\n  and\n    /* \"BlockJobs/BlockJobsCoin.sol\":501:503  10 */\n  0x0a\n    /* \"BlockJobs/BlockJobsCoin.sol\":501:526  10 ** uint256(decimals()) */\n  tag_14\n  swap2\n  swap1\n  tag_15\n  jump\t// in\ntag_14:\n    /* \"BlockJobs/BlockJobsCoin.sol\":486:497  _initSupply */\n  dup4\n    /* \"BlockJobs/BlockJobsCoin.sol\":486:527  _initSupply * (10 ** uint256(decimals())) */\n  tag_16\n  swap2\n  swap1\n  tag_17\n  jump\t// in\ntag_16:\n    /* \"BlockJobs/BlockJobsCoin.sol\":468:473  _mint */\n  shl(0x20, tag_18)\n    /* \"BlockJobs/BlockJobsCoin.sol\":468:528  _mint(msg.sender, _initSupply * (10 ** uint256(decimals()))) */\n  0x20\n  shr\n  jump\t// in\ntag_11:\n    /* \"BlockJobs/BlockJobsCoin.sol\":325:544  constructor(string memory _name, string memory _symbol, uint _initSupply) ERC20(_name, _symbol){\r... */\n  pop\n  pop\n  pop\n    /* \"BlockJobs/BlockJobsCoin.sol\":123:1795  contract BlockJobsCoin is ERC20 {\r... */\n  jump(tag_19)\n    /* \"@openzeppelin/contracts/token/ERC20/ERC20.sol\":3093:3184  function decimals() public view virtual override returns (uint8) {... */\ntag_13:\n    /* \"@openzeppelin/contracts/token/ERC20/ERC20.sol\":3151:3156  uint8 */\n  0x00\n    /* \"@openzeppelin/contracts/token/ERC20/ERC20.sol\":3175:3177  18 */\n  0x12\n    /* \"@openzeppelin/contracts/token/ERC20/ERC20.sol\":3168:3177  return 18 */\n  swap1\n  pop\n    /* \"@openzeppelin/contracts/token/ERC20/ERC20.sol\":3093:3184  function decimals() public view virtual override returns (uint8) {... */\n  swap1\n  jump\t// out\n    /* \"@openzeppelin/contracts/token/ERC20/ERC20.sol\":8411:8800  function _mint(address account, uint256 amount) internal virtual {... */\ntag_18:\n    /* \"@openzeppelin/contracts/token/ERC20/ERC20.sol\":8513:8514  0 */\n  0x00\n    /* \"@openzeppelin/contracts/token/ERC20/ERC20.sol\":8494:8515  account != address(0) */\n  0xffffffffffffffffffffffffffffffffffffffff\n  and\n    /* \"@openzeppelin/contracts/token/ERC20/ERC20.sol\":8494:8501  account */\n  dup3\n    /* \"@openzeppelin/contracts/token/ERC20/ERC20.sol\":8494:8515  account != address(0) */\n  0xffffffffffffffffffffffffffffffffffffffff\n  and\n  eq\n  iszero\n    /* \"@openzeppelin/contracts/token/ERC20/ERC20.sol\":8486:8551  require(account != address(0), \"ERC20: mint to the zero address\") */\n  tag_22\n  jumpi\n  mload(0x40)\n  0x08c379a000000000000000000000000000000000000000000000000000000000\n  dup2\n  mstore\n  0x04\n  add\n  tag_23\n  swap1\n  tag_24\n  jump\t// in\ntag_23:\n  mload(0x40)\n  dup1\n  swap2\n  sub\n  swap1\n  revert\ntag_22:\n    /* \"@openzeppelin/contracts/token/ERC20/ERC20.sol\":8562:8611  _beforeTokenTransfer(address(0), account, amount) */\n  tag_25\n    /* \"@openzeppelin/contracts/token/ERC20/ERC20.sol\":8591:8592  0 */\n  0x00\n    /* \"@openzeppelin/contracts/token/ERC20/ERC20.sol\":8595:8602  account */\n  dup4\n    /* \"@openzeppelin/contracts/token/ERC20/ERC20.sol\":8604:8610  amount */\n  dup4\n    /* \"@openzeppelin/contracts/token/ERC20/ERC20.sol\":8562:8582  _beforeTokenTransfer */\n  shl(0x20, tag_26)\n    /* \"@openzeppelin/contracts/token/ERC20/ERC20.sol\":8562:8611  _beforeTokenTransfer(address(0), account, amount) */\n  0x20\n  shr\n  jump\t// in\ntag_25:\n    /* \"@openzeppelin/contracts/token/ERC20/ERC20.sol\":8638:8644  amount */\n  dup1\n    /* \"@openzeppelin/contracts/token/ERC20/ERC20.sol\":8622:8634  _totalSupply */\n  0x02\n  0x00\n    /* \"@openzeppelin/contracts/token/ERC20/ERC20.sol\":8622:8644  _totalSupply += amount */\n  dup3\n  dup3\n  sload\n  tag_27\n  swap2\n  swap1\n  tag_28\n  jump\t// in\ntag_27:\n  swap3\n  pop\n  pop\n  dup2\n  swap1\n  sstore\n  pop\n    /* \"@openzeppelin/contracts/token/ERC20/ERC20.sol\":8676:8682  amount */\n  dup1\n    /* \"@openzeppelin/contracts/token/ERC20/ERC20.sol\":8654:8663  _balances */\n  0x00\n    /* \"@openzeppelin/contracts/token/ERC20/ERC20.sol\":8654:8672  _balances[account] */\n  dup1\n    /* \"@openzeppelin/contracts/token/ERC20/ERC20.sol\":8664:8671  account */\n  dup5\n    /* \"@openzeppelin/contracts/token/ERC20/ERC20.sol\":8654:8672  _balances[account] */\n  0xffffffffffffffffffffffffffffffffffffffff\n  and\n  0xffffffffffffffffffffffffffffffffffffffff\n  and\n  dup2\n  mstore\n  0x20\n  add\n  swap1\n  dup2\n  mstore\n  0x20\n  add\n  0x00\n  keccak256\n  0x00\n    /* \"@openzeppelin/contracts/token/ERC20/ERC20.sol\":8654:8682  _balances[account] += amount */\n  dup3\n  dup3\n  sload\n  tag_29\n  swap2\n  swap1\n  tag_28\n  jump\t// in\ntag_29:\n  swap3\n  pop\n  pop\n  dup2\n  swap1\n  sstore\n  pop\n    /* \"@openzeppelin/contracts/token/ERC20/ERC20.sol\":8718:8725  account */\n  dup2\n    /* \"@openzeppelin/contracts/token/ERC20/ERC20.sol\":8697:8734  Transfer(address(0), account, amount) */\n  0xffffffffffffffffffffffffffffffffffffffff\n  and\n    /* \"@openzeppelin/contracts/token/ERC20/ERC20.sol\":8714:8715  0 */\n  0x00\n    /* \"@openzeppelin/contracts/token/ERC20/ERC20.sol\":8697:8734  Transfer(address(0), account, amount) */\n  0xffffffffffffffffffffffffffffffffffffffff\n  and\n  0xddf252ad1be2c89b69c2b068fc378daa952ba7f163c4a11628f55a4df523b3ef\n    /* \"@openzeppelin/contracts/token/ERC20/ERC20.sol\":8727:8733  amount */\n  dup4\n    /* \"@openzeppelin/contracts/token/ERC20/ERC20.sol\":8697:8734  Transfer(address(0), account, amount) */\n  mload(0x40)\n  tag_30\n  swap2\n  swap1\n  tag_31\n  jump\t// in\ntag_30:\n  mload(0x40)\n  dup1\n  swap2\n  sub\n  swap1\n  log3\n    /* \"@openzeppelin/contracts/token/ERC20/ERC20.sol\":8745:8793  _afterTokenTransfer(address(0), account, amount) */\n  tag_32\n    /* \"@openzeppelin/contracts/token/ERC20/ERC20.sol\":8773:8774  0 */\n  0x00\n    /* \"@openzeppelin/contracts/token/ERC20/ERC20.sol\":8777:8784  account */\n  dup4\n    /* \"@openzeppelin/contracts/token/ERC20/ERC20.sol\":8786:8792  amount */\n  dup4\n    /* \"@openzeppelin/contracts/token/ERC20/ERC20.sol\":8745:8764  _afterTokenTransfer */\n  shl(0x20, tag_33)\n    /* \"@openzeppelin/contracts/token/ERC20/ERC20.sol\":8745:8793  _afterTokenTransfer(address(0), account, amount) */\n  0x20\n  shr\n  jump\t// in\ntag_32:\n    /* \"@openzeppelin/contracts/token/ERC20/ERC20.sol\":8411:8800  function _mint(address account, uint256 amount) internal virtual {... */\n  pop\n  pop\n  jump\t// out\n    /* \"@openzeppelin/contracts/token/ERC20/ERC20.sol\":11795:11916  function _beforeTokenTransfer(... */\ntag_26:\n  pop\n  pop\n  pop\n  jump\t// out\n    /* \"@openzeppelin/contracts/token/ERC20/ERC20.sol\":12504:12624  function _afterTokenTransfer(... */\ntag_33:\n  pop\n  pop\n  pop\n  jump\t// out\n    /* \"BlockJobs/BlockJobsCoin.sol\":123:1795  contract BlockJobsCoin is ERC20 {\r... */\ntag_8:\n  dup3\n  dup1\n  sload\n  tag_36\n  swap1\n  tag_37\n  jump\t// in\ntag_36:\n  swap1\n  0x00\n  mstore\n  keccak256(0x00, 0x20)\n  swap1\n  0x1f\n  add\n  0x20\n  swap1\n  div\n  dup2\n  add\n  swap3\n  dup3\n  tag_39\n  jumpi\n  0x00\n  dup6\n  sstore\n  jump(tag_38)\ntag_39:\n  dup3\n  0x1f\n  lt\n  tag_40\n  jumpi\n  dup1\n  mload\n  not(0xff)\n  and\n  dup4\n  dup1\n  add\n  or\n  dup6\n  sstore\n  jump(tag_38)\ntag_40:\n  dup3\n  dup1\n  add\n  0x01\n  add\n  dup6\n  sstore\n  dup3\n  iszero\n  tag_38\n  jumpi\n  swap2\n  dup3\n  add\ntag_41:\n  dup3\n  dup2\n  gt\n  iszero\n  tag_42\n  jumpi\n  dup3\n  mload\n  dup3\n  sstore\n  swap2\n  0x20\n  add\n  swap2\n  swap1\n  0x01\n  add\n  swap1\n  jump(tag_41)\ntag_42:\ntag_38:\n  pop\n  swap1\n  pop\n  tag_43\n  swap2\n  swap1\n  tag_44\n  jump\t// in\ntag_43:\n  pop\n  swap1\n  jump\t// out\ntag_44:\ntag_45:\n  dup1\n  dup3\n  gt\n  iszero\n  tag_46\n  jumpi\n  0x00\n  dup2\n  0x00\n  swap1\n  sstore\n  pop\n  0x01\n  add\n  jump(tag_45)\ntag_46:\n  pop\n  swap1\n  jump\t// out\n    /* \"#utility.yul\":7:428   */\ntag_48:\n    /* \"#utility.yul\":96:101   */\n  0x00\n    /* \"#utility.yul\":121:187   */\n  tag_50\n    /* \"#utility.yul\":137:186   */\n  tag_51\n    /* \"#utility.yul\":179:185   */\n  dup5\n    /* \"#utility.yul\":137:186   */\n  tag_52\n  jump\t// in\ntag_51:\n    /* \"#utility.yul\":121:187   */\n  tag_53\n  jump\t// in\ntag_50:\n    /* \"#utility.yul\":112:187   */\n  swap1\n  pop\n    /* \"#utility.yul\":210:216   */\n  dup3\n    /* \"#utility.yul\":203:208   */\n  dup2\n    /* \"#utility.yul\":196:217   */\n  mstore\n    /* \"#utility.yul\":248:252   */\n  0x20\n    /* \"#utility.yul\":241:246   */\n  dup2\n    /* \"#utility.yul\":237:253   */\n  add\n    /* \"#utility.yul\":286:289   */\n  dup5\n    /* \"#utility.yul\":277:283   */\n  dup5\n    /* \"#utility.yul\":272:275   */\n  dup5\n    /* \"#utility.yul\":268:284   */\n  add\n    /* \"#utility.yul\":265:290   */\n  gt\n    /* \"#utility.yul\":262:374   */\n  iszero\n  tag_54\n  jumpi\n    /* \"#utility.yul\":293:372   */\n  tag_55\n  tag_56\n  jump\t// in\ntag_55:\n    /* \"#utility.yul\":262:374   */\ntag_54:\n    /* \"#utility.yul\":383:422   */\n  tag_57\n    /* \"#utility.yul\":415:421   */\n  dup5\n    /* \"#utility.yul\":410:413   */\n  dup3\n    /* \"#utility.yul\":405:408   */\n  dup6\n    /* \"#utility.yul\":383:422   */\n  tag_58\n  jump\t// in\ntag_57:\n    /* \"#utility.yul\":102:428   */\n  pop\n    /* \"#utility.yul\":7:428   */\n  swap4\n  swap3\n  pop\n  pop\n  pop\n  jump\t// out\n    /* \"#utility.yul\":448:803   */\ntag_59:\n    /* \"#utility.yul\":515:520   */\n  0x00\n    /* \"#utility.yul\":564:567   */\n  dup3\n    /* \"#utility.yul\":557:561   */\n  0x1f\n    /* \"#utility.yul\":549:555   */\n  dup4\n    /* \"#utility.yul\":545:562   */\n  add\n    /* \"#utility.yul\":541:568   */\n  slt\n    /* \"#utility.yul\":531:653   */\n  tag_61\n  jumpi\n    /* \"#utility.yul\":572:651   */\n  tag_62\n  tag_63\n  jump\t// in\ntag_62:\n    /* \"#utility.yul\":531:653   */\ntag_61:\n    /* \"#utility.yul\":682:688   */\n  dup2\n    /* \"#utility.yul\":676:689   */\n  mload\n    /* \"#utility.yul\":707:797   */\n  tag_64\n    /* \"#utility.yul\":793:796   */\n  dup5\n    /* \"#utility.yul\":785:791   */\n  dup3\n    /* \"#utility.yul\":778:782   */\n  0x20\n    /* \"#utility.yul\":770:776   */\n  dup7\n    /* \"#utility.yul\":766:783   */\n  add\n    /* \"#utility.yul\":707:797   */\n  tag_48\n  jump\t// in\ntag_64:\n    /* \"#utility.yul\":698:797   */\n  swap2\n  pop\n    /* \"#utility.yul\":521:803   */\n  pop\n    /* \"#utility.yul\":448:803   */\n  swap3\n  swap2\n  pop\n  pop\n  jump\t// out\n    /* \"#utility.yul\":809:952   */\ntag_65:\n    /* \"#utility.yul\":866:871   */\n  0x00\n    /* \"#utility.yul\":897:903   */\n  dup2\n    /* \"#utility.yul\":891:904   */\n  mload\n    /* \"#utility.yul\":882:904   */\n  swap1\n  pop\n    /* \"#utility.yul\":913:946   */\n  tag_67\n    /* \"#utility.yul\":940:945   */\n  dup2\n    /* \"#utility.yul\":913:946   */\n  tag_68\n  jump\t// in\ntag_67:\n    /* \"#utility.yul\":809:952   */\n  swap3\n  swap2\n  pop\n  pop\n  jump\t// out\n    /* \"#utility.yul\":958:1967   */\ntag_3:\n    /* \"#utility.yul\":1066:1072   */\n  0x00\n    /* \"#utility.yul\":1074:1080   */\n  dup1\n    /* \"#utility.yul\":1082:1088   */\n  0x00\n    /* \"#utility.yul\":1131:1133   */\n  0x60\n    /* \"#utility.yul\":1119:1128   */\n  dup5\n    /* \"#utility.yul\":1110:1117   */\n  dup7\n    /* \"#utility.yul\":1106:1129   */\n  sub\n    /* \"#utility.yul\":1102:1134   */\n  slt\n    /* \"#utility.yul\":1099:1218   */\n  iszero\n  tag_70\n  jumpi\n    /* \"#utility.yul\":1137:1216   */\n  tag_71\n  tag_72\n  jump\t// in\ntag_71:\n    /* \"#utility.yul\":1099:1218   */\ntag_70:\n    /* \"#utility.yul\":1278:1279   */\n  0x00\n    /* \"#utility.yul\":1267:1276   */\n  dup5\n    /* \"#utility.yul\":1263:1280   */\n  add\n    /* \"#utility.yul\":1257:1281   */\n  mload\n    /* \"#utility.yul\":1308:1326   */\n  0xffffffffffffffff\n    /* \"#utility.yul\":1300:1306   */\n  dup2\n    /* \"#utility.yul\":1297:1327   */\n  gt\n    /* \"#utility.yul\":1294:1411   */\n  iszero\n  tag_73\n  jumpi\n    /* \"#utility.yul\":1330:1409   */\n  tag_74\n  tag_75\n  jump\t// in\ntag_74:\n    /* \"#utility.yul\":1294:1411   */\ntag_73:\n    /* \"#utility.yul\":1435:1509   */\n  tag_76\n    /* \"#utility.yul\":1501:1508   */\n  dup7\n    /* \"#utility.yul\":1492:1498   */\n  dup3\n    /* \"#utility.yul\":1481:1490   */\n  dup8\n    /* \"#utility.yul\":1477:1499   */\n  add\n    /* \"#utility.yul\":1435:1509   */\n  tag_59\n  jump\t// in\ntag_76:\n    /* \"#utility.yul\":1425:1509   */\n  swap4\n  pop\n    /* \"#utility.yul\":1228:1519   */\n  pop\n    /* \"#utility.yul\":1579:1581   */\n  0x20\n    /* \"#utility.yul\":1568:1577   */\n  dup5\n    /* \"#utility.yul\":1564:1582   */\n  add\n    /* \"#utility.yul\":1558:1583   */\n  mload\n    /* \"#utility.yul\":1610:1628   */\n  0xffffffffffffffff\n    /* \"#utility.yul\":1602:1608   */\n  dup2\n    /* \"#utility.yul\":1599:1629   */\n  gt\n    /* \"#utility.yul\":1596:1713   */\n  iszero\n  tag_77\n  jumpi\n    /* \"#utility.yul\":1632:1711   */\n  tag_78\n  tag_75\n  jump\t// in\ntag_78:\n    /* \"#utility.yul\":1596:1713   */\ntag_77:\n    /* \"#utility.yul\":1737:1811   */\n  tag_79\n    /* \"#utility.yul\":1803:1810   */\n  dup7\n    /* \"#utility.yul\":1794:1800   */\n  dup3\n    /* \"#utility.yul\":1783:1792   */\n  dup8\n    /* \"#utility.yul\":1779:1801   */\n  add\n    /* \"#utility.yul\":1737:1811   */\n  tag_59\n  jump\t// in\ntag_79:\n    /* \"#utility.yul\":1727:1811   */\n  swap3\n  pop\n    /* \"#utility.yul\":1529:1821   */\n  pop\n    /* \"#utility.yul\":1860:1862   */\n  0x40\n    /* \"#utility.yul\":1886:1950   */\n  tag_80\n    /* \"#utility.yul\":1942:1949   */\n  dup7\n    /* \"#utility.yul\":1933:1939   */\n  dup3\n    /* \"#utility.yul\":1922:1931   */\n  dup8\n    /* \"#utility.yul\":1918:1940   */\n  add\n    /* \"#utility.yul\":1886:1950   */\n  tag_65\n  jump\t// in\ntag_80:\n    /* \"#utility.yul\":1876:1950   */\n  swap2\n  pop\n    /* \"#utility.yul\":1831:1960   */\n  pop\n    /* \"#utility.yul\":958:1967   */\n  swap3\n  pop\n  swap3\n  pop\n  swap3\n  jump\t// out\n    /* \"#utility.yul\":1973:2339   */\ntag_81:\n    /* \"#utility.yul\":2115:2118   */\n  0x00\n    /* \"#utility.yul\":2136:2203   */\n  tag_83\n    /* \"#utility.yul\":2200:2202   */\n  0x1f\n    /* \"#utility.yul\":2195:2198   */\n  dup4\n    /* \"#utility.yul\":2136:2203   */\n  tag_84\n  jump\t// in\ntag_83:\n    /* \"#utility.yul\":2129:2203   */\n  swap2\n  pop\n    /* \"#utility.yul\":2212:2305   */\n  tag_85\n    /* \"#utility.yul\":2301:2304   */\n  dup3\n    /* \"#utility.yul\":2212:2305   */\n  tag_86\n  jump\t// in\ntag_85:\n    /* \"#utility.yul\":2330:2332   */\n  0x20\n    /* \"#utility.yul\":2325:2328   */\n  dup3\n    /* \"#utility.yul\":2321:2333   */\n  add\n    /* \"#utility.yul\":2314:2333   */\n  swap1\n  pop\n    /* \"#utility.yul\":1973:2339   */\n  swap2\n  swap1\n  pop\n  jump\t// out\n    /* \"#utility.yul\":2345:2463   */\ntag_87:\n    /* \"#utility.yul\":2432:2456   */\n  tag_89\n    /* \"#utility.yul\":2450:2455   */\n  dup2\n    /* \"#utility.yul\":2432:2456   */\n  tag_90\n  jump\t// in\ntag_89:\n    /* \"#utility.yul\":2427:2430   */\n  dup3\n    /* \"#utility.yul\":2420:2457   */\n  mstore\n    /* \"#utility.yul\":2345:2463   */\n  pop\n  pop\n  jump\t// out\n    /* \"#utility.yul\":2469:2888   */\ntag_24:\n    /* \"#utility.yul\":2635:2639   */\n  0x00\n    /* \"#utility.yul\":2673:2675   */\n  0x20\n    /* \"#utility.yul\":2662:2671   */\n  dup3\n    /* \"#utility.yul\":2658:2676   */\n  add\n    /* \"#utility.yul\":2650:2676   */\n  swap1\n  pop\n    /* \"#utility.yul\":2722:2731   */\n  dup2\n    /* \"#utility.yul\":2716:2720   */\n  dup2\n    /* \"#utility.yul\":2712:2732   */\n  sub\n    /* \"#utility.yul\":2708:2709   */\n  0x00\n    /* \"#utility.yul\":2697:2706   */\n  dup4\n    /* \"#utility.yul\":2693:2710   */\n  add\n    /* \"#utility.yul\":2686:2733   */\n  mstore\n    /* \"#utility.yul\":2750:2881   */\n  tag_92\n    /* \"#utility.yul\":2876:2880   */\n  dup2\n    /* \"#utility.yul\":2750:2881   */\n  tag_81\n  jump\t// in\ntag_92:\n    /* \"#utility.yul\":2742:2881   */\n  swap1\n  pop\n    /* \"#utility.yul\":2469:2888   */\n  swap2\n  swap1\n  pop\n  jump\t// out\n    /* \"#utility.yul\":2894:3116   */\ntag_31:\n    /* \"#utility.yul\":2987:2991   */\n  0x00\n    /* \"#utility.yul\":3025:3027   */\n  0x20\n    /* \"#utility.yul\":3014:3023   */\n  dup3\n    /* \"#utility.yul\":3010:3028   */\n  add\n    /* \"#utility.yul\":3002:3028   */\n  swap1\n  pop\n    /* \"#utility.yul\":3038:3109   */\n  tag_94\n    /* \"#utility.yul\":3106:3107   */\n  0x00\n    /* \"#utility.yul\":3095:3104   */\n  dup4\n    /* \"#utility.yul\":3091:3108   */\n  add\n    /* \"#utility.yul\":3082:3088   */\n  dup5\n    /* \"#utility.yul\":3038:3109   */\n  tag_87\n  jump\t// in\ntag_94:\n    /* \"#utility.yul\":2894:3116   */\n  swap3\n  swap2\n  pop\n  pop\n  jump\t// out\n    /* \"#utility.yul\":3122:3251   */\ntag_53:\n    /* \"#utility.yul\":3156:3162   */\n  0x00\n    /* \"#utility.yul\":3183:3203   */\n  tag_96\n  tag_97\n  jump\t// in\ntag_96:\n    /* \"#utility.yul\":3173:3203   */\n  swap1\n  pop\n    /* \"#utility.yul\":3212:3245   */\n  tag_98\n    /* \"#utility.yul\":3240:3244   */\n  dup3\n    /* \"#utility.yul\":3232:3238   */\n  dup3\n    /* \"#utility.yul\":3212:3245   */\n  tag_99\n  jump\t// in\ntag_98:\n    /* \"#utility.yul\":3122:3251   */\n  swap2\n  swap1\n  pop\n  jump\t// out\n    /* \"#utility.yul\":3257:3332   */\ntag_97:\n    /* \"#utility.yul\":3290:3296   */\n  0x00\n    /* \"#utility.yul\":3323:3325   */\n  0x40\n    /* \"#utility.yul\":3317:3326   */\n  mload\n    /* \"#utility.yul\":3307:3326   */\n  swap1\n  pop\n    /* \"#utility.yul\":3257:3332   */\n  swap1\n  jump\t// out\n    /* \"#utility.yul\":3338:3646   */\ntag_52:\n    /* \"#utility.yul\":3400:3404   */\n  0x00\n    /* \"#utility.yul\":3490:3508   */\n  0xffffffffffffffff\n    /* \"#utility.yul\":3482:3488   */\n  dup3\n    /* \"#utility.yul\":3479:3509   */\n  gt\n    /* \"#utility.yul\":3476:3532   */\n  iszero\n  tag_102\n  jumpi\n    /* \"#utility.yul\":3512:3530   */\n  tag_103\n  tag_104\n  jump\t// in\ntag_103:\n    /* \"#utility.yul\":3476:3532   */\ntag_102:\n    /* \"#utility.yul\":3550:3579   */\n  tag_105\n    /* \"#utility.yul\":3572:3578   */\n  dup3\n    /* \"#utility.yul\":3550:3579   */\n  tag_106\n  jump\t// in\ntag_105:\n    /* \"#utility.yul\":3542:3579   */\n  swap1\n  pop\n    /* \"#utility.yul\":3634:3638   */\n  0x20\n    /* \"#utility.yul\":3628:3632   */\n  dup2\n    /* \"#utility.yul\":3624:3639   */\n  add\n    /* \"#utility.yul\":3616:3639   */\n  swap1\n  pop\n    /* \"#utility.yul\":3338:3646   */\n  swap2\n  swap1\n  pop\n  jump\t// out\n    /* \"#utility.yul\":3652:3821   */\ntag_84:\n    /* \"#utility.yul\":3736:3747   */\n  0x00\n    /* \"#utility.yul\":3770:3776   */\n  dup3\n    /* \"#utility.yul\":3765:3768   */\n  dup3\n    /* \"#utility.yul\":3758:3777   */\n  mstore\n    /* \"#utility.yul\":3810:3814   */\n  0x20\n    /* \"#utility.yul\":3805:3808   */\n  dup3\n    /* \"#utility.yul\":3801:3815   */\n  add\n    /* \"#utility.yul\":3786:3815   */\n  swap1\n  pop\n    /* \"#utility.yul\":3652:3821   */\n  swap3\n  swap2\n  pop\n  pop\n  jump\t// out\n    /* \"#utility.yul\":3827:4132   */\ntag_28:\n    /* \"#utility.yul\":3867:3870   */\n  0x00\n    /* \"#utility.yul\":3886:3906   */\n  tag_109\n    /* \"#utility.yul\":3904:3905   */\n  dup3\n    /* \"#utility.yul\":3886:3906   */\n  tag_90\n  jump\t// in\ntag_109:\n    /* \"#utility.yul\":3881:3906   */\n  swap2\n  pop\n    /* \"#utility.yul\":3920:3940   */\n  tag_110\n    /* \"#utility.yul\":3938:3939   */\n  dup4\n    /* \"#utility.yul\":3920:3940   */\n  tag_90\n  jump\t// in\ntag_110:\n    /* \"#utility.yul\":3915:3940   */\n  swap3\n  pop\n    /* \"#utility.yul\":4074:4075   */\n  dup3\n    /* \"#utility.yul\":4006:4072   */\n  0xffffffffffffffffffffffffffffffffffffffffffffffffffffffffffffffff\n    /* \"#utility.yul\":4002:4076   */\n  sub\n    /* \"#utility.yul\":3999:4000   */\n  dup3\n    /* \"#utility.yul\":3996:4077   */\n  gt\n    /* \"#utility.yul\":3993:4100   */\n  iszero\n  tag_111\n  jumpi\n    /* \"#utility.yul\":4080:4098   */\n  tag_112\n  tag_113\n  jump\t// in\ntag_112:\n    /* \"#utility.yul\":3993:4100   */\ntag_111:\n    /* \"#utility.yul\":4124:4125   */\n  dup3\n    /* \"#utility.yul\":4121:4122   */\n  dup3\n    /* \"#utility.yul\":4117:4126   */\n  add\n    /* \"#utility.yul\":4110:4126   */\n  swap1\n  pop\n    /* \"#utility.yul\":3827:4132   */\n  swap3\n  swap2\n  pop\n  pop\n  jump\t// out\n    /* \"#utility.yul\":4138:4986   */\ntag_114:\n    /* \"#utility.yul\":4199:4204   */\n  0x00\n    /* \"#utility.yul\":4206:4210   */\n  dup1\n    /* \"#utility.yul\":4230:4236   */\n  dup3\n    /* \"#utility.yul\":4221:4236   */\n  swap2\n  pop\n    /* \"#utility.yul\":4254:4259   */\n  dup4\n    /* \"#utility.yul\":4245:4259   */\n  swap1\n  pop\n    /* \"#utility.yul\":4268:4980   */\ntag_116:\n    /* \"#utility.yul\":4289:4290   */\n  0x01\n    /* \"#utility.yul\":4279:4287   */\n  dup6\n    /* \"#utility.yul\":4276:4291   */\n  gt\n    /* \"#utility.yul\":4268:4980   */\n  iszero\n  tag_118\n  jumpi\n    /* \"#utility.yul\":4384:4388   */\n  dup1\n    /* \"#utility.yul\":4379:4382   */\n  dup7\n    /* \"#utility.yul\":4375:4389   */\n  div\n    /* \"#utility.yul\":4369:4373   */\n  dup2\n    /* \"#utility.yul\":4366:4390   */\n  gt\n    /* \"#utility.yul\":4363:4413   */\n  iszero\n  tag_119\n  jumpi\n    /* \"#utility.yul\":4393:4411   */\n  tag_120\n  tag_113\n  jump\t// in\ntag_120:\n    /* \"#utility.yul\":4363:4413   */\ntag_119:\n    /* \"#utility.yul\":4443:4444   */\n  0x01\n    /* \"#utility.yul\":4433:4441   */\n  dup6\n    /* \"#utility.yul\":4429:4445   */\n  and\n    /* \"#utility.yul\":4426:4877   */\n  iszero\n  tag_121\n  jumpi\n    /* \"#utility.yul\":4858:4862   */\n  dup1\n    /* \"#utility.yul\":4851:4856   */\n  dup3\n    /* \"#utility.yul\":4847:4863   */\n  mul\n    /* \"#utility.yul\":4838:4863   */\n  swap2\n  pop\n    /* \"#utility.yul\":4426:4877   */\ntag_121:\n    /* \"#utility.yul\":4908:4912   */\n  dup1\n    /* \"#utility.yul\":4902:4906   */\n  dup2\n    /* \"#utility.yul\":4898:4913   */\n  mul\n    /* \"#utility.yul\":4890:4913   */\n  swap1\n  pop\n    /* \"#utility.yul\":4938:4970   */\n  tag_122\n    /* \"#utility.yul\":4961:4969   */\n  dup6\n    /* \"#utility.yul\":4938:4970   */\n  tag_123\n  jump\t// in\ntag_122:\n    /* \"#utility.yul\":4926:4970   */\n  swap5\n  pop\n    /* \"#utility.yul\":4268:4980   */\n  jump(tag_116)\ntag_118:\n    /* \"#utility.yul\":4138:4986   */\n  swap5\n  pop\n  swap5\n  swap3\n  pop\n  pop\n  pop\n  jump\t// out\n    /* \"#utility.yul\":4992:5277   */\ntag_15:\n    /* \"#utility.yul\":5052:5057   */\n  0x00\n    /* \"#utility.yul\":5076:5099   */\n  tag_125\n    /* \"#utility.yul\":5094:5098   */\n  dup3\n    /* \"#utility.yul\":5076:5099   */\n  tag_90\n  jump\t// in\ntag_125:\n    /* \"#utility.yul\":5068:5099   */\n  swap2\n  pop\n    /* \"#utility.yul\":5120:5147   */\n  tag_126\n    /* \"#utility.yul\":5138:5146   */\n  dup4\n    /* \"#utility.yul\":5120:5147   */\n  tag_90\n  jump\t// in\ntag_126:\n    /* \"#utility.yul\":5108:5147   */\n  swap3\n  pop\n    /* \"#utility.yul\":5166:5270   */\n  tag_127\n    /* \"#utility.yul\":5203:5269   */\n  0xffffffffffffffffffffffffffffffffffffffffffffffffffffffffffffffff\n    /* \"#utility.yul\":5193:5201   */\n  dup5\n    /* \"#utility.yul\":5187:5191   */\n  dup5\n    /* \"#utility.yul\":5166:5270   */\n  tag_128\n  jump\t// in\ntag_127:\n    /* \"#utility.yul\":5157:5270   */\n  swap1\n  pop\n    /* \"#utility.yul\":4992:5277   */\n  swap3\n  swap2\n  pop\n  pop\n  jump\t// out\n    /* \"#utility.yul\":5283:6356   */\ntag_128:\n    /* \"#utility.yul\":5337:5342   */\n  0x00\n    /* \"#utility.yul\":5528:5536   */\n  dup3\n    /* \"#utility.yul\":5518:5558   */\n  tag_130\n  jumpi\n    /* \"#utility.yul\":5549:5550   */\n  0x01\n    /* \"#utility.yul\":5540:5550   */\n  swap1\n  pop\n    /* \"#utility.yul\":5551:5556   */\n  jump(tag_129)\n    /* \"#utility.yul\":5518:5558   */\ntag_130:\n    /* \"#utility.yul\":5577:5581   */\n  dup2\n    /* \"#utility.yul\":5567:5603   */\n  tag_131\n  jumpi\n    /* \"#utility.yul\":5594:5595   */\n  0x00\n    /* \"#utility.yul\":5585:5595   */\n  swap1\n  pop\n    /* \"#utility.yul\":5596:5601   */\n  jump(tag_129)\n    /* \"#utility.yul\":5567:5603   */\ntag_131:\n    /* \"#utility.yul\":5663:5667   */\n  dup2\n    /* \"#utility.yul\":5711:5712   */\n  0x01\n    /* \"#utility.yul\":5706:5733   */\n  dup2\n  eq\n  tag_133\n  jumpi\n    /* \"#utility.yul\":5747:5748   */\n  0x02\n    /* \"#utility.yul\":5742:5933   */\n  dup2\n  eq\n  tag_134\n  jumpi\n    /* \"#utility.yul\":5656:5933   */\n  jump(tag_132)\n    /* \"#utility.yul\":5706:5733   */\ntag_133:\n    /* \"#utility.yul\":5724:5725   */\n  0x01\n    /* \"#utility.yul\":5715:5725   */\n  swap2\n  pop\n    /* \"#utility.yul\":5726:5731   */\n  pop\n  jump(tag_129)\n    /* \"#utility.yul\":5742:5933   */\ntag_134:\n    /* \"#utility.yul\":5787:5790   */\n  0xff\n    /* \"#utility.yul\":5777:5785   */\n  dup5\n    /* \"#utility.yul\":5774:5791   */\n  gt\n    /* \"#utility.yul\":5771:5814   */\n  iszero\n  tag_135\n  jumpi\n    /* \"#utility.yul\":5794:5812   */\n  tag_136\n  tag_113\n  jump\t// in\ntag_136:\n    /* \"#utility.yul\":5771:5814   */\ntag_135:\n    /* \"#utility.yul\":5843:5851   */\n  dup4\n    /* \"#utility.yul\":5840:5841   */\n  0x02\n    /* \"#utility.yul\":5836:5852   */\n  exp\n    /* \"#utility.yul\":5827:5852   */\n  swap2\n  pop\n    /* \"#utility.yul\":5878:5881   */\n  dup5\n    /* \"#utility.yul\":5871:5876   */\n  dup3\n    /* \"#utility.yul\":5868:5882   */\n  gt\n    /* \"#utility.yul\":5865:5905   */\n  iszero\n  tag_137\n  jumpi\n    /* \"#utility.yul\":5885:5903   */\n  tag_138\n  tag_113\n  jump\t// in\ntag_138:\n    /* \"#utility.yul\":5865:5905   */\ntag_137:\n    /* \"#utility.yul\":5918:5923   */\n  pop\n  jump(tag_129)\n    /* \"#utility.yul\":5656:5933   */\ntag_132:\n  pop\n    /* \"#utility.yul\":6042:6044   */\n  0x20\n    /* \"#utility.yul\":6032:6040   */\n  dup4\n    /* \"#utility.yul\":6029:6045   */\n  lt\n    /* \"#utility.yul\":6023:6026   */\n  0x0133\n    /* \"#utility.yul\":6017:6021   */\n  dup4\n    /* \"#utility.yul\":6014:6027   */\n  lt\n    /* \"#utility.yul\":6010:6046   */\n  and\n    /* \"#utility.yul\":5992:5994   */\n  0x4e\n    /* \"#utility.yul\":5982:5990   */\n  dup5\n    /* \"#utility.yul\":5979:5995   */\n  lt\n    /* \"#utility.yul\":5974:5976   */\n  0x0b\n    /* \"#utility.yul\":5968:5972   */\n  dup5\n    /* \"#utility.yul\":5965:5977   */\n  lt\n    /* \"#utility.yul\":5961:5996   */\n  and\n    /* \"#utility.yul\":5945:6056   */\n  or\n    /* \"#utility.yul\":5942:6188   */\n  iszero\n  tag_139\n  jumpi\n    /* \"#utility.yul\":6098:6106   */\n  dup3\n    /* \"#utility.yul\":6092:6096   */\n  dup3\n    /* \"#utility.yul\":6088:6107   */\n  exp\n    /* \"#utility.yul\":6079:6107   */\n  swap1\n  pop\n    /* \"#utility.yul\":6133:6136   */\n  dup4\n    /* \"#utility.yul\":6126:6131   */\n  dup2\n    /* \"#utility.yul\":6123:6137   */\n  gt\n    /* \"#utility.yul\":6120:6160   */\n  iszero\n  tag_140\n  jumpi\n    /* \"#utility.yul\":6140:6158   */\n  tag_141\n  tag_113\n  jump\t// in\ntag_141:\n    /* \"#utility.yul\":6120:6160   */\ntag_140:\n    /* \"#utility.yul\":6173:6178   */\n  jump(tag_129)\n    /* \"#utility.yul\":5942:6188   */\ntag_139:\n    /* \"#utility.yul\":6213:6255   */\n  tag_142\n    /* \"#utility.yul\":6251:6254   */\n  dup5\n    /* \"#utility.yul\":6241:6249   */\n  dup5\n    /* \"#utility.yul\":6235:6239   */\n  dup5\n    /* \"#utility.yul\":6232:6233   */\n  0x01\n    /* \"#utility.yul\":6213:6255   */\n  tag_114\n  jump\t// in\ntag_142:\n    /* \"#utility.yul\":6198:6255   */\n  swap3\n  pop\n  swap1\n  pop\n    /* \"#utility.yul\":6287:6291   */\n  dup2\n    /* \"#utility.yul\":6282:6285   */\n  dup5\n    /* \"#utility.yul\":6278:6292   */\n  div\n    /* \"#utility.yul\":6271:6276   */\n  dup2\n    /* \"#utility.yul\":6268:6293   */\n  gt\n    /* \"#utility.yul\":6265:6316   */\n  iszero\n  tag_143\n  jumpi\n    /* \"#utility.yul\":6296:6314   */\n  tag_144\n  tag_113\n  jump\t// in\ntag_144:\n    /* \"#utility.yul\":6265:6316   */\ntag_143:\n    /* \"#utility.yul\":6345:6349   */\n  dup2\n    /* \"#utility.yul\":6338:6343   */\n  dup2\n    /* \"#utility.yul\":6334:6350   */\n  mul\n    /* \"#utility.yul\":6325:6350   */\n  swap1\n  pop\n    /* \"#utility.yul\":5283:6356   */\ntag_129:\n  swap4\n  swap3\n  pop\n  pop\n  pop\n  jump\t// out\n    /* \"#utility.yul\":6362:6710   */\ntag_17:\n    /* \"#utility.yul\":6402:6409   */\n  0x00\n    /* \"#utility.yul\":6425:6445   */\n  tag_146\n    /* \"#utility.yul\":6443:6444   */\n  dup3\n    /* \"#utility.yul\":6425:6445   */\n  tag_90\n  jump\t// in\ntag_146:\n    /* \"#utility.yul\":6420:6445   */\n  swap2\n  pop\n    /* \"#utility.yul\":6459:6479   */\n  tag_147\n    /* \"#utility.yul\":6477:6478   */\n  dup4\n    /* \"#utility.yul\":6459:6479   */\n  tag_90\n  jump\t// in\ntag_147:\n    /* \"#utility.yul\":6454:6479   */\n  swap3\n  pop\n    /* \"#utility.yul\":6647:6648   */\n  dup2\n    /* \"#utility.yul\":6579:6645   */\n  0xffffffffffffffffffffffffffffffffffffffffffffffffffffffffffffffff\n    /* \"#utility.yul\":6575:6649   */\n  div\n    /* \"#utility.yul\":6572:6573   */\n  dup4\n    /* \"#utility.yul\":6569:6650   */\n  gt\n    /* \"#utility.yul\":6564:6565   */\n  dup3\n    /* \"#utility.yul\":6557:6566   */\n  iszero\n    /* \"#utility.yul\":6550:6567   */\n  iszero\n    /* \"#utility.yul\":6546:6651   */\n  and\n    /* \"#utility.yul\":6543:6674   */\n  iszero\n  tag_148\n  jumpi\n    /* \"#utility.yul\":6654:6672   */\n  tag_149\n  tag_113\n  jump\t// in\ntag_149:\n    /* \"#utility.yul\":6543:6674   */\ntag_148:\n    /* \"#utility.yul\":6702:6703   */\n  dup3\n    /* \"#utility.yul\":6699:6700   */\n  dup3\n    /* \"#utility.yul\":6695:6704   */\n  mul\n    /* \"#utility.yul\":6684:6704   */\n  swap1\n  pop\n    /* \"#utility.yul\":6362:6710   */\n  swap3\n  swap2\n  pop\n  pop\n  jump\t// out\n    /* \"#utility.yul\":6716:6793   */\ntag_90:\n    /* \"#utility.yul\":6753:6760   */\n  0x00\n    /* \"#utility.yul\":6782:6787   */\n  dup2\n    /* \"#utility.yul\":6771:6787   */\n  swap1\n  pop\n    /* \"#utility.yul\":6716:6793   */\n  swap2\n  swap1\n  pop\n  jump\t// out\n    /* \"#utility.yul\":6799:7106   */\ntag_58:\n    /* \"#utility.yul\":6867:6868   */\n  0x00\n    /* \"#utility.yul\":6877:6990   */\ntag_152:\n    /* \"#utility.yul\":6891:6897   */\n  dup4\n    /* \"#utility.yul\":6888:6889   */\n  dup2\n    /* \"#utility.yul\":6885:6898   */\n  lt\n    /* \"#utility.yul\":6877:6990   */\n  iszero\n  tag_154\n  jumpi\n    /* \"#utility.yul\":6976:6977   */\n  dup1\n    /* \"#utility.yul\":6971:6974   */\n  dup3\n    /* \"#utility.yul\":6967:6978   */\n  add\n    /* \"#utility.yul\":6961:6979   */\n  mload\n    /* \"#utility.yul\":6957:6958   */\n  dup2\n    /* \"#utility.yul\":6952:6955   */\n  dup5\n    /* \"#utility.yul\":6948:6959   */\n  add\n    /* \"#utility.yul\":6941:6980   */\n  mstore\n    /* \"#utility.yul\":6913:6915   */\n  0x20\n    /* \"#utility.yul\":6910:6911   */\n  dup2\n    /* \"#utility.yul\":6906:6916   */\n  add\n    /* \"#utility.yul\":6901:6916   */\n  swap1\n  pop\n    /* \"#utility.yul\":6877:6990   */\n  jump(tag_152)\ntag_154:\n    /* \"#utility.yul\":7008:7014   */\n  dup4\n    /* \"#utility.yul\":7005:7006   */\n  dup2\n    /* \"#utility.yul\":7002:7015   */\n  gt\n    /* \"#utility.yul\":6999:7100   */\n  iszero\n  tag_155\n  jumpi\n    /* \"#utility.yul\":7088:7089   */\n  0x00\n    /* \"#utility.yul\":7079:7085   */\n  dup5\n    /* \"#utility.yul\":7074:7077   */\n  dup5\n    /* \"#utility.yul\":7070:7086   */\n  add\n    /* \"#utility.yul\":7063:7090   */\n  mstore\n    /* \"#utility.yul\":6999:7100   */\ntag_155:\n    /* \"#utility.yul\":6848:7106   */\n  pop\n    /* \"#utility.yul\":6799:7106   */\n  pop\n  pop\n  pop\n  jump\t// out\n    /* \"#utility.yul\":7112:7432   */\ntag_37:\n    /* \"#utility.yul\":7156:7162   */\n  0x00\n    /* \"#utility.yul\":7193:7194   */\n  0x02\n    /* \"#utility.yul\":7187:7191   */\n  dup3\n    /* \"#utility.yul\":7183:7195   */\n  div\n    /* \"#utility.yul\":7173:7195   */\n  swap1\n  pop\n    /* \"#utility.yul\":7240:7241   */\n  0x01\n    /* \"#utility.yul\":7234:7238   */\n  dup3\n    /* \"#utility.yul\":7230:7242   */\n  and\n    /* \"#utility.yul\":7261:7279   */\n  dup1\n    /* \"#utility.yul\":7251:7332   */\n  tag_157\n  jumpi\n    /* \"#utility.yul\":7317:7321   */\n  0x7f\n    /* \"#utility.yul\":7309:7315   */\n  dup3\n    /* \"#utility.yul\":7305:7322   */\n  and\n    /* \"#utility.yul\":7295:7322   */\n  swap2\n  pop\n    /* \"#utility.yul\":7251:7332   */\ntag_157:\n    /* \"#utility.yul\":7379:7381   */\n  0x20\n    /* \"#utility.yul\":7371:7377   */\n  dup3\n    /* \"#utility.yul\":7368:7382   */\n  lt\n    /* \"#utility.yul\":7348:7366   */\n  dup2\n    /* \"#utility.yul\":7345:7383   */\n  eq\n    /* \"#utility.yul\":7342:7426   */\n  iszero\n  tag_158\n  jumpi\n    /* \"#utility.yul\":7398:7416   */\n  tag_159\n  tag_160\n  jump\t// in\ntag_159:\n    /* \"#utility.yul\":7342:7426   */\ntag_158:\n    /* \"#utility.yul\":7163:7432   */\n  pop\n    /* \"#utility.yul\":7112:7432   */\n  swap2\n  swap1\n  pop\n  jump\t// out\n    /* \"#utility.yul\":7438:7719   */\ntag_99:\n    /* \"#utility.yul\":7521:7548   */\n  tag_162\n    /* \"#utility.yul\":7543:7547   */\n  dup3\n    /* \"#utility.yul\":7521:7548   */\n  tag_106\n  jump\t// in\ntag_162:\n    /* \"#utility.yul\":7513:7519   */\n  dup2\n    /* \"#utility.yul\":7509:7549   */\n  add\n    /* \"#utility.yul\":7651:7657   */\n  dup2\n    /* \"#utility.yul\":7639:7649   */\n  dup2\n    /* \"#utility.yul\":7636:7658   */\n  lt\n    /* \"#utility.yul\":7615:7633   */\n  0xffffffffffffffff\n    /* \"#utility.yul\":7603:7613   */\n  dup3\n    /* \"#utility.yul\":7600:7634   */\n  gt\n    /* \"#utility.yul\":7597:7659   */\n  or\n    /* \"#utility.yul\":7594:7682   */\n  iszero\n  tag_163\n  jumpi\n    /* \"#utility.yul\":7662:7680   */\n  tag_164\n  tag_104\n  jump\t// in\ntag_164:\n    /* \"#utility.yul\":7594:7682   */\ntag_163:\n    /* \"#utility.yul\":7702:7712   */\n  dup1\n    /* \"#utility.yul\":7698:7700   */\n  0x40\n    /* \"#utility.yul\":7691:7713   */\n  mstore\n    /* \"#utility.yul\":7481:7719   */\n  pop\n    /* \"#utility.yul\":7438:7719   */\n  pop\n  pop\n  jump\t// out\n    /* \"#utility.yul\":7725:7905   */\ntag_113:\n    /* \"#utility.yul\":7773:7850   */\n  0x4e487b7100000000000000000000000000000000000000000000000000000000\n    /* \"#utility.yul\":7770:7771   */\n  0x00\n    /* \"#utility.yul\":7763:7851   */\n  mstore\n    /* \"#utility.yul\":7870:7874   */\n  0x11\n    /* \"#utility.yul\":7867:7868   */\n  0x04\n    /* \"#utility.yul\":7860:7875   */\n  mstore\n    /* \"#utility.yul\":7894:7898   */\n  0x24\n    /* \"#utility.yul\":7891:7892   */\n  0x00\n    /* \"#utility.yul\":7884:7899   */\n  revert\n    /* \"#utility.yul\":7911:8091   */\ntag_160:\n    /* \"#utility.yul\":7959:8036   */\n  0x4e487b7100000000000000000000000000000000000000000000000000000000\n    /* \"#utility.yul\":7956:7957   */\n  0x00\n    /* \"#utility.yul\":7949:8037   */\n  mstore\n    /* \"#utility.yul\":8056:8060   */\n  0x22\n    /* \"#utility.yul\":8053:8054   */\n  0x04\n    /* \"#utility.yul\":8046:8061   */\n  mstore\n    /* \"#utility.yul\":8080:8084   */\n  0x24\n    /* \"#utility.yul\":8077:8078   */\n  0x00\n    /* \"#utility.yul\":8070:8085   */\n  revert\n    /* \"#utility.yul\":8097:8277   */\ntag_104:\n    /* \"#utility.yul\":8145:8222   */\n  0x4e487b7100000000000000000000000000000000000000000000000000000000\n    /* \"#utility.yul\":8142:8143   */\n  0x00\n    /* \"#utility.yul\":8135:8223   */\n  mstore\n    /* \"#utility.yul\":8242:8246   */\n  0x41\n    /* \"#utility.yul\":8239:8240   */\n  0x04\n    /* \"#utility.yul\":8232:8247   */\n  mstore\n    /* \"#utility.yul\":8266:8270   */\n  0x24\n    /* \"#utility.yul\":8263:8264   */\n  0x00\n    /* \"#utility.yul\":8256:8271   */\n  revert\n    /* \"#utility.yul\":8283:8400   */\ntag_63:\n    /* \"#utility.yul\":8392:8393   */\n  0x00\n    /* \"#utility.yul\":8389:8390   */\n  dup1\n    /* \"#utility.yul\":8382:8394   */\n  revert\n    /* \"#utility.yul\":8406:8523   */\ntag_56:\n    /* \"#utility.yul\":8515:8516   */\n  0x00\n    /* \"#utility.yul\":8512:8513   */\n  dup1\n    /* \"#utility.yul\":8505:8517   */\n  revert\n    /* \"#utility.yul\":8529:8646   */\ntag_75:\n    /* \"#utility.yul\":8638:8639   */\n  0x00\n    /* \"#utility.yul\":8635:8636   */\n  dup1\n    /* \"#utility.yul\":8628:8640   */\n  revert\n    /* \"#utility.yul\":8652:8769   */\ntag_72:\n    /* \"#utility.yul\":8761:8762   */\n  0x00\n    /* \"#utility.yul\":8758:8759   */\n  dup1\n    /* \"#utility.yul\":8751:8763   */\n  revert\n    /* \"#utility.yul\":8775:8877   */\ntag_106:\n    /* \"#utility.yul\":8816:8822   */\n  0x00\n    /* \"#utility.yul\":8867:8869   */\n  0x1f\n    /* \"#utility.yul\":8863:8870   */\n  not\n    /* \"#utility.yul\":8858:8860   */\n  0x1f\n    /* \"#utility.yul\":8851:8856   */\n  dup4\n    /* \"#utility.yul\":8847:8861   */\n  add\n    /* \"#utility.yul\":8843:8871   */\n  and\n    /* \"#utility.yul\":8833:8871   */\n  swap1\n  pop\n    /* \"#utility.yul\":8775:8877   */\n  swap2\n  swap1\n  pop\n  jump\t// out\n    /* \"#utility.yul\":8883:8985   */\ntag_123:\n    /* \"#utility.yul\":8925:8933   */\n  0x00\n    /* \"#utility.yul\":8972:8977   */\n  dup2\n    /* \"#utility.yul\":8969:8970   */\n  0x01\n    /* \"#utility.yul\":8965:8978   */\n  shr\n    /* \"#utility.yul\":8944:8978   */\n  swap1\n  pop\n    /* \"#utility.yul\":8883:8985   */\n  swap2\n  swap1\n  pop\n  jump\t// out\n    /* \"#utility.yul\":8991:9172   */\ntag_86:\n    /* \"#utility.yul\":9131:9164   */\n  0x45524332303a206d696e7420746f20746865207a65726f206164647265737300\n    /* \"#utility.yul\":9127:9128   */\n  0x00\n    /* \"#utility.yul\":9119:9125   */\n  dup3\n    /* \"#utility.yul\":9115:9129   */\n  add\n    /* \"#utility.yul\":9108:9165   */\n  mstore\n    /* \"#utility.yul\":8991:9172   */\n  pop\n  jump\t// out\n    /* \"#utility.yul\":9178:9300   */\ntag_68:\n    /* \"#utility.yul\":9251:9275   */\n  tag_176\n    /* \"#utility.yul\":9269:9274   */\n  dup2\n    /* \"#utility.yul\":9251:9275   */\n  tag_90\n  jump\t// in\ntag_176:\n    /* \"#utility.yul\":9244:9249   */\n  dup2\n    /* \"#utility.yul\":9241:9276   */\n  eq\n    /* \"#utility.yul\":9231:9294   */\n  tag_177\n  jumpi\n    /* \"#utility.yul\":9290:9291   */\n  0x00\n    /* \"#utility.yul\":9287:9288   */\n  dup1\n    /* \"#utility.yul\":9280:9292   */\n  revert\n    /* \"#utility.yul\":9231:9294   */\ntag_177:\n    /* \"#utility.yul\":9178:9300   */\n  pop\n  jump\t// out\n    /* \"BlockJobs/BlockJobsCoin.sol\":123:1795  contract BlockJobsCoin is ERC20 {\r... */\ntag_19:\n  dataSize(sub_0)\n  dup1\n  dataOffset(sub_0)\n  0x00\n  codecopy\n  0x00\n  return\nstop\n\nsub_0: assembly {\n        /* \"BlockJobs/BlockJobsCoin.sol\":123:1795  contract BlockJobsCoin is ERC20 {\r... */\n      mstore(0x40, 0x80)\n      jumpi(tag_1, lt(calldatasize, 0x04))\n      shr(0xe0, calldataload(0x00))\n      dup1\n      0x6e78e23c\n      gt\n      tag_20\n      jumpi\n      dup1\n      0xa457c2d7\n      gt\n      tag_21\n      jumpi\n      dup1\n      0xa457c2d7\n      eq\n      tag_15\n      jumpi\n      dup1\n      0xa9059cbb\n      eq\n      tag_16\n      jumpi\n      dup1\n      0xdd62ed3e\n      eq\n      tag_17\n      jumpi\n      dup1\n      0xe4849b32\n      eq\n      tag_18\n      jumpi\n      dup1\n      0xe8b5e51f\n      eq\n      tag_19\n      jumpi\n      jump(tag_1)\n    tag_21:\n      dup1\n      0x6e78e23c\n      eq\n      tag_11\n      jumpi\n      dup1\n      0x70a08231\n      eq\n      tag_12\n      jumpi\n      dup1\n      0x95d89b41\n      eq\n      tag_13\n      jumpi\n      dup1\n      0x974c86b5\n      eq\n      tag_14\n      jumpi\n      jump(tag_1)\n    tag_20:\n      dup1\n      0x313ce567\n      gt\n      tag_22\n      jumpi\n      dup1\n      0x313ce567\n      eq\n      tag_6\n      jumpi\n      dup1\n      0x320ce981\n      eq\n      tag_7\n      jumpi\n      dup1\n      0x39509351\n      eq\n      tag_8\n      jumpi\n      dup1\n      0x45b5a47a\n      eq\n      tag_9\n      jumpi\n      dup1\n      0x5c1cb691\n      eq\n      tag_10\n      jumpi\n      jump(tag_1)\n    tag_22:\n      dup1\n      0x06fdde03\n      eq\n      tag_2\n      jumpi\n      dup1\n      0x095ea7b3\n      eq\n      tag_3\n      jumpi\n      dup1\n      0x18160ddd\n      eq\n      tag_4\n      jumpi\n      dup1\n      0x23b872dd\n      eq\n      tag_5\n      jumpi\n    tag_1:\n      0x00\n      dup1\n      revert\n        /* \"@openzeppelin/contracts/token/ERC20/ERC20.sol\":2156:2254  function name() public view virtual override returns (string memory) {... */\n    tag_2:\n      callvalue\n      dup1\n      iszero\n      tag_23\n      jumpi\n      0x00\n      dup1\n      revert\n    tag_23:\n      pop\n      tag_24\n      tag_25\n      jump\t// in\n    tag_24:\n      mload(0x40)\n      tag_26\n      swap2\n      swap1\n      tag_27\n      jump\t// in\n    tag_26:\n      mload(0x40)\n      dup1\n      swap2\n      sub\n      swap1\n      return\n        /* \"@openzeppelin/contracts/token/ERC20/ERC20.sol\":4433:4630  function approve(address spender, uint256 amount) public virtual override returns (bool) {... */\n    tag_3:\n      callvalue\n      dup1\n      iszero\n      tag_28\n      jumpi\n      0x00\n      dup1\n      revert\n    tag_28:\n      pop\n      tag_29\n      0x04\n      dup1\n      calldatasize\n      sub\n      dup2\n      add\n      swap1\n      tag_30\n      swap2\n      swap1\n      tag_31\n      jump\t// in\n    tag_30:\n      tag_32\n      jump\t// in\n    tag_29:\n      mload(0x40)\n      tag_33\n      swap2\n      swap1\n      tag_34\n      jump\t// in\n    tag_33:\n      mload(0x40)\n      dup1\n      swap2\n      sub\n      swap1\n      return\n        /* \"@openzeppelin/contracts/token/ERC20/ERC20.sol\":3244:3350  function totalSupply() public view virtual override returns (uint256) {... */\n    tag_4:\n      callvalue\n      dup1\n      iszero\n      tag_35\n      jumpi\n      0x00\n      dup1\n      revert\n    tag_35:\n      pop\n      tag_36\n      tag_37\n      jump\t// in\n    tag_36:\n      mload(0x40)\n      tag_38\n      swap2\n      swap1\n      tag_39\n      jump\t// in\n    tag_38:\n      mload(0x40)\n      dup1\n      swap2\n      sub\n      swap1\n      return\n        /* \"@openzeppelin/contracts/token/ERC20/ERC20.sol\":5192:5478  function transferFrom(... */\n    tag_5:\n      callvalue\n      dup1\n      iszero\n      tag_40\n      jumpi\n      0x00\n      dup1\n      revert\n    tag_40:\n      pop\n      tag_41\n      0x04\n      dup1\n      calldatasize\n      sub\n      dup2\n      add\n      swap1\n      tag_42\n      swap2\n      swap1\n      tag_43\n      jump\t// in\n    tag_42:\n      tag_44\n      jump\t// in\n    tag_41:\n      mload(0x40)\n      tag_45\n      swap2\n      swap1\n      tag_34\n      jump\t// in\n    tag_45:\n      mload(0x40)\n      dup1\n      swap2\n      sub\n      swap1\n      return\n        /* \"@openzeppelin/contracts/token/ERC20/ERC20.sol\":3093:3184  function decimals() public view virtual override returns (uint8) {... */\n    tag_6:\n      callvalue\n      dup1\n      iszero\n      tag_46\n      jumpi\n      0x00\n      dup1\n      revert\n    tag_46:\n      pop\n      tag_47\n      tag_48\n      jump\t// in\n    tag_47:\n      mload(0x40)\n      tag_49\n      swap2\n      swap1\n      tag_50\n      jump\t// in\n    tag_49:\n      mload(0x40)\n      dup1\n      swap2\n      sub\n      swap1\n      return\n        /* \"BlockJobs/BlockJobsCoin.sol\":887:992  function getbalancetest() external view returns (uint) {\r... */\n    tag_7:\n      callvalue\n      dup1\n      iszero\n      tag_51\n      jumpi\n      0x00\n      dup1\n      revert\n    tag_51:\n      pop\n      tag_52\n      tag_53\n      jump\t// in\n    tag_52:\n      mload(0x40)\n      tag_54\n      swap2\n      swap1\n      tag_39\n      jump\t// in\n    tag_54:\n      mload(0x40)\n      dup1\n      swap2\n      sub\n      swap1\n      return\n        /* \"@openzeppelin/contracts/token/ERC20/ERC20.sol\":5873:6107  function increaseAllowance(address spender, uint256 addedValue) public virtual returns (bool) {... */\n    tag_8:\n      callvalue\n      dup1\n      iszero\n      tag_55\n      jumpi\n      0x00\n      dup1\n      revert\n    tag_55:\n      pop\n      tag_56\n      0x04\n      dup1\n      calldatasize\n      sub\n      dup2\n      add\n      swap1\n      tag_57\n      swap2\n      swap1\n      tag_31\n      jump\t// in\n    tag_57:\n      tag_58\n      jump\t// in\n    tag_56:\n      mload(0x40)\n      tag_59\n      swap2\n      swap1\n      tag_34\n      jump\t// in\n    tag_59:\n      mload(0x40)\n      dup1\n      swap2\n      sub\n      swap1\n      return\n        /* \"BlockJobs/BlockJobsCoin.sol\":783:879  function GetEther() external view returns (uint) {\r... */\n    tag_9:\n      callvalue\n      dup1\n      iszero\n      tag_60\n      jumpi\n      0x00\n      dup1\n      revert\n    tag_60:\n      pop\n      tag_61\n      tag_62\n      jump\t// in\n    tag_61:\n      mload(0x40)\n      tag_63\n      swap2\n      swap1\n      tag_39\n      jump\t// in\n    tag_63:\n      mload(0x40)\n      dup1\n      swap2\n      sub\n      swap1\n      return\n        /* \"BlockJobs/BlockJobsCoin.sol\":162:190  address public _adminAddress */\n    tag_10:\n      callvalue\n      dup1\n      iszero\n      tag_64\n      jumpi\n      0x00\n      dup1\n      revert\n    tag_64:\n      pop\n      tag_65\n      tag_66\n      jump\t// in\n    tag_65:\n      mload(0x40)\n      tag_67\n      swap2\n      swap1\n      tag_68\n      jump\t// in\n    tag_67:\n      mload(0x40)\n      dup1\n      swap2\n      sub\n      swap1\n      return\n        /* \"BlockJobs/BlockJobsCoin.sol\":554:722  function CoinApprove(address _owner, address spender, uint256 amount) external returns (bool) {\r... */\n    tag_11:\n      callvalue\n      dup1\n      iszero\n      tag_69\n      jumpi\n      0x00\n      dup1\n      revert\n    tag_69:\n      pop\n      tag_70\n      0x04\n      dup1\n      calldatasize\n      sub\n      dup2\n      add\n      swap1\n      tag_71\n      swap2\n      swap1\n      tag_43\n      jump\t// in\n    tag_71:\n      tag_72\n      jump\t// in\n    tag_70:\n      mload(0x40)\n      tag_73\n      swap2\n      swap1\n      tag_34\n      jump\t// in\n    tag_73:\n      mload(0x40)\n      dup1\n      swap2\n      sub\n      swap1\n      return\n        /* \"@openzeppelin/contracts/token/ERC20/ERC20.sol\":3408:3533  function balanceOf(address account) public view virtual override returns (uint256) {... */\n    tag_12:\n      callvalue\n      dup1\n      iszero\n      tag_74\n      jumpi\n      0x00\n      dup1\n      revert\n    tag_74:\n      pop\n      tag_75\n      0x04\n      dup1\n      calldatasize\n      sub\n      dup2\n      add\n      swap1\n      tag_76\n      swap2\n      swap1\n      tag_77\n      jump\t// in\n    tag_76:\n      tag_78\n      jump\t// in\n    tag_75:\n      mload(0x40)\n      tag_79\n      swap2\n      swap1\n      tag_39\n      jump\t// in\n    tag_79:\n      mload(0x40)\n      dup1\n      swap2\n      sub\n      swap1\n      return\n        /* \"@openzeppelin/contracts/token/ERC20/ERC20.sol\":2367:2469  function symbol() public view virtual override returns (string memory) {... */\n    tag_13:\n      callvalue\n      dup1\n      iszero\n      tag_80\n      jumpi\n      0x00\n      dup1\n      revert\n    tag_80:\n      pop\n      tag_81\n      tag_82\n      jump\t// in\n    tag_81:\n      mload(0x40)\n      tag_83\n      swap2\n      swap1\n      tag_27\n      jump\t// in\n    tag_83:\n      mload(0x40)\n      dup1\n      swap2\n      sub\n      swap1\n      return\n        /* \"BlockJobs/BlockJobsCoin.sol\":1000:1393  function Buy() payable public{\r... */\n    tag_14:\n      tag_84\n      tag_85\n      jump\t// in\n    tag_84:\n      stop\n        /* \"@openzeppelin/contracts/token/ERC20/ERC20.sol\":6594:7021  function decreaseAllowance(address spender, uint256 subtractedValue) public virtual returns (bool) {... */\n    tag_15:\n      callvalue\n      dup1\n      iszero\n      tag_86\n      jumpi\n      0x00\n      dup1\n      revert\n    tag_86:\n      pop\n      tag_87\n      0x04\n      dup1\n      calldatasize\n      sub\n      dup2\n      add\n      swap1\n      tag_88\n      swap2\n      swap1\n      tag_31\n      jump\t// in\n    tag_88:\n      tag_89\n      jump\t// in\n    tag_87:\n      mload(0x40)\n      tag_90\n      swap2\n      swap1\n      tag_34\n      jump\t// in\n    tag_90:\n      mload(0x40)\n      dup1\n      swap2\n      sub\n      swap1\n      return\n        /* \"@openzeppelin/contracts/token/ERC20/ERC20.sol\":3729:3918  function transfer(address to, uint256 amount) public virtual override returns (bool) {... */\n    tag_16:\n      callvalue\n      dup1\n      iszero\n      tag_91\n      jumpi\n      0x00\n      dup1\n      revert\n    tag_91:\n      pop\n      tag_92\n      0x04\n      dup1\n      calldatasize\n      sub\n      dup2\n      add\n      swap1\n      tag_93\n      swap2\n      swap1\n      tag_31\n      jump\t// in\n    tag_93:\n      tag_94\n      jump\t// in\n    tag_92:\n      mload(0x40)\n      tag_95\n      swap2\n      swap1\n      tag_34\n      jump\t// in\n    tag_95:\n      mload(0x40)\n      dup1\n      swap2\n      sub\n      swap1\n      return\n        /* \"@openzeppelin/contracts/token/ERC20/ERC20.sol\":3976:4125  function allowance(address owner, address spender) public view virtual override returns (uint256) {... */\n    tag_17:\n      callvalue\n      dup1\n      iszero\n      tag_96\n      jumpi\n      0x00\n      dup1\n      revert\n    tag_96:\n      pop\n      tag_97\n      0x04\n      dup1\n      calldatasize\n      sub\n      dup2\n      add\n      swap1\n      tag_98\n      swap2\n      swap1\n      tag_99\n      jump\t// in\n    tag_98:\n      tag_100\n      jump\t// in\n    tag_97:\n      mload(0x40)\n      tag_101\n      swap2\n      swap1\n      tag_39\n      jump\t// in\n    tag_101:\n      mload(0x40)\n      dup1\n      swap2\n      sub\n      swap1\n      return\n        /* \"BlockJobs/BlockJobsCoin.sol\":1401:1792  function sell(uint256 amount) payable public{\r... */\n    tag_18:\n      tag_102\n      0x04\n      dup1\n      calldatasize\n      sub\n      dup2\n      add\n      swap1\n      tag_103\n      swap2\n      swap1\n      tag_104\n      jump\t// in\n    tag_103:\n      tag_105\n      jump\t// in\n    tag_102:\n      stop\n        /* \"BlockJobs/BlockJobsCoin.sol\":730:775  function invest() external payable {\r... */\n    tag_19:\n      tag_106\n      tag_107\n      jump\t// in\n    tag_106:\n      stop\n        /* \"@openzeppelin/contracts/token/ERC20/ERC20.sol\":2156:2254  function name() public view virtual override returns (string memory) {... */\n    tag_25:\n        /* \"@openzeppelin/contracts/token/ERC20/ERC20.sol\":2210:2223  string memory */\n      0x60\n        /* \"@openzeppelin/contracts/token/ERC20/ERC20.sol\":2242:2247  _name */\n      0x03\n        /* \"@openzeppelin/contracts/token/ERC20/ERC20.sol\":2235:2247  return _name */\n      dup1\n      sload\n      tag_109\n      swap1\n      tag_110\n      jump\t// in\n    tag_109:\n      dup1\n      0x1f\n      add\n      0x20\n      dup1\n      swap2\n      div\n      mul\n      0x20\n      add\n      mload(0x40)\n      swap1\n      dup2\n      add\n      0x40\n      mstore\n      dup1\n      swap3\n      swap2\n      swap1\n      dup2\n      dup2\n      mstore\n      0x20\n      add\n      dup3\n      dup1\n      sload\n      tag_111\n      swap1\n      tag_110\n      jump\t// in\n    tag_111:\n      dup1\n      iszero\n      tag_112\n      jumpi\n      dup1\n      0x1f\n      lt\n      tag_113\n      jumpi\n      0x0100\n      dup1\n      dup4\n      sload\n      div\n      mul\n      dup4\n      mstore\n      swap2\n      0x20\n      add\n      swap2\n      jump(tag_112)\n    tag_113:\n      dup3\n      add\n      swap2\n      swap1\n      0x00\n      mstore\n      keccak256(0x00, 0x20)\n      swap1\n    tag_114:\n      dup2\n      sload\n      dup2\n      mstore\n      swap1\n      0x01\n      add\n      swap1\n      0x20\n      add\n      dup1\n      dup4\n      gt\n      tag_114\n      jumpi\n      dup3\n      swap1\n      sub\n      0x1f\n      and\n      dup3\n      add\n      swap2\n    tag_112:\n      pop\n      pop\n      pop\n      pop\n      pop\n      swap1\n      pop\n        /* \"@openzeppelin/contracts/token/ERC20/ERC20.sol\":2156:2254  function name() public view virtual override returns (string memory) {... */\n      swap1\n      jump\t// out\n        /* \"@openzeppelin/contracts/token/ERC20/ERC20.sol\":4433:4630  function approve(address spender, uint256 amount) public virtual override returns (bool) {... */\n    tag_32:\n        /* \"@openzeppelin/contracts/token/ERC20/ERC20.sol\":4516:4520  bool */\n      0x00\n        /* \"@openzeppelin/contracts/token/ERC20/ERC20.sol\":4532:4545  address owner */\n      dup1\n        /* \"@openzeppelin/contracts/token/ERC20/ERC20.sol\":4548:4560  _msgSender() */\n      tag_116\n        /* \"@openzeppelin/contracts/token/ERC20/ERC20.sol\":4548:4558  _msgSender */\n      tag_117\n        /* \"@openzeppelin/contracts/token/ERC20/ERC20.sol\":4548:4560  _msgSender() */\n      jump\t// in\n    tag_116:\n        /* \"@openzeppelin/contracts/token/ERC20/ERC20.sol\":4532:4560  address owner = _msgSender() */\n      swap1\n      pop\n        /* \"@openzeppelin/contracts/token/ERC20/ERC20.sol\":4570:4602  _approve(owner, spender, amount) */\n      tag_118\n        /* \"@openzeppelin/contracts/token/ERC20/ERC20.sol\":4579:4584  owner */\n      dup2\n        /* \"@openzeppelin/contracts/token/ERC20/ERC20.sol\":4586:4593  spender */\n      dup6\n        /* \"@openzeppelin/contracts/token/ERC20/ERC20.sol\":4595:4601  amount */\n      dup6\n        /* \"@openzeppelin/contracts/token/ERC20/ERC20.sol\":4570:4578  _approve */\n      tag_119\n        /* \"@openzeppelin/contracts/token/ERC20/ERC20.sol\":4570:4602  _approve(owner, spender, amount) */\n      jump\t// in\n    tag_118:\n        /* \"@openzeppelin/contracts/token/ERC20/ERC20.sol\":4619:4623  true */\n      0x01\n        /* \"@openzeppelin/contracts/token/ERC20/ERC20.sol\":4612:4623  return true */\n      swap2\n      pop\n      pop\n        /* \"@openzeppelin/contracts/token/ERC20/ERC20.sol\":4433:4630  function approve(address spender, uint256 amount) public virtual override returns (bool) {... */\n      swap3\n      swap2\n      pop\n      pop\n      jump\t// out\n        /* \"@openzeppelin/contracts/token/ERC20/ERC20.sol\":3244:3350  function totalSupply() public view virtual override returns (uint256) {... */\n    tag_37:\n        /* \"@openzeppelin/contracts/token/ERC20/ERC20.sol\":3305:3312  uint256 */\n      0x00\n        /* \"@openzeppelin/contracts/token/ERC20/ERC20.sol\":3331:3343  _totalSupply */\n      sload(0x02)\n        /* \"@openzeppelin/contracts/token/ERC20/ERC20.sol\":3324:3343  return _totalSupply */\n      swap1\n      pop\n        /* \"@openzeppelin/contracts/token/ERC20/ERC20.sol\":3244:3350  function totalSupply() public view virtual override returns (uint256) {... */\n      swap1\n      jump\t// out\n        /* \"@openzeppelin/contracts/token/ERC20/ERC20.sol\":5192:5478  function transferFrom(... */\n    tag_44:\n        /* \"@openzeppelin/contracts/token/ERC20/ERC20.sol\":5319:5323  bool */\n      0x00\n        /* \"@openzeppelin/contracts/token/ERC20/ERC20.sol\":5335:5350  address spender */\n      dup1\n        /* \"@openzeppelin/contracts/token/ERC20/ERC20.sol\":5353:5365  _msgSender() */\n      tag_122\n        /* \"@openzeppelin/contracts/token/ERC20/ERC20.sol\":5353:5363  _msgSender */\n      tag_117\n        /* \"@openzeppelin/contracts/token/ERC20/ERC20.sol\":5353:5365  _msgSender() */\n      jump\t// in\n    tag_122:\n        /* \"@openzeppelin/contracts/token/ERC20/ERC20.sol\":5335:5365  address spender = _msgSender() */\n      swap1\n      pop\n        /* \"@openzeppelin/contracts/token/ERC20/ERC20.sol\":5375:5413  _spendAllowance(from, spender, amount) */\n      tag_123\n        /* \"@openzeppelin/contracts/token/ERC20/ERC20.sol\":5391:5395  from */\n      dup6\n        /* \"@openzeppelin/contracts/token/ERC20/ERC20.sol\":5397:5404  spender */\n      dup3\n        /* \"@openzeppelin/contracts/token/ERC20/ERC20.sol\":5406:5412  amount */\n      dup6\n        /* \"@openzeppelin/contracts/token/ERC20/ERC20.sol\":5375:5390  _spendAllowance */\n      tag_124\n        /* \"@openzeppelin/contracts/token/ERC20/ERC20.sol\":5375:5413  _spendAllowance(from, spender, amount) */\n      jump\t// in\n    tag_123:\n        /* \"@openzeppelin/contracts/token/ERC20/ERC20.sol\":5423:5450  _transfer(from, to, amount) */\n      tag_125\n        /* \"@openzeppelin/contracts/token/ERC20/ERC20.sol\":5433:5437  from */\n      dup6\n        /* \"@openzeppelin/contracts/token/ERC20/ERC20.sol\":5439:5441  to */\n      dup6\n        /* \"@openzeppelin/contracts/token/ERC20/ERC20.sol\":5443:5449  amount */\n      dup6\n        /* \"@openzeppelin/contracts/token/ERC20/ERC20.sol\":5423:5432  _transfer */\n      tag_126\n        /* \"@openzeppelin/contracts/token/ERC20/ERC20.sol\":5423:5450  _transfer(from, to, amount) */\n      jump\t// in\n    tag_125:\n        /* \"@openzeppelin/contracts/token/ERC20/ERC20.sol\":5467:5471  true */\n      0x01\n        /* \"@openzeppelin/contracts/token/ERC20/ERC20.sol\":5460:5471  return true */\n      swap2\n      pop\n      pop\n        /* \"@openzeppelin/contracts/token/ERC20/ERC20.sol\":5192:5478  function transferFrom(... */\n      swap4\n      swap3\n      pop\n      pop\n      pop\n      jump\t// out\n        /* \"@openzeppelin/contracts/token/ERC20/ERC20.sol\":3093:3184  function decimals() public view virtual override returns (uint8) {... */\n    tag_48:\n        /* \"@openzeppelin/contracts/token/ERC20/ERC20.sol\":3151:3156  uint8 */\n      0x00\n        /* \"@openzeppelin/contracts/token/ERC20/ERC20.sol\":3175:3177  18 */\n      0x12\n        /* \"@openzeppelin/contracts/token/ERC20/ERC20.sol\":3168:3177  return 18 */\n      swap1\n      pop\n        /* \"@openzeppelin/contracts/token/ERC20/ERC20.sol\":3093:3184  function decimals() public view virtual override returns (uint8) {... */\n      swap1\n      jump\t// out\n        /* \"BlockJobs/BlockJobsCoin.sol\":887:992  function getbalancetest() external view returns (uint) {\r... */\n    tag_53:\n        /* \"BlockJobs/BlockJobsCoin.sol\":936:940  uint */\n      0x00\n        /* \"BlockJobs/BlockJobsCoin.sol\":960:984  balanceOf(_adminAddress) */\n      tag_129\n        /* \"BlockJobs/BlockJobsCoin.sol\":970:983  _adminAddress */\n      0x05\n      0x00\n      swap1\n      sload\n      swap1\n      0x0100\n      exp\n      swap1\n      div\n      0xffffffffffffffffffffffffffffffffffffffff\n      and\n        /* \"BlockJobs/BlockJobsCoin.sol\":960:969  balanceOf */\n      tag_78\n        /* \"BlockJobs/BlockJobsCoin.sol\":960:984  balanceOf(_adminAddress) */\n      jump\t// in\n    tag_129:\n        /* \"BlockJobs/BlockJobsCoin.sol\":953:984  return balanceOf(_adminAddress) */\n      swap1\n      pop\n        /* \"BlockJobs/BlockJobsCoin.sol\":887:992  function getbalancetest() external view returns (uint) {\r... */\n      swap1\n      jump\t// out\n        /* \"@openzeppelin/contracts/token/ERC20/ERC20.sol\":5873:6107  function increaseAllowance(address spender, uint256 addedValue) public virtual returns (bool) {... */\n    tag_58:\n        /* \"@openzeppelin/contracts/token/ERC20/ERC20.sol\":5961:5965  bool */\n      0x00\n        /* \"@openzeppelin/contracts/token/ERC20/ERC20.sol\":5977:5990  address owner */\n      dup1\n        /* \"@openzeppelin/contracts/token/ERC20/ERC20.sol\":5993:6005  _msgSender() */\n      tag_131\n        /* \"@openzeppelin/contracts/token/ERC20/ERC20.sol\":5993:6003  _msgSender */\n      tag_117\n        /* \"@openzeppelin/contracts/token/ERC20/ERC20.sol\":5993:6005  _msgSender() */\n      jump\t// in\n    tag_131:\n        /* \"@openzeppelin/contracts/token/ERC20/ERC20.sol\":5977:6005  address owner = _msgSender() */\n      swap1\n      pop\n        /* \"@openzeppelin/contracts/token/ERC20/ERC20.sol\":6015:6079  _approve(owner, spender, allowance(owner, spender) + addedValue) */\n      tag_132\n        /* \"@openzeppelin/contracts/token/ERC20/ERC20.sol\":6024:6029  owner */\n      dup2\n        /* \"@openzeppelin/contracts/token/ERC20/ERC20.sol\":6031:6038  spender */\n      dup6\n        /* \"@openzeppelin/contracts/token/ERC20/ERC20.sol\":6068:6078  addedValue */\n      dup6\n        /* \"@openzeppelin/contracts/token/ERC20/ERC20.sol\":6040:6065  allowance(owner, spender) */\n      tag_133\n        /* \"@openzeppelin/contracts/token/ERC20/ERC20.sol\":6050:6055  owner */\n      dup6\n        /* \"@openzeppelin/contracts/token/ERC20/ERC20.sol\":6057:6064  spender */\n      dup10\n        /* \"@openzeppelin/contracts/token/ERC20/ERC20.sol\":6040:6049  allowance */\n      tag_100\n        /* \"@openzeppelin/contracts/token/ERC20/ERC20.sol\":6040:6065  allowance(owner, spender) */\n      jump\t// in\n    tag_133:\n        /* \"@openzeppelin/contracts/token/ERC20/ERC20.sol\":6040:6078  allowance(owner, spender) + addedValue */\n      tag_134\n      swap2\n      swap1\n      tag_135\n      jump\t// in\n    tag_134:\n        /* \"@openzeppelin/contracts/token/ERC20/ERC20.sol\":6015:6023  _approve */\n      tag_119\n        /* \"@openzeppelin/contracts/token/ERC20/ERC20.sol\":6015:6079  _approve(owner, spender, allowance(owner, spender) + addedValue) */\n      jump\t// in\n    tag_132:\n        /* \"@openzeppelin/contracts/token/ERC20/ERC20.sol\":6096:6100  true */\n      0x01\n        /* \"@openzeppelin/contracts/token/ERC20/ERC20.sol\":6089:6100  return true */\n      swap2\n      pop\n      pop\n        /* \"@openzeppelin/contracts/token/ERC20/ERC20.sol\":5873:6107  function increaseAllowance(address spender, uint256 addedValue) public virtual returns (bool) {... */\n      swap3\n      swap2\n      pop\n      pop\n      jump\t// out\n        /* \"BlockJobs/BlockJobsCoin.sol\":783:879  function GetEther() external view returns (uint) {\r... */\n    tag_62:\n        /* \"BlockJobs/BlockJobsCoin.sol\":826:830  uint */\n      0x00\n        /* \"BlockJobs/BlockJobsCoin.sol\":850:871  address(this).balance */\n      selfbalance\n        /* \"BlockJobs/BlockJobsCoin.sol\":843:871  return address(this).balance */\n      swap1\n      pop\n        /* \"BlockJobs/BlockJobsCoin.sol\":783:879  function GetEther() external view returns (uint) {\r... */\n      swap1\n      jump\t// out\n        /* \"BlockJobs/BlockJobsCoin.sol\":162:190  address public _adminAddress */\n    tag_66:\n      0x05\n      0x00\n      swap1\n      sload\n      swap1\n      0x0100\n      exp\n      swap1\n      div\n      0xffffffffffffffffffffffffffffffffffffffff\n      and\n      dup2\n      jump\t// out\n        /* \"BlockJobs/BlockJobsCoin.sol\":554:722  function CoinApprove(address _owner, address spender, uint256 amount) external returns (bool) {\r... */\n    tag_72:\n        /* \"BlockJobs/BlockJobsCoin.sol\":642:646  bool */\n      0x00\n        /* \"BlockJobs/BlockJobsCoin.sol\":659:692  _approve(_owner, spender, amount) */\n      tag_138\n        /* \"BlockJobs/BlockJobsCoin.sol\":668:674  _owner */\n      dup5\n        /* \"BlockJobs/BlockJobsCoin.sol\":676:683  spender */\n      dup5\n        /* \"BlockJobs/BlockJobsCoin.sol\":685:691  amount */\n      dup5\n        /* \"BlockJobs/BlockJobsCoin.sol\":659:667  _approve */\n      tag_119\n        /* \"BlockJobs/BlockJobsCoin.sol\":659:692  _approve(_owner, spender, amount) */\n      jump\t// in\n    tag_138:\n        /* \"BlockJobs/BlockJobsCoin.sol\":710:714  true */\n      0x01\n        /* \"BlockJobs/BlockJobsCoin.sol\":703:714  return true */\n      swap1\n      pop\n        /* \"BlockJobs/BlockJobsCoin.sol\":554:722  function CoinApprove(address _owner, address spender, uint256 amount) external returns (bool) {\r... */\n      swap4\n      swap3\n      pop\n      pop\n      pop\n      jump\t// out\n        /* \"@openzeppelin/contracts/token/ERC20/ERC20.sol\":3408:3533  function balanceOf(address account) public view virtual override returns (uint256) {... */\n    tag_78:\n        /* \"@openzeppelin/contracts/token/ERC20/ERC20.sol\":3482:3489  uint256 */\n      0x00\n        /* \"@openzeppelin/contracts/token/ERC20/ERC20.sol\":3508:3517  _balances */\n      dup1\n        /* \"@openzeppelin/contracts/token/ERC20/ERC20.sol\":3508:3526  _balances[account] */\n      0x00\n        /* \"@openzeppelin/contracts/token/ERC20/ERC20.sol\":3518:3525  account */\n      dup4\n        /* \"@openzeppelin/contracts/token/ERC20/ERC20.sol\":3508:3526  _balances[account] */\n      0xffffffffffffffffffffffffffffffffffffffff\n      and\n      0xffffffffffffffffffffffffffffffffffffffff\n      and\n      dup2\n      mstore\n      0x20\n      add\n      swap1\n      dup2\n      mstore\n      0x20\n      add\n      0x00\n      keccak256\n      sload\n        /* \"@openzeppelin/contracts/token/ERC20/ERC20.sol\":3501:3526  return _balances[account] */\n      swap1\n      pop\n        /* \"@openzeppelin/contracts/token/ERC20/ERC20.sol\":3408:3533  function balanceOf(address account) public view virtual override returns (uint256) {... */\n      swap2\n      swap1\n      pop\n      jump\t// out\n        /* \"@openzeppelin/contracts/token/ERC20/ERC20.sol\":2367:2469  function symbol() public view virtual override returns (string memory) {... */\n    tag_82:\n        /* \"@openzeppelin/contracts/token/ERC20/ERC20.sol\":2423:2436  string memory */\n      0x60\n        /* \"@openzeppelin/contracts/token/ERC20/ERC20.sol\":2455:2462  _symbol */\n      0x04\n        /* \"@openzeppelin/contracts/token/ERC20/ERC20.sol\":2448:2462  return _symbol */\n      dup1\n      sload\n      tag_141\n      swap1\n      tag_110\n      jump\t// in\n    tag_141:\n      dup1\n      0x1f\n      add\n      0x20\n      dup1\n      swap2\n      div\n      mul\n      0x20\n      add\n      mload(0x40)\n      swap1\n      dup2\n      add\n      0x40\n      mstore\n      dup1\n      swap3\n      swap2\n      swap1\n      dup2\n      dup2\n      mstore\n      0x20\n      add\n      dup3\n      dup1\n      sload\n      tag_142\n      swap1\n      tag_110\n      jump\t// in\n    tag_142:\n      dup1\n      iszero\n      tag_143\n      jumpi\n      dup1\n      0x1f\n      lt\n      tag_144\n      jumpi\n      0x0100\n      dup1\n      dup4\n      sload\n      div\n      mul\n      dup4\n      mstore\n      swap2\n      0x20\n      add\n      swap2\n      jump(tag_143)\n    tag_144:\n      dup3\n      add\n      swap2\n      swap1\n      0x00\n      mstore\n      keccak256(0x00, 0x20)\n      swap1\n    tag_145:\n      dup2\n      sload\n      dup2\n      mstore\n      swap1\n      0x01\n      add\n      swap1\n      0x20\n      add\n      dup1\n      dup4\n      gt\n      tag_145\n      jumpi\n      dup3\n      swap1\n      sub\n      0x1f\n      and\n      dup3\n      add\n      swap2\n    tag_143:\n      pop\n      pop\n      pop\n      pop\n      pop\n      swap1\n      pop\n        /* \"@openzeppelin/contracts/token/ERC20/ERC20.sol\":2367:2469  function symbol() public view virtual override returns (string memory) {... */\n      swap1\n      jump\t// out\n        /* \"BlockJobs/BlockJobsCoin.sol\":1000:1393  function Buy() payable public{\r... */\n    tag_85:\n        /* \"BlockJobs/BlockJobsCoin.sol\":1040:1059  uint256 amountTobuy */\n      0x00\n        /* \"BlockJobs/BlockJobsCoin.sol\":1062:1071  msg.value */\n      callvalue\n        /* \"BlockJobs/BlockJobsCoin.sol\":1040:1071  uint256 amountTobuy = msg.value */\n      swap1\n      pop\n        /* \"BlockJobs/BlockJobsCoin.sol\":1082:1100  uint256 dexBalance */\n      0x00\n        /* \"BlockJobs/BlockJobsCoin.sol\":1103:1127  balanceOf(_adminAddress) */\n      tag_147\n        /* \"BlockJobs/BlockJobsCoin.sol\":1113:1126  _adminAddress */\n      0x05\n      0x00\n      swap1\n      sload\n      swap1\n      0x0100\n      exp\n      swap1\n      div\n      0xffffffffffffffffffffffffffffffffffffffff\n      and\n        /* \"BlockJobs/BlockJobsCoin.sol\":1103:1112  balanceOf */\n      tag_78\n        /* \"BlockJobs/BlockJobsCoin.sol\":1103:1127  balanceOf(_adminAddress) */\n      jump\t// in\n    tag_147:\n        /* \"BlockJobs/BlockJobsCoin.sol\":1082:1127  uint256 dexBalance = balanceOf(_adminAddress) */\n      swap1\n      pop\n        /* \"BlockJobs/BlockJobsCoin.sol\":1160:1161  0 */\n      0x00\n        /* \"BlockJobs/BlockJobsCoin.sol\":1146:1157  amountTobuy */\n      dup3\n        /* \"BlockJobs/BlockJobsCoin.sol\":1146:1161  amountTobuy > 0 */\n      gt\n        /* \"BlockJobs/BlockJobsCoin.sol\":1138:1193  require(amountTobuy > 0, \"You need to send some ether\") */\n      tag_148\n      jumpi\n      mload(0x40)\n      0x08c379a000000000000000000000000000000000000000000000000000000000\n      dup2\n      mstore\n      0x04\n      add\n      tag_149\n      swap1\n      tag_150\n      jump\t// in\n    tag_149:\n      mload(0x40)\n      dup1\n      swap2\n      sub\n      swap1\n      revert\n    tag_148:\n        /* \"BlockJobs/BlockJobsCoin.sol\":1227:1237  dexBalance */\n      dup1\n        /* \"BlockJobs/BlockJobsCoin.sol\":1212:1223  amountTobuy */\n      dup3\n        /* \"BlockJobs/BlockJobsCoin.sol\":1212:1237  amountTobuy <= dexBalance */\n      gt\n      iszero\n        /* \"BlockJobs/BlockJobsCoin.sol\":1204:1274  require(amountTobuy <= dexBalance, \"Not enough tokens in the reserve\") */\n      tag_151\n      jumpi\n      mload(0x40)\n      0x08c379a000000000000000000000000000000000000000000000000000000000\n      dup2\n      mstore\n      0x04\n      add\n      tag_152\n      swap1\n      tag_153\n      jump\t// in\n    tag_152:\n      mload(0x40)\n      dup1\n      swap2\n      sub\n      swap1\n      revert\n    tag_151:\n        /* \"BlockJobs/BlockJobsCoin.sol\":1285:1350  transferFrom(_adminAddress, msg.sender, amountTobuy ** (10 * 10)) */\n      tag_154\n        /* \"BlockJobs/BlockJobsCoin.sol\":1298:1311  _adminAddress */\n      0x05\n      0x00\n      swap1\n      sload\n      swap1\n      0x0100\n      exp\n      swap1\n      div\n      0xffffffffffffffffffffffffffffffffffffffff\n      and\n        /* \"BlockJobs/BlockJobsCoin.sol\":1313:1323  msg.sender */\n      caller\n        /* \"BlockJobs/BlockJobsCoin.sol\":1341:1348  10 * 10 */\n      0x64\n        /* \"BlockJobs/BlockJobsCoin.sol\":1325:1336  amountTobuy */\n      dup6\n        /* \"BlockJobs/BlockJobsCoin.sol\":1325:1349  amountTobuy ** (10 * 10) */\n      tag_155\n      swap2\n      swap1\n      tag_156\n      jump\t// in\n    tag_155:\n        /* \"BlockJobs/BlockJobsCoin.sol\":1285:1297  transferFrom */\n      tag_44\n        /* \"BlockJobs/BlockJobsCoin.sol\":1285:1350  transferFrom(_adminAddress, msg.sender, amountTobuy ** (10 * 10)) */\n      jump\t// in\n    tag_154:\n      pop\n        /* \"BlockJobs/BlockJobsCoin.sol\":1366:1385  Bought(amountTobuy) */\n      0x4e08ba899977cf7d4c2964bce71c6b9a7ef76ee5166a4c1249a1e08016e33ef1\n        /* \"BlockJobs/BlockJobsCoin.sol\":1373:1384  amountTobuy */\n      dup3\n        /* \"BlockJobs/BlockJobsCoin.sol\":1366:1385  Bought(amountTobuy) */\n      mload(0x40)\n      tag_157\n      swap2\n      swap1\n      tag_39\n      jump\t// in\n    tag_157:\n      mload(0x40)\n      dup1\n      swap2\n      sub\n      swap1\n      log1\n        /* \"BlockJobs/BlockJobsCoin.sol\":1029:1393  {\r... */\n      pop\n      pop\n        /* \"BlockJobs/BlockJobsCoin.sol\":1000:1393  function Buy() payable public{\r... */\n      jump\t// out\n        /* \"@openzeppelin/contracts/token/ERC20/ERC20.sol\":6594:7021  function decreaseAllowance(address spender, uint256 subtractedValue) public virtual returns (bool) {... */\n    tag_89:\n        /* \"@openzeppelin/contracts/token/ERC20/ERC20.sol\":6687:6691  bool */\n      0x00\n        /* \"@openzeppelin/contracts/token/ERC20/ERC20.sol\":6703:6716  address owner */\n      dup1\n        /* \"@openzeppelin/contracts/token/ERC20/ERC20.sol\":6719:6731  _msgSender() */\n      tag_159\n        /* \"@openzeppelin/contracts/token/ERC20/ERC20.sol\":6719:6729  _msgSender */\n      tag_117\n        /* \"@openzeppelin/contracts/token/ERC20/ERC20.sol\":6719:6731  _msgSender() */\n      jump\t// in\n    tag_159:\n        /* \"@openzeppelin/contracts/token/ERC20/ERC20.sol\":6703:6731  address owner = _msgSender() */\n      swap1\n      pop\n        /* \"@openzeppelin/contracts/token/ERC20/ERC20.sol\":6741:6765  uint256 currentAllowance */\n      0x00\n        /* \"@openzeppelin/contracts/token/ERC20/ERC20.sol\":6768:6793  allowance(owner, spender) */\n      tag_160\n        /* \"@openzeppelin/contracts/token/ERC20/ERC20.sol\":6778:6783  owner */\n      dup3\n        /* \"@openzeppelin/contracts/token/ERC20/ERC20.sol\":6785:6792  spender */\n      dup7\n        /* \"@openzeppelin/contracts/token/ERC20/ERC20.sol\":6768:6777  allowance */\n      tag_100\n        /* \"@openzeppelin/contracts/token/ERC20/ERC20.sol\":6768:6793  allowance(owner, spender) */\n      jump\t// in\n    tag_160:\n        /* \"@openzeppelin/contracts/token/ERC20/ERC20.sol\":6741:6793  uint256 currentAllowance = allowance(owner, spender) */\n      swap1\n      pop\n        /* \"@openzeppelin/contracts/token/ERC20/ERC20.sol\":6831:6846  subtractedValue */\n      dup4\n        /* \"@openzeppelin/contracts/token/ERC20/ERC20.sol\":6811:6827  currentAllowance */\n      dup2\n        /* \"@openzeppelin/contracts/token/ERC20/ERC20.sol\":6811:6846  currentAllowance >= subtractedValue */\n      lt\n      iszero\n        /* \"@openzeppelin/contracts/token/ERC20/ERC20.sol\":6803:6888  require(currentAllowance >= subtractedValue, \"ERC20: decreased allowance below zero\") */\n      tag_161\n      jumpi\n      mload(0x40)\n      0x08c379a000000000000000000000000000000000000000000000000000000000\n      dup2\n      mstore\n      0x04\n      add\n      tag_162\n      swap1\n      tag_163\n      jump\t// in\n    tag_162:\n      mload(0x40)\n      dup1\n      swap2\n      sub\n      swap1\n      revert\n    tag_161:\n        /* \"@openzeppelin/contracts/token/ERC20/ERC20.sol\":6922:6982  _approve(owner, spender, currentAllowance - subtractedValue) */\n      tag_164\n        /* \"@openzeppelin/contracts/token/ERC20/ERC20.sol\":6931:6936  owner */\n      dup3\n        /* \"@openzeppelin/contracts/token/ERC20/ERC20.sol\":6938:6945  spender */\n      dup7\n        /* \"@openzeppelin/contracts/token/ERC20/ERC20.sol\":6966:6981  subtractedValue */\n      dup7\n        /* \"@openzeppelin/contracts/token/ERC20/ERC20.sol\":6947:6963  currentAllowance */\n      dup5\n        /* \"@openzeppelin/contracts/token/ERC20/ERC20.sol\":6947:6981  currentAllowance - subtractedValue */\n      sub\n        /* \"@openzeppelin/contracts/token/ERC20/ERC20.sol\":6922:6930  _approve */\n      tag_119\n        /* \"@openzeppelin/contracts/token/ERC20/ERC20.sol\":6922:6982  _approve(owner, spender, currentAllowance - subtractedValue) */\n      jump\t// in\n    tag_164:\n        /* \"@openzeppelin/contracts/token/ERC20/ERC20.sol\":7010:7014  true */\n      0x01\n        /* \"@openzeppelin/contracts/token/ERC20/ERC20.sol\":7003:7014  return true */\n      swap3\n      pop\n      pop\n      pop\n        /* \"@openzeppelin/contracts/token/ERC20/ERC20.sol\":6594:7021  function decreaseAllowance(address spender, uint256 subtractedValue) public virtual returns (bool) {... */\n      swap3\n      swap2\n      pop\n      pop\n      jump\t// out\n        /* \"@openzeppelin/contracts/token/ERC20/ERC20.sol\":3729:3918  function transfer(address to, uint256 amount) public virtual override returns (bool) {... */\n    tag_94:\n        /* \"@openzeppelin/contracts/token/ERC20/ERC20.sol\":3808:3812  bool */\n      0x00\n        /* \"@openzeppelin/contracts/token/ERC20/ERC20.sol\":3824:3837  address owner */\n      dup1\n        /* \"@openzeppelin/contracts/token/ERC20/ERC20.sol\":3840:3852  _msgSender() */\n      tag_166\n        /* \"@openzeppelin/contracts/token/ERC20/ERC20.sol\":3840:3850  _msgSender */\n      tag_117\n        /* \"@openzeppelin/contracts/token/ERC20/ERC20.sol\":3840:3852  _msgSender() */\n      jump\t// in\n    tag_166:\n        /* \"@openzeppelin/contracts/token/ERC20/ERC20.sol\":3824:3852  address owner = _msgSender() */\n      swap1\n      pop\n        /* \"@openzeppelin/contracts/token/ERC20/ERC20.sol\":3862:3890  _transfer(owner, to, amount) */\n      tag_167\n        /* \"@openzeppelin/contracts/token/ERC20/ERC20.sol\":3872:3877  owner */\n      dup2\n        /* \"@openzeppelin/contracts/token/ERC20/ERC20.sol\":3879:3881  to */\n      dup6\n        /* \"@openzeppelin/contracts/token/ERC20/ERC20.sol\":3883:3889  amount */\n      dup6\n        /* \"@openzeppelin/contracts/token/ERC20/ERC20.sol\":3862:3871  _transfer */\n      tag_126\n        /* \"@openzeppelin/contracts/token/ERC20/ERC20.sol\":3862:3890  _transfer(owner, to, amount) */\n      jump\t// in\n    tag_167:\n        /* \"@openzeppelin/contracts/token/ERC20/ERC20.sol\":3907:3911  true */\n      0x01\n        /* \"@openzeppelin/contracts/token/ERC20/ERC20.sol\":3900:3911  return true */\n      swap2\n      pop\n      pop\n        /* \"@openzeppelin/contracts/token/ERC20/ERC20.sol\":3729:3918  function transfer(address to, uint256 amount) public virtual override returns (bool) {... */\n      swap3\n      swap2\n      pop\n      pop\n      jump\t// out\n        /* \"@openzeppelin/contracts/token/ERC20/ERC20.sol\":3976:4125  function allowance(address owner, address spender) public view virtual override returns (uint256) {... */\n    tag_100:\n        /* \"@openzeppelin/contracts/token/ERC20/ERC20.sol\":4065:4072  uint256 */\n      0x00\n        /* \"@openzeppelin/contracts/token/ERC20/ERC20.sol\":4091:4102  _allowances */\n      0x01\n        /* \"@openzeppelin/contracts/token/ERC20/ERC20.sol\":4091:4109  _allowances[owner] */\n      0x00\n        /* \"@openzeppelin/contracts/token/ERC20/ERC20.sol\":4103:4108  owner */\n      dup5\n        /* \"@openzeppelin/contracts/token/ERC20/ERC20.sol\":4091:4109  _allowances[owner] */\n      0xffffffffffffffffffffffffffffffffffffffff\n      and\n      0xffffffffffffffffffffffffffffffffffffffff\n      and\n      dup2\n      mstore\n      0x20\n      add\n      swap1\n      dup2\n      mstore\n      0x20\n      add\n      0x00\n      keccak256\n        /* \"@openzeppelin/contracts/token/ERC20/ERC20.sol\":4091:4118  _allowances[owner][spender] */\n      0x00\n        /* \"@openzeppelin/contracts/token/ERC20/ERC20.sol\":4110:4117  spender */\n      dup4\n        /* \"@openzeppelin/contracts/token/ERC20/ERC20.sol\":4091:4118  _allowances[owner][spender] */\n      0xffffffffffffffffffffffffffffffffffffffff\n      and\n      0xffffffffffffffffffffffffffffffffffffffff\n      and\n      dup2\n      mstore\n      0x20\n      add\n      swap1\n      dup2\n      mstore\n      0x20\n      add\n      0x00\n      keccak256\n      sload\n        /* \"@openzeppelin/contracts/token/ERC20/ERC20.sol\":4084:4118  return _allowances[owner][spender] */\n      swap1\n      pop\n        /* \"@openzeppelin/contracts/token/ERC20/ERC20.sol\":3976:4125  function allowance(address owner, address spender) public view virtual override returns (uint256) {... */\n      swap3\n      swap2\n      pop\n      pop\n      jump\t// out\n        /* \"BlockJobs/BlockJobsCoin.sol\":1401:1792  function sell(uint256 amount) payable public{\r... */\n    tag_105:\n        /* \"BlockJobs/BlockJobsCoin.sol\":1473:1474  0 */\n      0x00\n        /* \"BlockJobs/BlockJobsCoin.sol\":1464:1470  amount */\n      dup2\n        /* \"BlockJobs/BlockJobsCoin.sol\":1464:1474  amount > 0 */\n      gt\n        /* \"BlockJobs/BlockJobsCoin.sol\":1456:1516  require(amount > 0, \"You need to sell at least some tokens\") */\n      tag_170\n      jumpi\n      mload(0x40)\n      0x08c379a000000000000000000000000000000000000000000000000000000000\n      dup2\n      mstore\n      0x04\n      add\n      tag_171\n      swap1\n      tag_172\n      jump\t// in\n    tag_171:\n      mload(0x40)\n      dup1\n      swap2\n      sub\n      swap1\n      revert\n    tag_170:\n        /* \"BlockJobs/BlockJobsCoin.sol\":1527:1544  uint256 allowance */\n      0x00\n        /* \"BlockJobs/BlockJobsCoin.sol\":1547:1583  allowance(msg.sender, address(this)) */\n      tag_173\n        /* \"BlockJobs/BlockJobsCoin.sol\":1557:1567  msg.sender */\n      caller\n        /* \"BlockJobs/BlockJobsCoin.sol\":1577:1581  this */\n      address\n        /* \"BlockJobs/BlockJobsCoin.sol\":1547:1556  allowance */\n      tag_100\n        /* \"BlockJobs/BlockJobsCoin.sol\":1547:1583  allowance(msg.sender, address(this)) */\n      jump\t// in\n    tag_173:\n        /* \"BlockJobs/BlockJobsCoin.sol\":1527:1583  uint256 allowance = allowance(msg.sender, address(this)) */\n      swap1\n      pop\n        /* \"BlockJobs/BlockJobsCoin.sol\":1615:1621  amount */\n      dup2\n        /* \"BlockJobs/BlockJobsCoin.sol\":1602:1611  allowance */\n      dup2\n        /* \"BlockJobs/BlockJobsCoin.sol\":1602:1621  allowance >= amount */\n      lt\n      iszero\n        /* \"BlockJobs/BlockJobsCoin.sol\":1594:1651  require(allowance >= amount, \"Check the token allowance\") */\n      tag_174\n      jumpi\n      mload(0x40)\n      0x08c379a000000000000000000000000000000000000000000000000000000000\n      dup2\n      mstore\n      0x04\n      add\n      tag_175\n      swap1\n      tag_176\n      jump\t// in\n    tag_175:\n      mload(0x40)\n      dup1\n      swap2\n      sub\n      swap1\n      revert\n    tag_174:\n        /* \"BlockJobs/BlockJobsCoin.sol\":1662:1709  transferFrom(msg.sender, address(this), amount) */\n      tag_177\n        /* \"BlockJobs/BlockJobsCoin.sol\":1675:1685  msg.sender */\n      caller\n        /* \"BlockJobs/BlockJobsCoin.sol\":1695:1699  this */\n      address\n        /* \"BlockJobs/BlockJobsCoin.sol\":1702:1708  amount */\n      dup5\n        /* \"BlockJobs/BlockJobsCoin.sol\":1662:1674  transferFrom */\n      tag_44\n        /* \"BlockJobs/BlockJobsCoin.sol\":1662:1709  transferFrom(msg.sender, address(this), amount) */\n      jump\t// in\n    tag_177:\n      pop\n        /* \"BlockJobs/BlockJobsCoin.sol\":1728:1738  msg.sender */\n      caller\n        /* \"BlockJobs/BlockJobsCoin.sol\":1720:1748  payable(msg.sender).transfer */\n      0xffffffffffffffffffffffffffffffffffffffff\n      and\n        /* \"BlockJobs/BlockJobsCoin.sol\":1720:1756  payable(msg.sender).transfer(amount) */\n      0x08fc\n        /* \"BlockJobs/BlockJobsCoin.sol\":1749:1755  amount */\n      dup4\n        /* \"BlockJobs/BlockJobsCoin.sol\":1720:1756  payable(msg.sender).transfer(amount) */\n      swap1\n      dup2\n      iszero\n      mul\n      swap1\n      mload(0x40)\n      0x00\n      mload(0x40)\n      dup1\n      dup4\n      sub\n      dup2\n      dup6\n      dup9\n      dup9\n      call\n      swap4\n      pop\n      pop\n      pop\n      pop\n      iszero\n      dup1\n      iszero\n      tag_179\n      jumpi\n      returndatasize\n      0x00\n      dup1\n      returndatacopy\n      revert(0x00, returndatasize)\n    tag_179:\n      pop\n        /* \"BlockJobs/BlockJobsCoin.sol\":1772:1784  Sold(amount) */\n      0x92f64ca637d023f354075a4be751b169c1a8a9ccb6d33cdd0cb3520543995727\n        /* \"BlockJobs/BlockJobsCoin.sol\":1777:1783  amount */\n      dup3\n        /* \"BlockJobs/BlockJobsCoin.sol\":1772:1784  Sold(amount) */\n      mload(0x40)\n      tag_180\n      swap2\n      swap1\n      tag_39\n      jump\t// in\n    tag_180:\n      mload(0x40)\n      dup1\n      swap2\n      sub\n      swap1\n      log1\n        /* \"BlockJobs/BlockJobsCoin.sol\":1445:1792  {\r... */\n      pop\n        /* \"BlockJobs/BlockJobsCoin.sol\":1401:1792  function sell(uint256 amount) payable public{\r... */\n      pop\n      jump\t// out\n        /* \"BlockJobs/BlockJobsCoin.sol\":730:775  function invest() external payable {\r... */\n    tag_107:\n      jump\t// out\n        /* \"@openzeppelin/contracts/utils/Context.sol\":640:736  function _msgSender() internal view virtual returns (address) {... */\n    tag_117:\n        /* \"@openzeppelin/contracts/utils/Context.sol\":693:700  address */\n      0x00\n        /* \"@openzeppelin/contracts/utils/Context.sol\":719:729  msg.sender */\n      caller\n        /* \"@openzeppelin/contracts/utils/Context.sol\":712:729  return msg.sender */\n      swap1\n      pop\n        /* \"@openzeppelin/contracts/utils/Context.sol\":640:736  function _msgSender() internal view virtual returns (address) {... */\n      swap1\n      jump\t// out\n        /* \"@openzeppelin/contracts/token/ERC20/ERC20.sol\":10119:10489  function _approve(... */\n    tag_119:\n        /* \"@openzeppelin/contracts/token/ERC20/ERC20.sol\":10267:10268  0 */\n      0x00\n        /* \"@openzeppelin/contracts/token/ERC20/ERC20.sol\":10250:10269  owner != address(0) */\n      0xffffffffffffffffffffffffffffffffffffffff\n      and\n        /* \"@openzeppelin/contracts/token/ERC20/ERC20.sol\":10250:10255  owner */\n      dup4\n        /* \"@openzeppelin/contracts/token/ERC20/ERC20.sol\":10250:10269  owner != address(0) */\n      0xffffffffffffffffffffffffffffffffffffffff\n      and\n      eq\n      iszero\n        /* \"@openzeppelin/contracts/token/ERC20/ERC20.sol\":10242:10310  require(owner != address(0), \"ERC20: approve from the zero address\") */\n      tag_184\n      jumpi\n      mload(0x40)\n      0x08c379a000000000000000000000000000000000000000000000000000000000\n      dup2\n      mstore\n      0x04\n      add\n      tag_185\n      swap1\n      tag_186\n      jump\t// in\n    tag_185:\n      mload(0x40)\n      dup1\n      swap2\n      sub\n      swap1\n      revert\n    tag_184:\n        /* \"@openzeppelin/contracts/token/ERC20/ERC20.sol\":10347:10348  0 */\n      0x00\n        /* \"@openzeppelin/contracts/token/ERC20/ERC20.sol\":10328:10349  spender != address(0) */\n      0xffffffffffffffffffffffffffffffffffffffff\n      and\n        /* \"@openzeppelin/contracts/token/ERC20/ERC20.sol\":10328:10335  spender */\n      dup3\n        /* \"@openzeppelin/contracts/token/ERC20/ERC20.sol\":10328:10349  spender != address(0) */\n      0xffffffffffffffffffffffffffffffffffffffff\n      and\n      eq\n      iszero\n        /* \"@openzeppelin/contracts/token/ERC20/ERC20.sol\":10320:10388  require(spender != address(0), \"ERC20: approve to the zero address\") */\n      tag_187\n      jumpi\n      mload(0x40)\n      0x08c379a000000000000000000000000000000000000000000000000000000000\n      dup2\n      mstore\n      0x04\n      add\n      tag_188\n      swap1\n      tag_189\n      jump\t// in\n    tag_188:\n      mload(0x40)\n      dup1\n      swap2\n      sub\n      swap1\n      revert\n    tag_187:\n        /* \"@openzeppelin/contracts/token/ERC20/ERC20.sol\":10429:10435  amount */\n      dup1\n        /* \"@openzeppelin/contracts/token/ERC20/ERC20.sol\":10399:10410  _allowances */\n      0x01\n        /* \"@openzeppelin/contracts/token/ERC20/ERC20.sol\":10399:10417  _allowances[owner] */\n      0x00\n        /* \"@openzeppelin/contracts/token/ERC20/ERC20.sol\":10411:10416  owner */\n      dup6\n        /* \"@openzeppelin/contracts/token/ERC20/ERC20.sol\":10399:10417  _allowances[owner] */\n      0xffffffffffffffffffffffffffffffffffffffff\n      and\n      0xffffffffffffffffffffffffffffffffffffffff\n      and\n      dup2\n      mstore\n      0x20\n      add\n      swap1\n      dup2\n      mstore\n      0x20\n      add\n      0x00\n      keccak256\n        /* \"@openzeppelin/contracts/token/ERC20/ERC20.sol\":10399:10426  _allowances[owner][spender] */\n      0x00\n        /* \"@openzeppelin/contracts/token/ERC20/ERC20.sol\":10418:10425  spender */\n      dup5\n        /* \"@openzeppelin/contracts/token/ERC20/ERC20.sol\":10399:10426  _allowances[owner][spender] */\n      0xffffffffffffffffffffffffffffffffffffffff\n      and\n      0xffffffffffffffffffffffffffffffffffffffff\n      and\n      dup2\n      mstore\n      0x20\n      add\n      swap1\n      dup2\n      mstore\n      0x20\n      add\n      0x00\n      keccak256\n        /* \"@openzeppelin/contracts/token/ERC20/ERC20.sol\":10399:10435  _allowances[owner][spender] = amount */\n      dup2\n      swap1\n      sstore\n      pop\n        /* \"@openzeppelin/contracts/token/ERC20/ERC20.sol\":10466:10473  spender */\n      dup2\n        /* \"@openzeppelin/contracts/token/ERC20/ERC20.sol\":10450:10482  Approval(owner, spender, amount) */\n      0xffffffffffffffffffffffffffffffffffffffff\n      and\n        /* \"@openzeppelin/contracts/token/ERC20/ERC20.sol\":10459:10464  owner */\n      dup4\n        /* \"@openzeppelin/contracts/token/ERC20/ERC20.sol\":10450:10482  Approval(owner, spender, amount) */\n      0xffffffffffffffffffffffffffffffffffffffff\n      and\n      0x8c5be1e5ebec7d5bd14f71427d1e84f3dd0314c0f7b2291e5b200ac8c7c3b925\n        /* \"@openzeppelin/contracts/token/ERC20/ERC20.sol\":10475:10481  amount */\n      dup4\n        /* \"@openzeppelin/contracts/token/ERC20/ERC20.sol\":10450:10482  Approval(owner, spender, amount) */\n      mload(0x40)\n      tag_190\n      swap2\n      swap1\n      tag_39\n      jump\t// in\n    tag_190:\n      mload(0x40)\n      dup1\n      swap2\n      sub\n      swap1\n      log3\n        /* \"@openzeppelin/contracts/token/ERC20/ERC20.sol\":10119:10489  function _approve(... */\n      pop\n      pop\n      pop\n      jump\t// out\n        /* \"@openzeppelin/contracts/token/ERC20/ERC20.sol\":10770:11211  function _spendAllowance(... */\n    tag_124:\n        /* \"@openzeppelin/contracts/token/ERC20/ERC20.sol\":10900:10924  uint256 currentAllowance */\n      0x00\n        /* \"@openzeppelin/contracts/token/ERC20/ERC20.sol\":10927:10952  allowance(owner, spender) */\n      tag_192\n        /* \"@openzeppelin/contracts/token/ERC20/ERC20.sol\":10937:10942  owner */\n      dup5\n        /* \"@openzeppelin/contracts/token/ERC20/ERC20.sol\":10944:10951  spender */\n      dup5\n        /* \"@openzeppelin/contracts/token/ERC20/ERC20.sol\":10927:10936  allowance */\n      tag_100\n        /* \"@openzeppelin/contracts/token/ERC20/ERC20.sol\":10927:10952  allowance(owner, spender) */\n      jump\t// in\n    tag_192:\n        /* \"@openzeppelin/contracts/token/ERC20/ERC20.sol\":10900:10952  uint256 currentAllowance = allowance(owner, spender) */\n      swap1\n      pop\n        /* \"@openzeppelin/contracts/token/ERC20/ERC20.sol\":10986:11003  type(uint256).max */\n      0xffffffffffffffffffffffffffffffffffffffffffffffffffffffffffffffff\n        /* \"@openzeppelin/contracts/token/ERC20/ERC20.sol\":10966:10982  currentAllowance */\n      dup2\n        /* \"@openzeppelin/contracts/token/ERC20/ERC20.sol\":10966:11003  currentAllowance != type(uint256).max */\n      eq\n        /* \"@openzeppelin/contracts/token/ERC20/ERC20.sol\":10962:11205  if (currentAllowance != type(uint256).max) {... */\n      tag_193\n      jumpi\n        /* \"@openzeppelin/contracts/token/ERC20/ERC20.sol\":11047:11053  amount */\n      dup2\n        /* \"@openzeppelin/contracts/token/ERC20/ERC20.sol\":11027:11043  currentAllowance */\n      dup2\n        /* \"@openzeppelin/contracts/token/ERC20/ERC20.sol\":11027:11053  currentAllowance >= amount */\n      lt\n      iszero\n        /* \"@openzeppelin/contracts/token/ERC20/ERC20.sol\":11019:11087  require(currentAllowance >= amount, \"ERC20: insufficient allowance\") */\n      tag_194\n      jumpi\n      mload(0x40)\n      0x08c379a000000000000000000000000000000000000000000000000000000000\n      dup2\n      mstore\n      0x04\n      add\n      tag_195\n      swap1\n      tag_196\n      jump\t// in\n    tag_195:\n      mload(0x40)\n      dup1\n      swap2\n      sub\n      swap1\n      revert\n    tag_194:\n        /* \"@openzeppelin/contracts/token/ERC20/ERC20.sol\":11129:11180  _approve(owner, spender, currentAllowance - amount) */\n      tag_197\n        /* \"@openzeppelin/contracts/token/ERC20/ERC20.sol\":11138:11143  owner */\n      dup5\n        /* \"@openzeppelin/contracts/token/ERC20/ERC20.sol\":11145:11152  spender */\n      dup5\n        /* \"@openzeppelin/contracts/token/ERC20/ERC20.sol\":11173:11179  amount */\n      dup5\n        /* \"@openzeppelin/contracts/token/ERC20/ERC20.sol\":11154:11170  currentAllowance */\n      dup5\n        /* \"@openzeppelin/contracts/token/ERC20/ERC20.sol\":11154:11179  currentAllowance - amount */\n      sub\n        /* \"@openzeppelin/contracts/token/ERC20/ERC20.sol\":11129:11137  _approve */\n      tag_119\n        /* \"@openzeppelin/contracts/token/ERC20/ERC20.sol\":11129:11180  _approve(owner, spender, currentAllowance - amount) */\n      jump\t// in\n    tag_197:\n        /* \"@openzeppelin/contracts/token/ERC20/ERC20.sol\":10962:11205  if (currentAllowance != type(uint256).max) {... */\n    tag_193:\n        /* \"@openzeppelin/contracts/token/ERC20/ERC20.sol\":10890:11211  {... */\n      pop\n        /* \"@openzeppelin/contracts/token/ERC20/ERC20.sol\":10770:11211  function _spendAllowance(... */\n      pop\n      pop\n      pop\n      jump\t// out\n        /* \"@openzeppelin/contracts/token/ERC20/ERC20.sol\":7484:8135  function _transfer(... */\n    tag_126:\n        /* \"@openzeppelin/contracts/token/ERC20/ERC20.sol\":7626:7627  0 */\n      0x00\n        /* \"@openzeppelin/contracts/token/ERC20/ERC20.sol\":7610:7628  from != address(0) */\n      0xffffffffffffffffffffffffffffffffffffffff\n      and\n        /* \"@openzeppelin/contracts/token/ERC20/ERC20.sol\":7610:7614  from */\n      dup4\n        /* \"@openzeppelin/contracts/token/ERC20/ERC20.sol\":7610:7628  from != address(0) */\n      0xffffffffffffffffffffffffffffffffffffffff\n      and\n      eq\n      iszero\n        /* \"@openzeppelin/contracts/token/ERC20/ERC20.sol\":7602:7670  require(from != address(0), \"ERC20: transfer from the zero address\") */\n      tag_199\n      jumpi\n      mload(0x40)\n      0x08c379a000000000000000000000000000000000000000000000000000000000\n      dup2\n      mstore\n      0x04\n      add\n      tag_200\n      swap1\n      tag_201\n      jump\t// in\n    tag_200:\n      mload(0x40)\n      dup1\n      swap2\n      sub\n      swap1\n      revert\n    tag_199:\n        /* \"@openzeppelin/contracts/token/ERC20/ERC20.sol\":7702:7703  0 */\n      0x00\n        /* \"@openzeppelin/contracts/token/ERC20/ERC20.sol\":7688:7704  to != address(0) */\n      0xffffffffffffffffffffffffffffffffffffffff\n      and\n        /* \"@openzeppelin/contracts/token/ERC20/ERC20.sol\":7688:7690  to */\n      dup3\n        /* \"@openzeppelin/contracts/token/ERC20/ERC20.sol\":7688:7704  to != address(0) */\n      0xffffffffffffffffffffffffffffffffffffffff\n      and\n      eq\n      iszero\n        /* \"@openzeppelin/contracts/token/ERC20/ERC20.sol\":7680:7744  require(to != address(0), \"ERC20: transfer to the zero address\") */\n      tag_202\n      jumpi\n      mload(0x40)\n      0x08c379a000000000000000000000000000000000000000000000000000000000\n      dup2\n      mstore\n      0x04\n      add\n      tag_203\n      swap1\n      tag_204\n      jump\t// in\n    tag_203:\n      mload(0x40)\n      dup1\n      swap2\n      sub\n      swap1\n      revert\n    tag_202:\n        /* \"@openzeppelin/contracts/token/ERC20/ERC20.sol\":7755:7793  _beforeTokenTransfer(from, to, amount) */\n      tag_205\n        /* \"@openzeppelin/contracts/token/ERC20/ERC20.sol\":7776:7780  from */\n      dup4\n        /* \"@openzeppelin/contracts/token/ERC20/ERC20.sol\":7782:7784  to */\n      dup4\n        /* \"@openzeppelin/contracts/token/ERC20/ERC20.sol\":7786:7792  amount */\n      dup4\n        /* \"@openzeppelin/contracts/token/ERC20/ERC20.sol\":7755:7775  _beforeTokenTransfer */\n      tag_206\n        /* \"@openzeppelin/contracts/token/ERC20/ERC20.sol\":7755:7793  _beforeTokenTransfer(from, to, amount) */\n      jump\t// in\n    tag_205:\n        /* \"@openzeppelin/contracts/token/ERC20/ERC20.sol\":7804:7823  uint256 fromBalance */\n      0x00\n        /* \"@openzeppelin/contracts/token/ERC20/ERC20.sol\":7826:7835  _balances */\n      dup1\n        /* \"@openzeppelin/contracts/token/ERC20/ERC20.sol\":7826:7841  _balances[from] */\n      0x00\n        /* \"@openzeppelin/contracts/token/ERC20/ERC20.sol\":7836:7840  from */\n      dup6\n        /* \"@openzeppelin/contracts/token/ERC20/ERC20.sol\":7826:7841  _balances[from] */\n      0xffffffffffffffffffffffffffffffffffffffff\n      and\n      0xffffffffffffffffffffffffffffffffffffffff\n      and\n      dup2\n      mstore\n      0x20\n      add\n      swap1\n      dup2\n      mstore\n      0x20\n      add\n      0x00\n      keccak256\n      sload\n        /* \"@openzeppelin/contracts/token/ERC20/ERC20.sol\":7804:7841  uint256 fromBalance = _balances[from] */\n      swap1\n      pop\n        /* \"@openzeppelin/contracts/token/ERC20/ERC20.sol\":7874:7880  amount */\n      dup2\n        /* \"@openzeppelin/contracts/token/ERC20/ERC20.sol\":7859:7870  fromBalance */\n      dup2\n        /* \"@openzeppelin/contracts/token/ERC20/ERC20.sol\":7859:7880  fromBalance >= amount */\n      lt\n      iszero\n        /* \"@openzeppelin/contracts/token/ERC20/ERC20.sol\":7851:7923  require(fromBalance >= amount, \"ERC20: transfer amount exceeds balance\") */\n      tag_207\n      jumpi\n      mload(0x40)\n      0x08c379a000000000000000000000000000000000000000000000000000000000\n      dup2\n      mstore\n      0x04\n      add\n      tag_208\n      swap1\n      tag_209\n      jump\t// in\n    tag_208:\n      mload(0x40)\n      dup1\n      swap2\n      sub\n      swap1\n      revert\n    tag_207:\n        /* \"@openzeppelin/contracts/token/ERC20/ERC20.sol\":7989:7995  amount */\n      dup2\n        /* \"@openzeppelin/contracts/token/ERC20/ERC20.sol\":7975:7986  fromBalance */\n      dup2\n        /* \"@openzeppelin/contracts/token/ERC20/ERC20.sol\":7975:7995  fromBalance - amount */\n      sub\n        /* \"@openzeppelin/contracts/token/ERC20/ERC20.sol\":7957:7966  _balances */\n      0x00\n        /* \"@openzeppelin/contracts/token/ERC20/ERC20.sol\":7957:7972  _balances[from] */\n      dup1\n        /* \"@openzeppelin/contracts/token/ERC20/ERC20.sol\":7967:7971  from */\n      dup7\n        /* \"@openzeppelin/contracts/token/ERC20/ERC20.sol\":7957:7972  _balances[from] */\n      0xffffffffffffffffffffffffffffffffffffffff\n      and\n      0xffffffffffffffffffffffffffffffffffffffff\n      and\n      dup2\n      mstore\n      0x20\n      add\n      swap1\n      dup2\n      mstore\n      0x20\n      add\n      0x00\n      keccak256\n        /* \"@openzeppelin/contracts/token/ERC20/ERC20.sol\":7957:7995  _balances[from] = fromBalance - amount */\n      dup2\n      swap1\n      sstore\n      pop\n        /* \"@openzeppelin/contracts/token/ERC20/ERC20.sol\":8032:8038  amount */\n      dup2\n        /* \"@openzeppelin/contracts/token/ERC20/ERC20.sol\":8015:8024  _balances */\n      0x00\n        /* \"@openzeppelin/contracts/token/ERC20/ERC20.sol\":8015:8028  _balances[to] */\n      dup1\n        /* \"@openzeppelin/contracts/token/ERC20/ERC20.sol\":8025:8027  to */\n      dup6\n        /* \"@openzeppelin/contracts/token/ERC20/ERC20.sol\":8015:8028  _balances[to] */\n      0xffffffffffffffffffffffffffffffffffffffff\n      and\n      0xffffffffffffffffffffffffffffffffffffffff\n      and\n      dup2\n      mstore\n      0x20\n      add\n      swap1\n      dup2\n      mstore\n      0x20\n      add\n      0x00\n      keccak256\n      0x00\n        /* \"@openzeppelin/contracts/token/ERC20/ERC20.sol\":8015:8038  _balances[to] += amount */\n      dup3\n      dup3\n      sload\n      tag_210\n      swap2\n      swap1\n      tag_135\n      jump\t// in\n    tag_210:\n      swap3\n      pop\n      pop\n      dup2\n      swap1\n      sstore\n      pop\n        /* \"@openzeppelin/contracts/token/ERC20/ERC20.sol\":8069:8071  to */\n      dup3\n        /* \"@openzeppelin/contracts/token/ERC20/ERC20.sol\":8054:8080  Transfer(from, to, amount) */\n      0xffffffffffffffffffffffffffffffffffffffff\n      and\n        /* \"@openzeppelin/contracts/token/ERC20/ERC20.sol\":8063:8067  from */\n      dup5\n        /* \"@openzeppelin/contracts/token/ERC20/ERC20.sol\":8054:8080  Transfer(from, to, amount) */\n      0xffffffffffffffffffffffffffffffffffffffff\n      and\n      0xddf252ad1be2c89b69c2b068fc378daa952ba7f163c4a11628f55a4df523b3ef\n        /* \"@openzeppelin/contracts/token/ERC20/ERC20.sol\":8073:8079  amount */\n      dup5\n        /* \"@openzeppelin/contracts/token/ERC20/ERC20.sol\":8054:8080  Transfer(from, to, amount) */\n      mload(0x40)\n      tag_211\n      swap2\n      swap1\n      tag_39\n      jump\t// in\n    tag_211:\n      mload(0x40)\n      dup1\n      swap2\n      sub\n      swap1\n      log3\n        /* \"@openzeppelin/contracts/token/ERC20/ERC20.sol\":8091:8128  _afterTokenTransfer(from, to, amount) */\n      tag_212\n        /* \"@openzeppelin/contracts/token/ERC20/ERC20.sol\":8111:8115  from */\n      dup5\n        /* \"@openzeppelin/contracts/token/ERC20/ERC20.sol\":8117:8119  to */\n      dup5\n        /* \"@openzeppelin/contracts/token/ERC20/ERC20.sol\":8121:8127  amount */\n      dup5\n        /* \"@openzeppelin/contracts/token/ERC20/ERC20.sol\":8091:8110  _afterTokenTransfer */\n      tag_213\n        /* \"@openzeppelin/contracts/token/ERC20/ERC20.sol\":8091:8128  _afterTokenTransfer(from, to, amount) */\n      jump\t// in\n    tag_212:\n        /* \"@openzeppelin/contracts/token/ERC20/ERC20.sol\":7592:8135  {... */\n      pop\n        /* \"@openzeppelin/contracts/token/ERC20/ERC20.sol\":7484:8135  function _transfer(... */\n      pop\n      pop\n      pop\n      jump\t// out\n        /* \"@openzeppelin/contracts/token/ERC20/ERC20.sol\":11795:11916  function _beforeTokenTransfer(... */\n    tag_206:\n      pop\n      pop\n      pop\n      jump\t// out\n        /* \"@openzeppelin/contracts/token/ERC20/ERC20.sol\":12504:12624  function _afterTokenTransfer(... */\n    tag_213:\n      pop\n      pop\n      pop\n      jump\t// out\n        /* \"#utility.yul\":7:146   */\n    tag_217:\n        /* \"#utility.yul\":53:58   */\n      0x00\n        /* \"#utility.yul\":91:97   */\n      dup2\n        /* \"#utility.yul\":78:98   */\n      calldataload\n        /* \"#utility.yul\":69:98   */\n      swap1\n      pop\n        /* \"#utility.yul\":107:140   */\n      tag_219\n        /* \"#utility.yul\":134:139   */\n      dup2\n        /* \"#utility.yul\":107:140   */\n      tag_220\n      jump\t// in\n    tag_219:\n        /* \"#utility.yul\":7:146   */\n      swap3\n      swap2\n      pop\n      pop\n      jump\t// out\n        /* \"#utility.yul\":152:291   */\n    tag_221:\n        /* \"#utility.yul\":198:203   */\n      0x00\n        /* \"#utility.yul\":236:242   */\n      dup2\n        /* \"#utility.yul\":223:243   */\n      calldataload\n        /* \"#utility.yul\":214:243   */\n      swap1\n      pop\n        /* \"#utility.yul\":252:285   */\n      tag_223\n        /* \"#utility.yul\":279:284   */\n      dup2\n        /* \"#utility.yul\":252:285   */\n      tag_224\n      jump\t// in\n    tag_223:\n        /* \"#utility.yul\":152:291   */\n      swap3\n      swap2\n      pop\n      pop\n      jump\t// out\n        /* \"#utility.yul\":297:626   */\n    tag_77:\n        /* \"#utility.yul\":356:362   */\n      0x00\n        /* \"#utility.yul\":405:407   */\n      0x20\n        /* \"#utility.yul\":393:402   */\n      dup3\n        /* \"#utility.yul\":384:391   */\n      dup5\n        /* \"#utility.yul\":380:403   */\n      sub\n        /* \"#utility.yul\":376:408   */\n      slt\n        /* \"#utility.yul\":373:492   */\n      iszero\n      tag_226\n      jumpi\n        /* \"#utility.yul\":411:490   */\n      tag_227\n      tag_228\n      jump\t// in\n    tag_227:\n        /* \"#utility.yul\":373:492   */\n    tag_226:\n        /* \"#utility.yul\":531:532   */\n      0x00\n        /* \"#utility.yul\":556:609   */\n      tag_229\n        /* \"#utility.yul\":601:608   */\n      dup5\n        /* \"#utility.yul\":592:598   */\n      dup3\n        /* \"#utility.yul\":581:590   */\n      dup6\n        /* \"#utility.yul\":577:599   */\n      add\n        /* \"#utility.yul\":556:609   */\n      tag_217\n      jump\t// in\n    tag_229:\n        /* \"#utility.yul\":546:609   */\n      swap2\n      pop\n        /* \"#utility.yul\":502:619   */\n      pop\n        /* \"#utility.yul\":297:626   */\n      swap3\n      swap2\n      pop\n      pop\n      jump\t// out\n        /* \"#utility.yul\":632:1106   */\n    tag_99:\n        /* \"#utility.yul\":700:706   */\n      0x00\n        /* \"#utility.yul\":708:714   */\n      dup1\n        /* \"#utility.yul\":757:759   */\n      0x40\n        /* \"#utility.yul\":745:754   */\n      dup4\n        /* \"#utility.yul\":736:743   */\n      dup6\n        /* \"#utility.yul\":732:755   */\n      sub\n        /* \"#utility.yul\":728:760   */\n      slt\n        /* \"#utility.yul\":725:844   */\n      iszero\n      tag_231\n      jumpi\n        /* \"#utility.yul\":763:842   */\n      tag_232\n      tag_228\n      jump\t// in\n    tag_232:\n        /* \"#utility.yul\":725:844   */\n    tag_231:\n        /* \"#utility.yul\":883:884   */\n      0x00\n        /* \"#utility.yul\":908:961   */\n      tag_233\n        /* \"#utility.yul\":953:960   */\n      dup6\n        /* \"#utility.yul\":944:950   */\n      dup3\n        /* \"#utility.yul\":933:942   */\n      dup7\n        /* \"#utility.yul\":929:951   */\n      add\n        /* \"#utility.yul\":908:961   */\n      tag_217\n      jump\t// in\n    tag_233:\n        /* \"#utility.yul\":898:961   */\n      swap3\n      pop\n        /* \"#utility.yul\":854:971   */\n      pop\n        /* \"#utility.yul\":1010:1012   */\n      0x20\n        /* \"#utility.yul\":1036:1089   */\n      tag_234\n        /* \"#utility.yul\":1081:1088   */\n      dup6\n        /* \"#utility.yul\":1072:1078   */\n      dup3\n        /* \"#utility.yul\":1061:1070   */\n      dup7\n        /* \"#utility.yul\":1057:1079   */\n      add\n        /* \"#utility.yul\":1036:1089   */\n      tag_217\n      jump\t// in\n    tag_234:\n        /* \"#utility.yul\":1026:1089   */\n      swap2\n      pop\n        /* \"#utility.yul\":981:1099   */\n      pop\n        /* \"#utility.yul\":632:1106   */\n      swap3\n      pop\n      swap3\n      swap1\n      pop\n      jump\t// out\n        /* \"#utility.yul\":1112:1731   */\n    tag_43:\n        /* \"#utility.yul\":1189:1195   */\n      0x00\n        /* \"#utility.yul\":1197:1203   */\n      dup1\n        /* \"#utility.yul\":1205:1211   */\n      0x00\n        /* \"#utility.yul\":1254:1256   */\n      0x60\n        /* \"#utility.yul\":1242:1251   */\n      dup5\n        /* \"#utility.yul\":1233:1240   */\n      dup7\n        /* \"#utility.yul\":1229:1252   */\n      sub\n        /* \"#utility.yul\":1225:1257   */\n      slt\n        /* \"#utility.yul\":1222:1341   */\n      iszero\n      tag_236\n      jumpi\n        /* \"#utility.yul\":1260:1339   */\n      tag_237\n      tag_228\n      jump\t// in\n    tag_237:\n        /* \"#utility.yul\":1222:1341   */\n    tag_236:\n        /* \"#utility.yul\":1380:1381   */\n      0x00\n        /* \"#utility.yul\":1405:1458   */\n      tag_238\n        /* \"#utility.yul\":1450:1457   */\n      dup7\n        /* \"#utility.yul\":1441:1447   */\n      dup3\n        /* \"#utility.yul\":1430:1439   */\n      dup8\n        /* \"#utility.yul\":1426:1448   */\n      add\n        /* \"#utility.yul\":1405:1458   */\n      tag_217\n      jump\t// in\n    tag_238:\n        /* \"#utility.yul\":1395:1458   */\n      swap4\n      pop\n        /* \"#utility.yul\":1351:1468   */\n      pop\n        /* \"#utility.yul\":1507:1509   */\n      0x20\n        /* \"#utility.yul\":1533:1586   */\n      tag_239\n        /* \"#utility.yul\":1578:1585   */\n      dup7\n        /* \"#utility.yul\":1569:1575   */\n      dup3\n        /* \"#utility.yul\":1558:1567   */\n      dup8\n        /* \"#utility.yul\":1554:1576   */\n      add\n        /* \"#utility.yul\":1533:1586   */\n      tag_217\n      jump\t// in\n    tag_239:\n        /* \"#utility.yul\":1523:1586   */\n      swap3\n      pop\n        /* \"#utility.yul\":1478:1596   */\n      pop\n        /* \"#utility.yul\":1635:1637   */\n      0x40\n        /* \"#utility.yul\":1661:1714   */\n      tag_240\n        /* \"#utility.yul\":1706:1713   */\n      dup7\n        /* \"#utility.yul\":1697:1703   */\n      dup3\n        /* \"#utility.yul\":1686:1695   */\n      dup8\n        /* \"#utility.yul\":1682:1704   */\n      add\n        /* \"#utility.yul\":1661:1714   */\n      tag_221\n      jump\t// in\n    tag_240:\n        /* \"#utility.yul\":1651:1714   */\n      swap2\n      pop\n        /* \"#utility.yul\":1606:1724   */\n      pop\n        /* \"#utility.yul\":1112:1731   */\n      swap3\n      pop\n      swap3\n      pop\n      swap3\n      jump\t// out\n        /* \"#utility.yul\":1737:2211   */\n    tag_31:\n        /* \"#utility.yul\":1805:1811   */\n      0x00\n        /* \"#utility.yul\":1813:1819   */\n      dup1\n        /* \"#utility.yul\":1862:1864   */\n      0x40\n        /* \"#utility.yul\":1850:1859   */\n      dup4\n        /* \"#utility.yul\":1841:1848   */\n      dup6\n        /* \"#utility.yul\":1837:1860   */\n      sub\n        /* \"#utility.yul\":1833:1865   */\n      slt\n        /* \"#utility.yul\":1830:1949   */\n      iszero\n      tag_242\n      jumpi\n        /* \"#utility.yul\":1868:1947   */\n      tag_243\n      tag_228\n      jump\t// in\n    tag_243:\n        /* \"#utility.yul\":1830:1949   */\n    tag_242:\n        /* \"#utility.yul\":1988:1989   */\n      0x00\n        /* \"#utility.yul\":2013:2066   */\n      tag_244\n        /* \"#utility.yul\":2058:2065   */\n      dup6\n        /* \"#utility.yul\":2049:2055   */\n      dup3\n        /* \"#utility.yul\":2038:2047   */\n      dup7\n        /* \"#utility.yul\":2034:2056   */\n      add\n        /* \"#utility.yul\":2013:2066   */\n      tag_217\n      jump\t// in\n    tag_244:\n        /* \"#utility.yul\":2003:2066   */\n      swap3\n      pop\n        /* \"#utility.yul\":1959:2076   */\n      pop\n        /* \"#utility.yul\":2115:2117   */\n      0x20\n        /* \"#utility.yul\":2141:2194   */\n      tag_245\n        /* \"#utility.yul\":2186:2193   */\n      dup6\n        /* \"#utility.yul\":2177:2183   */\n      dup3\n        /* \"#utility.yul\":2166:2175   */\n      dup7\n        /* \"#utility.yul\":2162:2184   */\n      add\n        /* \"#utility.yul\":2141:2194   */\n      tag_221\n      jump\t// in\n    tag_245:\n        /* \"#utility.yul\":2131:2194   */\n      swap2\n      pop\n        /* \"#utility.yul\":2086:2204   */\n      pop\n        /* \"#utility.yul\":1737:2211   */\n      swap3\n      pop\n      swap3\n      swap1\n      pop\n      jump\t// out\n        /* \"#utility.yul\":2217:2546   */\n    tag_104:\n        /* \"#utility.yul\":2276:2282   */\n      0x00\n        /* \"#utility.yul\":2325:2327   */\n      0x20\n        /* \"#utility.yul\":2313:2322   */\n      dup3\n        /* \"#utility.yul\":2304:2311   */\n      dup5\n        /* \"#utility.yul\":2300:2323   */\n      sub\n        /* \"#utility.yul\":2296:2328   */\n      slt\n        /* \"#utility.yul\":2293:2412   */\n      iszero\n      tag_247\n      jumpi\n        /* \"#utility.yul\":2331:2410   */\n      tag_248\n      tag_228\n      jump\t// in\n    tag_248:\n        /* \"#utility.yul\":2293:2412   */\n    tag_247:\n        /* \"#utility.yul\":2451:2452   */\n      0x00\n        /* \"#utility.yul\":2476:2529   */\n      tag_249\n        /* \"#utility.yul\":2521:2528   */\n      dup5\n        /* \"#utility.yul\":2512:2518   */\n      dup3\n        /* \"#utility.yul\":2501:2510   */\n      dup6\n        /* \"#utility.yul\":2497:2519   */\n      add\n        /* \"#utility.yul\":2476:2529   */\n      tag_221\n      jump\t// in\n    tag_249:\n        /* \"#utility.yul\":2466:2529   */\n      swap2\n      pop\n        /* \"#utility.yul\":2422:2539   */\n      pop\n        /* \"#utility.yul\":2217:2546   */\n      swap3\n      swap2\n      pop\n      pop\n      jump\t// out\n        /* \"#utility.yul\":2552:2670   */\n    tag_250:\n        /* \"#utility.yul\":2639:2663   */\n      tag_252\n        /* \"#utility.yul\":2657:2662   */\n      dup2\n        /* \"#utility.yul\":2639:2663   */\n      tag_253\n      jump\t// in\n    tag_252:\n        /* \"#utility.yul\":2634:2637   */\n      dup3\n        /* \"#utility.yul\":2627:2664   */\n      mstore\n        /* \"#utility.yul\":2552:2670   */\n      pop\n      pop\n      jump\t// out\n        /* \"#utility.yul\":2676:2785   */\n    tag_254:\n        /* \"#utility.yul\":2757:2778   */\n      tag_256\n        /* \"#utility.yul\":2772:2777   */\n      dup2\n        /* \"#utility.yul\":2757:2778   */\n      tag_257\n      jump\t// in\n    tag_256:\n        /* \"#utility.yul\":2752:2755   */\n      dup3\n        /* \"#utility.yul\":2745:2779   */\n      mstore\n        /* \"#utility.yul\":2676:2785   */\n      pop\n      pop\n      jump\t// out\n        /* \"#utility.yul\":2791:3155   */\n    tag_258:\n        /* \"#utility.yul\":2879:2882   */\n      0x00\n        /* \"#utility.yul\":2907:2946   */\n      tag_260\n        /* \"#utility.yul\":2940:2945   */\n      dup3\n        /* \"#utility.yul\":2907:2946   */\n      tag_261\n      jump\t// in\n    tag_260:\n        /* \"#utility.yul\":2962:3033   */\n      tag_262\n        /* \"#utility.yul\":3026:3032   */\n      dup2\n        /* \"#utility.yul\":3021:3024   */\n      dup6\n        /* \"#utility.yul\":2962:3033   */\n      tag_263\n      jump\t// in\n    tag_262:\n        /* \"#utility.yul\":2955:3033   */\n      swap4\n      pop\n        /* \"#utility.yul\":3042:3094   */\n      tag_264\n        /* \"#utility.yul\":3087:3093   */\n      dup2\n        /* \"#utility.yul\":3082:3085   */\n      dup6\n        /* \"#utility.yul\":3075:3079   */\n      0x20\n        /* \"#utility.yul\":3068:3073   */\n      dup7\n        /* \"#utility.yul\":3064:3080   */\n      add\n        /* \"#utility.yul\":3042:3094   */\n      tag_265\n      jump\t// in\n    tag_264:\n        /* \"#utility.yul\":3119:3148   */\n      tag_266\n        /* \"#utility.yul\":3141:3147   */\n      dup2\n        /* \"#utility.yul\":3119:3148   */\n      tag_267\n      jump\t// in\n    tag_266:\n        /* \"#utility.yul\":3114:3117   */\n      dup5\n        /* \"#utility.yul\":3110:3149   */\n      add\n        /* \"#utility.yul\":3103:3149   */\n      swap2\n      pop\n        /* \"#utility.yul\":2883:3155   */\n      pop\n        /* \"#utility.yul\":2791:3155   */\n      swap3\n      swap2\n      pop\n      pop\n      jump\t// out\n        /* \"#utility.yul\":3161:3527   */\n    tag_268:\n        /* \"#utility.yul\":3303:3306   */\n      0x00\n        /* \"#utility.yul\":3324:3391   */\n      tag_270\n        /* \"#utility.yul\":3388:3390   */\n      0x23\n        /* \"#utility.yul\":3383:3386   */\n      dup4\n        /* \"#utility.yul\":3324:3391   */\n      tag_263\n      jump\t// in\n    tag_270:\n        /* \"#utility.yul\":3317:3391   */\n      swap2\n      pop\n        /* \"#utility.yul\":3400:3493   */\n      tag_271\n        /* \"#utility.yul\":3489:3492   */\n      dup3\n        /* \"#utility.yul\":3400:3493   */\n      tag_272\n      jump\t// in\n    tag_271:\n        /* \"#utility.yul\":3518:3520   */\n      0x40\n        /* \"#utility.yul\":3513:3516   */\n      dup3\n        /* \"#utility.yul\":3509:3521   */\n      add\n        /* \"#utility.yul\":3502:3521   */\n      swap1\n      pop\n        /* \"#utility.yul\":3161:3527   */\n      swap2\n      swap1\n      pop\n      jump\t// out\n        /* \"#utility.yul\":3533:3899   */\n    tag_273:\n        /* \"#utility.yul\":3675:3678   */\n      0x00\n        /* \"#utility.yul\":3696:3763   */\n      tag_275\n        /* \"#utility.yul\":3760:3762   */\n      0x22\n        /* \"#utility.yul\":3755:3758   */\n      dup4\n        /* \"#utility.yul\":3696:3763   */\n      tag_263\n      jump\t// in\n    tag_275:\n        /* \"#utility.yul\":3689:3763   */\n      swap2\n      pop\n        /* \"#utility.yul\":3772:3865   */\n      tag_276\n        /* \"#utility.yul\":3861:3864   */\n      dup3\n        /* \"#utility.yul\":3772:3865   */\n      tag_277\n      jump\t// in\n    tag_276:\n        /* \"#utility.yul\":3890:3892   */\n      0x40\n        /* \"#utility.yul\":3885:3888   */\n      dup3\n        /* \"#utility.yul\":3881:3893   */\n      add\n        /* \"#utility.yul\":3874:3893   */\n      swap1\n      pop\n        /* \"#utility.yul\":3533:3899   */\n      swap2\n      swap1\n      pop\n      jump\t// out\n        /* \"#utility.yul\":3905:4271   */\n    tag_278:\n        /* \"#utility.yul\":4047:4050   */\n      0x00\n        /* \"#utility.yul\":4068:4135   */\n      tag_280\n        /* \"#utility.yul\":4132:4134   */\n      0x1d\n        /* \"#utility.yul\":4127:4130   */\n      dup4\n        /* \"#utility.yul\":4068:4135   */\n      tag_263\n      jump\t// in\n    tag_280:\n        /* \"#utility.yul\":4061:4135   */\n      swap2\n      pop\n        /* \"#utility.yul\":4144:4237   */\n      tag_281\n        /* \"#utility.yul\":4233:4236   */\n      dup3\n        /* \"#utility.yul\":4144:4237   */\n      tag_282\n      jump\t// in\n    tag_281:\n        /* \"#utility.yul\":4262:4264   */\n      0x20\n        /* \"#utility.yul\":4257:4260   */\n      dup3\n        /* \"#utility.yul\":4253:4265   */\n      add\n        /* \"#utility.yul\":4246:4265   */\n      swap1\n      pop\n        /* \"#utility.yul\":3905:4271   */\n      swap2\n      swap1\n      pop\n      jump\t// out\n        /* \"#utility.yul\":4277:4643   */\n    tag_283:\n        /* \"#utility.yul\":4419:4422   */\n      0x00\n        /* \"#utility.yul\":4440:4507   */\n      tag_285\n        /* \"#utility.yul\":4504:4506   */\n      0x26\n        /* \"#utility.yul\":4499:4502   */\n      dup4\n        /* \"#utility.yul\":4440:4507   */\n      tag_263\n      jump\t// in\n    tag_285:\n        /* \"#utility.yul\":4433:4507   */\n      swap2\n      pop\n        /* \"#utility.yul\":4516:4609   */\n      tag_286\n        /* \"#utility.yul\":4605:4608   */\n      dup3\n        /* \"#utility.yul\":4516:4609   */\n      tag_287\n      jump\t// in\n    tag_286:\n        /* \"#utility.yul\":4634:4636   */\n      0x40\n        /* \"#utility.yul\":4629:4632   */\n      dup3\n        /* \"#utility.yul\":4625:4637   */\n      add\n        /* \"#utility.yul\":4618:4637   */\n      swap1\n      pop\n        /* \"#utility.yul\":4277:4643   */\n      swap2\n      swap1\n      pop\n      jump\t// out\n        /* \"#utility.yul\":4649:5015   */\n    tag_288:\n        /* \"#utility.yul\":4791:4794   */\n      0x00\n        /* \"#utility.yul\":4812:4879   */\n      tag_290\n        /* \"#utility.yul\":4876:4878   */\n      0x25\n        /* \"#utility.yul\":4871:4874   */\n      dup4\n        /* \"#utility.yul\":4812:4879   */\n      tag_263\n      jump\t// in\n    tag_290:\n        /* \"#utility.yul\":4805:4879   */\n      swap2\n      pop\n        /* \"#utility.yul\":4888:4981   */\n      tag_291\n        /* \"#utility.yul\":4977:4980   */\n      dup3\n        /* \"#utility.yul\":4888:4981   */\n      tag_292\n      jump\t// in\n    tag_291:\n        /* \"#utility.yul\":5006:5008   */\n      0x40\n        /* \"#utility.yul\":5001:5004   */\n      dup3\n        /* \"#utility.yul\":4997:5009   */\n      add\n        /* \"#utility.yul\":4990:5009   */\n      swap1\n      pop\n        /* \"#utility.yul\":4649:5015   */\n      swap2\n      swap1\n      pop\n      jump\t// out\n        /* \"#utility.yul\":5021:5387   */\n    tag_293:\n        /* \"#utility.yul\":5163:5166   */\n      0x00\n        /* \"#utility.yul\":5184:5251   */\n      tag_295\n        /* \"#utility.yul\":5248:5250   */\n      0x19\n        /* \"#utility.yul\":5243:5246   */\n      dup4\n        /* \"#utility.yul\":5184:5251   */\n      tag_263\n      jump\t// in\n    tag_295:\n        /* \"#utility.yul\":5177:5251   */\n      swap2\n      pop\n        /* \"#utility.yul\":5260:5353   */\n      tag_296\n        /* \"#utility.yul\":5349:5352   */\n      dup3\n        /* \"#utility.yul\":5260:5353   */\n      tag_297\n      jump\t// in\n    tag_296:\n        /* \"#utility.yul\":5378:5380   */\n      0x20\n        /* \"#utility.yul\":5373:5376   */\n      dup3\n        /* \"#utility.yul\":5369:5381   */\n      add\n        /* \"#utility.yul\":5362:5381   */\n      swap1\n      pop\n        /* \"#utility.yul\":5021:5387   */\n      swap2\n      swap1\n      pop\n      jump\t// out\n        /* \"#utility.yul\":5393:5759   */\n    tag_298:\n        /* \"#utility.yul\":5535:5538   */\n      0x00\n        /* \"#utility.yul\":5556:5623   */\n      tag_300\n        /* \"#utility.yul\":5620:5622   */\n      0x25\n        /* \"#utility.yul\":5615:5618   */\n      dup4\n        /* \"#utility.yul\":5556:5623   */\n      tag_263\n      jump\t// in\n    tag_300:\n        /* \"#utility.yul\":5549:5623   */\n      swap2\n      pop\n        /* \"#utility.yul\":5632:5725   */\n      tag_301\n        /* \"#utility.yul\":5721:5724   */\n      dup3\n        /* \"#utility.yul\":5632:5725   */\n      tag_302\n      jump\t// in\n    tag_301:\n        /* \"#utility.yul\":5750:5752   */\n      0x40\n        /* \"#utility.yul\":5745:5748   */\n      dup3\n        /* \"#utility.yul\":5741:5753   */\n      add\n        /* \"#utility.yul\":5734:5753   */\n      swap1\n      pop\n        /* \"#utility.yul\":5393:5759   */\n      swap2\n      swap1\n      pop\n      jump\t// out\n        /* \"#utility.yul\":5765:6131   */\n    tag_303:\n        /* \"#utility.yul\":5907:5910   */\n      0x00\n        /* \"#utility.yul\":5928:5995   */\n      tag_305\n        /* \"#utility.yul\":5992:5994   */\n      0x24\n        /* \"#utility.yul\":5987:5990   */\n      dup4\n        /* \"#utility.yul\":5928:5995   */\n      tag_263\n      jump\t// in\n    tag_305:\n        /* \"#utility.yul\":5921:5995   */\n      swap2\n      pop\n        /* \"#utility.yul\":6004:6097   */\n      tag_306\n        /* \"#utility.yul\":6093:6096   */\n      dup3\n        /* \"#utility.yul\":6004:6097   */\n      tag_307\n      jump\t// in\n    tag_306:\n        /* \"#utility.yul\":6122:6124   */\n      0x40\n        /* \"#utility.yul\":6117:6120   */\n      dup3\n        /* \"#utility.yul\":6113:6125   */\n      add\n        /* \"#utility.yul\":6106:6125   */\n      swap1\n      pop\n        /* \"#utility.yul\":5765:6131   */\n      swap2\n      swap1\n      pop\n      jump\t// out\n        /* \"#utility.yul\":6137:6503   */\n    tag_308:\n        /* \"#utility.yul\":6279:6282   */\n      0x00\n        /* \"#utility.yul\":6300:6367   */\n      tag_310\n        /* \"#utility.yul\":6364:6366   */\n      0x20\n        /* \"#utility.yul\":6359:6362   */\n      dup4\n        /* \"#utility.yul\":6300:6367   */\n      tag_263\n      jump\t// in\n    tag_310:\n        /* \"#utility.yul\":6293:6367   */\n      swap2\n      pop\n        /* \"#utility.yul\":6376:6469   */\n      tag_311\n        /* \"#utility.yul\":6465:6468   */\n      dup3\n        /* \"#utility.yul\":6376:6469   */\n      tag_312\n      jump\t// in\n    tag_311:\n        /* \"#utility.yul\":6494:6496   */\n      0x20\n        /* \"#utility.yul\":6489:6492   */\n      dup3\n        /* \"#utility.yul\":6485:6497   */\n      add\n        /* \"#utility.yul\":6478:6497   */\n      swap1\n      pop\n        /* \"#utility.yul\":6137:6503   */\n      swap2\n      swap1\n      pop\n      jump\t// out\n        /* \"#utility.yul\":6509:6875   */\n    tag_313:\n        /* \"#utility.yul\":6651:6654   */\n      0x00\n        /* \"#utility.yul\":6672:6739   */\n      tag_315\n        /* \"#utility.yul\":6736:6738   */\n      0x1b\n        /* \"#utility.yul\":6731:6734   */\n      dup4\n        /* \"#utility.yul\":6672:6739   */\n      tag_263\n      jump\t// in\n    tag_315:\n        /* \"#utility.yul\":6665:6739   */\n      swap2\n      pop\n        /* \"#utility.yul\":6748:6841   */\n      tag_316\n        /* \"#utility.yul\":6837:6840   */\n      dup3\n        /* \"#utility.yul\":6748:6841   */\n      tag_317\n      jump\t// in\n    tag_316:\n        /* \"#utility.yul\":6866:6868   */\n      0x20\n        /* \"#utility.yul\":6861:6864   */\n      dup3\n        /* \"#utility.yul\":6857:6869   */\n      add\n        /* \"#utility.yul\":6850:6869   */\n      swap1\n      pop\n        /* \"#utility.yul\":6509:6875   */\n      swap2\n      swap1\n      pop\n      jump\t// out\n        /* \"#utility.yul\":6881:7247   */\n    tag_318:\n        /* \"#utility.yul\":7023:7026   */\n      0x00\n        /* \"#utility.yul\":7044:7111   */\n      tag_320\n        /* \"#utility.yul\":7108:7110   */\n      0x25\n        /* \"#utility.yul\":7103:7106   */\n      dup4\n        /* \"#utility.yul\":7044:7111   */\n      tag_263\n      jump\t// in\n    tag_320:\n        /* \"#utility.yul\":7037:7111   */\n      swap2\n      pop\n        /* \"#utility.yul\":7120:7213   */\n      tag_321\n        /* \"#utility.yul\":7209:7212   */\n      dup3\n        /* \"#utility.yul\":7120:7213   */\n      tag_322\n      jump\t// in\n    tag_321:\n        /* \"#utility.yul\":7238:7240   */\n      0x40\n        /* \"#utility.yul\":7233:7236   */\n      dup3\n        /* \"#utility.yul\":7229:7241   */\n      add\n        /* \"#utility.yul\":7222:7241   */\n      swap1\n      pop\n        /* \"#utility.yul\":6881:7247   */\n      swap2\n      swap1\n      pop\n      jump\t// out\n        /* \"#utility.yul\":7253:7371   */\n    tag_323:\n        /* \"#utility.yul\":7340:7364   */\n      tag_325\n        /* \"#utility.yul\":7358:7363   */\n      dup2\n        /* \"#utility.yul\":7340:7364   */\n      tag_326\n      jump\t// in\n    tag_325:\n        /* \"#utility.yul\":7335:7338   */\n      dup3\n        /* \"#utility.yul\":7328:7365   */\n      mstore\n        /* \"#utility.yul\":7253:7371   */\n      pop\n      pop\n      jump\t// out\n        /* \"#utility.yul\":7377:7489   */\n    tag_327:\n        /* \"#utility.yul\":7460:7482   */\n      tag_329\n        /* \"#utility.yul\":7476:7481   */\n      dup2\n        /* \"#utility.yul\":7460:7482   */\n      tag_330\n      jump\t// in\n    tag_329:\n        /* \"#utility.yul\":7455:7458   */\n      dup3\n        /* \"#utility.yul\":7448:7483   */\n      mstore\n        /* \"#utility.yul\":7377:7489   */\n      pop\n      pop\n      jump\t// out\n        /* \"#utility.yul\":7495:7717   */\n    tag_68:\n        /* \"#utility.yul\":7588:7592   */\n      0x00\n        /* \"#utility.yul\":7626:7628   */\n      0x20\n        /* \"#utility.yul\":7615:7624   */\n      dup3\n        /* \"#utility.yul\":7611:7629   */\n      add\n        /* \"#utility.yul\":7603:7629   */\n      swap1\n      pop\n        /* \"#utility.yul\":7639:7710   */\n      tag_332\n        /* \"#utility.yul\":7707:7708   */\n      0x00\n        /* \"#utility.yul\":7696:7705   */\n      dup4\n        /* \"#utility.yul\":7692:7709   */\n      add\n        /* \"#utility.yul\":7683:7689   */\n      dup5\n        /* \"#utility.yul\":7639:7710   */\n      tag_250\n      jump\t// in\n    tag_332:\n        /* \"#utility.yul\":7495:7717   */\n      swap3\n      swap2\n      pop\n      pop\n      jump\t// out\n        /* \"#utility.yul\":7723:7933   */\n    tag_34:\n        /* \"#utility.yul\":7810:7814   */\n      0x00\n        /* \"#utility.yul\":7848:7850   */\n      0x20\n        /* \"#utility.yul\":7837:7846   */\n      dup3\n        /* \"#utility.yul\":7833:7851   */\n      add\n        /* \"#utility.yul\":7825:7851   */\n      swap1\n      pop\n        /* \"#utility.yul\":7861:7926   */\n      tag_334\n        /* \"#utility.yul\":7923:7924   */\n      0x00\n        /* \"#utility.yul\":7912:7921   */\n      dup4\n        /* \"#utility.yul\":7908:7925   */\n      add\n        /* \"#utility.yul\":7899:7905   */\n      dup5\n        /* \"#utility.yul\":7861:7926   */\n      tag_254\n      jump\t// in\n    tag_334:\n        /* \"#utility.yul\":7723:7933   */\n      swap3\n      swap2\n      pop\n      pop\n      jump\t// out\n        /* \"#utility.yul\":7939:8252   */\n    tag_27:\n        /* \"#utility.yul\":8052:8056   */\n      0x00\n        /* \"#utility.yul\":8090:8092   */\n      0x20\n        /* \"#utility.yul\":8079:8088   */\n      dup3\n        /* \"#utility.yul\":8075:8093   */\n      add\n        /* \"#utility.yul\":8067:8093   */\n      swap1\n      pop\n        /* \"#utility.yul\":8139:8148   */\n      dup2\n        /* \"#utility.yul\":8133:8137   */\n      dup2\n        /* \"#utility.yul\":8129:8149   */\n      sub\n        /* \"#utility.yul\":8125:8126   */\n      0x00\n        /* \"#utility.yul\":8114:8123   */\n      dup4\n        /* \"#utility.yul\":8110:8127   */\n      add\n        /* \"#utility.yul\":8103:8150   */\n      mstore\n        /* \"#utility.yul\":8167:8245   */\n      tag_336\n        /* \"#utility.yul\":8240:8244   */\n      dup2\n        /* \"#utility.yul\":8231:8237   */\n      dup5\n        /* \"#utility.yul\":8167:8245   */\n      tag_258\n      jump\t// in\n    tag_336:\n        /* \"#utility.yul\":8159:8245   */\n      swap1\n      pop\n        /* \"#utility.yul\":7939:8252   */\n      swap3\n      swap2\n      pop\n      pop\n      jump\t// out\n        /* \"#utility.yul\":8258:8677   */\n    tag_204:\n        /* \"#utility.yul\":8424:8428   */\n      0x00\n        /* \"#utility.yul\":8462:8464   */\n      0x20\n        /* \"#utility.yul\":8451:8460   */\n      dup3\n        /* \"#utility.yul\":8447:8465   */\n      add\n        /* \"#utility.yul\":8439:8465   */\n      swap1\n      pop\n        /* \"#utility.yul\":8511:8520   */\n      dup2\n        /* \"#utility.yul\":8505:8509   */\n      dup2\n        /* \"#utility.yul\":8501:8521   */\n      sub\n        /* \"#utility.yul\":8497:8498   */\n      0x00\n        /* \"#utility.yul\":8486:8495   */\n      dup4\n        /* \"#utility.yul\":8482:8499   */\n      add\n        /* \"#utility.yul\":8475:8522   */\n      mstore\n        /* \"#utility.yul\":8539:8670   */\n      tag_338\n        /* \"#utility.yul\":8665:8669   */\n      dup2\n        /* \"#utility.yul\":8539:8670   */\n      tag_268\n      jump\t// in\n    tag_338:\n        /* \"#utility.yul\":8531:8670   */\n      swap1\n      pop\n        /* \"#utility.yul\":8258:8677   */\n      swap2\n      swap1\n      pop\n      jump\t// out\n        /* \"#utility.yul\":8683:9102   */\n    tag_189:\n        /* \"#utility.yul\":8849:8853   */\n      0x00\n        /* \"#utility.yul\":8887:8889   */\n      0x20\n        /* \"#utility.yul\":8876:8885   */\n      dup3\n        /* \"#utility.yul\":8872:8890   */\n      add\n        /* \"#utility.yul\":8864:8890   */\n      swap1\n      pop\n        /* \"#utility.yul\":8936:8945   */\n      dup2\n        /* \"#utility.yul\":8930:8934   */\n      dup2\n        /* \"#utility.yul\":8926:8946   */\n      sub\n        /* \"#utility.yul\":8922:8923   */\n      0x00\n        /* \"#utility.yul\":8911:8920   */\n      dup4\n        /* \"#utility.yul\":8907:8924   */\n      add\n        /* \"#utility.yul\":8900:8947   */\n      mstore\n        /* \"#utility.yul\":8964:9095   */\n      tag_340\n        /* \"#utility.yul\":9090:9094   */\n      dup2\n        /* \"#utility.yul\":8964:9095   */\n      tag_273\n      jump\t// in\n    tag_340:\n        /* \"#utility.yul\":8956:9095   */\n      swap1\n      pop\n        /* \"#utility.yul\":8683:9102   */\n      swap2\n      swap1\n      pop\n      jump\t// out\n        /* \"#utility.yul\":9108:9527   */\n    tag_196:\n        /* \"#utility.yul\":9274:9278   */\n      0x00\n        /* \"#utility.yul\":9312:9314   */\n      0x20\n        /* \"#utility.yul\":9301:9310   */\n      dup3\n        /* \"#utility.yul\":9297:9315   */\n      add\n        /* \"#utility.yul\":9289:9315   */\n      swap1\n      pop\n        /* \"#utility.yul\":9361:9370   */\n      dup2\n        /* \"#utility.yul\":9355:9359   */\n      dup2\n        /* \"#utility.yul\":9351:9371   */\n      sub\n        /* \"#utility.yul\":9347:9348   */\n      0x00\n        /* \"#utility.yul\":9336:9345   */\n      dup4\n        /* \"#utility.yul\":9332:9349   */\n      add\n        /* \"#utility.yul\":9325:9372   */\n      mstore\n        /* \"#utility.yul\":9389:9520   */\n      tag_342\n        /* \"#utility.yul\":9515:9519   */\n      dup2\n        /* \"#utility.yul\":9389:9520   */\n      tag_278\n      jump\t// in\n    tag_342:\n        /* \"#utility.yul\":9381:9520   */\n      swap1\n      pop\n        /* \"#utility.yul\":9108:9527   */\n      swap2\n      swap1\n      pop\n      jump\t// out\n        /* \"#utility.yul\":9533:9952   */\n    tag_209:\n        /* \"#utility.yul\":9699:9703   */\n      0x00\n        /* \"#utility.yul\":9737:9739   */\n      0x20\n        /* \"#utility.yul\":9726:9735   */\n      dup3\n        /* \"#utility.yul\":9722:9740   */\n      add\n        /* \"#utility.yul\":9714:9740   */\n      swap1\n      pop\n        /* \"#utility.yul\":9786:9795   */\n      dup2\n        /* \"#utility.yul\":9780:9784   */\n      dup2\n        /* \"#utility.yul\":9776:9796   */\n      sub\n        /* \"#utility.yul\":9772:9773   */\n      0x00\n        /* \"#utility.yul\":9761:9770   */\n      dup4\n        /* \"#utility.yul\":9757:9774   */\n      add\n        /* \"#utility.yul\":9750:9797   */\n      mstore\n        /* \"#utility.yul\":9814:9945   */\n      tag_344\n        /* \"#utility.yul\":9940:9944   */\n      dup2\n        /* \"#utility.yul\":9814:9945   */\n      tag_283\n      jump\t// in\n    tag_344:\n        /* \"#utility.yul\":9806:9945   */\n      swap1\n      pop\n        /* \"#utility.yul\":9533:9952   */\n      swap2\n      swap1\n      pop\n      jump\t// out\n        /* \"#utility.yul\":9958:10377   */\n    tag_172:\n        /* \"#utility.yul\":10124:10128   */\n      0x00\n        /* \"#utility.yul\":10162:10164   */\n      0x20\n        /* \"#utility.yul\":10151:10160   */\n      dup3\n        /* \"#utility.yul\":10147:10165   */\n      add\n        /* \"#utility.yul\":10139:10165   */\n      swap1\n      pop\n        /* \"#utility.yul\":10211:10220   */\n      dup2\n        /* \"#utility.yul\":10205:10209   */\n      dup2\n        /* \"#utility.yul\":10201:10221   */\n      sub\n        /* \"#utility.yul\":10197:10198   */\n      0x00\n        /* \"#utility.yul\":10186:10195   */\n      dup4\n        /* \"#utility.yul\":10182:10199   */\n      add\n        /* \"#utility.yul\":10175:10222   */\n      mstore\n        /* \"#utility.yul\":10239:10370   */\n      tag_346\n        /* \"#utility.yul\":10365:10369   */\n      dup2\n        /* \"#utility.yul\":10239:10370   */\n      tag_288\n      jump\t// in\n    tag_346:\n        /* \"#utility.yul\":10231:10370   */\n      swap1\n      pop\n        /* \"#utility.yul\":9958:10377   */\n      swap2\n      swap1\n      pop\n      jump\t// out\n        /* \"#utility.yul\":10383:10802   */\n    tag_176:\n        /* \"#utility.yul\":10549:10553   */\n      0x00\n        /* \"#utility.yul\":10587:10589   */\n      0x20\n        /* \"#utility.yul\":10576:10585   */\n      dup3\n        /* \"#utility.yul\":10572:10590   */\n      add\n        /* \"#utility.yul\":10564:10590   */\n      swap1\n      pop\n        /* \"#utility.yul\":10636:10645   */\n      dup2\n        /* \"#utility.yul\":10630:10634   */\n      dup2\n        /* \"#utility.yul\":10626:10646   */\n      sub\n        /* \"#utility.yul\":10622:10623   */\n      0x00\n        /* \"#utility.yul\":10611:10620   */\n      dup4\n        /* \"#utility.yul\":10607:10624   */\n      add\n        /* \"#utility.yul\":10600:10647   */\n      mstore\n        /* \"#utility.yul\":10664:10795   */\n      tag_348\n        /* \"#utility.yul\":10790:10794   */\n      dup2\n        /* \"#utility.yul\":10664:10795   */\n      tag_293\n      jump\t// in\n    tag_348:\n        /* \"#utility.yul\":10656:10795   */\n      swap1\n      pop\n        /* \"#utility.yul\":10383:10802   */\n      swap2\n      swap1\n      pop\n      jump\t// out\n        /* \"#utility.yul\":10808:11227   */\n    tag_201:\n        /* \"#utility.yul\":10974:10978   */\n      0x00\n        /* \"#utility.yul\":11012:11014   */\n      0x20\n        /* \"#utility.yul\":11001:11010   */\n      dup3\n        /* \"#utility.yul\":10997:11015   */\n      add\n        /* \"#utility.yul\":10989:11015   */\n      swap1\n      pop\n        /* \"#utility.yul\":11061:11070   */\n      dup2\n        /* \"#utility.yul\":11055:11059   */\n      dup2\n        /* \"#utility.yul\":11051:11071   */\n      sub\n        /* \"#utility.yul\":11047:11048   */\n      0x00\n        /* \"#utility.yul\":11036:11045   */\n      dup4\n        /* \"#utility.yul\":11032:11049   */\n      add\n        /* \"#utility.yul\":11025:11072   */\n      mstore\n        /* \"#utility.yul\":11089:11220   */\n      tag_350\n        /* \"#utility.yul\":11215:11219   */\n      dup2\n        /* \"#utility.yul\":11089:11220   */\n      tag_298\n      jump\t// in\n    tag_350:\n        /* \"#utility.yul\":11081:11220   */\n      swap1\n      pop\n        /* \"#utility.yul\":10808:11227   */\n      swap2\n      swap1\n      pop\n      jump\t// out\n        /* \"#utility.yul\":11233:11652   */\n    tag_186:\n        /* \"#utility.yul\":11399:11403   */\n      0x00\n        /* \"#utility.yul\":11437:11439   */\n      0x20\n        /* \"#utility.yul\":11426:11435   */\n      dup3\n        /* \"#utility.yul\":11422:11440   */\n      add\n        /* \"#utility.yul\":11414:11440   */\n      swap1\n      pop\n        /* \"#utility.yul\":11486:11495   */\n      dup2\n        /* \"#utility.yul\":11480:11484   */\n      dup2\n        /* \"#utility.yul\":11476:11496   */\n      sub\n        /* \"#utility.yul\":11472:11473   */\n      0x00\n        /* \"#utility.yul\":11461:11470   */\n      dup4\n        /* \"#utility.yul\":11457:11474   */\n      add\n        /* \"#utility.yul\":11450:11497   */\n      mstore\n        /* \"#utility.yul\":11514:11645   */\n      tag_352\n        /* \"#utility.yul\":11640:11644   */\n      dup2\n        /* \"#utility.yul\":11514:11645   */\n      tag_303\n      jump\t// in\n    tag_352:\n        /* \"#utility.yul\":11506:11645   */\n      swap1\n      pop\n        /* \"#utility.yul\":11233:11652   */\n      swap2\n      swap1\n      pop\n      jump\t// out\n        /* \"#utility.yul\":11658:12077   */\n    tag_153:\n        /* \"#utility.yul\":11824:11828   */\n      0x00\n        /* \"#utility.yul\":11862:11864   */\n      0x20\n        /* \"#utility.yul\":11851:11860   */\n      dup3\n        /* \"#utility.yul\":11847:11865   */\n      add\n        /* \"#utility.yul\":11839:11865   */\n      swap1\n      pop\n        /* \"#utility.yul\":11911:11920   */\n      dup2\n        /* \"#utility.yul\":11905:11909   */\n      dup2\n        /* \"#utility.yul\":11901:11921   */\n      sub\n        /* \"#utility.yul\":11897:11898   */\n      0x00\n        /* \"#utility.yul\":11886:11895   */\n      dup4\n        /* \"#utility.yul\":11882:11899   */\n      add\n        /* \"#utility.yul\":11875:11922   */\n      mstore\n        /* \"#utility.yul\":11939:12070   */\n      tag_354\n        /* \"#utility.yul\":12065:12069   */\n      dup2\n        /* \"#utility.yul\":11939:12070   */\n      tag_308\n      jump\t// in\n    tag_354:\n        /* \"#utility.yul\":11931:12070   */\n      swap1\n      pop\n        /* \"#utility.yul\":11658:12077   */\n      swap2\n      swap1\n      pop\n      jump\t// out\n        /* \"#utility.yul\":12083:12502   */\n    tag_150:\n        /* \"#utility.yul\":12249:12253   */\n      0x00\n        /* \"#utility.yul\":12287:12289   */\n      0x20\n        /* \"#utility.yul\":12276:12285   */\n      dup3\n        /* \"#utility.yul\":12272:12290   */\n      add\n        /* \"#utility.yul\":12264:12290   */\n      swap1\n      pop\n        /* \"#utility.yul\":12336:12345   */\n      dup2\n        /* \"#utility.yul\":12330:12334   */\n      dup2\n        /* \"#utility.yul\":12326:12346   */\n      sub\n        /* \"#utility.yul\":12322:12323   */\n      0x00\n        /* \"#utility.yul\":12311:12320   */\n      dup4\n        /* \"#utility.yul\":12307:12324   */\n      add\n        /* \"#utility.yul\":12300:12347   */\n      mstore\n        /* \"#utility.yul\":12364:12495   */\n      tag_356\n        /* \"#utility.yul\":12490:12494   */\n      dup2\n        /* \"#utility.yul\":12364:12495   */\n      tag_313\n      jump\t// in\n    tag_356:\n        /* \"#utility.yul\":12356:12495   */\n      swap1\n      pop\n        /* \"#utility.yul\":12083:12502   */\n      swap2\n      swap1\n      pop\n      jump\t// out\n        /* \"#utility.yul\":12508:12927   */\n    tag_163:\n        /* \"#utility.yul\":12674:12678   */\n      0x00\n        /* \"#utility.yul\":12712:12714   */\n      0x20\n        /* \"#utility.yul\":12701:12710   */\n      dup3\n        /* \"#utility.yul\":12697:12715   */\n      add\n        /* \"#utility.yul\":12689:12715   */\n      swap1\n      pop\n        /* \"#utility.yul\":12761:12770   */\n      dup2\n        /* \"#utility.yul\":12755:12759   */\n      dup2\n        /* \"#utility.yul\":12751:12771   */\n      sub\n        /* \"#utility.yul\":12747:12748   */\n      0x00\n        /* \"#utility.yul\":12736:12745   */\n      dup4\n        /* \"#utility.yul\":12732:12749   */\n      add\n        /* \"#utility.yul\":12725:12772   */\n      mstore\n        /* \"#utility.yul\":12789:12920   */\n      tag_358\n        /* \"#utility.yul\":12915:12919   */\n      dup2\n        /* \"#utility.yul\":12789:12920   */\n      tag_318\n      jump\t// in\n    tag_358:\n        /* \"#utility.yul\":12781:12920   */\n      swap1\n      pop\n        /* \"#utility.yul\":12508:12927   */\n      swap2\n      swap1\n      pop\n      jump\t// out\n        /* \"#utility.yul\":12933:13155   */\n    tag_39:\n        /* \"#utility.yul\":13026:13030   */\n      0x00\n        /* \"#utility.yul\":13064:13066   */\n      0x20\n        /* \"#utility.yul\":13053:13062   */\n      dup3\n        /* \"#utility.yul\":13049:13067   */\n      add\n        /* \"#utility.yul\":13041:13067   */\n      swap1\n      pop\n        /* \"#utility.yul\":13077:13148   */\n      tag_360\n        /* \"#utility.yul\":13145:13146   */\n      0x00\n        /* \"#utility.yul\":13134:13143   */\n      dup4\n        /* \"#utility.yul\":13130:13147   */\n      add\n        /* \"#utility.yul\":13121:13127   */\n      dup5\n        /* \"#utility.yul\":13077:13148   */\n      tag_323\n      jump\t// in\n    tag_360:\n        /* \"#utility.yul\":12933:13155   */\n      swap3\n      swap2\n      pop\n      pop\n      jump\t// out\n        /* \"#utility.yul\":13161:13375   */\n    tag_50:\n        /* \"#utility.yul\":13250:13254   */\n      0x00\n        /* \"#utility.yul\":13288:13290   */\n      0x20\n        /* \"#utility.yul\":13277:13286   */\n      dup3\n        /* \"#utility.yul\":13273:13291   */\n      add\n        /* \"#utility.yul\":13265:13291   */\n      swap1\n      pop\n        /* \"#utility.yul\":13301:13368   */\n      tag_362\n        /* \"#utility.yul\":13365:13366   */\n      0x00\n        /* \"#utility.yul\":13354:13363   */\n      dup4\n        /* \"#utility.yul\":13350:13367   */\n      add\n        /* \"#utility.yul\":13341:13347   */\n      dup5\n        /* \"#utility.yul\":13301:13368   */\n      tag_327\n      jump\t// in\n    tag_362:\n        /* \"#utility.yul\":13161:13375   */\n      swap3\n      swap2\n      pop\n      pop\n      jump\t// out\n        /* \"#utility.yul\":13462:13561   */\n    tag_261:\n        /* \"#utility.yul\":13514:13520   */\n      0x00\n        /* \"#utility.yul\":13548:13553   */\n      dup2\n        /* \"#utility.yul\":13542:13554   */\n      mload\n        /* \"#utility.yul\":13532:13554   */\n      swap1\n      pop\n        /* \"#utility.yul\":13462:13561   */\n      swap2\n      swap1\n      pop\n      jump\t// out\n        /* \"#utility.yul\":13567:13736   */\n    tag_263:\n        /* \"#utility.yul\":13651:13662   */\n      0x00\n        /* \"#utility.yul\":13685:13691   */\n      dup3\n        /* \"#utility.yul\":13680:13683   */\n      dup3\n        /* \"#utility.yul\":13673:13692   */\n      mstore\n        /* \"#utility.yul\":13725:13729   */\n      0x20\n        /* \"#utility.yul\":13720:13723   */\n      dup3\n        /* \"#utility.yul\":13716:13730   */\n      add\n        /* \"#utility.yul\":13701:13730   */\n      swap1\n      pop\n        /* \"#utility.yul\":13567:13736   */\n      swap3\n      swap2\n      pop\n      pop\n      jump\t// out\n        /* \"#utility.yul\":13742:14047   */\n    tag_135:\n        /* \"#utility.yul\":13782:13785   */\n      0x00\n        /* \"#utility.yul\":13801:13821   */\n      tag_368\n        /* \"#utility.yul\":13819:13820   */\n      dup3\n        /* \"#utility.yul\":13801:13821   */\n      tag_326\n      jump\t// in\n    tag_368:\n        /* \"#utility.yul\":13796:13821   */\n      swap2\n      pop\n        /* \"#utility.yul\":13835:13855   */\n      tag_369\n        /* \"#utility.yul\":13853:13854   */\n      dup4\n        /* \"#utility.yul\":13835:13855   */\n      tag_326\n      jump\t// in\n    tag_369:\n        /* \"#utility.yul\":13830:13855   */\n      swap3\n      pop\n        /* \"#utility.yul\":13989:13990   */\n      dup3\n        /* \"#utility.yul\":13921:13987   */\n      0xffffffffffffffffffffffffffffffffffffffffffffffffffffffffffffffff\n        /* \"#utility.yul\":13917:13991   */\n      sub\n        /* \"#utility.yul\":13914:13915   */\n      dup3\n        /* \"#utility.yul\":13911:13992   */\n      gt\n        /* \"#utility.yul\":13908:14015   */\n      iszero\n      tag_370\n      jumpi\n        /* \"#utility.yul\":13995:14013   */\n      tag_371\n      tag_372\n      jump\t// in\n    tag_371:\n        /* \"#utility.yul\":13908:14015   */\n    tag_370:\n        /* \"#utility.yul\":14039:14040   */\n      dup3\n        /* \"#utility.yul\":14036:14037   */\n      dup3\n        /* \"#utility.yul\":14032:14041   */\n      add\n        /* \"#utility.yul\":14025:14041   */\n      swap1\n      pop\n        /* \"#utility.yul\":13742:14047   */\n      swap3\n      swap2\n      pop\n      pop\n      jump\t// out\n        /* \"#utility.yul\":14053:14901   */\n    tag_373:\n        /* \"#utility.yul\":14114:14119   */\n      0x00\n        /* \"#utility.yul\":14121:14125   */\n      dup1\n        /* \"#utility.yul\":14145:14151   */\n      dup3\n        /* \"#utility.yul\":14136:14151   */\n      swap2\n      pop\n        /* \"#utility.yul\":14169:14174   */\n      dup4\n        /* \"#utility.yul\":14160:14174   */\n      swap1\n      pop\n        /* \"#utility.yul\":14183:14895   */\n    tag_375:\n        /* \"#utility.yul\":14204:14205   */\n      0x01\n        /* \"#utility.yul\":14194:14202   */\n      dup6\n        /* \"#utility.yul\":14191:14206   */\n      gt\n        /* \"#utility.yul\":14183:14895   */\n      iszero\n      tag_377\n      jumpi\n        /* \"#utility.yul\":14299:14303   */\n      dup1\n        /* \"#utility.yul\":14294:14297   */\n      dup7\n        /* \"#utility.yul\":14290:14304   */\n      div\n        /* \"#utility.yul\":14284:14288   */\n      dup2\n        /* \"#utility.yul\":14281:14305   */\n      gt\n        /* \"#utility.yul\":14278:14328   */\n      iszero\n      tag_378\n      jumpi\n        /* \"#utility.yul\":14308:14326   */\n      tag_379\n      tag_372\n      jump\t// in\n    tag_379:\n        /* \"#utility.yul\":14278:14328   */\n    tag_378:\n        /* \"#utility.yul\":14358:14359   */\n      0x01\n        /* \"#utility.yul\":14348:14356   */\n      dup6\n        /* \"#utility.yul\":14344:14360   */\n      and\n        /* \"#utility.yul\":14341:14792   */\n      iszero\n      tag_380\n      jumpi\n        /* \"#utility.yul\":14773:14777   */\n      dup1\n        /* \"#utility.yul\":14766:14771   */\n      dup3\n        /* \"#utility.yul\":14762:14778   */\n      mul\n        /* \"#utility.yul\":14753:14778   */\n      swap2\n      pop\n        /* \"#utility.yul\":14341:14792   */\n    tag_380:\n        /* \"#utility.yul\":14823:14827   */\n      dup1\n        /* \"#utility.yul\":14817:14821   */\n      dup2\n        /* \"#utility.yul\":14813:14828   */\n      mul\n        /* \"#utility.yul\":14805:14828   */\n      swap1\n      pop\n        /* \"#utility.yul\":14853:14885   */\n      tag_381\n        /* \"#utility.yul\":14876:14884   */\n      dup6\n        /* \"#utility.yul\":14853:14885   */\n      tag_382\n      jump\t// in\n    tag_381:\n        /* \"#utility.yul\":14841:14885   */\n      swap5\n      pop\n        /* \"#utility.yul\":14183:14895   */\n      jump(tag_375)\n    tag_377:\n        /* \"#utility.yul\":14053:14901   */\n      swap5\n      pop\n      swap5\n      swap3\n      pop\n      pop\n      pop\n      jump\t// out\n        /* \"#utility.yul\":14907:15188   */\n    tag_156:\n        /* \"#utility.yul\":14965:14970   */\n      0x00\n        /* \"#utility.yul\":14989:15012   */\n      tag_384\n        /* \"#utility.yul\":15007:15011   */\n      dup3\n        /* \"#utility.yul\":14989:15012   */\n      tag_326\n      jump\t// in\n    tag_384:\n        /* \"#utility.yul\":14981:15012   */\n      swap2\n      pop\n        /* \"#utility.yul\":15033:15058   */\n      tag_385\n        /* \"#utility.yul\":15049:15057   */\n      dup4\n        /* \"#utility.yul\":15033:15058   */\n      tag_330\n      jump\t// in\n    tag_385:\n        /* \"#utility.yul\":15021:15058   */\n      swap3\n      pop\n        /* \"#utility.yul\":15077:15181   */\n      tag_386\n        /* \"#utility.yul\":15114:15180   */\n      0xffffffffffffffffffffffffffffffffffffffffffffffffffffffffffffffff\n        /* \"#utility.yul\":15104:15112   */\n      dup5\n        /* \"#utility.yul\":15098:15102   */\n      dup5\n        /* \"#utility.yul\":15077:15181   */\n      tag_387\n      jump\t// in\n    tag_386:\n        /* \"#utility.yul\":15068:15181   */\n      swap1\n      pop\n        /* \"#utility.yul\":14907:15188   */\n      swap3\n      swap2\n      pop\n      pop\n      jump\t// out\n        /* \"#utility.yul\":15194:16267   */\n    tag_387:\n        /* \"#utility.yul\":15248:15253   */\n      0x00\n        /* \"#utility.yul\":15439:15447   */\n      dup3\n        /* \"#utility.yul\":15429:15469   */\n      tag_389\n      jumpi\n        /* \"#utility.yul\":15460:15461   */\n      0x01\n        /* \"#utility.yul\":15451:15461   */\n      swap1\n      pop\n        /* \"#utility.yul\":15462:15467   */\n      jump(tag_388)\n        /* \"#utility.yul\":15429:15469   */\n    tag_389:\n        /* \"#utility.yul\":15488:15492   */\n      dup2\n        /* \"#utility.yul\":15478:15514   */\n      tag_390\n      jumpi\n        /* \"#utility.yul\":15505:15506   */\n      0x00\n        /* \"#utility.yul\":15496:15506   */\n      swap1\n      pop\n        /* \"#utility.yul\":15507:15512   */\n      jump(tag_388)\n        /* \"#utility.yul\":15478:15514   */\n    tag_390:\n        /* \"#utility.yul\":15574:15578   */\n      dup2\n        /* \"#utility.yul\":15622:15623   */\n      0x01\n        /* \"#utility.yul\":15617:15644   */\n      dup2\n      eq\n      tag_392\n      jumpi\n        /* \"#utility.yul\":15658:15659   */\n      0x02\n        /* \"#utility.yul\":15653:15844   */\n      dup2\n      eq\n      tag_393\n      jumpi\n        /* \"#utility.yul\":15567:15844   */\n      jump(tag_391)\n        /* \"#utility.yul\":15617:15644   */\n    tag_392:\n        /* \"#utility.yul\":15635:15636   */\n      0x01\n        /* \"#utility.yul\":15626:15636   */\n      swap2\n      pop\n        /* \"#utility.yul\":15637:15642   */\n      pop\n      jump(tag_388)\n        /* \"#utility.yul\":15653:15844   */\n    tag_393:\n        /* \"#utility.yul\":15698:15701   */\n      0xff\n        /* \"#utility.yul\":15688:15696   */\n      dup5\n        /* \"#utility.yul\":15685:15702   */\n      gt\n        /* \"#utility.yul\":15682:15725   */\n      iszero\n      tag_394\n      jumpi\n        /* \"#utility.yul\":15705:15723   */\n      tag_395\n      tag_372\n      jump\t// in\n    tag_395:\n        /* \"#utility.yul\":15682:15725   */\n    tag_394:\n        /* \"#utility.yul\":15754:15762   */\n      dup4\n        /* \"#utility.yul\":15751:15752   */\n      0x02\n        /* \"#utility.yul\":15747:15763   */\n      exp\n        /* \"#utility.yul\":15738:15763   */\n      swap2\n      pop\n        /* \"#utility.yul\":15789:15792   */\n      dup5\n        /* \"#utility.yul\":15782:15787   */\n      dup3\n        /* \"#utility.yul\":15779:15793   */\n      gt\n        /* \"#utility.yul\":15776:15816   */\n      iszero\n      tag_396\n      jumpi\n        /* \"#utility.yul\":15796:15814   */\n      tag_397\n      tag_372\n      jump\t// in\n    tag_397:\n        /* \"#utility.yul\":15776:15816   */\n    tag_396:\n        /* \"#utility.yul\":15829:15834   */\n      pop\n      jump(tag_388)\n        /* \"#utility.yul\":15567:15844   */\n    tag_391:\n      pop\n        /* \"#utility.yul\":15953:15955   */\n      0x20\n        /* \"#utility.yul\":15943:15951   */\n      dup4\n        /* \"#utility.yul\":15940:15956   */\n      lt\n        /* \"#utility.yul\":15934:15937   */\n      0x0133\n        /* \"#utility.yul\":15928:15932   */\n      dup4\n        /* \"#utility.yul\":15925:15938   */\n      lt\n        /* \"#utility.yul\":15921:15957   */\n      and\n        /* \"#utility.yul\":15903:15905   */\n      0x4e\n        /* \"#utility.yul\":15893:15901   */\n      dup5\n        /* \"#utility.yul\":15890:15906   */\n      lt\n        /* \"#utility.yul\":15885:15887   */\n      0x0b\n        /* \"#utility.yul\":15879:15883   */\n      dup5\n        /* \"#utility.yul\":15876:15888   */\n      lt\n        /* \"#utility.yul\":15872:15907   */\n      and\n        /* \"#utility.yul\":15856:15967   */\n      or\n        /* \"#utility.yul\":15853:16099   */\n      iszero\n      tag_398\n      jumpi\n        /* \"#utility.yul\":16009:16017   */\n      dup3\n        /* \"#utility.yul\":16003:16007   */\n      dup3\n        /* \"#utility.yul\":15999:16018   */\n      exp\n        /* \"#utility.yul\":15990:16018   */\n      swap1\n      pop\n        /* \"#utility.yul\":16044:16047   */\n      dup4\n        /* \"#utility.yul\":16037:16042   */\n      dup2\n        /* \"#utility.yul\":16034:16048   */\n      gt\n        /* \"#utility.yul\":16031:16071   */\n      iszero\n      tag_399\n      jumpi\n        /* \"#utility.yul\":16051:16069   */\n      tag_400\n      tag_372\n      jump\t// in\n    tag_400:\n        /* \"#utility.yul\":16031:16071   */\n    tag_399:\n        /* \"#utility.yul\":16084:16089   */\n      jump(tag_388)\n        /* \"#utility.yul\":15853:16099   */\n    tag_398:\n        /* \"#utility.yul\":16124:16166   */\n      tag_401\n        /* \"#utility.yul\":16162:16165   */\n      dup5\n        /* \"#utility.yul\":16152:16160   */\n      dup5\n        /* \"#utility.yul\":16146:16150   */\n      dup5\n        /* \"#utility.yul\":16143:16144   */\n      0x01\n        /* \"#utility.yul\":16124:16166   */\n      tag_373\n      jump\t// in\n    tag_401:\n        /* \"#utility.yul\":16109:16166   */\n      swap3\n      pop\n      swap1\n      pop\n        /* \"#utility.yul\":16198:16202   */\n      dup2\n        /* \"#utility.yul\":16193:16196   */\n      dup5\n        /* \"#utility.yul\":16189:16203   */\n      div\n        /* \"#utility.yul\":16182:16187   */\n      dup2\n        /* \"#utility.yul\":16179:16204   */\n      gt\n        /* \"#utility.yul\":16176:16227   */\n      iszero\n      tag_402\n      jumpi\n        /* \"#utility.yul\":16207:16225   */\n      tag_403\n      tag_372\n      jump\t// in\n    tag_403:\n        /* \"#utility.yul\":16176:16227   */\n    tag_402:\n        /* \"#utility.yul\":16256:16260   */\n      dup2\n        /* \"#utility.yul\":16249:16254   */\n      dup2\n        /* \"#utility.yul\":16245:16261   */\n      mul\n        /* \"#utility.yul\":16236:16261   */\n      swap1\n      pop\n        /* \"#utility.yul\":15194:16267   */\n    tag_388:\n      swap4\n      swap3\n      pop\n      pop\n      pop\n      jump\t// out\n        /* \"#utility.yul\":16273:16369   */\n    tag_253:\n        /* \"#utility.yul\":16310:16317   */\n      0x00\n        /* \"#utility.yul\":16339:16363   */\n      tag_405\n        /* \"#utility.yul\":16357:16362   */\n      dup3\n        /* \"#utility.yul\":16339:16363   */\n      tag_406\n      jump\t// in\n    tag_405:\n        /* \"#utility.yul\":16328:16363   */\n      swap1\n      pop\n        /* \"#utility.yul\":16273:16369   */\n      swap2\n      swap1\n      pop\n      jump\t// out\n        /* \"#utility.yul\":16375:16465   */\n    tag_257:\n        /* \"#utility.yul\":16409:16416   */\n      0x00\n        /* \"#utility.yul\":16452:16457   */\n      dup2\n        /* \"#utility.yul\":16445:16458   */\n      iszero\n        /* \"#utility.yul\":16438:16459   */\n      iszero\n        /* \"#utility.yul\":16427:16459   */\n      swap1\n      pop\n        /* \"#utility.yul\":16375:16465   */\n      swap2\n      swap1\n      pop\n      jump\t// out\n        /* \"#utility.yul\":16471:16597   */\n    tag_406:\n        /* \"#utility.yul\":16508:16515   */\n      0x00\n        /* \"#utility.yul\":16548:16590   */\n      0xffffffffffffffffffffffffffffffffffffffff\n        /* \"#utility.yul\":16541:16546   */\n      dup3\n        /* \"#utility.yul\":16537:16591   */\n      and\n        /* \"#utility.yul\":16526:16591   */\n      swap1\n      pop\n        /* \"#utility.yul\":16471:16597   */\n      swap2\n      swap1\n      pop\n      jump\t// out\n        /* \"#utility.yul\":16603:16680   */\n    tag_326:\n        /* \"#utility.yul\":16640:16647   */\n      0x00\n        /* \"#utility.yul\":16669:16674   */\n      dup2\n        /* \"#utility.yul\":16658:16674   */\n      swap1\n      pop\n        /* \"#utility.yul\":16603:16680   */\n      swap2\n      swap1\n      pop\n      jump\t// out\n        /* \"#utility.yul\":16686:16772   */\n    tag_330:\n        /* \"#utility.yul\":16721:16728   */\n      0x00\n        /* \"#utility.yul\":16761:16765   */\n      0xff\n        /* \"#utility.yul\":16754:16759   */\n      dup3\n        /* \"#utility.yul\":16750:16766   */\n      and\n        /* \"#utility.yul\":16739:16766   */\n      swap1\n      pop\n        /* \"#utility.yul\":16686:16772   */\n      swap2\n      swap1\n      pop\n      jump\t// out\n        /* \"#utility.yul\":16778:17085   */\n    tag_265:\n        /* \"#utility.yul\":16846:16847   */\n      0x00\n        /* \"#utility.yul\":16856:16969   */\n    tag_412:\n        /* \"#utility.yul\":16870:16876   */\n      dup4\n        /* \"#utility.yul\":16867:16868   */\n      dup2\n        /* \"#utility.yul\":16864:16877   */\n      lt\n        /* \"#utility.yul\":16856:16969   */\n      iszero\n      tag_414\n      jumpi\n        /* \"#utility.yul\":16955:16956   */\n      dup1\n        /* \"#utility.yul\":16950:16953   */\n      dup3\n        /* \"#utility.yul\":16946:16957   */\n      add\n        /* \"#utility.yul\":16940:16958   */\n      mload\n        /* \"#utility.yul\":16936:16937   */\n      dup2\n        /* \"#utility.yul\":16931:16934   */\n      dup5\n        /* \"#utility.yul\":16927:16938   */\n      add\n        /* \"#utility.yul\":16920:16959   */\n      mstore\n        /* \"#utility.yul\":16892:16894   */\n      0x20\n        /* \"#utility.yul\":16889:16890   */\n      dup2\n        /* \"#utility.yul\":16885:16895   */\n      add\n        /* \"#utility.yul\":16880:16895   */\n      swap1\n      pop\n        /* \"#utility.yul\":16856:16969   */\n      jump(tag_412)\n    tag_414:\n        /* \"#utility.yul\":16987:16993   */\n      dup4\n        /* \"#utility.yul\":16984:16985   */\n      dup2\n        /* \"#utility.yul\":16981:16994   */\n      gt\n        /* \"#utility.yul\":16978:17079   */\n      iszero\n      tag_415\n      jumpi\n        /* \"#utility.yul\":17067:17068   */\n      0x00\n        /* \"#utility.yul\":17058:17064   */\n      dup5\n        /* \"#utility.yul\":17053:17056   */\n      dup5\n        /* \"#utility.yul\":17049:17065   */\n      add\n        /* \"#utility.yul\":17042:17069   */\n      mstore\n        /* \"#utility.yul\":16978:17079   */\n    tag_415:\n        /* \"#utility.yul\":16827:17085   */\n      pop\n        /* \"#utility.yul\":16778:17085   */\n      pop\n      pop\n      pop\n      jump\t// out\n        /* \"#utility.yul\":17091:17411   */\n    tag_110:\n        /* \"#utility.yul\":17135:17141   */\n      0x00\n        /* \"#utility.yul\":17172:17173   */\n      0x02\n        /* \"#utility.yul\":17166:17170   */\n      dup3\n        /* \"#utility.yul\":17162:17174   */\n      div\n        /* \"#utility.yul\":17152:17174   */\n      swap1\n      pop\n        /* \"#utility.yul\":17219:17220   */\n      0x01\n        /* \"#utility.yul\":17213:17217   */\n      dup3\n        /* \"#utility.yul\":17209:17221   */\n      and\n        /* \"#utility.yul\":17240:17258   */\n      dup1\n        /* \"#utility.yul\":17230:17311   */\n      tag_417\n      jumpi\n        /* \"#utility.yul\":17296:17300   */\n      0x7f\n        /* \"#utility.yul\":17288:17294   */\n      dup3\n        /* \"#utility.yul\":17284:17301   */\n      and\n        /* \"#utility.yul\":17274:17301   */\n      swap2\n      pop\n        /* \"#utility.yul\":17230:17311   */\n    tag_417:\n        /* \"#utility.yul\":17358:17360   */\n      0x20\n        /* \"#utility.yul\":17350:17356   */\n      dup3\n        /* \"#utility.yul\":17347:17361   */\n      lt\n        /* \"#utility.yul\":17327:17345   */\n      dup2\n        /* \"#utility.yul\":17324:17362   */\n      eq\n        /* \"#utility.yul\":17321:17405   */\n      iszero\n      tag_418\n      jumpi\n        /* \"#utility.yul\":17377:17395   */\n      tag_419\n      tag_420\n      jump\t// in\n    tag_419:\n        /* \"#utility.yul\":17321:17405   */\n    tag_418:\n        /* \"#utility.yul\":17142:17411   */\n      pop\n        /* \"#utility.yul\":17091:17411   */\n      swap2\n      swap1\n      pop\n      jump\t// out\n        /* \"#utility.yul\":17417:17597   */\n    tag_372:\n        /* \"#utility.yul\":17465:17542   */\n      0x4e487b7100000000000000000000000000000000000000000000000000000000\n        /* \"#utility.yul\":17462:17463   */\n      0x00\n        /* \"#utility.yul\":17455:17543   */\n      mstore\n        /* \"#utility.yul\":17562:17566   */\n      0x11\n        /* \"#utility.yul\":17559:17560   */\n      0x04\n        /* \"#utility.yul\":17552:17567   */\n      mstore\n        /* \"#utility.yul\":17586:17590   */\n      0x24\n        /* \"#utility.yul\":17583:17584   */\n      0x00\n        /* \"#utility.yul\":17576:17591   */\n      revert\n        /* \"#utility.yul\":17603:17783   */\n    tag_420:\n        /* \"#utility.yul\":17651:17728   */\n      0x4e487b7100000000000000000000000000000000000000000000000000000000\n        /* \"#utility.yul\":17648:17649   */\n      0x00\n        /* \"#utility.yul\":17641:17729   */\n      mstore\n        /* \"#utility.yul\":17748:17752   */\n      0x22\n        /* \"#utility.yul\":17745:17746   */\n      0x04\n        /* \"#utility.yul\":17738:17753   */\n      mstore\n        /* \"#utility.yul\":17772:17776   */\n      0x24\n        /* \"#utility.yul\":17769:17770   */\n      0x00\n        /* \"#utility.yul\":17762:17777   */\n      revert\n        /* \"#utility.yul\":17912:18029   */\n    tag_228:\n        /* \"#utility.yul\":18021:18022   */\n      0x00\n        /* \"#utility.yul\":18018:18019   */\n      dup1\n        /* \"#utility.yul\":18011:18023   */\n      revert\n        /* \"#utility.yul\":18035:18137   */\n    tag_267:\n        /* \"#utility.yul\":18076:18082   */\n      0x00\n        /* \"#utility.yul\":18127:18129   */\n      0x1f\n        /* \"#utility.yul\":18123:18130   */\n      not\n        /* \"#utility.yul\":18118:18120   */\n      0x1f\n        /* \"#utility.yul\":18111:18116   */\n      dup4\n        /* \"#utility.yul\":18107:18121   */\n      add\n        /* \"#utility.yul\":18103:18131   */\n      and\n        /* \"#utility.yul\":18093:18131   */\n      swap1\n      pop\n        /* \"#utility.yul\":18035:18137   */\n      swap2\n      swap1\n      pop\n      jump\t// out\n        /* \"#utility.yul\":18143:18245   */\n    tag_382:\n        /* \"#utility.yul\":18185:18193   */\n      0x00\n        /* \"#utility.yul\":18232:18237   */\n      dup2\n        /* \"#utility.yul\":18229:18230   */\n      0x01\n        /* \"#utility.yul\":18225:18238   */\n      shr\n        /* \"#utility.yul\":18204:18238   */\n      swap1\n      pop\n        /* \"#utility.yul\":18143:18245   */\n      swap2\n      swap1\n      pop\n      jump\t// out\n        /* \"#utility.yul\":18251:18473   */\n    tag_272:\n        /* \"#utility.yul\":18391:18425   */\n      0x45524332303a207472616e7366657220746f20746865207a65726f2061646472\n        /* \"#utility.yul\":18387:18388   */\n      0x00\n        /* \"#utility.yul\":18379:18385   */\n      dup3\n        /* \"#utility.yul\":18375:18389   */\n      add\n        /* \"#utility.yul\":18368:18426   */\n      mstore\n        /* \"#utility.yul\":18460:18465   */\n      0x6573730000000000000000000000000000000000000000000000000000000000\n        /* \"#utility.yul\":18455:18457   */\n      0x20\n        /* \"#utility.yul\":18447:18453   */\n      dup3\n        /* \"#utility.yul\":18443:18458   */\n      add\n        /* \"#utility.yul\":18436:18466   */\n      mstore\n        /* \"#utility.yul\":18251:18473   */\n      pop\n      jump\t// out\n        /* \"#utility.yul\":18479:18700   */\n    tag_277:\n        /* \"#utility.yul\":18619:18653   */\n      0x45524332303a20617070726f766520746f20746865207a65726f206164647265\n        /* \"#utility.yul\":18615:18616   */\n      0x00\n        /* \"#utility.yul\":18607:18613   */\n      dup3\n        /* \"#utility.yul\":18603:18617   */\n      add\n        /* \"#utility.yul\":18596:18654   */\n      mstore\n        /* \"#utility.yul\":18688:18692   */\n      0x7373000000000000000000000000000000000000000000000000000000000000\n        /* \"#utility.yul\":18683:18685   */\n      0x20\n        /* \"#utility.yul\":18675:18681   */\n      dup3\n        /* \"#utility.yul\":18671:18686   */\n      add\n        /* \"#utility.yul\":18664:18693   */\n      mstore\n        /* \"#utility.yul\":18479:18700   */\n      pop\n      jump\t// out\n        /* \"#utility.yul\":18706:18885   */\n    tag_282:\n        /* \"#utility.yul\":18846:18877   */\n      0x45524332303a20696e73756666696369656e7420616c6c6f77616e6365000000\n        /* \"#utility.yul\":18842:18843   */\n      0x00\n        /* \"#utility.yul\":18834:18840   */\n      dup3\n        /* \"#utility.yul\":18830:18844   */\n      add\n        /* \"#utility.yul\":18823:18878   */\n      mstore\n        /* \"#utility.yul\":18706:18885   */\n      pop\n      jump\t// out\n        /* \"#utility.yul\":18891:19116   */\n    tag_287:\n        /* \"#utility.yul\":19031:19065   */\n      0x45524332303a207472616e7366657220616d6f756e7420657863656564732062\n        /* \"#utility.yul\":19027:19028   */\n      0x00\n        /* \"#utility.yul\":19019:19025   */\n      dup3\n        /* \"#utility.yul\":19015:19029   */\n      add\n        /* \"#utility.yul\":19008:19066   */\n      mstore\n        /* \"#utility.yul\":19100:19108   */\n      0x616c616e63650000000000000000000000000000000000000000000000000000\n        /* \"#utility.yul\":19095:19097   */\n      0x20\n        /* \"#utility.yul\":19087:19093   */\n      dup3\n        /* \"#utility.yul\":19083:19098   */\n      add\n        /* \"#utility.yul\":19076:19109   */\n      mstore\n        /* \"#utility.yul\":18891:19116   */\n      pop\n      jump\t// out\n        /* \"#utility.yul\":19122:19346   */\n    tag_292:\n        /* \"#utility.yul\":19262:19296   */\n      0x596f75206e65656420746f2073656c6c206174206c6561737420736f6d652074\n        /* \"#utility.yul\":19258:19259   */\n      0x00\n        /* \"#utility.yul\":19250:19256   */\n      dup3\n        /* \"#utility.yul\":19246:19260   */\n      add\n        /* \"#utility.yul\":19239:19297   */\n      mstore\n        /* \"#utility.yul\":19331:19338   */\n      0x6f6b656e73000000000000000000000000000000000000000000000000000000\n        /* \"#utility.yul\":19326:19328   */\n      0x20\n        /* \"#utility.yul\":19318:19324   */\n      dup3\n        /* \"#utility.yul\":19314:19329   */\n      add\n        /* \"#utility.yul\":19307:19339   */\n      mstore\n        /* \"#utility.yul\":19122:19346   */\n      pop\n      jump\t// out\n        /* \"#utility.yul\":19352:19527   */\n    tag_297:\n        /* \"#utility.yul\":19492:19519   */\n      0x436865636b2074686520746f6b656e20616c6c6f77616e636500000000000000\n        /* \"#utility.yul\":19488:19489   */\n      0x00\n        /* \"#utility.yul\":19480:19486   */\n      dup3\n        /* \"#utility.yul\":19476:19490   */\n      add\n        /* \"#utility.yul\":19469:19520   */\n      mstore\n        /* \"#utility.yul\":19352:19527   */\n      pop\n      jump\t// out\n        /* \"#utility.yul\":19533:19757   */\n    tag_302:\n        /* \"#utility.yul\":19673:19707   */\n      0x45524332303a207472616e736665722066726f6d20746865207a65726f206164\n        /* \"#utility.yul\":19669:19670   */\n      0x00\n        /* \"#utility.yul\":19661:19667   */\n      dup3\n        /* \"#utility.yul\":19657:19671   */\n      add\n        /* \"#utility.yul\":19650:19708   */\n      mstore\n        /* \"#utility.yul\":19742:19749   */\n      0x6472657373000000000000000000000000000000000000000000000000000000\n        /* \"#utility.yul\":19737:19739   */\n      0x20\n        /* \"#utility.yul\":19729:19735   */\n      dup3\n        /* \"#utility.yul\":19725:19740   */\n      add\n        /* \"#utility.yul\":19718:19750   */\n      mstore\n        /* \"#utility.yul\":19533:19757   */\n      pop\n      jump\t// out\n        /* \"#utility.yul\":19763:19986   */\n    tag_307:\n        /* \"#utility.yul\":19903:19937   */\n      0x45524332303a20617070726f76652066726f6d20746865207a65726f20616464\n        /* \"#utility.yul\":19899:19900   */\n      0x00\n        /* \"#utility.yul\":19891:19897   */\n      dup3\n        /* \"#utility.yul\":19887:19901   */\n      add\n        /* \"#utility.yul\":19880:19938   */\n      mstore\n        /* \"#utility.yul\":19972:19978   */\n      0x7265737300000000000000000000000000000000000000000000000000000000\n        /* \"#utility.yul\":19967:19969   */\n      0x20\n        /* \"#utility.yul\":19959:19965   */\n      dup3\n        /* \"#utility.yul\":19955:19970   */\n      add\n        /* \"#utility.yul\":19948:19979   */\n      mstore\n        /* \"#utility.yul\":19763:19986   */\n      pop\n      jump\t// out\n        /* \"#utility.yul\":19992:20174   */\n    tag_312:\n        /* \"#utility.yul\":20132:20166   */\n      0x4e6f7420656e6f75676820746f6b656e7320696e207468652072657365727665\n        /* \"#utility.yul\":20128:20129   */\n      0x00\n        /* \"#utility.yul\":20120:20126   */\n      dup3\n        /* \"#utility.yul\":20116:20130   */\n      add\n        /* \"#utility.yul\":20109:20167   */\n      mstore\n        /* \"#utility.yul\":19992:20174   */\n      pop\n      jump\t// out\n        /* \"#utility.yul\":20180:20357   */\n    tag_317:\n        /* \"#utility.yul\":20320:20349   */\n      0x596f75206e65656420746f2073656e6420736f6d652065746865720000000000\n        /* \"#utility.yul\":20316:20317   */\n      0x00\n        /* \"#utility.yul\":20308:20314   */\n      dup3\n        /* \"#utility.yul\":20304:20318   */\n      add\n        /* \"#utility.yul\":20297:20350   */\n      mstore\n        /* \"#utility.yul\":20180:20357   */\n      pop\n      jump\t// out\n        /* \"#utility.yul\":20363:20587   */\n    tag_322:\n        /* \"#utility.yul\":20503:20537   */\n      0x45524332303a2064656372656173656420616c6c6f77616e63652062656c6f77\n        /* \"#utility.yul\":20499:20500   */\n      0x00\n        /* \"#utility.yul\":20491:20497   */\n      dup3\n        /* \"#utility.yul\":20487:20501   */\n      add\n        /* \"#utility.yul\":20480:20538   */\n      mstore\n        /* \"#utility.yul\":20572:20579   */\n      0x207a65726f000000000000000000000000000000000000000000000000000000\n        /* \"#utility.yul\":20567:20569   */\n      0x20\n        /* \"#utility.yul\":20559:20565   */\n      dup3\n        /* \"#utility.yul\":20555:20570   */\n      add\n        /* \"#utility.yul\":20548:20580   */\n      mstore\n        /* \"#utility.yul\":20363:20587   */\n      pop\n      jump\t// out\n        /* \"#utility.yul\":20593:20715   */\n    tag_220:\n        /* \"#utility.yul\":20666:20690   */\n      tag_440\n        /* \"#utility.yul\":20684:20689   */\n      dup2\n        /* \"#utility.yul\":20666:20690   */\n      tag_253\n      jump\t// in\n    tag_440:\n        /* \"#utility.yul\":20659:20664   */\n      dup2\n        /* \"#utility.yul\":20656:20691   */\n      eq\n        /* \"#utility.yul\":20646:20709   */\n      tag_441\n      jumpi\n        /* \"#utility.yul\":20705:20706   */\n      0x00\n        /* \"#utility.yul\":20702:20703   */\n      dup1\n        /* \"#utility.yul\":20695:20707   */\n      revert\n        /* \"#utility.yul\":20646:20709   */\n    tag_441:\n        /* \"#utility.yul\":20593:20715   */\n      pop\n      jump\t// out\n        /* \"#utility.yul\":20721:20843   */\n    tag_224:\n        /* \"#utility.yul\":20794:20818   */\n      tag_443\n        /* \"#utility.yul\":20812:20817   */\n      dup2\n        /* \"#utility.yul\":20794:20818   */\n      tag_326\n      jump\t// in\n    tag_443:\n        /* \"#utility.yul\":20787:20792   */\n      dup2\n        /* \"#utility.yul\":20784:20819   */\n      eq\n        /* \"#utility.yul\":20774:20837   */\n      tag_444\n      jumpi\n        /* \"#utility.yul\":20833:20834   */\n      0x00\n        /* \"#utility.yul\":20830:20831   */\n      dup1\n        /* \"#utility.yul\":20823:20835   */\n      revert\n        /* \"#utility.yul\":20774:20837   */\n    tag_444:\n        /* \"#utility.yul\":20721:20843   */\n      pop\n      jump\t// out\n\n    auxdata: 0xa26469706673582212209f028fb48d034f8bef5f2a21dc3b38ede5a7b7bbaed680ed06ec63a95bc222e364736f6c63430008070033\n}\n",
				"bytecode": {
					"linkReferences": {},
					"object": "60806040523480156200001157600080fd5b5060405162002417380380620024178339818101604052810190620000379190620003c7565b828281600390805190602001906200005192919062000282565b5080600490805190602001906200006a92919062000282565b50505033600560006101000a81548173ffffffffffffffffffffffffffffffffffffffff021916908373ffffffffffffffffffffffffffffffffffffffff160217905550620000ed33620000c3620000f660201b60201c565b60ff16600a620000d4919062000600565b83620000e191906200073d565b620000ff60201b60201c565b5050506200094c565b60006012905090565b600073ffffffffffffffffffffffffffffffffffffffff168273ffffffffffffffffffffffffffffffffffffffff16141562000172576040517f08c379a0000000000000000000000000000000000000000000000000000000008152600401620001699062000499565b60405180910390fd5b62000186600083836200027860201b60201c565b80600260008282546200019a919062000548565b92505081905550806000808473ffffffffffffffffffffffffffffffffffffffff1673ffffffffffffffffffffffffffffffffffffffff1681526020019081526020016000206000828254620001f1919062000548565b925050819055508173ffffffffffffffffffffffffffffffffffffffff16600073ffffffffffffffffffffffffffffffffffffffff167fddf252ad1be2c89b69c2b068fc378daa952ba7f163c4a11628f55a4df523b3ef83604051620002589190620004bb565b60405180910390a362000274600083836200027d60201b60201c565b5050565b505050565b505050565b8280546200029090620007de565b90600052602060002090601f016020900481019282620002b4576000855562000300565b82601f10620002cf57805160ff191683800117855562000300565b8280016001018555821562000300579182015b82811115620002ff578251825591602001919060010190620002e2565b5b5090506200030f919062000313565b5090565b5b808211156200032e57600081600090555060010162000314565b5090565b600062000349620003438462000501565b620004d8565b905082815260208101848484011115620003685762000367620008dc565b5b62000375848285620007a8565b509392505050565b600082601f830112620003955762000394620008d7565b5b8151620003a784826020860162000332565b91505092915050565b600081519050620003c18162000932565b92915050565b600080600060608486031215620003e357620003e2620008e6565b5b600084015167ffffffffffffffff811115620004045762000403620008e1565b5b62000412868287016200037d565b935050602084015167ffffffffffffffff811115620004365762000435620008e1565b5b62000444868287016200037d565b92505060406200045786828701620003b0565b9150509250925092565b600062000470601f8362000537565b91506200047d8262000909565b602082019050919050565b62000493816200079e565b82525050565b60006020820190508181036000830152620004b48162000461565b9050919050565b6000602082019050620004d2600083018462000488565b92915050565b6000620004e4620004f7565b9050620004f2828262000814565b919050565b6000604051905090565b600067ffffffffffffffff8211156200051f576200051e620008a8565b5b6200052a82620008eb565b9050602081019050919050565b600082825260208201905092915050565b600062000555826200079e565b915062000562836200079e565b9250827fffffffffffffffffffffffffffffffffffffffffffffffffffffffffffffffff038211156200059a57620005996200084a565b5b828201905092915050565b6000808291508390505b6001851115620005f757808604811115620005cf57620005ce6200084a565b5b6001851615620005df5780820291505b8081029050620005ef85620008fc565b9450620005af565b94509492505050565b60006200060d826200079e565b91506200061a836200079e565b9250620006497fffffffffffffffffffffffffffffffffffffffffffffffffffffffffffffffff848462000651565b905092915050565b60008262000663576001905062000736565b8162000673576000905062000736565b81600181146200068c57600281146200069757620006cd565b600191505062000736565b60ff841115620006ac57620006ab6200084a565b5b8360020a915084821115620006c657620006c56200084a565b5b5062000736565b5060208310610133831016604e8410600b8410161715620007075782820a9050838111156200070157620007006200084a565b5b62000736565b620007168484846001620005a5565b9250905081840481111562000730576200072f6200084a565b5b81810290505b9392505050565b60006200074a826200079e565b915062000757836200079e565b9250817fffffffffffffffffffffffffffffffffffffffffffffffffffffffffffffffff04831182151516156200079357620007926200084a565b5b828202905092915050565b6000819050919050565b60005b83811015620007c8578082015181840152602081019050620007ab565b83811115620007d8576000848401525b50505050565b60006002820490506001821680620007f757607f821691505b602082108114156200080e576200080d62000879565b5b50919050565b6200081f82620008eb565b810181811067ffffffffffffffff82111715620008415762000840620008a8565b5b80604052505050565b7f4e487b7100000000000000000000000000000000000000000000000000000000600052601160045260246000fd5b7f4e487b7100000000000000000000000000000000000000000000000000000000600052602260045260246000fd5b7f4e487b7100000000000000000000000000000000000000000000000000000000600052604160045260246000fd5b600080fd5b600080fd5b600080fd5b600080fd5b6000601f19601f8301169050919050565b60008160011c9050919050565b7f45524332303a206d696e7420746f20746865207a65726f206164647265737300600082015250565b6200093d816200079e565b81146200094957600080fd5b50565b611abb806200095c6000396000f3fe6080604052600436106101095760003560e01c80636e78e23c11610095578063a457c2d711610064578063a457c2d714610376578063a9059cbb146103b3578063dd62ed3e146103f0578063e4849b321461042d578063e8b5e51f1461044957610109565b80636e78e23c146102c757806370a082311461030457806395d89b4114610341578063974c86b51461036c57610109565b8063313ce567116100dc578063313ce567146101de578063320ce98114610209578063395093511461023457806345b5a47a146102715780635c1cb6911461029c57610109565b806306fdde031461010e578063095ea7b31461013957806318160ddd1461017657806323b872dd146101a1575b600080fd5b34801561011a57600080fd5b50610123610453565b60405161013091906112b4565b60405180910390f35b34801561014557600080fd5b50610160600480360381019061015b919061101b565b6104e5565b60405161016d9190611299565b60405180910390f35b34801561018257600080fd5b5061018b610508565b6040516101989190611436565b60405180910390f35b3480156101ad57600080fd5b506101c860048036038101906101c39190610fc8565b610512565b6040516101d59190611299565b60405180910390f35b3480156101ea57600080fd5b506101f3610541565b6040516102009190611451565b60405180910390f35b34801561021557600080fd5b5061021e61054a565b60405161022b9190611436565b60405180910390f35b34801561024057600080fd5b5061025b6004803603810190610256919061101b565b61057c565b6040516102689190611299565b60405180910390f35b34801561027d57600080fd5b506102866105b3565b6040516102939190611436565b60405180910390f35b3480156102a857600080fd5b506102b16105bb565b6040516102be919061127e565b60405180910390f35b3480156102d357600080fd5b506102ee60048036038101906102e99190610fc8565b6105e1565b6040516102fb9190611299565b60405180910390f35b34801561031057600080fd5b5061032b60048036038101906103269190610f5b565b6105f9565b6040516103389190611436565b60405180910390f35b34801561034d57600080fd5b50610356610641565b60405161036391906112b4565b60405180910390f35b6103746106d3565b005b34801561038257600080fd5b5061039d6004803603810190610398919061101b565b610802565b6040516103aa9190611299565b60405180910390f35b3480156103bf57600080fd5b506103da60048036038101906103d5919061101b565b610879565b6040516103e79190611299565b60405180910390f35b3480156103fc57600080fd5b5061041760048036038101906104129190610f88565b61089c565b6040516104249190611436565b60405180910390f35b6104476004803603810190610442919061105b565b610923565b005b610451610a45565b005b606060038054610462906116d7565b80601f016020809104026020016040519081016040528092919081815260200182805461048e906116d7565b80156104db5780601f106104b0576101008083540402835291602001916104db565b820191906000526020600020905b8154815290600101906020018083116104be57829003601f168201915b5050505050905090565b6000806104f0610a47565b90506104fd818585610a4f565b600191505092915050565b6000600254905090565b60008061051d610a47565b905061052a858285610c1a565b610535858585610ca6565b60019150509392505050565b60006012905090565b6000610577600560009054906101000a900473ffffffffffffffffffffffffffffffffffffffff166105f9565b905090565b600080610587610a47565b90506105a8818585610599858961089c565b6105a39190611488565b610a4f565b600191505092915050565b600047905090565b600560009054906101000a900473ffffffffffffffffffffffffffffffffffffffff1681565b60006105ee848484610a4f565b600190509392505050565b60008060008373ffffffffffffffffffffffffffffffffffffffff1673ffffffffffffffffffffffffffffffffffffffff168152602001908152602001600020549050919050565b606060048054610650906116d7565b80601f016020809104026020016040519081016040528092919081815260200182805461067c906116d7565b80156106c95780601f1061069e576101008083540402835291602001916106c9565b820191906000526020600020905b8154815290600101906020018083116106ac57829003601f168201915b5050505050905090565b60003490506000610705600560009054906101000a900473ffffffffffffffffffffffffffffffffffffffff166105f9565b90506000821161074a576040517f08c379a0000000000000000000000000000000000000000000000000000000008152600401610741906113f6565b60405180910390fd5b8082111561078d576040517f08c379a0000000000000000000000000000000000000000000000000000000008152600401610784906113d6565b60405180910390fd5b6107c6600560009054906101000a900473ffffffffffffffffffffffffffffffffffffffff16336064856107c19190611531565b610512565b507f4e08ba899977cf7d4c2964bce71c6b9a7ef76ee5166a4c1249a1e08016e33ef1826040516107f69190611436565b60405180910390a15050565b60008061080d610a47565b9050600061081b828661089c565b905083811015610860576040517f08c379a000000000000000000000000000000000000000000000000000000000815260040161085790611416565b60405180910390fd5b61086d8286868403610a4f565b60019250505092915050565b600080610884610a47565b9050610891818585610ca6565b600191505092915050565b6000600160008473ffffffffffffffffffffffffffffffffffffffff1673ffffffffffffffffffffffffffffffffffffffff16815260200190815260200160002060008373ffffffffffffffffffffffffffffffffffffffff1673ffffffffffffffffffffffffffffffffffffffff16815260200190815260200160002054905092915050565b60008111610966576040517f08c379a000000000000000000000000000000000000000000000000000000000815260040161095d90611356565b60405180910390fd5b6000610972333061089c565b9050818110156109b7576040517f08c379a00000000000000000000000000000000000000000000000000000000081526004016109ae90611376565b60405180910390fd5b6109c2333084610512565b503373ffffffffffffffffffffffffffffffffffffffff166108fc839081150290604051600060405180830381858888f19350505050158015610a09573d6000803e3d6000fd5b507f92f64ca637d023f354075a4be751b169c1a8a9ccb6d33cdd0cb352054399572782604051610a399190611436565b60405180910390a15050565b565b600033905090565b600073ffffffffffffffffffffffffffffffffffffffff168373ffffffffffffffffffffffffffffffffffffffff161415610abf576040517f08c379a0000000000000000000000000000000000000000000000000000000008152600401610ab6906113b6565b60405180910390fd5b600073ffffffffffffffffffffffffffffffffffffffff168273ffffffffffffffffffffffffffffffffffffffff161415610b2f576040517f08c379a0000000000000000000000000000000000000000000000000000000008152600401610b26906112f6565b60405180910390fd5b80600160008573ffffffffffffffffffffffffffffffffffffffff1673ffffffffffffffffffffffffffffffffffffffff16815260200190815260200160002060008473ffffffffffffffffffffffffffffffffffffffff1673ffffffffffffffffffffffffffffffffffffffff168152602001908152602001600020819055508173ffffffffffffffffffffffffffffffffffffffff168373ffffffffffffffffffffffffffffffffffffffff167f8c5be1e5ebec7d5bd14f71427d1e84f3dd0314c0f7b2291e5b200ac8c7c3b92583604051610c0d9190611436565b60405180910390a3505050565b6000610c26848461089c565b90507fffffffffffffffffffffffffffffffffffffffffffffffffffffffffffffffff8114610ca05781811015610c92576040517f08c379a0000000000000000000000000000000000000000000000000000000008152600401610c8990611316565b60405180910390fd5b610c9f8484848403610a4f565b5b50505050565b600073ffffffffffffffffffffffffffffffffffffffff168373ffffffffffffffffffffffffffffffffffffffff161415610d16576040517f08c379a0000000000000000000000000000000000000000000000000000000008152600401610d0d90611396565b60405180910390fd5b600073ffffffffffffffffffffffffffffffffffffffff168273ffffffffffffffffffffffffffffffffffffffff161415610d86576040517f08c379a0000000000000000000000000000000000000000000000000000000008152600401610d7d906112d6565b60405180910390fd5b610d91838383610f27565b60008060008573ffffffffffffffffffffffffffffffffffffffff1673ffffffffffffffffffffffffffffffffffffffff16815260200190815260200160002054905081811015610e17576040517f08c379a0000000000000000000000000000000000000000000000000000000008152600401610e0e90611336565b60405180910390fd5b8181036000808673ffffffffffffffffffffffffffffffffffffffff1673ffffffffffffffffffffffffffffffffffffffff16815260200190815260200160002081905550816000808573ffffffffffffffffffffffffffffffffffffffff1673ffffffffffffffffffffffffffffffffffffffff1681526020019081526020016000206000828254610eaa9190611488565b925050819055508273ffffffffffffffffffffffffffffffffffffffff168473ffffffffffffffffffffffffffffffffffffffff167fddf252ad1be2c89b69c2b068fc378daa952ba7f163c4a11628f55a4df523b3ef84604051610f0e9190611436565b60405180910390a3610f21848484610f2c565b50505050565b505050565b505050565b600081359050610f4081611a57565b92915050565b600081359050610f5581611a6e565b92915050565b600060208284031215610f7157610f70611767565b5b6000610f7f84828501610f31565b91505092915050565b60008060408385031215610f9f57610f9e611767565b5b6000610fad85828601610f31565b9250506020610fbe85828601610f31565b9150509250929050565b600080600060608486031215610fe157610fe0611767565b5b6000610fef86828701610f31565b935050602061100086828701610f31565b925050604061101186828701610f46565b9150509250925092565b6000806040838503121561103257611031611767565b5b600061104085828601610f31565b925050602061105185828601610f46565b9150509250929050565b60006020828403121561107157611070611767565b5b600061107f84828501610f46565b91505092915050565b6110918161164f565b82525050565b6110a081611661565b82525050565b60006110b18261146c565b6110bb8185611477565b93506110cb8185602086016116a4565b6110d48161176c565b840191505092915050565b60006110ec602383611477565b91506110f78261178a565b604082019050919050565b600061110f602283611477565b915061111a826117d9565b604082019050919050565b6000611132601d83611477565b915061113d82611828565b602082019050919050565b6000611155602683611477565b915061116082611851565b604082019050919050565b6000611178602583611477565b9150611183826118a0565b604082019050919050565b600061119b601983611477565b91506111a6826118ef565b602082019050919050565b60006111be602583611477565b91506111c982611918565b604082019050919050565b60006111e1602483611477565b91506111ec82611967565b604082019050919050565b6000611204602083611477565b915061120f826119b6565b602082019050919050565b6000611227601b83611477565b9150611232826119df565b602082019050919050565b600061124a602583611477565b915061125582611a08565b604082019050919050565b6112698161168d565b82525050565b61127881611697565b82525050565b60006020820190506112936000830184611088565b92915050565b60006020820190506112ae6000830184611097565b92915050565b600060208201905081810360008301526112ce81846110a6565b905092915050565b600060208201905081810360008301526112ef816110df565b9050919050565b6000602082019050818103600083015261130f81611102565b9050919050565b6000602082019050818103600083015261132f81611125565b9050919050565b6000602082019050818103600083015261134f81611148565b9050919050565b6000602082019050818103600083015261136f8161116b565b9050919050565b6000602082019050818103600083015261138f8161118e565b9050919050565b600060208201905081810360008301526113af816111b1565b9050919050565b600060208201905081810360008301526113cf816111d4565b9050919050565b600060208201905081810360008301526113ef816111f7565b9050919050565b6000602082019050818103600083015261140f8161121a565b9050919050565b6000602082019050818103600083015261142f8161123d565b9050919050565b600060208201905061144b6000830184611260565b92915050565b6000602082019050611466600083018461126f565b92915050565b600081519050919050565b600082825260208201905092915050565b60006114938261168d565b915061149e8361168d565b9250827fffffffffffffffffffffffffffffffffffffffffffffffffffffffffffffffff038211156114d3576114d2611709565b5b828201905092915050565b6000808291508390505b60018511156115285780860481111561150457611503611709565b5b60018516156115135780820291505b80810290506115218561177d565b94506114e8565b94509492505050565b600061153c8261168d565b915061154783611697565b92506115747fffffffffffffffffffffffffffffffffffffffffffffffffffffffffffffffff848461157c565b905092915050565b60008261158c5760019050611648565b8161159a5760009050611648565b81600181146115b057600281146115ba576115e9565b6001915050611648565b60ff8411156115cc576115cb611709565b5b8360020a9150848211156115e3576115e2611709565b5b50611648565b5060208310610133831016604e8410600b841016171561161e5782820a90508381111561161957611618611709565b5b611648565b61162b84848460016114de565b9250905081840481111561164257611641611709565b5b81810290505b9392505050565b600061165a8261166d565b9050919050565b60008115159050919050565b600073ffffffffffffffffffffffffffffffffffffffff82169050919050565b6000819050919050565b600060ff82169050919050565b60005b838110156116c25780820151818401526020810190506116a7565b838111156116d1576000848401525b50505050565b600060028204905060018216806116ef57607f821691505b6020821081141561170357611702611738565b5b50919050565b7f4e487b7100000000000000000000000000000000000000000000000000000000600052601160045260246000fd5b7f4e487b7100000000000000000000000000000000000000000000000000000000600052602260045260246000fd5b600080fd5b6000601f19601f8301169050919050565b60008160011c9050919050565b7f45524332303a207472616e7366657220746f20746865207a65726f206164647260008201527f6573730000000000000000000000000000000000000000000000000000000000602082015250565b7f45524332303a20617070726f766520746f20746865207a65726f20616464726560008201527f7373000000000000000000000000000000000000000000000000000000000000602082015250565b7f45524332303a20696e73756666696369656e7420616c6c6f77616e6365000000600082015250565b7f45524332303a207472616e7366657220616d6f756e742065786365656473206260008201527f616c616e63650000000000000000000000000000000000000000000000000000602082015250565b7f596f75206e65656420746f2073656c6c206174206c6561737420736f6d65207460008201527f6f6b656e73000000000000000000000000000000000000000000000000000000602082015250565b7f436865636b2074686520746f6b656e20616c6c6f77616e636500000000000000600082015250565b7f45524332303a207472616e736665722066726f6d20746865207a65726f20616460008201527f6472657373000000000000000000000000000000000000000000000000000000602082015250565b7f45524332303a20617070726f76652066726f6d20746865207a65726f2061646460008201527f7265737300000000000000000000000000000000000000000000000000000000602082015250565b7f4e6f7420656e6f75676820746f6b656e7320696e207468652072657365727665600082015250565b7f596f75206e65656420746f2073656e6420736f6d652065746865720000000000600082015250565b7f45524332303a2064656372656173656420616c6c6f77616e63652062656c6f7760008201527f207a65726f000000000000000000000000000000000000000000000000000000602082015250565b611a608161164f565b8114611a6b57600080fd5b50565b611a778161168d565b8114611a8257600080fd5b5056fea26469706673582212209f028fb48d034f8bef5f2a21dc3b38ede5a7b7bbaed680ed06ec63a95bc222e364736f6c63430008070033",
					"opcodes": "PUSH1 0x80 PUSH1 0x40 MSTORE CALLVALUE DUP1 ISZERO PUSH3 0x11 JUMPI PUSH1 0x0 DUP1 REVERT JUMPDEST POP PUSH1 0x40 MLOAD PUSH3 0x2417 CODESIZE SUB DUP1 PUSH3 0x2417 DUP4 CODECOPY DUP2 DUP2 ADD PUSH1 0x40 MSTORE DUP2 ADD SWAP1 PUSH3 0x37 SWAP2 SWAP1 PUSH3 0x3C7 JUMP JUMPDEST DUP3 DUP3 DUP2 PUSH1 0x3 SWAP1 DUP1 MLOAD SWAP1 PUSH1 0x20 ADD SWAP1 PUSH3 0x51 SWAP3 SWAP2 SWAP1 PUSH3 0x282 JUMP JUMPDEST POP DUP1 PUSH1 0x4 SWAP1 DUP1 MLOAD SWAP1 PUSH1 0x20 ADD SWAP1 PUSH3 0x6A SWAP3 SWAP2 SWAP1 PUSH3 0x282 JUMP JUMPDEST POP POP POP CALLER PUSH1 0x5 PUSH1 0x0 PUSH2 0x100 EXP DUP2 SLOAD DUP2 PUSH20 0xFFFFFFFFFFFFFFFFFFFFFFFFFFFFFFFFFFFFFFFF MUL NOT AND SWAP1 DUP4 PUSH20 0xFFFFFFFFFFFFFFFFFFFFFFFFFFFFFFFFFFFFFFFF AND MUL OR SWAP1 SSTORE POP PUSH3 0xED CALLER PUSH3 0xC3 PUSH3 0xF6 PUSH1 0x20 SHL PUSH1 0x20 SHR JUMP JUMPDEST PUSH1 0xFF AND PUSH1 0xA PUSH3 0xD4 SWAP2 SWAP1 PUSH3 0x600 JUMP JUMPDEST DUP4 PUSH3 0xE1 SWAP2 SWAP1 PUSH3 0x73D JUMP JUMPDEST PUSH3 0xFF PUSH1 0x20 SHL PUSH1 0x20 SHR JUMP JUMPDEST POP POP POP PUSH3 0x94C JUMP JUMPDEST PUSH1 0x0 PUSH1 0x12 SWAP1 POP SWAP1 JUMP JUMPDEST PUSH1 0x0 PUSH20 0xFFFFFFFFFFFFFFFFFFFFFFFFFFFFFFFFFFFFFFFF AND DUP3 PUSH20 0xFFFFFFFFFFFFFFFFFFFFFFFFFFFFFFFFFFFFFFFF AND EQ ISZERO PUSH3 0x172 JUMPI PUSH1 0x40 MLOAD PUSH32 0x8C379A000000000000000000000000000000000000000000000000000000000 DUP2 MSTORE PUSH1 0x4 ADD PUSH3 0x169 SWAP1 PUSH3 0x499 JUMP JUMPDEST PUSH1 0x40 MLOAD DUP1 SWAP2 SUB SWAP1 REVERT JUMPDEST PUSH3 0x186 PUSH1 0x0 DUP4 DUP4 PUSH3 0x278 PUSH1 0x20 SHL PUSH1 0x20 SHR JUMP JUMPDEST DUP1 PUSH1 0x2 PUSH1 0x0 DUP3 DUP3 SLOAD PUSH3 0x19A SWAP2 SWAP1 PUSH3 0x548 JUMP JUMPDEST SWAP3 POP POP DUP2 SWAP1 SSTORE POP DUP1 PUSH1 0x0 DUP1 DUP5 PUSH20 0xFFFFFFFFFFFFFFFFFFFFFFFFFFFFFFFFFFFFFFFF AND PUSH20 0xFFFFFFFFFFFFFFFFFFFFFFFFFFFFFFFFFFFFFFFF AND DUP2 MSTORE PUSH1 0x20 ADD SWAP1 DUP2 MSTORE PUSH1 0x20 ADD PUSH1 0x0 KECCAK256 PUSH1 0x0 DUP3 DUP3 SLOAD PUSH3 0x1F1 SWAP2 SWAP1 PUSH3 0x548 JUMP JUMPDEST SWAP3 POP POP DUP2 SWAP1 SSTORE POP DUP2 PUSH20 0xFFFFFFFFFFFFFFFFFFFFFFFFFFFFFFFFFFFFFFFF AND PUSH1 0x0 PUSH20 0xFFFFFFFFFFFFFFFFFFFFFFFFFFFFFFFFFFFFFFFF AND PUSH32 0xDDF252AD1BE2C89B69C2B068FC378DAA952BA7F163C4A11628F55A4DF523B3EF DUP4 PUSH1 0x40 MLOAD PUSH3 0x258 SWAP2 SWAP1 PUSH3 0x4BB JUMP JUMPDEST PUSH1 0x40 MLOAD DUP1 SWAP2 SUB SWAP1 LOG3 PUSH3 0x274 PUSH1 0x0 DUP4 DUP4 PUSH3 0x27D PUSH1 0x20 SHL PUSH1 0x20 SHR JUMP JUMPDEST POP POP JUMP JUMPDEST POP POP POP JUMP JUMPDEST POP POP POP JUMP JUMPDEST DUP3 DUP1 SLOAD PUSH3 0x290 SWAP1 PUSH3 0x7DE JUMP JUMPDEST SWAP1 PUSH1 0x0 MSTORE PUSH1 0x20 PUSH1 0x0 KECCAK256 SWAP1 PUSH1 0x1F ADD PUSH1 0x20 SWAP1 DIV DUP2 ADD SWAP3 DUP3 PUSH3 0x2B4 JUMPI PUSH1 0x0 DUP6 SSTORE PUSH3 0x300 JUMP JUMPDEST DUP3 PUSH1 0x1F LT PUSH3 0x2CF JUMPI DUP1 MLOAD PUSH1 0xFF NOT AND DUP4 DUP1 ADD OR DUP6 SSTORE PUSH3 0x300 JUMP JUMPDEST DUP3 DUP1 ADD PUSH1 0x1 ADD DUP6 SSTORE DUP3 ISZERO PUSH3 0x300 JUMPI SWAP2 DUP3 ADD JUMPDEST DUP3 DUP2 GT ISZERO PUSH3 0x2FF JUMPI DUP3 MLOAD DUP3 SSTORE SWAP2 PUSH1 0x20 ADD SWAP2 SWAP1 PUSH1 0x1 ADD SWAP1 PUSH3 0x2E2 JUMP JUMPDEST JUMPDEST POP SWAP1 POP PUSH3 0x30F SWAP2 SWAP1 PUSH3 0x313 JUMP JUMPDEST POP SWAP1 JUMP JUMPDEST JUMPDEST DUP1 DUP3 GT ISZERO PUSH3 0x32E JUMPI PUSH1 0x0 DUP2 PUSH1 0x0 SWAP1 SSTORE POP PUSH1 0x1 ADD PUSH3 0x314 JUMP JUMPDEST POP SWAP1 JUMP JUMPDEST PUSH1 0x0 PUSH3 0x349 PUSH3 0x343 DUP5 PUSH3 0x501 JUMP JUMPDEST PUSH3 0x4D8 JUMP JUMPDEST SWAP1 POP DUP3 DUP2 MSTORE PUSH1 0x20 DUP2 ADD DUP5 DUP5 DUP5 ADD GT ISZERO PUSH3 0x368 JUMPI PUSH3 0x367 PUSH3 0x8DC JUMP JUMPDEST JUMPDEST PUSH3 0x375 DUP5 DUP3 DUP6 PUSH3 0x7A8 JUMP JUMPDEST POP SWAP4 SWAP3 POP POP POP JUMP JUMPDEST PUSH1 0x0 DUP3 PUSH1 0x1F DUP4 ADD SLT PUSH3 0x395 JUMPI PUSH3 0x394 PUSH3 0x8D7 JUMP JUMPDEST JUMPDEST DUP2 MLOAD PUSH3 0x3A7 DUP5 DUP3 PUSH1 0x20 DUP7 ADD PUSH3 0x332 JUMP JUMPDEST SWAP2 POP POP SWAP3 SWAP2 POP POP JUMP JUMPDEST PUSH1 0x0 DUP2 MLOAD SWAP1 POP PUSH3 0x3C1 DUP2 PUSH3 0x932 JUMP JUMPDEST SWAP3 SWAP2 POP POP JUMP JUMPDEST PUSH1 0x0 DUP1 PUSH1 0x0 PUSH1 0x60 DUP5 DUP7 SUB SLT ISZERO PUSH3 0x3E3 JUMPI PUSH3 0x3E2 PUSH3 0x8E6 JUMP JUMPDEST JUMPDEST PUSH1 0x0 DUP5 ADD MLOAD PUSH8 0xFFFFFFFFFFFFFFFF DUP2 GT ISZERO PUSH3 0x404 JUMPI PUSH3 0x403 PUSH3 0x8E1 JUMP JUMPDEST JUMPDEST PUSH3 0x412 DUP7 DUP3 DUP8 ADD PUSH3 0x37D JUMP JUMPDEST SWAP4 POP POP PUSH1 0x20 DUP5 ADD MLOAD PUSH8 0xFFFFFFFFFFFFFFFF DUP2 GT ISZERO PUSH3 0x436 JUMPI PUSH3 0x435 PUSH3 0x8E1 JUMP JUMPDEST JUMPDEST PUSH3 0x444 DUP7 DUP3 DUP8 ADD PUSH3 0x37D JUMP JUMPDEST SWAP3 POP POP PUSH1 0x40 PUSH3 0x457 DUP7 DUP3 DUP8 ADD PUSH3 0x3B0 JUMP JUMPDEST SWAP2 POP POP SWAP3 POP SWAP3 POP SWAP3 JUMP JUMPDEST PUSH1 0x0 PUSH3 0x470 PUSH1 0x1F DUP4 PUSH3 0x537 JUMP JUMPDEST SWAP2 POP PUSH3 0x47D DUP3 PUSH3 0x909 JUMP JUMPDEST PUSH1 0x20 DUP3 ADD SWAP1 POP SWAP2 SWAP1 POP JUMP JUMPDEST PUSH3 0x493 DUP2 PUSH3 0x79E JUMP JUMPDEST DUP3 MSTORE POP POP JUMP JUMPDEST PUSH1 0x0 PUSH1 0x20 DUP3 ADD SWAP1 POP DUP2 DUP2 SUB PUSH1 0x0 DUP4 ADD MSTORE PUSH3 0x4B4 DUP2 PUSH3 0x461 JUMP JUMPDEST SWAP1 POP SWAP2 SWAP1 POP JUMP JUMPDEST PUSH1 0x0 PUSH1 0x20 DUP3 ADD SWAP1 POP PUSH3 0x4D2 PUSH1 0x0 DUP4 ADD DUP5 PUSH3 0x488 JUMP JUMPDEST SWAP3 SWAP2 POP POP JUMP JUMPDEST PUSH1 0x0 PUSH3 0x4E4 PUSH3 0x4F7 JUMP JUMPDEST SWAP1 POP PUSH3 0x4F2 DUP3 DUP3 PUSH3 0x814 JUMP JUMPDEST SWAP2 SWAP1 POP JUMP JUMPDEST PUSH1 0x0 PUSH1 0x40 MLOAD SWAP1 POP SWAP1 JUMP JUMPDEST PUSH1 0x0 PUSH8 0xFFFFFFFFFFFFFFFF DUP3 GT ISZERO PUSH3 0x51F JUMPI PUSH3 0x51E PUSH3 0x8A8 JUMP JUMPDEST JUMPDEST PUSH3 0x52A DUP3 PUSH3 0x8EB JUMP JUMPDEST SWAP1 POP PUSH1 0x20 DUP2 ADD SWAP1 POP SWAP2 SWAP1 POP JUMP JUMPDEST PUSH1 0x0 DUP3 DUP3 MSTORE PUSH1 0x20 DUP3 ADD SWAP1 POP SWAP3 SWAP2 POP POP JUMP JUMPDEST PUSH1 0x0 PUSH3 0x555 DUP3 PUSH3 0x79E JUMP JUMPDEST SWAP2 POP PUSH3 0x562 DUP4 PUSH3 0x79E JUMP JUMPDEST SWAP3 POP DUP3 PUSH32 0xFFFFFFFFFFFFFFFFFFFFFFFFFFFFFFFFFFFFFFFFFFFFFFFFFFFFFFFFFFFFFFFF SUB DUP3 GT ISZERO PUSH3 0x59A JUMPI PUSH3 0x599 PUSH3 0x84A JUMP JUMPDEST JUMPDEST DUP3 DUP3 ADD SWAP1 POP SWAP3 SWAP2 POP POP JUMP JUMPDEST PUSH1 0x0 DUP1 DUP3 SWAP2 POP DUP4 SWAP1 POP JUMPDEST PUSH1 0x1 DUP6 GT ISZERO PUSH3 0x5F7 JUMPI DUP1 DUP7 DIV DUP2 GT ISZERO PUSH3 0x5CF JUMPI PUSH3 0x5CE PUSH3 0x84A JUMP JUMPDEST JUMPDEST PUSH1 0x1 DUP6 AND ISZERO PUSH3 0x5DF JUMPI DUP1 DUP3 MUL SWAP2 POP JUMPDEST DUP1 DUP2 MUL SWAP1 POP PUSH3 0x5EF DUP6 PUSH3 0x8FC JUMP JUMPDEST SWAP5 POP PUSH3 0x5AF JUMP JUMPDEST SWAP5 POP SWAP5 SWAP3 POP POP POP JUMP JUMPDEST PUSH1 0x0 PUSH3 0x60D DUP3 PUSH3 0x79E JUMP JUMPDEST SWAP2 POP PUSH3 0x61A DUP4 PUSH3 0x79E JUMP JUMPDEST SWAP3 POP PUSH3 0x649 PUSH32 0xFFFFFFFFFFFFFFFFFFFFFFFFFFFFFFFFFFFFFFFFFFFFFFFFFFFFFFFFFFFFFFFF DUP5 DUP5 PUSH3 0x651 JUMP JUMPDEST SWAP1 POP SWAP3 SWAP2 POP POP JUMP JUMPDEST PUSH1 0x0 DUP3 PUSH3 0x663 JUMPI PUSH1 0x1 SWAP1 POP PUSH3 0x736 JUMP JUMPDEST DUP2 PUSH3 0x673 JUMPI PUSH1 0x0 SWAP1 POP PUSH3 0x736 JUMP JUMPDEST DUP2 PUSH1 0x1 DUP2 EQ PUSH3 0x68C JUMPI PUSH1 0x2 DUP2 EQ PUSH3 0x697 JUMPI PUSH3 0x6CD JUMP JUMPDEST PUSH1 0x1 SWAP2 POP POP PUSH3 0x736 JUMP JUMPDEST PUSH1 0xFF DUP5 GT ISZERO PUSH3 0x6AC JUMPI PUSH3 0x6AB PUSH3 0x84A JUMP JUMPDEST JUMPDEST DUP4 PUSH1 0x2 EXP SWAP2 POP DUP5 DUP3 GT ISZERO PUSH3 0x6C6 JUMPI PUSH3 0x6C5 PUSH3 0x84A JUMP JUMPDEST JUMPDEST POP PUSH3 0x736 JUMP JUMPDEST POP PUSH1 0x20 DUP4 LT PUSH2 0x133 DUP4 LT AND PUSH1 0x4E DUP5 LT PUSH1 0xB DUP5 LT AND OR ISZERO PUSH3 0x707 JUMPI DUP3 DUP3 EXP SWAP1 POP DUP4 DUP2 GT ISZERO PUSH3 0x701 JUMPI PUSH3 0x700 PUSH3 0x84A JUMP JUMPDEST JUMPDEST PUSH3 0x736 JUMP JUMPDEST PUSH3 0x716 DUP5 DUP5 DUP5 PUSH1 0x1 PUSH3 0x5A5 JUMP JUMPDEST SWAP3 POP SWAP1 POP DUP2 DUP5 DIV DUP2 GT ISZERO PUSH3 0x730 JUMPI PUSH3 0x72F PUSH3 0x84A JUMP JUMPDEST JUMPDEST DUP2 DUP2 MUL SWAP1 POP JUMPDEST SWAP4 SWAP3 POP POP POP JUMP JUMPDEST PUSH1 0x0 PUSH3 0x74A DUP3 PUSH3 0x79E JUMP JUMPDEST SWAP2 POP PUSH3 0x757 DUP4 PUSH3 0x79E JUMP JUMPDEST SWAP3 POP DUP2 PUSH32 0xFFFFFFFFFFFFFFFFFFFFFFFFFFFFFFFFFFFFFFFFFFFFFFFFFFFFFFFFFFFFFFFF DIV DUP4 GT DUP3 ISZERO ISZERO AND ISZERO PUSH3 0x793 JUMPI PUSH3 0x792 PUSH3 0x84A JUMP JUMPDEST JUMPDEST DUP3 DUP3 MUL SWAP1 POP SWAP3 SWAP2 POP POP JUMP JUMPDEST PUSH1 0x0 DUP2 SWAP1 POP SWAP2 SWAP1 POP JUMP JUMPDEST PUSH1 0x0 JUMPDEST DUP4 DUP2 LT ISZERO PUSH3 0x7C8 JUMPI DUP1 DUP3 ADD MLOAD DUP2 DUP5 ADD MSTORE PUSH1 0x20 DUP2 ADD SWAP1 POP PUSH3 0x7AB JUMP JUMPDEST DUP4 DUP2 GT ISZERO PUSH3 0x7D8 JUMPI PUSH1 0x0 DUP5 DUP5 ADD MSTORE JUMPDEST POP POP POP POP JUMP JUMPDEST PUSH1 0x0 PUSH1 0x2 DUP3 DIV SWAP1 POP PUSH1 0x1 DUP3 AND DUP1 PUSH3 0x7F7 JUMPI PUSH1 0x7F DUP3 AND SWAP2 POP JUMPDEST PUSH1 0x20 DUP3 LT DUP2 EQ ISZERO PUSH3 0x80E JUMPI PUSH3 0x80D PUSH3 0x879 JUMP JUMPDEST JUMPDEST POP SWAP2 SWAP1 POP JUMP JUMPDEST PUSH3 0x81F DUP3 PUSH3 0x8EB JUMP JUMPDEST DUP2 ADD DUP2 DUP2 LT PUSH8 0xFFFFFFFFFFFFFFFF DUP3 GT OR ISZERO PUSH3 0x841 JUMPI PUSH3 0x840 PUSH3 0x8A8 JUMP JUMPDEST JUMPDEST DUP1 PUSH1 0x40 MSTORE POP POP POP JUMP JUMPDEST PUSH32 0x4E487B7100000000000000000000000000000000000000000000000000000000 PUSH1 0x0 MSTORE PUSH1 0x11 PUSH1 0x4 MSTORE PUSH1 0x24 PUSH1 0x0 REVERT JUMPDEST PUSH32 0x4E487B7100000000000000000000000000000000000000000000000000000000 PUSH1 0x0 MSTORE PUSH1 0x22 PUSH1 0x4 MSTORE PUSH1 0x24 PUSH1 0x0 REVERT JUMPDEST PUSH32 0x4E487B7100000000000000000000000000000000000000000000000000000000 PUSH1 0x0 MSTORE PUSH1 0x41 PUSH1 0x4 MSTORE PUSH1 0x24 PUSH1 0x0 REVERT JUMPDEST PUSH1 0x0 DUP1 REVERT JUMPDEST PUSH1 0x0 DUP1 REVERT JUMPDEST PUSH1 0x0 DUP1 REVERT JUMPDEST PUSH1 0x0 DUP1 REVERT JUMPDEST PUSH1 0x0 PUSH1 0x1F NOT PUSH1 0x1F DUP4 ADD AND SWAP1 POP SWAP2 SWAP1 POP JUMP JUMPDEST PUSH1 0x0 DUP2 PUSH1 0x1 SHR SWAP1 POP SWAP2 SWAP1 POP JUMP JUMPDEST PUSH32 0x45524332303A206D696E7420746F20746865207A65726F206164647265737300 PUSH1 0x0 DUP3 ADD MSTORE POP JUMP JUMPDEST PUSH3 0x93D DUP2 PUSH3 0x79E JUMP JUMPDEST DUP2 EQ PUSH3 0x949 JUMPI PUSH1 0x0 DUP1 REVERT JUMPDEST POP JUMP JUMPDEST PUSH2 0x1ABB DUP1 PUSH3 0x95C PUSH1 0x0 CODECOPY PUSH1 0x0 RETURN INVALID PUSH1 0x80 PUSH1 0x40 MSTORE PUSH1 0x4 CALLDATASIZE LT PUSH2 0x109 JUMPI PUSH1 0x0 CALLDATALOAD PUSH1 0xE0 SHR DUP1 PUSH4 0x6E78E23C GT PUSH2 0x95 JUMPI DUP1 PUSH4 0xA457C2D7 GT PUSH2 0x64 JUMPI DUP1 PUSH4 0xA457C2D7 EQ PUSH2 0x376 JUMPI DUP1 PUSH4 0xA9059CBB EQ PUSH2 0x3B3 JUMPI DUP1 PUSH4 0xDD62ED3E EQ PUSH2 0x3F0 JUMPI DUP1 PUSH4 0xE4849B32 EQ PUSH2 0x42D JUMPI DUP1 PUSH4 0xE8B5E51F EQ PUSH2 0x449 JUMPI PUSH2 0x109 JUMP JUMPDEST DUP1 PUSH4 0x6E78E23C EQ PUSH2 0x2C7 JUMPI DUP1 PUSH4 0x70A08231 EQ PUSH2 0x304 JUMPI DUP1 PUSH4 0x95D89B41 EQ PUSH2 0x341 JUMPI DUP1 PUSH4 0x974C86B5 EQ PUSH2 0x36C JUMPI PUSH2 0x109 JUMP JUMPDEST DUP1 PUSH4 0x313CE567 GT PUSH2 0xDC JUMPI DUP1 PUSH4 0x313CE567 EQ PUSH2 0x1DE JUMPI DUP1 PUSH4 0x320CE981 EQ PUSH2 0x209 JUMPI DUP1 PUSH4 0x39509351 EQ PUSH2 0x234 JUMPI DUP1 PUSH4 0x45B5A47A EQ PUSH2 0x271 JUMPI DUP1 PUSH4 0x5C1CB691 EQ PUSH2 0x29C JUMPI PUSH2 0x109 JUMP JUMPDEST DUP1 PUSH4 0x6FDDE03 EQ PUSH2 0x10E JUMPI DUP1 PUSH4 0x95EA7B3 EQ PUSH2 0x139 JUMPI DUP1 PUSH4 0x18160DDD EQ PUSH2 0x176 JUMPI DUP1 PUSH4 0x23B872DD EQ PUSH2 0x1A1 JUMPI JUMPDEST PUSH1 0x0 DUP1 REVERT JUMPDEST CALLVALUE DUP1 ISZERO PUSH2 0x11A JUMPI PUSH1 0x0 DUP1 REVERT JUMPDEST POP PUSH2 0x123 PUSH2 0x453 JUMP JUMPDEST PUSH1 0x40 MLOAD PUSH2 0x130 SWAP2 SWAP1 PUSH2 0x12B4 JUMP JUMPDEST PUSH1 0x40 MLOAD DUP1 SWAP2 SUB SWAP1 RETURN JUMPDEST CALLVALUE DUP1 ISZERO PUSH2 0x145 JUMPI PUSH1 0x0 DUP1 REVERT JUMPDEST POP PUSH2 0x160 PUSH1 0x4 DUP1 CALLDATASIZE SUB DUP2 ADD SWAP1 PUSH2 0x15B SWAP2 SWAP1 PUSH2 0x101B JUMP JUMPDEST PUSH2 0x4E5 JUMP JUMPDEST PUSH1 0x40 MLOAD PUSH2 0x16D SWAP2 SWAP1 PUSH2 0x1299 JUMP JUMPDEST PUSH1 0x40 MLOAD DUP1 SWAP2 SUB SWAP1 RETURN JUMPDEST CALLVALUE DUP1 ISZERO PUSH2 0x182 JUMPI PUSH1 0x0 DUP1 REVERT JUMPDEST POP PUSH2 0x18B PUSH2 0x508 JUMP JUMPDEST PUSH1 0x40 MLOAD PUSH2 0x198 SWAP2 SWAP1 PUSH2 0x1436 JUMP JUMPDEST PUSH1 0x40 MLOAD DUP1 SWAP2 SUB SWAP1 RETURN JUMPDEST CALLVALUE DUP1 ISZERO PUSH2 0x1AD JUMPI PUSH1 0x0 DUP1 REVERT JUMPDEST POP PUSH2 0x1C8 PUSH1 0x4 DUP1 CALLDATASIZE SUB DUP2 ADD SWAP1 PUSH2 0x1C3 SWAP2 SWAP1 PUSH2 0xFC8 JUMP JUMPDEST PUSH2 0x512 JUMP JUMPDEST PUSH1 0x40 MLOAD PUSH2 0x1D5 SWAP2 SWAP1 PUSH2 0x1299 JUMP JUMPDEST PUSH1 0x40 MLOAD DUP1 SWAP2 SUB SWAP1 RETURN JUMPDEST CALLVALUE DUP1 ISZERO PUSH2 0x1EA JUMPI PUSH1 0x0 DUP1 REVERT JUMPDEST POP PUSH2 0x1F3 PUSH2 0x541 JUMP JUMPDEST PUSH1 0x40 MLOAD PUSH2 0x200 SWAP2 SWAP1 PUSH2 0x1451 JUMP JUMPDEST PUSH1 0x40 MLOAD DUP1 SWAP2 SUB SWAP1 RETURN JUMPDEST CALLVALUE DUP1 ISZERO PUSH2 0x215 JUMPI PUSH1 0x0 DUP1 REVERT JUMPDEST POP PUSH2 0x21E PUSH2 0x54A JUMP JUMPDEST PUSH1 0x40 MLOAD PUSH2 0x22B SWAP2 SWAP1 PUSH2 0x1436 JUMP JUMPDEST PUSH1 0x40 MLOAD DUP1 SWAP2 SUB SWAP1 RETURN JUMPDEST CALLVALUE DUP1 ISZERO PUSH2 0x240 JUMPI PUSH1 0x0 DUP1 REVERT JUMPDEST POP PUSH2 0x25B PUSH1 0x4 DUP1 CALLDATASIZE SUB DUP2 ADD SWAP1 PUSH2 0x256 SWAP2 SWAP1 PUSH2 0x101B JUMP JUMPDEST PUSH2 0x57C JUMP JUMPDEST PUSH1 0x40 MLOAD PUSH2 0x268 SWAP2 SWAP1 PUSH2 0x1299 JUMP JUMPDEST PUSH1 0x40 MLOAD DUP1 SWAP2 SUB SWAP1 RETURN JUMPDEST CALLVALUE DUP1 ISZERO PUSH2 0x27D JUMPI PUSH1 0x0 DUP1 REVERT JUMPDEST POP PUSH2 0x286 PUSH2 0x5B3 JUMP JUMPDEST PUSH1 0x40 MLOAD PUSH2 0x293 SWAP2 SWAP1 PUSH2 0x1436 JUMP JUMPDEST PUSH1 0x40 MLOAD DUP1 SWAP2 SUB SWAP1 RETURN JUMPDEST CALLVALUE DUP1 ISZERO PUSH2 0x2A8 JUMPI PUSH1 0x0 DUP1 REVERT JUMPDEST POP PUSH2 0x2B1 PUSH2 0x5BB JUMP JUMPDEST PUSH1 0x40 MLOAD PUSH2 0x2BE SWAP2 SWAP1 PUSH2 0x127E JUMP JUMPDEST PUSH1 0x40 MLOAD DUP1 SWAP2 SUB SWAP1 RETURN JUMPDEST CALLVALUE DUP1 ISZERO PUSH2 0x2D3 JUMPI PUSH1 0x0 DUP1 REVERT JUMPDEST POP PUSH2 0x2EE PUSH1 0x4 DUP1 CALLDATASIZE SUB DUP2 ADD SWAP1 PUSH2 0x2E9 SWAP2 SWAP1 PUSH2 0xFC8 JUMP JUMPDEST PUSH2 0x5E1 JUMP JUMPDEST PUSH1 0x40 MLOAD PUSH2 0x2FB SWAP2 SWAP1 PUSH2 0x1299 JUMP JUMPDEST PUSH1 0x40 MLOAD DUP1 SWAP2 SUB SWAP1 RETURN JUMPDEST CALLVALUE DUP1 ISZERO PUSH2 0x310 JUMPI PUSH1 0x0 DUP1 REVERT JUMPDEST POP PUSH2 0x32B PUSH1 0x4 DUP1 CALLDATASIZE SUB DUP2 ADD SWAP1 PUSH2 0x326 SWAP2 SWAP1 PUSH2 0xF5B JUMP JUMPDEST PUSH2 0x5F9 JUMP JUMPDEST PUSH1 0x40 MLOAD PUSH2 0x338 SWAP2 SWAP1 PUSH2 0x1436 JUMP JUMPDEST PUSH1 0x40 MLOAD DUP1 SWAP2 SUB SWAP1 RETURN JUMPDEST CALLVALUE DUP1 ISZERO PUSH2 0x34D JUMPI PUSH1 0x0 DUP1 REVERT JUMPDEST POP PUSH2 0x356 PUSH2 0x641 JUMP JUMPDEST PUSH1 0x40 MLOAD PUSH2 0x363 SWAP2 SWAP1 PUSH2 0x12B4 JUMP JUMPDEST PUSH1 0x40 MLOAD DUP1 SWAP2 SUB SWAP1 RETURN JUMPDEST PUSH2 0x374 PUSH2 0x6D3 JUMP JUMPDEST STOP JUMPDEST CALLVALUE DUP1 ISZERO PUSH2 0x382 JUMPI PUSH1 0x0 DUP1 REVERT JUMPDEST POP PUSH2 0x39D PUSH1 0x4 DUP1 CALLDATASIZE SUB DUP2 ADD SWAP1 PUSH2 0x398 SWAP2 SWAP1 PUSH2 0x101B JUMP JUMPDEST PUSH2 0x802 JUMP JUMPDEST PUSH1 0x40 MLOAD PUSH2 0x3AA SWAP2 SWAP1 PUSH2 0x1299 JUMP JUMPDEST PUSH1 0x40 MLOAD DUP1 SWAP2 SUB SWAP1 RETURN JUMPDEST CALLVALUE DUP1 ISZERO PUSH2 0x3BF JUMPI PUSH1 0x0 DUP1 REVERT JUMPDEST POP PUSH2 0x3DA PUSH1 0x4 DUP1 CALLDATASIZE SUB DUP2 ADD SWAP1 PUSH2 0x3D5 SWAP2 SWAP1 PUSH2 0x101B JUMP JUMPDEST PUSH2 0x879 JUMP JUMPDEST PUSH1 0x40 MLOAD PUSH2 0x3E7 SWAP2 SWAP1 PUSH2 0x1299 JUMP JUMPDEST PUSH1 0x40 MLOAD DUP1 SWAP2 SUB SWAP1 RETURN JUMPDEST CALLVALUE DUP1 ISZERO PUSH2 0x3FC JUMPI PUSH1 0x0 DUP1 REVERT JUMPDEST POP PUSH2 0x417 PUSH1 0x4 DUP1 CALLDATASIZE SUB DUP2 ADD SWAP1 PUSH2 0x412 SWAP2 SWAP1 PUSH2 0xF88 JUMP JUMPDEST PUSH2 0x89C JUMP JUMPDEST PUSH1 0x40 MLOAD PUSH2 0x424 SWAP2 SWAP1 PUSH2 0x1436 JUMP JUMPDEST PUSH1 0x40 MLOAD DUP1 SWAP2 SUB SWAP1 RETURN JUMPDEST PUSH2 0x447 PUSH1 0x4 DUP1 CALLDATASIZE SUB DUP2 ADD SWAP1 PUSH2 0x442 SWAP2 SWAP1 PUSH2 0x105B JUMP JUMPDEST PUSH2 0x923 JUMP JUMPDEST STOP JUMPDEST PUSH2 0x451 PUSH2 0xA45 JUMP JUMPDEST STOP JUMPDEST PUSH1 0x60 PUSH1 0x3 DUP1 SLOAD PUSH2 0x462 SWAP1 PUSH2 0x16D7 JUMP JUMPDEST DUP1 PUSH1 0x1F ADD PUSH1 0x20 DUP1 SWAP2 DIV MUL PUSH1 0x20 ADD PUSH1 0x40 MLOAD SWAP1 DUP2 ADD PUSH1 0x40 MSTORE DUP1 SWAP3 SWAP2 SWAP1 DUP2 DUP2 MSTORE PUSH1 0x20 ADD DUP3 DUP1 SLOAD PUSH2 0x48E SWAP1 PUSH2 0x16D7 JUMP JUMPDEST DUP1 ISZERO PUSH2 0x4DB JUMPI DUP1 PUSH1 0x1F LT PUSH2 0x4B0 JUMPI PUSH2 0x100 DUP1 DUP4 SLOAD DIV MUL DUP4 MSTORE SWAP2 PUSH1 0x20 ADD SWAP2 PUSH2 0x4DB JUMP JUMPDEST DUP3 ADD SWAP2 SWAP1 PUSH1 0x0 MSTORE PUSH1 0x20 PUSH1 0x0 KECCAK256 SWAP1 JUMPDEST DUP2 SLOAD DUP2 MSTORE SWAP1 PUSH1 0x1 ADD SWAP1 PUSH1 0x20 ADD DUP1 DUP4 GT PUSH2 0x4BE JUMPI DUP3 SWAP1 SUB PUSH1 0x1F AND DUP3 ADD SWAP2 JUMPDEST POP POP POP POP POP SWAP1 POP SWAP1 JUMP JUMPDEST PUSH1 0x0 DUP1 PUSH2 0x4F0 PUSH2 0xA47 JUMP JUMPDEST SWAP1 POP PUSH2 0x4FD DUP2 DUP6 DUP6 PUSH2 0xA4F JUMP JUMPDEST PUSH1 0x1 SWAP2 POP POP SWAP3 SWAP2 POP POP JUMP JUMPDEST PUSH1 0x0 PUSH1 0x2 SLOAD SWAP1 POP SWAP1 JUMP JUMPDEST PUSH1 0x0 DUP1 PUSH2 0x51D PUSH2 0xA47 JUMP JUMPDEST SWAP1 POP PUSH2 0x52A DUP6 DUP3 DUP6 PUSH2 0xC1A JUMP JUMPDEST PUSH2 0x535 DUP6 DUP6 DUP6 PUSH2 0xCA6 JUMP JUMPDEST PUSH1 0x1 SWAP2 POP POP SWAP4 SWAP3 POP POP POP JUMP JUMPDEST PUSH1 0x0 PUSH1 0x12 SWAP1 POP SWAP1 JUMP JUMPDEST PUSH1 0x0 PUSH2 0x577 PUSH1 0x5 PUSH1 0x0 SWAP1 SLOAD SWAP1 PUSH2 0x100 EXP SWAP1 DIV PUSH20 0xFFFFFFFFFFFFFFFFFFFFFFFFFFFFFFFFFFFFFFFF AND PUSH2 0x5F9 JUMP JUMPDEST SWAP1 POP SWAP1 JUMP JUMPDEST PUSH1 0x0 DUP1 PUSH2 0x587 PUSH2 0xA47 JUMP JUMPDEST SWAP1 POP PUSH2 0x5A8 DUP2 DUP6 DUP6 PUSH2 0x599 DUP6 DUP10 PUSH2 0x89C JUMP JUMPDEST PUSH2 0x5A3 SWAP2 SWAP1 PUSH2 0x1488 JUMP JUMPDEST PUSH2 0xA4F JUMP JUMPDEST PUSH1 0x1 SWAP2 POP POP SWAP3 SWAP2 POP POP JUMP JUMPDEST PUSH1 0x0 SELFBALANCE SWAP1 POP SWAP1 JUMP JUMPDEST PUSH1 0x5 PUSH1 0x0 SWAP1 SLOAD SWAP1 PUSH2 0x100 EXP SWAP1 DIV PUSH20 0xFFFFFFFFFFFFFFFFFFFFFFFFFFFFFFFFFFFFFFFF AND DUP2 JUMP JUMPDEST PUSH1 0x0 PUSH2 0x5EE DUP5 DUP5 DUP5 PUSH2 0xA4F JUMP JUMPDEST PUSH1 0x1 SWAP1 POP SWAP4 SWAP3 POP POP POP JUMP JUMPDEST PUSH1 0x0 DUP1 PUSH1 0x0 DUP4 PUSH20 0xFFFFFFFFFFFFFFFFFFFFFFFFFFFFFFFFFFFFFFFF AND PUSH20 0xFFFFFFFFFFFFFFFFFFFFFFFFFFFFFFFFFFFFFFFF AND DUP2 MSTORE PUSH1 0x20 ADD SWAP1 DUP2 MSTORE PUSH1 0x20 ADD PUSH1 0x0 KECCAK256 SLOAD SWAP1 POP SWAP2 SWAP1 POP JUMP JUMPDEST PUSH1 0x60 PUSH1 0x4 DUP1 SLOAD PUSH2 0x650 SWAP1 PUSH2 0x16D7 JUMP JUMPDEST DUP1 PUSH1 0x1F ADD PUSH1 0x20 DUP1 SWAP2 DIV MUL PUSH1 0x20 ADD PUSH1 0x40 MLOAD SWAP1 DUP2 ADD PUSH1 0x40 MSTORE DUP1 SWAP3 SWAP2 SWAP1 DUP2 DUP2 MSTORE PUSH1 0x20 ADD DUP3 DUP1 SLOAD PUSH2 0x67C SWAP1 PUSH2 0x16D7 JUMP JUMPDEST DUP1 ISZERO PUSH2 0x6C9 JUMPI DUP1 PUSH1 0x1F LT PUSH2 0x69E JUMPI PUSH2 0x100 DUP1 DUP4 SLOAD DIV MUL DUP4 MSTORE SWAP2 PUSH1 0x20 ADD SWAP2 PUSH2 0x6C9 JUMP JUMPDEST DUP3 ADD SWAP2 SWAP1 PUSH1 0x0 MSTORE PUSH1 0x20 PUSH1 0x0 KECCAK256 SWAP1 JUMPDEST DUP2 SLOAD DUP2 MSTORE SWAP1 PUSH1 0x1 ADD SWAP1 PUSH1 0x20 ADD DUP1 DUP4 GT PUSH2 0x6AC JUMPI DUP3 SWAP1 SUB PUSH1 0x1F AND DUP3 ADD SWAP2 JUMPDEST POP POP POP POP POP SWAP1 POP SWAP1 JUMP JUMPDEST PUSH1 0x0 CALLVALUE SWAP1 POP PUSH1 0x0 PUSH2 0x705 PUSH1 0x5 PUSH1 0x0 SWAP1 SLOAD SWAP1 PUSH2 0x100 EXP SWAP1 DIV PUSH20 0xFFFFFFFFFFFFFFFFFFFFFFFFFFFFFFFFFFFFFFFF AND PUSH2 0x5F9 JUMP JUMPDEST SWAP1 POP PUSH1 0x0 DUP3 GT PUSH2 0x74A JUMPI PUSH1 0x40 MLOAD PUSH32 0x8C379A000000000000000000000000000000000000000000000000000000000 DUP2 MSTORE PUSH1 0x4 ADD PUSH2 0x741 SWAP1 PUSH2 0x13F6 JUMP JUMPDEST PUSH1 0x40 MLOAD DUP1 SWAP2 SUB SWAP1 REVERT JUMPDEST DUP1 DUP3 GT ISZERO PUSH2 0x78D JUMPI PUSH1 0x40 MLOAD PUSH32 0x8C379A000000000000000000000000000000000000000000000000000000000 DUP2 MSTORE PUSH1 0x4 ADD PUSH2 0x784 SWAP1 PUSH2 0x13D6 JUMP JUMPDEST PUSH1 0x40 MLOAD DUP1 SWAP2 SUB SWAP1 REVERT JUMPDEST PUSH2 0x7C6 PUSH1 0x5 PUSH1 0x0 SWAP1 SLOAD SWAP1 PUSH2 0x100 EXP SWAP1 DIV PUSH20 0xFFFFFFFFFFFFFFFFFFFFFFFFFFFFFFFFFFFFFFFF AND CALLER PUSH1 0x64 DUP6 PUSH2 0x7C1 SWAP2 SWAP1 PUSH2 0x1531 JUMP JUMPDEST PUSH2 0x512 JUMP JUMPDEST POP PUSH32 0x4E08BA899977CF7D4C2964BCE71C6B9A7EF76EE5166A4C1249A1E08016E33EF1 DUP3 PUSH1 0x40 MLOAD PUSH2 0x7F6 SWAP2 SWAP1 PUSH2 0x1436 JUMP JUMPDEST PUSH1 0x40 MLOAD DUP1 SWAP2 SUB SWAP1 LOG1 POP POP JUMP JUMPDEST PUSH1 0x0 DUP1 PUSH2 0x80D PUSH2 0xA47 JUMP JUMPDEST SWAP1 POP PUSH1 0x0 PUSH2 0x81B DUP3 DUP7 PUSH2 0x89C JUMP JUMPDEST SWAP1 POP DUP4 DUP2 LT ISZERO PUSH2 0x860 JUMPI PUSH1 0x40 MLOAD PUSH32 0x8C379A000000000000000000000000000000000000000000000000000000000 DUP2 MSTORE PUSH1 0x4 ADD PUSH2 0x857 SWAP1 PUSH2 0x1416 JUMP JUMPDEST PUSH1 0x40 MLOAD DUP1 SWAP2 SUB SWAP1 REVERT JUMPDEST PUSH2 0x86D DUP3 DUP7 DUP7 DUP5 SUB PUSH2 0xA4F JUMP JUMPDEST PUSH1 0x1 SWAP3 POP POP POP SWAP3 SWAP2 POP POP JUMP JUMPDEST PUSH1 0x0 DUP1 PUSH2 0x884 PUSH2 0xA47 JUMP JUMPDEST SWAP1 POP PUSH2 0x891 DUP2 DUP6 DUP6 PUSH2 0xCA6 JUMP JUMPDEST PUSH1 0x1 SWAP2 POP POP SWAP3 SWAP2 POP POP JUMP JUMPDEST PUSH1 0x0 PUSH1 0x1 PUSH1 0x0 DUP5 PUSH20 0xFFFFFFFFFFFFFFFFFFFFFFFFFFFFFFFFFFFFFFFF AND PUSH20 0xFFFFFFFFFFFFFFFFFFFFFFFFFFFFFFFFFFFFFFFF AND DUP2 MSTORE PUSH1 0x20 ADD SWAP1 DUP2 MSTORE PUSH1 0x20 ADD PUSH1 0x0 KECCAK256 PUSH1 0x0 DUP4 PUSH20 0xFFFFFFFFFFFFFFFFFFFFFFFFFFFFFFFFFFFFFFFF AND PUSH20 0xFFFFFFFFFFFFFFFFFFFFFFFFFFFFFFFFFFFFFFFF AND DUP2 MSTORE PUSH1 0x20 ADD SWAP1 DUP2 MSTORE PUSH1 0x20 ADD PUSH1 0x0 KECCAK256 SLOAD SWAP1 POP SWAP3 SWAP2 POP POP JUMP JUMPDEST PUSH1 0x0 DUP2 GT PUSH2 0x966 JUMPI PUSH1 0x40 MLOAD PUSH32 0x8C379A000000000000000000000000000000000000000000000000000000000 DUP2 MSTORE PUSH1 0x4 ADD PUSH2 0x95D SWAP1 PUSH2 0x1356 JUMP JUMPDEST PUSH1 0x40 MLOAD DUP1 SWAP2 SUB SWAP1 REVERT JUMPDEST PUSH1 0x0 PUSH2 0x972 CALLER ADDRESS PUSH2 0x89C JUMP JUMPDEST SWAP1 POP DUP2 DUP2 LT ISZERO PUSH2 0x9B7 JUMPI PUSH1 0x40 MLOAD PUSH32 0x8C379A000000000000000000000000000000000000000000000000000000000 DUP2 MSTORE PUSH1 0x4 ADD PUSH2 0x9AE SWAP1 PUSH2 0x1376 JUMP JUMPDEST PUSH1 0x40 MLOAD DUP1 SWAP2 SUB SWAP1 REVERT JUMPDEST PUSH2 0x9C2 CALLER ADDRESS DUP5 PUSH2 0x512 JUMP JUMPDEST POP CALLER PUSH20 0xFFFFFFFFFFFFFFFFFFFFFFFFFFFFFFFFFFFFFFFF AND PUSH2 0x8FC DUP4 SWAP1 DUP2 ISZERO MUL SWAP1 PUSH1 0x40 MLOAD PUSH1 0x0 PUSH1 0x40 MLOAD DUP1 DUP4 SUB DUP2 DUP6 DUP9 DUP9 CALL SWAP4 POP POP POP POP ISZERO DUP1 ISZERO PUSH2 0xA09 JUMPI RETURNDATASIZE PUSH1 0x0 DUP1 RETURNDATACOPY RETURNDATASIZE PUSH1 0x0 REVERT JUMPDEST POP PUSH32 0x92F64CA637D023F354075A4BE751B169C1A8A9CCB6D33CDD0CB3520543995727 DUP3 PUSH1 0x40 MLOAD PUSH2 0xA39 SWAP2 SWAP1 PUSH2 0x1436 JUMP JUMPDEST PUSH1 0x40 MLOAD DUP1 SWAP2 SUB SWAP1 LOG1 POP POP JUMP JUMPDEST JUMP JUMPDEST PUSH1 0x0 CALLER SWAP1 POP SWAP1 JUMP JUMPDEST PUSH1 0x0 PUSH20 0xFFFFFFFFFFFFFFFFFFFFFFFFFFFFFFFFFFFFFFFF AND DUP4 PUSH20 0xFFFFFFFFFFFFFFFFFFFFFFFFFFFFFFFFFFFFFFFF AND EQ ISZERO PUSH2 0xABF JUMPI PUSH1 0x40 MLOAD PUSH32 0x8C379A000000000000000000000000000000000000000000000000000000000 DUP2 MSTORE PUSH1 0x4 ADD PUSH2 0xAB6 SWAP1 PUSH2 0x13B6 JUMP JUMPDEST PUSH1 0x40 MLOAD DUP1 SWAP2 SUB SWAP1 REVERT JUMPDEST PUSH1 0x0 PUSH20 0xFFFFFFFFFFFFFFFFFFFFFFFFFFFFFFFFFFFFFFFF AND DUP3 PUSH20 0xFFFFFFFFFFFFFFFFFFFFFFFFFFFFFFFFFFFFFFFF AND EQ ISZERO PUSH2 0xB2F JUMPI PUSH1 0x40 MLOAD PUSH32 0x8C379A000000000000000000000000000000000000000000000000000000000 DUP2 MSTORE PUSH1 0x4 ADD PUSH2 0xB26 SWAP1 PUSH2 0x12F6 JUMP JUMPDEST PUSH1 0x40 MLOAD DUP1 SWAP2 SUB SWAP1 REVERT JUMPDEST DUP1 PUSH1 0x1 PUSH1 0x0 DUP6 PUSH20 0xFFFFFFFFFFFFFFFFFFFFFFFFFFFFFFFFFFFFFFFF AND PUSH20 0xFFFFFFFFFFFFFFFFFFFFFFFFFFFFFFFFFFFFFFFF AND DUP2 MSTORE PUSH1 0x20 ADD SWAP1 DUP2 MSTORE PUSH1 0x20 ADD PUSH1 0x0 KECCAK256 PUSH1 0x0 DUP5 PUSH20 0xFFFFFFFFFFFFFFFFFFFFFFFFFFFFFFFFFFFFFFFF AND PUSH20 0xFFFFFFFFFFFFFFFFFFFFFFFFFFFFFFFFFFFFFFFF AND DUP2 MSTORE PUSH1 0x20 ADD SWAP1 DUP2 MSTORE PUSH1 0x20 ADD PUSH1 0x0 KECCAK256 DUP2 SWAP1 SSTORE POP DUP2 PUSH20 0xFFFFFFFFFFFFFFFFFFFFFFFFFFFFFFFFFFFFFFFF AND DUP4 PUSH20 0xFFFFFFFFFFFFFFFFFFFFFFFFFFFFFFFFFFFFFFFF AND PUSH32 0x8C5BE1E5EBEC7D5BD14F71427D1E84F3DD0314C0F7B2291E5B200AC8C7C3B925 DUP4 PUSH1 0x40 MLOAD PUSH2 0xC0D SWAP2 SWAP1 PUSH2 0x1436 JUMP JUMPDEST PUSH1 0x40 MLOAD DUP1 SWAP2 SUB SWAP1 LOG3 POP POP POP JUMP JUMPDEST PUSH1 0x0 PUSH2 0xC26 DUP5 DUP5 PUSH2 0x89C JUMP JUMPDEST SWAP1 POP PUSH32 0xFFFFFFFFFFFFFFFFFFFFFFFFFFFFFFFFFFFFFFFFFFFFFFFFFFFFFFFFFFFFFFFF DUP2 EQ PUSH2 0xCA0 JUMPI DUP2 DUP2 LT ISZERO PUSH2 0xC92 JUMPI PUSH1 0x40 MLOAD PUSH32 0x8C379A000000000000000000000000000000000000000000000000000000000 DUP2 MSTORE PUSH1 0x4 ADD PUSH2 0xC89 SWAP1 PUSH2 0x1316 JUMP JUMPDEST PUSH1 0x40 MLOAD DUP1 SWAP2 SUB SWAP1 REVERT JUMPDEST PUSH2 0xC9F DUP5 DUP5 DUP5 DUP5 SUB PUSH2 0xA4F JUMP JUMPDEST JUMPDEST POP POP POP POP JUMP JUMPDEST PUSH1 0x0 PUSH20 0xFFFFFFFFFFFFFFFFFFFFFFFFFFFFFFFFFFFFFFFF AND DUP4 PUSH20 0xFFFFFFFFFFFFFFFFFFFFFFFFFFFFFFFFFFFFFFFF AND EQ ISZERO PUSH2 0xD16 JUMPI PUSH1 0x40 MLOAD PUSH32 0x8C379A000000000000000000000000000000000000000000000000000000000 DUP2 MSTORE PUSH1 0x4 ADD PUSH2 0xD0D SWAP1 PUSH2 0x1396 JUMP JUMPDEST PUSH1 0x40 MLOAD DUP1 SWAP2 SUB SWAP1 REVERT JUMPDEST PUSH1 0x0 PUSH20 0xFFFFFFFFFFFFFFFFFFFFFFFFFFFFFFFFFFFFFFFF AND DUP3 PUSH20 0xFFFFFFFFFFFFFFFFFFFFFFFFFFFFFFFFFFFFFFFF AND EQ ISZERO PUSH2 0xD86 JUMPI PUSH1 0x40 MLOAD PUSH32 0x8C379A000000000000000000000000000000000000000000000000000000000 DUP2 MSTORE PUSH1 0x4 ADD PUSH2 0xD7D SWAP1 PUSH2 0x12D6 JUMP JUMPDEST PUSH1 0x40 MLOAD DUP1 SWAP2 SUB SWAP1 REVERT JUMPDEST PUSH2 0xD91 DUP4 DUP4 DUP4 PUSH2 0xF27 JUMP JUMPDEST PUSH1 0x0 DUP1 PUSH1 0x0 DUP6 PUSH20 0xFFFFFFFFFFFFFFFFFFFFFFFFFFFFFFFFFFFFFFFF AND PUSH20 0xFFFFFFFFFFFFFFFFFFFFFFFFFFFFFFFFFFFFFFFF AND DUP2 MSTORE PUSH1 0x20 ADD SWAP1 DUP2 MSTORE PUSH1 0x20 ADD PUSH1 0x0 KECCAK256 SLOAD SWAP1 POP DUP2 DUP2 LT ISZERO PUSH2 0xE17 JUMPI PUSH1 0x40 MLOAD PUSH32 0x8C379A000000000000000000000000000000000000000000000000000000000 DUP2 MSTORE PUSH1 0x4 ADD PUSH2 0xE0E SWAP1 PUSH2 0x1336 JUMP JUMPDEST PUSH1 0x40 MLOAD DUP1 SWAP2 SUB SWAP1 REVERT JUMPDEST DUP2 DUP2 SUB PUSH1 0x0 DUP1 DUP7 PUSH20 0xFFFFFFFFFFFFFFFFFFFFFFFFFFFFFFFFFFFFFFFF AND PUSH20 0xFFFFFFFFFFFFFFFFFFFFFFFFFFFFFFFFFFFFFFFF AND DUP2 MSTORE PUSH1 0x20 ADD SWAP1 DUP2 MSTORE PUSH1 0x20 ADD PUSH1 0x0 KECCAK256 DUP2 SWAP1 SSTORE POP DUP2 PUSH1 0x0 DUP1 DUP6 PUSH20 0xFFFFFFFFFFFFFFFFFFFFFFFFFFFFFFFFFFFFFFFF AND PUSH20 0xFFFFFFFFFFFFFFFFFFFFFFFFFFFFFFFFFFFFFFFF AND DUP2 MSTORE PUSH1 0x20 ADD SWAP1 DUP2 MSTORE PUSH1 0x20 ADD PUSH1 0x0 KECCAK256 PUSH1 0x0 DUP3 DUP3 SLOAD PUSH2 0xEAA SWAP2 SWAP1 PUSH2 0x1488 JUMP JUMPDEST SWAP3 POP POP DUP2 SWAP1 SSTORE POP DUP3 PUSH20 0xFFFFFFFFFFFFFFFFFFFFFFFFFFFFFFFFFFFFFFFF AND DUP5 PUSH20 0xFFFFFFFFFFFFFFFFFFFFFFFFFFFFFFFFFFFFFFFF AND PUSH32 0xDDF252AD1BE2C89B69C2B068FC378DAA952BA7F163C4A11628F55A4DF523B3EF DUP5 PUSH1 0x40 MLOAD PUSH2 0xF0E SWAP2 SWAP1 PUSH2 0x1436 JUMP JUMPDEST PUSH1 0x40 MLOAD DUP1 SWAP2 SUB SWAP1 LOG3 PUSH2 0xF21 DUP5 DUP5 DUP5 PUSH2 0xF2C JUMP JUMPDEST POP POP POP POP JUMP JUMPDEST POP POP POP JUMP JUMPDEST POP POP POP JUMP JUMPDEST PUSH1 0x0 DUP2 CALLDATALOAD SWAP1 POP PUSH2 0xF40 DUP2 PUSH2 0x1A57 JUMP JUMPDEST SWAP3 SWAP2 POP POP JUMP JUMPDEST PUSH1 0x0 DUP2 CALLDATALOAD SWAP1 POP PUSH2 0xF55 DUP2 PUSH2 0x1A6E JUMP JUMPDEST SWAP3 SWAP2 POP POP JUMP JUMPDEST PUSH1 0x0 PUSH1 0x20 DUP3 DUP5 SUB SLT ISZERO PUSH2 0xF71 JUMPI PUSH2 0xF70 PUSH2 0x1767 JUMP JUMPDEST JUMPDEST PUSH1 0x0 PUSH2 0xF7F DUP5 DUP3 DUP6 ADD PUSH2 0xF31 JUMP JUMPDEST SWAP2 POP POP SWAP3 SWAP2 POP POP JUMP JUMPDEST PUSH1 0x0 DUP1 PUSH1 0x40 DUP4 DUP6 SUB SLT ISZERO PUSH2 0xF9F JUMPI PUSH2 0xF9E PUSH2 0x1767 JUMP JUMPDEST JUMPDEST PUSH1 0x0 PUSH2 0xFAD DUP6 DUP3 DUP7 ADD PUSH2 0xF31 JUMP JUMPDEST SWAP3 POP POP PUSH1 0x20 PUSH2 0xFBE DUP6 DUP3 DUP7 ADD PUSH2 0xF31 JUMP JUMPDEST SWAP2 POP POP SWAP3 POP SWAP3 SWAP1 POP JUMP JUMPDEST PUSH1 0x0 DUP1 PUSH1 0x0 PUSH1 0x60 DUP5 DUP7 SUB SLT ISZERO PUSH2 0xFE1 JUMPI PUSH2 0xFE0 PUSH2 0x1767 JUMP JUMPDEST JUMPDEST PUSH1 0x0 PUSH2 0xFEF DUP7 DUP3 DUP8 ADD PUSH2 0xF31 JUMP JUMPDEST SWAP4 POP POP PUSH1 0x20 PUSH2 0x1000 DUP7 DUP3 DUP8 ADD PUSH2 0xF31 JUMP JUMPDEST SWAP3 POP POP PUSH1 0x40 PUSH2 0x1011 DUP7 DUP3 DUP8 ADD PUSH2 0xF46 JUMP JUMPDEST SWAP2 POP POP SWAP3 POP SWAP3 POP SWAP3 JUMP JUMPDEST PUSH1 0x0 DUP1 PUSH1 0x40 DUP4 DUP6 SUB SLT ISZERO PUSH2 0x1032 JUMPI PUSH2 0x1031 PUSH2 0x1767 JUMP JUMPDEST JUMPDEST PUSH1 0x0 PUSH2 0x1040 DUP6 DUP3 DUP7 ADD PUSH2 0xF31 JUMP JUMPDEST SWAP3 POP POP PUSH1 0x20 PUSH2 0x1051 DUP6 DUP3 DUP7 ADD PUSH2 0xF46 JUMP JUMPDEST SWAP2 POP POP SWAP3 POP SWAP3 SWAP1 POP JUMP JUMPDEST PUSH1 0x0 PUSH1 0x20 DUP3 DUP5 SUB SLT ISZERO PUSH2 0x1071 JUMPI PUSH2 0x1070 PUSH2 0x1767 JUMP JUMPDEST JUMPDEST PUSH1 0x0 PUSH2 0x107F DUP5 DUP3 DUP6 ADD PUSH2 0xF46 JUMP JUMPDEST SWAP2 POP POP SWAP3 SWAP2 POP POP JUMP JUMPDEST PUSH2 0x1091 DUP2 PUSH2 0x164F JUMP JUMPDEST DUP3 MSTORE POP POP JUMP JUMPDEST PUSH2 0x10A0 DUP2 PUSH2 0x1661 JUMP JUMPDEST DUP3 MSTORE POP POP JUMP JUMPDEST PUSH1 0x0 PUSH2 0x10B1 DUP3 PUSH2 0x146C JUMP JUMPDEST PUSH2 0x10BB DUP2 DUP6 PUSH2 0x1477 JUMP JUMPDEST SWAP4 POP PUSH2 0x10CB DUP2 DUP6 PUSH1 0x20 DUP7 ADD PUSH2 0x16A4 JUMP JUMPDEST PUSH2 0x10D4 DUP2 PUSH2 0x176C JUMP JUMPDEST DUP5 ADD SWAP2 POP POP SWAP3 SWAP2 POP POP JUMP JUMPDEST PUSH1 0x0 PUSH2 0x10EC PUSH1 0x23 DUP4 PUSH2 0x1477 JUMP JUMPDEST SWAP2 POP PUSH2 0x10F7 DUP3 PUSH2 0x178A JUMP JUMPDEST PUSH1 0x40 DUP3 ADD SWAP1 POP SWAP2 SWAP1 POP JUMP JUMPDEST PUSH1 0x0 PUSH2 0x110F PUSH1 0x22 DUP4 PUSH2 0x1477 JUMP JUMPDEST SWAP2 POP PUSH2 0x111A DUP3 PUSH2 0x17D9 JUMP JUMPDEST PUSH1 0x40 DUP3 ADD SWAP1 POP SWAP2 SWAP1 POP JUMP JUMPDEST PUSH1 0x0 PUSH2 0x1132 PUSH1 0x1D DUP4 PUSH2 0x1477 JUMP JUMPDEST SWAP2 POP PUSH2 0x113D DUP3 PUSH2 0x1828 JUMP JUMPDEST PUSH1 0x20 DUP3 ADD SWAP1 POP SWAP2 SWAP1 POP JUMP JUMPDEST PUSH1 0x0 PUSH2 0x1155 PUSH1 0x26 DUP4 PUSH2 0x1477 JUMP JUMPDEST SWAP2 POP PUSH2 0x1160 DUP3 PUSH2 0x1851 JUMP JUMPDEST PUSH1 0x40 DUP3 ADD SWAP1 POP SWAP2 SWAP1 POP JUMP JUMPDEST PUSH1 0x0 PUSH2 0x1178 PUSH1 0x25 DUP4 PUSH2 0x1477 JUMP JUMPDEST SWAP2 POP PUSH2 0x1183 DUP3 PUSH2 0x18A0 JUMP JUMPDEST PUSH1 0x40 DUP3 ADD SWAP1 POP SWAP2 SWAP1 POP JUMP JUMPDEST PUSH1 0x0 PUSH2 0x119B PUSH1 0x19 DUP4 PUSH2 0x1477 JUMP JUMPDEST SWAP2 POP PUSH2 0x11A6 DUP3 PUSH2 0x18EF JUMP JUMPDEST PUSH1 0x20 DUP3 ADD SWAP1 POP SWAP2 SWAP1 POP JUMP JUMPDEST PUSH1 0x0 PUSH2 0x11BE PUSH1 0x25 DUP4 PUSH2 0x1477 JUMP JUMPDEST SWAP2 POP PUSH2 0x11C9 DUP3 PUSH2 0x1918 JUMP JUMPDEST PUSH1 0x40 DUP3 ADD SWAP1 POP SWAP2 SWAP1 POP JUMP JUMPDEST PUSH1 0x0 PUSH2 0x11E1 PUSH1 0x24 DUP4 PUSH2 0x1477 JUMP JUMPDEST SWAP2 POP PUSH2 0x11EC DUP3 PUSH2 0x1967 JUMP JUMPDEST PUSH1 0x40 DUP3 ADD SWAP1 POP SWAP2 SWAP1 POP JUMP JUMPDEST PUSH1 0x0 PUSH2 0x1204 PUSH1 0x20 DUP4 PUSH2 0x1477 JUMP JUMPDEST SWAP2 POP PUSH2 0x120F DUP3 PUSH2 0x19B6 JUMP JUMPDEST PUSH1 0x20 DUP3 ADD SWAP1 POP SWAP2 SWAP1 POP JUMP JUMPDEST PUSH1 0x0 PUSH2 0x1227 PUSH1 0x1B DUP4 PUSH2 0x1477 JUMP JUMPDEST SWAP2 POP PUSH2 0x1232 DUP3 PUSH2 0x19DF JUMP JUMPDEST PUSH1 0x20 DUP3 ADD SWAP1 POP SWAP2 SWAP1 POP JUMP JUMPDEST PUSH1 0x0 PUSH2 0x124A PUSH1 0x25 DUP4 PUSH2 0x1477 JUMP JUMPDEST SWAP2 POP PUSH2 0x1255 DUP3 PUSH2 0x1A08 JUMP JUMPDEST PUSH1 0x40 DUP3 ADD SWAP1 POP SWAP2 SWAP1 POP JUMP JUMPDEST PUSH2 0x1269 DUP2 PUSH2 0x168D JUMP JUMPDEST DUP3 MSTORE POP POP JUMP JUMPDEST PUSH2 0x1278 DUP2 PUSH2 0x1697 JUMP JUMPDEST DUP3 MSTORE POP POP JUMP JUMPDEST PUSH1 0x0 PUSH1 0x20 DUP3 ADD SWAP1 POP PUSH2 0x1293 PUSH1 0x0 DUP4 ADD DUP5 PUSH2 0x1088 JUMP JUMPDEST SWAP3 SWAP2 POP POP JUMP JUMPDEST PUSH1 0x0 PUSH1 0x20 DUP3 ADD SWAP1 POP PUSH2 0x12AE PUSH1 0x0 DUP4 ADD DUP5 PUSH2 0x1097 JUMP JUMPDEST SWAP3 SWAP2 POP POP JUMP JUMPDEST PUSH1 0x0 PUSH1 0x20 DUP3 ADD SWAP1 POP DUP2 DUP2 SUB PUSH1 0x0 DUP4 ADD MSTORE PUSH2 0x12CE DUP2 DUP5 PUSH2 0x10A6 JUMP JUMPDEST SWAP1 POP SWAP3 SWAP2 POP POP JUMP JUMPDEST PUSH1 0x0 PUSH1 0x20 DUP3 ADD SWAP1 POP DUP2 DUP2 SUB PUSH1 0x0 DUP4 ADD MSTORE PUSH2 0x12EF DUP2 PUSH2 0x10DF JUMP JUMPDEST SWAP1 POP SWAP2 SWAP1 POP JUMP JUMPDEST PUSH1 0x0 PUSH1 0x20 DUP3 ADD SWAP1 POP DUP2 DUP2 SUB PUSH1 0x0 DUP4 ADD MSTORE PUSH2 0x130F DUP2 PUSH2 0x1102 JUMP JUMPDEST SWAP1 POP SWAP2 SWAP1 POP JUMP JUMPDEST PUSH1 0x0 PUSH1 0x20 DUP3 ADD SWAP1 POP DUP2 DUP2 SUB PUSH1 0x0 DUP4 ADD MSTORE PUSH2 0x132F DUP2 PUSH2 0x1125 JUMP JUMPDEST SWAP1 POP SWAP2 SWAP1 POP JUMP JUMPDEST PUSH1 0x0 PUSH1 0x20 DUP3 ADD SWAP1 POP DUP2 DUP2 SUB PUSH1 0x0 DUP4 ADD MSTORE PUSH2 0x134F DUP2 PUSH2 0x1148 JUMP JUMPDEST SWAP1 POP SWAP2 SWAP1 POP JUMP JUMPDEST PUSH1 0x0 PUSH1 0x20 DUP3 ADD SWAP1 POP DUP2 DUP2 SUB PUSH1 0x0 DUP4 ADD MSTORE PUSH2 0x136F DUP2 PUSH2 0x116B JUMP JUMPDEST SWAP1 POP SWAP2 SWAP1 POP JUMP JUMPDEST PUSH1 0x0 PUSH1 0x20 DUP3 ADD SWAP1 POP DUP2 DUP2 SUB PUSH1 0x0 DUP4 ADD MSTORE PUSH2 0x138F DUP2 PUSH2 0x118E JUMP JUMPDEST SWAP1 POP SWAP2 SWAP1 POP JUMP JUMPDEST PUSH1 0x0 PUSH1 0x20 DUP3 ADD SWAP1 POP DUP2 DUP2 SUB PUSH1 0x0 DUP4 ADD MSTORE PUSH2 0x13AF DUP2 PUSH2 0x11B1 JUMP JUMPDEST SWAP1 POP SWAP2 SWAP1 POP JUMP JUMPDEST PUSH1 0x0 PUSH1 0x20 DUP3 ADD SWAP1 POP DUP2 DUP2 SUB PUSH1 0x0 DUP4 ADD MSTORE PUSH2 0x13CF DUP2 PUSH2 0x11D4 JUMP JUMPDEST SWAP1 POP SWAP2 SWAP1 POP JUMP JUMPDEST PUSH1 0x0 PUSH1 0x20 DUP3 ADD SWAP1 POP DUP2 DUP2 SUB PUSH1 0x0 DUP4 ADD MSTORE PUSH2 0x13EF DUP2 PUSH2 0x11F7 JUMP JUMPDEST SWAP1 POP SWAP2 SWAP1 POP JUMP JUMPDEST PUSH1 0x0 PUSH1 0x20 DUP3 ADD SWAP1 POP DUP2 DUP2 SUB PUSH1 0x0 DUP4 ADD MSTORE PUSH2 0x140F DUP2 PUSH2 0x121A JUMP JUMPDEST SWAP1 POP SWAP2 SWAP1 POP JUMP JUMPDEST PUSH1 0x0 PUSH1 0x20 DUP3 ADD SWAP1 POP DUP2 DUP2 SUB PUSH1 0x0 DUP4 ADD MSTORE PUSH2 0x142F DUP2 PUSH2 0x123D JUMP JUMPDEST SWAP1 POP SWAP2 SWAP1 POP JUMP JUMPDEST PUSH1 0x0 PUSH1 0x20 DUP3 ADD SWAP1 POP PUSH2 0x144B PUSH1 0x0 DUP4 ADD DUP5 PUSH2 0x1260 JUMP JUMPDEST SWAP3 SWAP2 POP POP JUMP JUMPDEST PUSH1 0x0 PUSH1 0x20 DUP3 ADD SWAP1 POP PUSH2 0x1466 PUSH1 0x0 DUP4 ADD DUP5 PUSH2 0x126F JUMP JUMPDEST SWAP3 SWAP2 POP POP JUMP JUMPDEST PUSH1 0x0 DUP2 MLOAD SWAP1 POP SWAP2 SWAP1 POP JUMP JUMPDEST PUSH1 0x0 DUP3 DUP3 MSTORE PUSH1 0x20 DUP3 ADD SWAP1 POP SWAP3 SWAP2 POP POP JUMP JUMPDEST PUSH1 0x0 PUSH2 0x1493 DUP3 PUSH2 0x168D JUMP JUMPDEST SWAP2 POP PUSH2 0x149E DUP4 PUSH2 0x168D JUMP JUMPDEST SWAP3 POP DUP3 PUSH32 0xFFFFFFFFFFFFFFFFFFFFFFFFFFFFFFFFFFFFFFFFFFFFFFFFFFFFFFFFFFFFFFFF SUB DUP3 GT ISZERO PUSH2 0x14D3 JUMPI PUSH2 0x14D2 PUSH2 0x1709 JUMP JUMPDEST JUMPDEST DUP3 DUP3 ADD SWAP1 POP SWAP3 SWAP2 POP POP JUMP JUMPDEST PUSH1 0x0 DUP1 DUP3 SWAP2 POP DUP4 SWAP1 POP JUMPDEST PUSH1 0x1 DUP6 GT ISZERO PUSH2 0x1528 JUMPI DUP1 DUP7 DIV DUP2 GT ISZERO PUSH2 0x1504 JUMPI PUSH2 0x1503 PUSH2 0x1709 JUMP JUMPDEST JUMPDEST PUSH1 0x1 DUP6 AND ISZERO PUSH2 0x1513 JUMPI DUP1 DUP3 MUL SWAP2 POP JUMPDEST DUP1 DUP2 MUL SWAP1 POP PUSH2 0x1521 DUP6 PUSH2 0x177D JUMP JUMPDEST SWAP5 POP PUSH2 0x14E8 JUMP JUMPDEST SWAP5 POP SWAP5 SWAP3 POP POP POP JUMP JUMPDEST PUSH1 0x0 PUSH2 0x153C DUP3 PUSH2 0x168D JUMP JUMPDEST SWAP2 POP PUSH2 0x1547 DUP4 PUSH2 0x1697 JUMP JUMPDEST SWAP3 POP PUSH2 0x1574 PUSH32 0xFFFFFFFFFFFFFFFFFFFFFFFFFFFFFFFFFFFFFFFFFFFFFFFFFFFFFFFFFFFFFFFF DUP5 DUP5 PUSH2 0x157C JUMP JUMPDEST SWAP1 POP SWAP3 SWAP2 POP POP JUMP JUMPDEST PUSH1 0x0 DUP3 PUSH2 0x158C JUMPI PUSH1 0x1 SWAP1 POP PUSH2 0x1648 JUMP JUMPDEST DUP2 PUSH2 0x159A JUMPI PUSH1 0x0 SWAP1 POP PUSH2 0x1648 JUMP JUMPDEST DUP2 PUSH1 0x1 DUP2 EQ PUSH2 0x15B0 JUMPI PUSH1 0x2 DUP2 EQ PUSH2 0x15BA JUMPI PUSH2 0x15E9 JUMP JUMPDEST PUSH1 0x1 SWAP2 POP POP PUSH2 0x1648 JUMP JUMPDEST PUSH1 0xFF DUP5 GT ISZERO PUSH2 0x15CC JUMPI PUSH2 0x15CB PUSH2 0x1709 JUMP JUMPDEST JUMPDEST DUP4 PUSH1 0x2 EXP SWAP2 POP DUP5 DUP3 GT ISZERO PUSH2 0x15E3 JUMPI PUSH2 0x15E2 PUSH2 0x1709 JUMP JUMPDEST JUMPDEST POP PUSH2 0x1648 JUMP JUMPDEST POP PUSH1 0x20 DUP4 LT PUSH2 0x133 DUP4 LT AND PUSH1 0x4E DUP5 LT PUSH1 0xB DUP5 LT AND OR ISZERO PUSH2 0x161E JUMPI DUP3 DUP3 EXP SWAP1 POP DUP4 DUP2 GT ISZERO PUSH2 0x1619 JUMPI PUSH2 0x1618 PUSH2 0x1709 JUMP JUMPDEST JUMPDEST PUSH2 0x1648 JUMP JUMPDEST PUSH2 0x162B DUP5 DUP5 DUP5 PUSH1 0x1 PUSH2 0x14DE JUMP JUMPDEST SWAP3 POP SWAP1 POP DUP2 DUP5 DIV DUP2 GT ISZERO PUSH2 0x1642 JUMPI PUSH2 0x1641 PUSH2 0x1709 JUMP JUMPDEST JUMPDEST DUP2 DUP2 MUL SWAP1 POP JUMPDEST SWAP4 SWAP3 POP POP POP JUMP JUMPDEST PUSH1 0x0 PUSH2 0x165A DUP3 PUSH2 0x166D JUMP JUMPDEST SWAP1 POP SWAP2 SWAP1 POP JUMP JUMPDEST PUSH1 0x0 DUP2 ISZERO ISZERO SWAP1 POP SWAP2 SWAP1 POP JUMP JUMPDEST PUSH1 0x0 PUSH20 0xFFFFFFFFFFFFFFFFFFFFFFFFFFFFFFFFFFFFFFFF DUP3 AND SWAP1 POP SWAP2 SWAP1 POP JUMP JUMPDEST PUSH1 0x0 DUP2 SWAP1 POP SWAP2 SWAP1 POP JUMP JUMPDEST PUSH1 0x0 PUSH1 0xFF DUP3 AND SWAP1 POP SWAP2 SWAP1 POP JUMP JUMPDEST PUSH1 0x0 JUMPDEST DUP4 DUP2 LT ISZERO PUSH2 0x16C2 JUMPI DUP1 DUP3 ADD MLOAD DUP2 DUP5 ADD MSTORE PUSH1 0x20 DUP2 ADD SWAP1 POP PUSH2 0x16A7 JUMP JUMPDEST DUP4 DUP2 GT ISZERO PUSH2 0x16D1 JUMPI PUSH1 0x0 DUP5 DUP5 ADD MSTORE JUMPDEST POP POP POP POP JUMP JUMPDEST PUSH1 0x0 PUSH1 0x2 DUP3 DIV SWAP1 POP PUSH1 0x1 DUP3 AND DUP1 PUSH2 0x16EF JUMPI PUSH1 0x7F DUP3 AND SWAP2 POP JUMPDEST PUSH1 0x20 DUP3 LT DUP2 EQ ISZERO PUSH2 0x1703 JUMPI PUSH2 0x1702 PUSH2 0x1738 JUMP JUMPDEST JUMPDEST POP SWAP2 SWAP1 POP JUMP JUMPDEST PUSH32 0x4E487B7100000000000000000000000000000000000000000000000000000000 PUSH1 0x0 MSTORE PUSH1 0x11 PUSH1 0x4 MSTORE PUSH1 0x24 PUSH1 0x0 REVERT JUMPDEST PUSH32 0x4E487B7100000000000000000000000000000000000000000000000000000000 PUSH1 0x0 MSTORE PUSH1 0x22 PUSH1 0x4 MSTORE PUSH1 0x24 PUSH1 0x0 REVERT JUMPDEST PUSH1 0x0 DUP1 REVERT JUMPDEST PUSH1 0x0 PUSH1 0x1F NOT PUSH1 0x1F DUP4 ADD AND SWAP1 POP SWAP2 SWAP1 POP JUMP JUMPDEST PUSH1 0x0 DUP2 PUSH1 0x1 SHR SWAP1 POP SWAP2 SWAP1 POP JUMP JUMPDEST PUSH32 0x45524332303A207472616E7366657220746F20746865207A65726F2061646472 PUSH1 0x0 DUP3 ADD MSTORE PUSH32 0x6573730000000000000000000000000000000000000000000000000000000000 PUSH1 0x20 DUP3 ADD MSTORE POP JUMP JUMPDEST PUSH32 0x45524332303A20617070726F766520746F20746865207A65726F206164647265 PUSH1 0x0 DUP3 ADD MSTORE PUSH32 0x7373000000000000000000000000000000000000000000000000000000000000 PUSH1 0x20 DUP3 ADD MSTORE POP JUMP JUMPDEST PUSH32 0x45524332303A20696E73756666696369656E7420616C6C6F77616E6365000000 PUSH1 0x0 DUP3 ADD MSTORE POP JUMP JUMPDEST PUSH32 0x45524332303A207472616E7366657220616D6F756E7420657863656564732062 PUSH1 0x0 DUP3 ADD MSTORE PUSH32 0x616C616E63650000000000000000000000000000000000000000000000000000 PUSH1 0x20 DUP3 ADD MSTORE POP JUMP JUMPDEST PUSH32 0x596F75206E65656420746F2073656C6C206174206C6561737420736F6D652074 PUSH1 0x0 DUP3 ADD MSTORE PUSH32 0x6F6B656E73000000000000000000000000000000000000000000000000000000 PUSH1 0x20 DUP3 ADD MSTORE POP JUMP JUMPDEST PUSH32 0x436865636B2074686520746F6B656E20616C6C6F77616E636500000000000000 PUSH1 0x0 DUP3 ADD MSTORE POP JUMP JUMPDEST PUSH32 0x45524332303A207472616E736665722066726F6D20746865207A65726F206164 PUSH1 0x0 DUP3 ADD MSTORE PUSH32 0x6472657373000000000000000000000000000000000000000000000000000000 PUSH1 0x20 DUP3 ADD MSTORE POP JUMP JUMPDEST PUSH32 0x45524332303A20617070726F76652066726F6D20746865207A65726F20616464 PUSH1 0x0 DUP3 ADD MSTORE PUSH32 0x7265737300000000000000000000000000000000000000000000000000000000 PUSH1 0x20 DUP3 ADD MSTORE POP JUMP JUMPDEST PUSH32 0x4E6F7420656E6F75676820746F6B656E7320696E207468652072657365727665 PUSH1 0x0 DUP3 ADD MSTORE POP JUMP JUMPDEST PUSH32 0x596F75206E65656420746F2073656E6420736F6D652065746865720000000000 PUSH1 0x0 DUP3 ADD MSTORE POP JUMP JUMPDEST PUSH32 0x45524332303A2064656372656173656420616C6C6F77616E63652062656C6F77 PUSH1 0x0 DUP3 ADD MSTORE PUSH32 0x207A65726F000000000000000000000000000000000000000000000000000000 PUSH1 0x20 DUP3 ADD MSTORE POP JUMP JUMPDEST PUSH2 0x1A60 DUP2 PUSH2 0x164F JUMP JUMPDEST DUP2 EQ PUSH2 0x1A6B JUMPI PUSH1 0x0 DUP1 REVERT JUMPDEST POP JUMP JUMPDEST PUSH2 0x1A77 DUP2 PUSH2 0x168D JUMP JUMPDEST DUP2 EQ PUSH2 0x1A82 JUMPI PUSH1 0x0 DUP1 REVERT JUMPDEST POP JUMP INVALID LOG2 PUSH5 0x6970667358 0x22 SLT KECCAK256 SWAP16 MUL DUP16 0xB4 DUP14 SUB 0x4F DUP12 0xEF 0x5F 0x2A 0x21 0xDC EXTCODESIZE CODESIZE 0xED 0xE5 0xA7 0xB7 0xBB 0xAE 0xD6 DUP1 0xED MOD 0xEC PUSH4 0xA95BC222 0xE3 PUSH5 0x736F6C6343 STOP ADDMOD SMOD STOP CALLER "
				},
				"gasEstimates": {
					"creation": {
						"codeDepositCost": "1368600",
						"executionCost": "infinite",
						"totalCost": "infinite"
					},
					"external": {
						"Buy()": "infinite",
						"CoinApprove(address,address,uint256)": "infinite",
						"GetEther()": "428",
						"_adminAddress()": "2625",
						"allowance(address,address)": "infinite",
						"approve(address,uint256)": "infinite",
						"balanceOf(address)": "2886",
						"decimals()": "366",
						"decreaseAllowance(address,uint256)": "infinite",
						"getbalancetest()": "4751",
						"increaseAllowance(address,uint256)": "infinite",
						"invest()": "230",
						"name()": "infinite",
						"sell(uint256)": "infinite",
						"symbol()": "infinite",
						"totalSupply()": "2505",
						"transfer(address,uint256)": "infinite",
						"transferFrom(address,address,uint256)": "infinite"
					}
				},
				"methodIdentifiers": {
					"Buy()": "974c86b5",
					"CoinApprove(address,address,uint256)": "6e78e23c",
					"GetEther()": "45b5a47a",
					"_adminAddress()": "5c1cb691",
					"allowance(address,address)": "dd62ed3e",
					"approve(address,uint256)": "095ea7b3",
					"balanceOf(address)": "70a08231",
					"decimals()": "313ce567",
					"decreaseAllowance(address,uint256)": "a457c2d7",
					"getbalancetest()": "320ce981",
					"increaseAllowance(address,uint256)": "39509351",
					"invest()": "e8b5e51f",
					"name()": "06fdde03",
					"sell(uint256)": "e4849b32",
					"symbol()": "95d89b41",
					"totalSupply()": "18160ddd",
					"transfer(address,uint256)": "a9059cbb",
					"transferFrom(address,address,uint256)": "23b872dd"
				}
			},
			"storageLayout": {
				"storage": [
					{
						"astId": 15,
						"contract": "BlockJobs/BlockJobsCoin.sol:BlockJobsCoin",
						"label": "_balances",
						"offset": 0,
						"slot": "0",
						"type": "t_mapping(t_address,t_uint256)"
					},
					{
						"astId": 21,
						"contract": "BlockJobs/BlockJobsCoin.sol:BlockJobsCoin",
						"label": "_allowances",
						"offset": 0,
						"slot": "1",
						"type": "t_mapping(t_address,t_mapping(t_address,t_uint256))"
					},
					{
						"astId": 23,
						"contract": "BlockJobs/BlockJobsCoin.sol:BlockJobsCoin",
						"label": "_totalSupply",
						"offset": 0,
						"slot": "2",
						"type": "t_uint256"
					},
					{
						"astId": 25,
						"contract": "BlockJobs/BlockJobsCoin.sol:BlockJobsCoin",
						"label": "_name",
						"offset": 0,
						"slot": "3",
						"type": "t_string_storage"
					},
					{
						"astId": 27,
						"contract": "BlockJobs/BlockJobsCoin.sol:BlockJobsCoin",
						"label": "_symbol",
						"offset": 0,
						"slot": "4",
						"type": "t_string_storage"
					},
					{
						"astId": 717,
						"contract": "BlockJobs/BlockJobsCoin.sol:BlockJobsCoin",
						"label": "_adminAddress",
						"offset": 0,
						"slot": "5",
						"type": "t_address"
					}
				],
				"types": {
					"t_address": {
						"encoding": "inplace",
						"label": "address",
						"numberOfBytes": "20"
					},
					"t_mapping(t_address,t_mapping(t_address,t_uint256))": {
						"encoding": "mapping",
						"key": "t_address",
						"label": "mapping(address => mapping(address => uint256))",
						"numberOfBytes": "32",
						"value": "t_mapping(t_address,t_uint256)"
					},
					"t_mapping(t_address,t_uint256)": {
						"encoding": "mapping",
						"key": "t_address",
						"label": "mapping(address => uint256)",
						"numberOfBytes": "32",
						"value": "t_uint256"
					},
					"t_string_storage": {
						"encoding": "bytes",
						"label": "string",
						"numberOfBytes": "32"
					},
					"t_uint256": {
						"encoding": "inplace",
						"label": "uint256",
						"numberOfBytes": "32"
					}
				}
			},
			"userdoc": {
				"kind": "user",
				"methods": {},
				"version": 1
			}
		}
	}
}